:020000040800F2
:10000000005000203D7500088575000885750008C2
:1000100085750008857500088575000800000000DA
:1000200000000000000000000000000085750008CE
:100030008575000800000000857500088D420008E5
:1000400085750008857500088575000885750008A8
:100050008575000885750008D1330008857500088E
:100060008575000885750008857500088575000888
:100070008575000885750008857500088575000878
:100080008575000885750008857500088575000868
:100090008575000885750008857500088575000858
:1000A000857500080135000885750008857500080C
:1000B0008575000885750008857500088575000838
:1000C0008575000885750008857500088575000828
:1000D000FD60000889770008F17800088575000840
:1000E000857500088575000885750008000000000A
:1000F0000000000000000000000000000000000000
:0C01000000000000000000005FF808F1A3
:10010C0010B5054C237833B9044B13B10448AFF345
:10011C0000800123237010BD0805002000000000A2
:10012C00408E000808B5034B1BB103490348AFF3DD
:10013C00008008BD000000000C050020408E000867
:10014C00034613F8012B002AFBD1181A013870470B
:10015C0080B500AF00F002F800BF80BD80B500AFE5
:10016C0000F002F800BF80BD80B483B000AF002364
:10017C007B6000233B603A4B1B68394A43F4803365
:10018C001360374B1B6803F400333B607B6801330F
:10019C007B603B68002B03D17B68B3F5A06FF0D17B
:1001AC002F4B1B6803F40033002B02D001233B6060
:1001BC0001E000233B603B68012B4BD1294B1B68B2
:1001CC00284A43F010031360264B1B68254A23F082
:1001DC0003031360234B1B68224A43F00203136092
:1001EC001F4B1F4A5B6853601D4B1D4A5B68536075
:1001FC001B4B5B681A4A43F480635360184B5B6873
:10020C00174A23F47C135360154B5B68144A43F470
:10021C00E8135360124B1B68114A43F08073136050
:10022C0000BF0F4B1B6803F00073002BF9D00C4B75
:10023C005B680B4A23F003035360094B5B68084A65
:10024C0043F00203536000BF054B5B6803F00C03E3
:10025C00082BF9D100BF0C37BD4680BC704700BFDE
:10026C00001002400020024080B483B000AF03466F
:10027C003960FB7197F90730002B0BDA3B68DAB267
:10028C000C49FB7903F00F03043B1201D2B20B446F
:10029C001A7609E03B68DAB2074997F90730120180
:1002AC00D2B20B4483F8002300BF0C37BD4680BC90
:1002BC00704700BF00ED00E000E100E080B582B0C7
:1002CC0000AF78607B68B3F1807F01D3012311E02C
:1002DC007B6823F07F43094A013B53600F214FF0A9
:1002EC00FF30FFF7C1FF054B00229A60034B07223A
:1002FC001A60002318460837BD4680BD10E000E0A8
:10030C0080B500AF1249134807F053FC124911484D
:10031C0007F040FC11490F4807F03CFC10490D4810
:10032C0007F038FC0F490B4807F034FC0E4909481C
:10033C0007F030FC0949074807F02CFC0B4905482D
:10034C0007F028FC0A49034807F024FC00BF80BDD5
:10035C00EC01002088070020DC010020D0010020E7
:10036C00FC010020E0010020E40100200C02002030
:10037C00E801002080B582B000AF0D490D4807F0B0
:10038C0077FC786079680C4807F013FC0B490A4835
:10039C0007F000FC0649002007F06AFC78607968D9
:1003AC00054807F0F7FB00BF0837BD4680BD00BF0E
:1003BC00588E0008D80D002008080020D00100201D
:1003CC0080B592B002AFF8607B600B46FB721346AF
:1003DC00BB72514A07F1340392E8030018600433EE
:1003EC001980002387F83E304C4A07F1200312682D
:1003FC00114619800233120C1A70102387F83D3005
:10040C00002387F83F30F97A07F134030093012376
:10041C000022F86804F070FF0346002B05D101237D
:10042C0087F83C3097F83C3072E007F1100319461E
:10043C00012004F0D7FF034687F83C3007F1100386
:10044C001946012004F0CEFF0346002B05D10223F0
:10045C0087F83C3097F83C305AE0002387F83F305F
:10046C000FE097F83F307A681A4497F83F301278CB
:10047C0040333B4403F8302C97F83F30013387F876
:10048C003F3097F83F30032BEBD907F11003194697
:10049C00012004F0E3FF0346002B05D1032387F86A
:1004AC003C3097F83C3033E007F1240307F1340279
:1004BC0092E8030018600433198007F12403063313
:1004CC001A4607F1200319889B78118093706923D1
:1004DC0087F82D3007F124030A331A4607F1340349
:1004EC00186810609B88938007F124031946032039
:1004FC0004F0B4FF0346002B05D1042387F83C30ED
:10050C0097F83C3004E0002387F83C3097F83C30F7
:10051C0018464037BD4680BD5C8E0008648E0008CE
:10052C0090B59BB000AFA54B00221A7205F020F8D5
:10053C00002006F059FB4FF4803006F009FB012037
:10054C0006F070FC4FF4E0114FF4803006F02EFBF7
:10055C00022006F059FB00233B63994B5B683B631D
:10056C00974A3B6B23F470635360954A3B6B43F49F
:10057C00A0635360924B5B68914A43F480035360D1
:10058C00012006F031FB8F4806F05AFB8D4B5B685F
:10059C008D4AA2FB03239B091846FFF78FFE8B4B5A
:1005AC0000221A708A4B1B68184605F073F804F089
:1005BC0049FA02F0EFFE0121864806F01FF90346C6
:1005CC001A46854B1A70844B1A78844B1A7002F0B9
:1005DC00C1FE03F06DFB06F0D1FF07F04FF805F0FC
:1005EC00C9FC7F4B00221A707E4B00221A7003F05C
:1005FC00ADF8F86203F0AAF8B862BB6A7B627A487D
:10060C00FFF79EFD03461946774807F00FF8774829
:10061C00FFF796FD03461946744807F007F874482F
:10062C00FFF78EFD03461946714806F0FFFFC822FE
:10063C007049714803F0C8FF00BF704B1B78DBB2E8
:10064C00002B06D080216E4806F0E6FC0346002BFA
:10065C00F3D16A4B01221A7004F054FA03461A467D
:10066C00684B1A7004F0F2FA03461A46664B1A707D
:10067C0004F018FB38623B6A002B13D0594B1B78E3
:10068C0043F00103DAB2574B1A70386A03F068F87A
:10069C00FF2004F04DFA03461A465C4B1A705C4B73
:1006AC0000221A7000BF0221554806F0B5FC034623
:1006BC00002BF8D0514B00221A70564B4FF40052BD
:1006CC001A60554B00221A60544B4FF440521A607A
:1006DC00534B4FF480521A60524B04221A70524BF7
:1006EC0001221A70514B10221A80514BFF221A70A2
:1006FC00504B00221A70504B00221A604F4BFF22B5
:10070C001A7000BF3D4B1B78DBB2002B06D080214A
:10071C003B4806F081FC0346002BF3D105F038FD75
:10072C00FF220021464807F02DFA3B4B1B68434A39
:10073C00127891B2424A184605F082FD00237B667E
:10074C0015E03F4A7B6E13441B78FF2B0CD17B6E5C
:10075C00002B09D1304B1B68334A127891B2354AC1
:10076C00184605F0DBFA05E07B6E01337B667B6E89
:10077C00FF2BE6DDFF220021314807F003FA284B5E
:10078C001B682E4A127891B22D4A184605F058FD76
:10079C0000233B6659E02A4A3B6E13441B78FF2B1F
:1007AC0050D13B6E002B4DD11D4B1B681E4A12784D
:1007BC0091B2204A184605F0B1FA49E02405002010
:1007CC000010024034050020D34D62103F0600207B
:1007DC0038030020000C0140790700207807002026
:1007EC004D07002088080020E8000020F4000020BD
:1007FC00340100204000002028000020760D00204D
:10080C00003800404E0700204F0700205007002002
:10081C0051070020780900207C0900208009002065
:10082C008409002088090020890900205E0D002021
:10083C008B0900208C090020680900206C0900201D
:10084C00240A00203B6E01333B663B6EFF2BA2DD7E
:10085C00824B00221A7000BF804B1B78DBB2002B3E
:10086C0006D080217E4806F0D7FB0346002BF3D13F
:10087C0005F080FB7B4B01221A707B4B00221A7017
:10088C000C217A4806F052FF0023FB610023FB6524
:10089C0002F05CFFF861FB69FB6502E002F056FFB9
:1008AC00F865704B1B78002BF8D1FA6DFB69D31AE5
:1008BC00B3F57A7FF2D86B4B1B78002B06D16C4BBF
:1008CC001B7843F01003DAB2694B1A70684B1B7833
:1008DC00112B00F2568101A252F823F031090008C5
:1008EC00750900088F0B00088F0B00088F0B000890
:1008FC008F0B00088F0B00088F0B00088F0B000864
:10090C008F0B00088F0B00088F0B00088F0B000853
:10091C008F0B00088F0B00088F0B00080F0A0008C4
:10092C00C10A00085348FFF70BFC0346194652480E
:10093C0006F07CFE5148FFF703FC034619464F486E
:10094C0006F074FE1C214E4806F070FE4B48FFF773
:10095C00F7FB03461946494806F068FEC822484989
:10096C00454803F031FE0CE14248FFF7E9FB034632
:10097C001946414806F05AFE4048FFF7E1FB034692
:10098C0019463E4806F052FE3E48FFF7D9FB034697
:10099C0019463C4806F04AFE02213B4806F046FE4A
:1009AC0002213A4806F042FE3948FFF7C9FB0346DC
:1009BC001946374806F03AFE0321364806F036FE53
:1009CC0000231946344806F031FE0321334806F063
:1009DC002DFE02212D4806F029FE0A21304806F092
:1009EC0025FE02212F4806F021FE0221274806F0A1
:1009FC001DFEFFF785FCC8222B491F4803F0E4FDC0
:100A0C00BFE01C48FFF79CFB03461946194806F04B
:100A1C000DFE2648FFF794FB03461946234806F0C3
:100A2C0005FE1648FFF78CFB03461946134806F0E3
:100A3C00FDFD1C21124806F0F9FD1048FFF780FB64
:100A4C00034619460D4806F0F1FDFFF793FCC8224A
:100A5C000B49174803F0B8FD93E000BF760D00205A
:100A6C000038004040060020D40D0020000000207B
:100A7C00880800204C0100208C0000206801002018
:100A8C0070000020EC010020DC010020D8010020C7
:100A9C00FC010020E0010020D4010020E401002032
:100AAC000C020020E801002088070020D80D00204F
:100ABC0008080020B548FFF743FB03461946B34826
:100ACC0006F0B4FDB248FFF73BFB03461946B048AD
:100ADC0006F0ACFDAF48FFF733FB03461946AD48B3
:100AEC0006F0A4FDAC48FFF72BFB03461946AA48B9
:100AFC0006F09CFD0221A94806F098FD0221A848A9
:100B0C0006F094FDA748FFF71BFB03461946A548C2
:100B1C0006F08CFD0321A44806F088FD002319463D
:100B2C00A24806F083FD0321A14806F07FFD0221B7
:100B3C009B4806F07BFD0A219E4806F077FD0221BA
:100B4C009D4806F073FD0221954806F06FFDFFF7F6
:100B5C0011FCFFF7D5FBC8229849994803F034FDE6
:100B6C00802003F063FC974803F010FDC02003F0D5
:100B7C005DFC954803F00AFD2121944806F056FDD2
:100B8C0000BF2121914806F051FD02F067FC02F0F4
:100B9C009FFC8F4B1B78012B10D102F093FE06218A
:100BAC008C4806F043FD7B48FFF7CAFA034619460A
:100BBC00784806F03BFD864B00221A70864B1B785A
:100BCC00002B42F07B821BE0844B1B685A1C834930
:100BDC000A60F979824AD154804B1B68804A002103
:100BEC00D1547E4B1B687F2B0ADD7E4B802219462D
:100BFC007B4806F0ADFF794B1B68013B774A1360CD
:100C0C00FB1D184606F012FE0346012BDCD02BE030
:100C1C00754B1B685A1C74490A60B979734AD154D4
:100C2C00714B1B68714A0021D1546F4B1B687F2B91
:100C3C000ADD6F4B802219466C4806F089FF6A4B1F
:100C4C001B68013B684A13606848FFF779FA034652
:100C5C001946664806F0EAFC4E48FFF771FA03465F
:100C6C0019464C4806F0E2FCBB1D184606F00CFE7B
:100C7C000346012BCCD05F495C4806F0E2FF0346EB
:100C8C00002B01F06382594BBB65584B1A785A4BB9
:100C9C001B789A4241F02A82BB6D0133BB6500235D
:100CAC007B650BE0BB6D5A1CBA651978534A7B6D9A
:100CBC0013440A461A707B6D01337B657B6D022BE6
:100CCC00F0DD4E4806F0F8FE03464D4A13604C4BDF
:100CDC001B68002B0FD14B48FFF732FA034619461D
:100CEC00484806F0A3FC2B48FFF72AFA034619469E
:100CFC00284806F09BFC424B1B68CC2B01F3E5818A
:100D0C00C92B0CDA672B01F00282672B01F3DD8112
:100D1C00652B13D0662B00F0CA8001F0D6B9C93B05
:100D2C00032B01F2D28101A252F823F02511000805
:100D3C00FD140008E5180008B52000082F48FFF73F
:100D4C00FFF9034619462D4806F070FC1148FFF7D1
:100D5C00F7F9034619460F4806F068FC07F108033B
:100D6C002249184604F048FE0346FB76FB7E032B13
:100D7C0001F2CF8101A252F823F000BF150E00083A
:100D8C00510E0008730E0008950E00084C0100204F
:100D9C00D80D002068010020EC010020DC010020AF
:100DAC00D8010020FC010020E0010020D40100202B
:100DBC00E40100200C020020E8010020880700203C
:100DCC0008080020340000206400002010010020DE
:100DDC007E070020180200207F070020CC05002091
:100DEC004805002049050020C806002044060020C4
:100DFC0045060020588E000880040020CC060020F8
:100E0C00600900205C03002007F10803184604F079
:100E1C0075FD0346B34A1360B24B1B68184604F0C9
:100E2C0039FCB148FFF78CF903461946AE4806F079
:100E3C00FDFBAE48FFF784F903461946AB4806F0B4
:100E4C00F5FB32E0AA48FFF77BF903461946A848A0
:100E5C0006F0ECFBA548FFF773F903461946A348C7
:100E6C0006F0E4FB21E0A348FFF76AF903461946B4
:100E7C00A04806F0DBFB9D48FFF762F903461946D4
:100E8C009A4806F0D3FB10E09B48FFF759F903464C
:100E9C001946994806F0CAFB9448FFF751F90346E6
:100EAC001946924806F0C2FB00BF01F032B99348D4
:100EBC00FFF746F903461946904806F0B7FB8B48F6
:100ECC00FFF73EF903461946884806F0AFFB04F0DD
:100EDC00D1FB03468A4A1360894B1B6807F1080251
:100EEC001146184604F020FC07F10803184604F0DC
:100EFC0005FD03467B4A1360BB68824A82FB0312E2
:100F0C009211DB17D21A804B83FB02139910D31763
:100F1C00C91A0B469B000B445B00D11ACBB2303381
:100F2C00DAB27A4B1A70BB68794A82FB03125211FF
:100F3C00DB17D21A744B83FB02139910D317C91AFF
:100F4C000B469B000B445B00D11ACBB23033DAB2A8
:100F5C006E4B5A70BB686C4A82FB03129210DB1703
:100F6C00D21A694B83FB02139910D317C91A0B467B
:100F7C009B000B445B00D11ACBB23033DAB2634B1B
:100F8C009A70BA68604B83FB02139910D317C91A75
:100F9C000B469B000B445B00D11ACBB23033DAB258
:100FAC005A4BDA703B7B5B4AA2FB0323DB08DBB2B8
:100FBC003033DAB2554B5A713A7B564BA3FB0213C2
:100FCC00D9080B469B000B445B00D31ADBB23033C1
:100FDC00DAB24E4B9A717B7B4E4AA2FB0323DB08A1
:100FEC00DBB23033DAB2494B1A727A7B494BA3FB32
:100FFC000213D9080B469B000B445B00D31ADBB2DF
:10100C003033DAB2414B5A72BB7B424AA2FB032308
:10101C00DB08DBB23033DAB23C4BDA72BA7B3D4BD5
:10102C00A3FB0213D9080B469B000B445B00D31A9D
:10103C00DBB23033DAB2354B1A73FB7B354AA2FB89
:10104C000323DB08DBB23033DAB2304B9A73FA7B12
:10105C00304BA3FB0213D9080B469B000B445B00DF
:10106C00D31ADBB23033DAB2284BDA733B7C294A21
:10107C00A2FB0323DB08DBB23033DAB2234B5A7406
:10108C003A7C244BA3FB0213D9080B469B000B4460
:10109C005B00D31ADBB23033DAB21C4B9A741B48A8
:1010AC00FFF74EF803461946184806F0BFFA0F48EA
:1010BC00FFF746F8034619460C4806F0B7FA0A48FB
:1010CC00FFF73EF803461946074806F0AFFA074803
:1010DC00FFF736F803461946044806F0A7FA01F064
:1010EC0019B800BF5C0900205800002068010020DE
:1010FC00700300208003002090030020CC06002009
:10110C0038030020D34D621067666666200200200B
:10111C001F85EB51CDCCCCCC1F48FFF711F8034603
:10112C0019461D4806F082FA1C48FFF709F80346D9
:10113C0019461A4806F07AFA00BF194B1B78DBB235
:10114C00002B06D08021174805F066FF0346002BC4
:10115C00F3D105F01DF8FF220021134806F012FD13
:10116C00124B1B68124A127891B20F4A184605F0BE
:10117C0067F800233B6524E00B4A3B6D13441B7856
:10118C00FF2B1BD13B6D013B074AD25C094B1A70FC
:10119C003B6D094A136017E0A00300206801002092
:1011AC00760D002000380040240A00207C09002025
:1011BC006C0900208A0900209C0900203B6D01333A
:1011CC003B653B6DFC2BD7DDB54B1B78002B0FD152
:1011DC00B448FEF7B5FF03461946B24806F026FAA6
:1011EC00B148FEF7ADFF03461946AF4806F01EFAAC
:1011FC00AB4B1B78002B00F04B81A94B1B78FC2BC5
:10120C0000F24681A64B1B7803F2FF131B011A4612
:10121C00A64B1A60FF220021A54806F0B3FC102251
:10122C000021A44806F0AEFCA04B1B68A24A118812
:10123C00A04A184605F004F89E4802F09FFE0346AB
:10124C009E4A13609D4B1B6807F108021146184615
:10125C0004F06AFABB689A4A82FB03129211DB17FC
:10126C00D21A984B83FB02139910D317C91A0B4649
:10127C009B000B445B00D11ACBB23033DAB2924BE9
:10128C001A70BB68914A82FB03125211DB17D21AF7
:10129C008C4B83FB02139910D317C91A0B469B0076
:1012AC000B445B00D11ACBB23033DAB2864B5A7096
:1012BC00BB68844A82FB03129210DB17D21A814B53
:1012CC0083FB02139910D317C91A0B469B000B44CE
:1012DC005B00D11ACBB23033DAB27B4B9A70BA685E
:1012EC00784B83FB02139910D317C91A0B469B003A
:1012FC000B445B00D11ACBB23033DAB2724BDA70DA
:10130C003B7B734AA2FB0323DB08DBB23033DAB23C
:10131C006D4B5A713A7B6E4BA3FB0213D9080B46EB
:10132C009B000B445B00D31ADBB23033DAB2664B52
:10133C009A717B7B664AA2FB0323DB08DBB230335A
:10134C00DAB2614B1A727A7B614BA3FB0213D90898
:10135C000B469B000B445B00D31ADBB23033DAB282
:10136C00594B5A72BB7B5A4AA2FB0323DB08DBB2F4
:10137C003033DAB2544BDA72BA7B554BA3FB0213FF
:10138C00D9080B469B000B445B00D31ADBB23033FD
:10139C00DAB24D4B1A73FB7B4D4AA2FB0323DB08DD
:1013AC00DBB23033DAB2484B9A73FA7B484BA3FB6F
:1013BC000213D9080B469B000B445B00D31ADBB21B
:1013CC003033DAB2404BDA733B7C414AA2FB032345
:1013DC00DB08DBB23033DAB23B4B5A743A7C3C4B11
:1013EC00A3FB0213D9080B469B000B445B00D31ADA
:1013FC00DBB23033DAB2344B9A742E4802F0DAFD99
:10140C003448FEF79DFE03461A460021324806F08A
:10141C00B9FB1A223149304806F0D3FB30492E482B
:10142C0006F0B8FB132228492E4806F0DFFB0023F8
:10143C001A462D492B4806F0D9FB2748FEF780FEAB
:10144C0003461A462449274806F0D0FB1648FEF7F7
:10145C0077FE03461A461449224806F0C7FB21487A
:10146C00FEF76EFE034619461E4806F0DFF80E48DE
:10147C00FEF766FE034619460B4806F0D7F81948E6
:10148C00FEF75EFE03461A460021164806F07AFB6C
:10149C00164B00221A7004F06DFD00F03BBE00BF2D
:1014AC008A090020180400206801002090090020FF
:1014BC00240A0020240B00205E0D00209809002037
:1014CC00D34D621067666666200200201F85EB51C3
:1014DC00CDCCCCCC24060020EC050020D400002080
:1014EC00340B0020DC080020D0010020760D0020F9
:1014FC001F48FEF725FE034619461D4806F096F8D0
:10150C001C48FEF71DFE034619461A4806F08EF8D5
:10151C0000BF194B1B78DBB2002B06D0802117487B
:10152C0005F07AFD0346002BF3D104F031FEFF22C7
:10153C000021134806F026FB124B1B68124A127846
:10154C0091B20F4A184604F07BFE0023FB6424E0A2
:10155C000B4AFB6C13441B78FF2B1BD1FB6C013B20
:10156C00074AD25C094B1A70FB6C094A136017E0EE
:10157C00BC03002068010020760D002000380040DC
:10158C00240A0020840900206C0900208A0900200C
:10159C00A0090020FB6C0133FB64FB6CFC2BD7DD3A
:1015AC00B94B1B78002B0FD1B848FEF7C9FD034689
:1015BC001946B64806F03AF8B548FEF7C1FD0346A1
:1015CC001946B34806F032F8AF4B1B78002B00F0ED
:1015DC005381AD4B1B78FC2B00F24E81AA4B1B7830
:1015EC0003F2FF231B011A46AA4B1A60FF220021AB
:1015FC00A94806F0C7FA10220021A84806F0C2FA42
:10160C00A44B1B68A64A1188A44A184604F018FE7D
:10161C00A24802F0B3FC0346A24A1360A14B1B681C
:10162C0007F108021146184604F07EF8BB689E4A82
:10163C0082FB03129211DB17D21A9C4B83FB021311
:10164C009910D317C91A0B469B000B445B00D11A97
:10165C00CBB23033DAB2964B1A70BB68954A82FB28
:10166C0003125211DB17D21A904B83FB0213991001
:10167C00D317C91A0B469B000B445B00D11ACBB293
:10168C003033DAB28A4B5A70BB68884A82FB031239
:10169C009210DB17D21A854B83FB02139910D317C8
:1016AC00C91A0B469B000B445B00D11ACBB23033EA
:1016BC00DAB27F4B9A70BA687C4B83FB0213991099
:1016CC00D317C91A0B469B000B445B00D11ACBB243
:1016DC003033DAB2764BDA703B7B774AA2FB0323CA
:1016EC00DB08DBB23033DAB2714B5A713A7B724B96
:1016FC00A3FB0213D9080B469B000B445B00D31AC7
:10170C00DBB23033DAB26A4B9A717B7B6A4AA2FB4A
:10171C000323DB08DBB23033DAB2654B1A727A7B07
:10172C00654BA3FB0213D9080B469B000B445B00D3
:10173C00D31ADBB23033DAB25D4B5A72BB7B5E4AE2
:10174C00A2FB0323DB08DBB23033DAB2584BDA727C
:10175C00BA7B594BA3FB0213D9080B469B000B44D5
:10176C005B00D31ADBB23033DAB2514B1A73FB7B0A
:10177C00514AA2FB0323DB08DBB23033DAB24C4B09
:10178C009A73FA7B4C4BA3FB0213D9080B469B00B4
:10179C000B445B00D31ADBB23033DAB2444BDA734E
:1017AC003B7C454AA2FB0323DB08DBB23033DAB2C5
:1017BC003F4B5A743A7C404BA3FB0213D9080B469F
:1017CC009B000B445B00D31ADBB23033DAB2384BDC
:1017DC009A74324802F066FC0346384A1360374B61
:1017EC001B68184602F07CFC3548FEF7A9FC034642
:1017FC001A460021324806F0C5F91A223149304800
:10180C0006F0DFF930492E4806F0C4F913222849B6
:10181C002E4806F0EBF900231A462D492B4806F00A
:10182C00E5F92748FEF78CFC03461A46244927485D
:10183C0006F0DCF91648FEF783FC03461A461449F9
:10184C00224806F0D3F92148FEF77AFC03461946E4
:10185C001E4805F0EBFE0E48FEF772FC03461946D7
:10186C000B4805F0E3FE1948FEF76AFC03461A46DE
:10187C000021164806F086F9164B00221A7004F067
:10188C0079FB00F047BC00BF8A0900203C04002013
:10189C006801002094090020240A0020240B002059
:1018AC005E0D002098090020D34D621067666666B5
:1018BC00200200201F85EB51CDCCCCCCA8090020F8
:1018CC0024060020E0000020F8090020DC0800209D
:1018DC00D0010020760D00204A48FEF731FC03466B
:1018EC001946484805F0A2FE4748FEF729FC034676
:1018FC001946454805F09AFE00BF444B1B78DBB2F5
:10190C00002B06D08021424805F086FB0346002BB5
:10191C00F3D104F03DFCFF2200213E4806F032F9E1
:10192C003D4B1B683D4A127891B23A4A184604F076
:10193C0087FC0023BB6412E0364ABB6C13441B7853
:10194C00FF2B09D1BB6C013B324AD25C344B1A7071
:10195C00BB6C344A136005E0BB6C0133BB64BB6CDD
:10196C00FC2BE9DD2E4B1B78002B0FD12E48FEF7FC
:10197C00E7FB034619462C4805F058FE2248FEF7B3
:10198C00DFFB03461946204805F050FE244B1B781C
:10199C00002B00F09D81224B1B78042B00F29881C8
:1019AC001F4B1A78214B1A702148FEF7C9FB0346CE
:1019BC001A4600211E4806F0E5F81E48FEF7C0FB4B
:1019CC0003461A461B491A4806F010F9174B1B78A8
:1019DC001C46164B1B781846FEF7B2FB03461A46FC
:1019EC002146134806F002F90748FEF7A9FB034607
:1019FC001A4605490E4806F0F9F8094B1B787B642A
:101A0C0062E100BFF803002068010020760D002081
:101A1C0000380040240A00207C0900206C090020BA
:101A2C008A0900209C09002018040020AC09002021
:101A3C00DC080020600400207B6C03F2FF131B0108
:101A4C001A46BB4B1A60FF220021BA4806F09AF8DE
:101A5C0010220021B84806F095F8B54B1B68B74A20
:101A6C001188B54A184604F0EBFBB34802F086FA2D
:101A7C000346B34A1360B24B1B6807F108021146C8
:101A8C00184603F051FEBB68AE4A82FB031292115A
:101A9C00DB17D21AAC4B83FB02139910D317C91A5C
:101AAC000B469B000B445B00D11ACBB23033DAB23D
:101ABC00A64B1A70BB68A64A82FB03125211DB17A5
:101ACC00D21AA14B83FB02139910D317C91A0B46D8
:101ADC009B000B445B00D11ACBB23033DAB29B4B78
:101AEC005A70BB68984A82FB03129210DB17D21A09
:101AFC00954B83FB02139910D317C91A0B469B0005
:101B0C000B445B00D11ACBB23033DAB28F4B9A70E4
:101B1C00BA688D4B83FB02139910D317C91A0B4665
:101B2C009B000B445B00D11ACBB23033DAB2874B3B
:101B3C00DA703B7B874AA2FB0323DB08DBB2303332
:101B4C00DAB2824B5A713A7B824BA3FB0213D9084F
:101B5C000B469B000B445B00D31ADBB23033DAB27A
:101B6C007A4B9A717B7B7B4AA2FB0323DB08DBB2AB
:101B7C003033DAB2754B1A727A7B764BA3FB0213B5
:101B8C00D9080B469B000B445B00D31ADBB23033F5
:101B9C00DAB26E4B5A72BB7B6E4AA2FB0323DB0894
:101BAC00DBB23033DAB2694BDA72BA7B694BA3FB26
:101BBC000213D9080B469B000B445B00D31ADBB213
:101BCC003033DAB2614B1A73FB7B624AA2FB0323FC
:101BDC00DB08DBB23033DAB25C4B9A73FA7B5D4BC9
:101BEC00A3FB0213D9080B469B000B445B00D31AD2
:101BFC00DBB23033DAB2554BDA733B7C554AA2FB7D
:101C0C000323DB08DBB23033DAB2504B5A743A7C24
:101C1C00504BA3FB0213D9080B469B000B445B00F3
:101C2C00D31ADBB23033DAB2484B9A74424802F022
:101C3C00C1F94948FEF784FA03461A460021474881
:101C4C0005F0A0FF1A224649444805F0BAFF454961
:101C5C00424805F09FFF13223C49434805F0C6FF5C
:101C6C0000231A464149404805F0C0FF3B48FEF7A7
:101C7C0067FA03461A4639493B4805F0B7FF3C481A
:101C8C00FEF75EFA03461A463949374805F0AEFFAF
:101C9C003548FEF755FA03461946334805F0C6FC9D
:101CAC003348FEF74DFA03461946314805F0BEFCA1
:101CBC002D48FEF745FA03461A4600212A4805F03E
:101CCC0061FF7B6C013B7B647B6C012B3FF4B4AEFE
:101CDC00284B1B78052B40F2B981264B1B78FC2B2B
:101CEC0000F2B481234B1A78234B1A701E48FEF76E
:101CFC0027FA03461A4600211B4805F043FF1F48EC
:101D0C00FEF71EFA03461A461C49174805F06EFFEB
:101D1C00194B1B781C46184B1B781846FEF710FA0B
:101D2C0003461A462146104805F060FF28E000BF24
:101D3C0090090020240A0020240B00205E0D0020B6
:101D4C0098090020D34D6210676666662002002059
:101D5C001F85EB51CDCCCCCC24060020EC0500200B
:101D6C00D4000020340B0020DC080020D00100201F
:101D7C00680100208A090020AC09002060040020C2
:101D8C00B548FEF7DDF903461A46B349B34805F0EA
:101D9C002DFFB34B1B78053BDAB2B24B1A70B04B2C
:101DAC001B7887F843304AE197F8433003F2FF136E
:101DBC001B011A46AC4B1A60FF220021AB4805F000
:101DCC00E1FE10220021AA4805F0DCFEA64B1B68A0
:101DDC00A84A1188A64A184604F032FAA44802F020
:101DEC00CDF80346A44A1360A34B1B6807F1080205
:101DFC001146184603F098FCBB68A04A82FB0312FC
:101E0C009211DB17D21A9E4B83FB02139910D31736
:101E1C00C91A0B469B000B445B00D11ACBB2303372
:101E2C00DAB2984B1A70BB68974A82FB03125211B4
:101E3C00DB17D21A924B83FB02139910D317C91AD2
:101E4C000B469B000B445B00D11ACBB23033DAB299
:101E5C008C4B5A70BB688A4A82FB03129210DB17B8
:101E6C00D21A874B83FB02139910D317C91A0B464E
:101E7C009B000B445B00D11ACBB23033DAB2814BEE
:101E8C009A70BA687E4B83FB02139910D317C91A48
:101E9C000B469B000B445B00D11ACBB23033DAB249
:101EAC00784BDA703B7B794AA2FB0323DB08DBB26D
:101EBC003033DAB2734B5A713A7B744BA3FB021377
:101ECC00D9080B469B000B445B00D31ADBB23033B2
:101EDC00DAB26C4B9A717B7B6C4AA2FB0323DB0856
:101EEC00DBB23033DAB2674B1A727A7B674BA3FBE7
:101EFC000213D9080B469B000B445B00D31ADBB2D0
:101F0C003033DAB25F4B5A72BB7B604AA2FB0323BD
:101F1C00DB08DBB23033DAB25A4BDA72BA7B5B4B8A
:101F2C00A3FB0213D9080B469B000B445B00D31A8E
:101F3C00DBB23033DAB2534B1A73FB7B534AA2FB3E
:101F4C000323DB08DBB23033DAB24E4B9A73FA7BE5
:101F5C004E4BA3FB0213D9080B469B000B445B00B2
:101F6C00D31ADBB23033DAB2464BDA733B7C474AD6
:101F7C00A2FB0323DB08DBB23033DAB2414B5A74D9
:101F8C003A7C424BA3FB0213D9080B469B000B4433
:101F9C005B00D31ADBB23033DAB23A4B9A74344862
:101FAC0002F008F83A48FEF7CBF803461A4600212F
:101FBC00384805F0E7FD1A223749364805F001FE8E
:101FCC003649344805F0E6FD13222E49234805F026
:101FDC000DFE00231A463249204805F007FE2D4815
:101FEC00FEF7AEF803461A462A491C4805F0FEFDDA
:101FFC001948FEF7A5F803461A461749174805F085
:10200C00F5FD1648FEF79CF803461946134805F0F3
:10201C000DFB1148FEF794F8034619460E4805F0DF
:10202C0005FB0E48FEF78CF803461A4600210B48B8
:10203C0005F0A8FD97F84330013B87F84330094B76
:10204C001B7897F843209A42BFF4AEAE154B002292
:10205C001A7003F08FFF5DE068010020DC0800209F
:10206C008A090020A409002090090020240A0020DD
:10207C00240B00205E0D002098090020D34D621027
:10208C0067666666200200201F85EB51CDCCCCCC58
:10209C0024060020EC050020D4000020340B002086
:1020AC00D0010020760D00206A48FEF749F803465F
:1020BC001946684805F0BAFA6748FEF741F8034636
:1020CC001946654805F0B2FA24E06448FEF738F882
:1020DC0003461946614805F0A9FA5F48FEF730F847
:1020EC00034619465C4805F0A1FA13E05C48FEF77C
:1020FC0027F8034619465A4805F098FA5648FEF751
:10210C001FF803461946544805F090FA02E000BF48
:10211C0000E000BF5348FEF713F803461946514838
:10212C0005F084FA4C48FEF70BF8034619464A486A
:10213C0005F07CFA4C4B00221A604A48FEF700F876
:10214C0003461A460021474805F01CFD47494848FC
:10215C0005F077FD0346002B00F0D5824349444837
:10216C0005F086FD424BFB6302E0FB6B0133FB6326
:10217C004049F86B05F04DFD0346002BF5D13E4868
:10218C00FDF7DEFF03461A4600213B4805F0FAFC3A
:10219C001A223A49384805F014FDF96B364805F017
:1021AC00F9FC03F067FA0346354A1360344B1B689D
:1021BC0007F108021146184603F0B6FA07F10803B6
:1021CC00184603F09BFB03462E4A13602D4B1B68ED
:1021DC002749184601F0A0FD02460B462A49C1E9E1
:1021EC000023284B1968284BD3E90023084601F03B
:1021FC0027FE00BF254B1B78DBB2002B06D08021BD
:10220C00234804F009FF0346002BF3D103F0C0FF71
:10221C00102200211F4805F0B5FC1F4B1B681F4AFC
:10222C00127891B21E4A184604F00AF80023BB63D8
:10223C003FE01B4ABB6B13441B78FF2B36D1BB6BA7
:10224C00013B174AD25C174B1A70BB6B164A1360D2
:10225C0032E000BFD80300206801002050030020AA
:10226C003C03002044060020C8060020588E0008BD
:10227C0048050020688E0008D0050020D4000020FE
:10228C00380300205C09002070090020760D002026
:10229C0000380040240B00207C0900206C09002031
:1022AC00240A00208A0900209C090020BB6B013302
:1022BC00BB63BB6BFC2BBCDDAC4B1B78FA2B41D846
:1022CC00FF220021AA4805F05DFCAA4B1B68AA4A14
:1022DC00127891B2A64A184603F0B2FFA34B1B78B2
:1022EC0003F500731B011A46A44B1A60A34B1B6821
:1022FC00A34A1188A34A184603F0BCFC9F4B1B68E9
:10230C009F4A11889F4A184603F0F2FF052004F0FB
:10231C004DF803469AB29C4B1A809B4B1B8803F0DA
:10232C000103002BF2D1914B1B780133DAB28F4BA6
:10233C001A70964B1B68964A127891B28B4A1846C3
:10234C0003F0ECFC914B1B68FC2B66D1FF220021A7
:10235C00874805F017FC874B1B68874A127891B2A7
:10236C00834A184603F06CFF884B00221A60834B9B
:10237C001B68834A1188834A184603F07BFC7F4B09
:10238C004FF400521A607D4B1B68184603F02EFD6B
:10239C007A4B1B687A4A11887A4A184603F06AFC11
:1023AC007A4B1B68184603F021FD704B00221A7003
:1023BC00764B1B68764A127891B26C4A184603F039
:1023CC00ADFC6E4B1B686E4A11886E4A184603F0C2
:1023DC0051FC6A4B1B686A4A11886A4A184603F01A
:1023EC0087FF052003F0E2FF03469AB2664B1A8082
:1023FC00654B1B8803F00103002BF2D1634B0122C8
:10240C001A605A4B01221A70604B1B68604A127892
:10241C0091B2564A184603F081FCFF220021544821
:10242C0005F0B0FB5B4B1B68534A127891B2504AD3
:10243C00184603F005FFFF2200214D4805F0A2FBD2
:10244C004E4B1B684C4A127891B2494A184603F01D
:10245C00F7FE514B00221A7003F08CFDBB684F4AFB
:10246C0082FB03129211DB17D21A4D4B83FB021322
:10247C009910D317C91A0B469B000B445B00D11A59
:10248C00CBB23033DAB2474B1A70BB68464A82FB88
:10249C0003125211DB17D21A414B83FB0213991012
:1024AC00D317C91A0B469B000B445B00D11ACBB255
:1024BC003033DAB23B4B5A70BB68394A82FB031299
:1024CC009210DB17D21A364B83FB02139910D317D9
:1024DC00C91A0B469B000B445B00D11ACBB23033AC
:1024EC00DAB2304B9A70BA682D4B83FB02139910F9
:1024FC00D317C91A0B469B000B445B00D11ACBB205
:10250C003033DAB2274BDA703B7B284AA2FB032329
:10251C00DB08DBB23033DAB2224B5A713A7B234BF5
:10252C00A3FB0213D9080B469B000B445B00D31A88
:10253C00DBB23033DAB21B4B9A717B7B1B4AA2FBAA
:10254C000323DB08DBB23033DAB2164B1A727A7B18
:10255C00164BA3FB0213D9080B469B000B445B00E4
:10256C00D31ADBB23033DAB222E000BF8A09002082
:10257C00240A0020780900206C0900209009002012
:10258C005E0D0020040A0020600D00209C09002034
:10259C008909002068090020760D0020D34D6210B7
:1025AC0067666666200200201F85EB51CDCCCCCC33
:1025BC00B74B5A72BB7BB74AA2FB0323DB08DBB2D7
:1025CC003033DAB2B24BDA72BA7BB24BA3FB0213E2
:1025DC00D9080B469B000B445B00D31ADBB230339B
:1025EC00DAB2AB4B1A73FB7BAA4AA2FB0323DB08C0
:1025FC00DBB23033DAB2A64B9A73FA7BA54BA3FB52
:10260C000213D9080B469B000B445B00D31ADBB2B8
:10261C003033DAB29E4BDA733B7C9E4AA2FB032327
:10262C00DB08DBB23033DAB2994B5A743A7C994BF3
:10263C00A3FB0213D9080B469B000B445B00D31A77
:10264C00DBB23033DAB2924B9A74802001F0EEFE9A
:10265C00914801F09BFFC02001F0E8FE8E4801F08C
:10266C0095FF00224FF448718C4802F0C3F88C4857
:10267C00FDF766FD034601337B618A4B1A687B6963
:10268C00D31A884A13607B69854A99187B69C3F110
:10269C0081031A46824805F05BFA13227C49824872
:1026AC0005F0A4FA00231A4680497F4805F09EFAEB
:1026BC007A48FDF745FD03461A4678497A4805F0F5
:1026CC0095FA7B48FDF73CFD03461A467849764857
:1026DC0005F08CFA7448FDF733FD03461946724831
:1026EC0004F0A4FF7248FDF72BFD03461946704811
:1026FC0004F09CFF6C48FDF723FD03461A460021AD
:10270C00694805F03FFA6B4B1B78012B04D0694BE1
:10271C001B78112B40F01085674B1B684CF2503224
:10272C00934240F0BF8440F2DC53644A6449002079
:10273C0002F024FA03461A46624B1A70614B1B785E
:10274C00002B00F0A584604B1B78002B40F0A0847C
:10275C005D4B01221A70594B1B785C4AA2FB032378
:10276C005B09DBB23033DAB2594B1A70534B1B781E
:10277C00484AA2FB0323DB08DAB2464BA3FB021345
:10278C00D9080B469B000B445B00D31ADBB23033E9
:10279C00DAB24F4B5A70494B1A783E4BA3FB0213DB
:1027AC00D9080B469B000B445B00D31ADBB23033C9
:1027BC00DAB2474B9A704748FDF7C2FC03461946FC
:1027CC00444804F033FF4448FDF7BAFC034619466D
:1027DC00414804F02BFF3E48FDF7B2FC0346194676
:1027EC003B4804F023FF3248FDF7AAFC0346194688
:1027FC002F4804F01BFF3949314801F0DFF803463C
:10280C001A46374B1A703748FDF79AFC034619469F
:10281C00344804F00BFF3148FDF792FC034619468F
:10282C002E4804F003FF2248FDF78AFC03461946A4
:10283C001F4804F0FBFE214B1B781946204801F081
:10284C0031F90346284A136002F014FF0346274A65
:10285C001360264B1B68244A12681146184601F077
:10286C005BFB00BF224B1B78DBB2002B06D0802118
:10287C00204804F0D1FB0346002BF3D103F088FC75
:10288C00102200211C4805F07DF91C4B1B6837E019
:10289C0020020020CDCCCCCCB4000020D0050020F0
:1028AC0048050020CC0500209C080020D001002009
:1028BC0068010020880800206C07002064070020B5
:1028CC005407002052070020510700201F85EB51B0
:1028DC00AC0100206C010020800100200C000020C5
:1028EC005307002098010020680700205C09002095
:1028FC00760D002000380040240B002084090020B5
:10290C000C4A127891B20C4A184603F099FC002339
:10291C007B631AE0084A7B6B13441B78FF2B11D1A5
:10292C007B6B013B044AD25C044B1A707B6B044AF0
:10293C0013600DE06C090020240A00208A09002095
:10294C00A00900207B6B01337B637B6BFC2BE1DDEF
:10295C00AA4B1B78FA2B47D8FF220021A84805F078
:10296C0011F9A84B1B68A84A127891B2A44A1846D0
:10297C0003F066FCA14B1B7803F540731B011A4650
:10298C00A24B1A60A14B1B68A14A1188A14A184698
:10299C0003F070F99D4B1B689D4A11889D4A18469F
:1029AC0003F0A6FC052003F001FD03469AB29A4BF6
:1029BC001A80994B1B8803F00103002BF2D18F4B2B
:1029CC001B780133DAB28D4B1A70944B1B6803F5EC
:1029DC008053924A1360914B1B68914A127891B2C2
:1029EC00864A184603F09AF98C4B1B68FC2B68D16D
:1029FC00FF220021824805F0C5F8824B1B68824AF1
:102A0C00127891B27E4A184603F01AFC834B4FF4AD
:102A1C0080521A607D4B1B687D4A11887D4A18468E
:102A2C0003F028F9794B4FF440521A607B4B1B682A
:102A3C00184603F0DBF9754B1B68754A1188754A0B
:102A4C00184603F017F9714B1B68184603F0CEF9C2
:102A5C006A4B00221A70714B1B68714A127891B242
:102A6C00664A184603F05AF9684B1B68684A118885
:102A7C00684A184603F0FEF8644B1B68644A1188D8
:102A8C00644A184603F034FC052003F08FFC03461F
:102A9C009AB2614B1A80604B1B8803F00103002B28
:102AAC00F2D15E4B41F201021A60544B01221A70B2
:102ABC005A4B1B685A4A127891B2504A184603F086
:102ACC002DF9FF2200214E4805F05CF8554B1B6890
:102ADC004D4A127891B24A4A184603F0B1FBFF22D4
:102AEC000021474805F04EF8484B1B68464A1278BF
:102AFC0091B2434A184603F0A3FB4B4B00221A70C9
:102B0C0003F038FA494B1B685B0A494AA2FB0323C2
:102B1C00DB09DBB23033DAB2464B1A70434B1B681D
:102B2C00454AA2FB0323590E444BA3FB0123DA08AD
:102B3C0013469B0013445B00CA1AD3B23033DAB28B
:102B4C003C4B5A70394B1B683D4AA2FB0323990D31
:102B5C003A4BA3FB0123DA0813469B0013445B009A
:102B6C00CA1AD3B23033DAB2324B9A702F4B1B687D
:102B7C00344AA2FB0323990C304BA3FB0123DA0844
:102B8C0013469B0013445B00CA1AD3B23033DAB23B
:102B9C00284BDA70254B1B685B092B4AA2FB0323DD
:102BAC00D909264BA3FB0123DA0813469B001344D7
:102BBC005B00CA1AD3B23033DAB21E4B1A711B4BFC
:102BCC001B68224AA2FB0323590B1C4BA3FB0123BA
:102BDC00DA0813469B0013445B00CA1AD3B2303395
:102BEC00DAB2144B5A71114B1B68194AA2FB03231E
:102BFC009909124BA3FB01232CE000BF8A0900208A
:102C0C00240A0020800900206C090020940900206F
:102C1C005E0D0020140A0020600D0020A009002089
:102C2C008909002084090020760D00206807002007
:102C3C00834B0400B0010020893BE655CDCCCCCCB5
:102C4C006BCA5F6B83DE1B43C55A7C0A5917B7D11D
:102C5C00D34D6210DA0813469B0013445B00CA1A6A
:102C6C00D3B23033DAB2574B9A71574B1B68574A71
:102C7C00A2FB03235909564BA3FB0123DA08134685
:102C8C009B0013445B00CA1AD3B23033DAB24D4BFB
:102C9C00DA714D4B1B684E4AA2FB0323D9084C4BEF
:102CAC00A3FB0123DA0813469B0013445B00CA1AEA
:102CBC00D3B23033DAB2434B1A72434B1968444BDC
:102CCC00A3FB0123DA0813469B0013445B00CA1ACA
:102CDC00D3B23033DAB23B4B5A723E48FDF730FA7E
:102CEC00034619463B4804F0A1FC3648FDF728FA88
:102CFC0003461946334804F099FC3748FDF720FA8F
:102D0C0003461946344804F091FC802001F08EFBF8
:102D1C00324801F03BFCC02001F088FB2F4801F049
:102D2C0035FC2F48FDF70CFA03461A4600212C48B7
:102D3C0004F028FF1A222B49294804F042FF2149AC
:102D4C00274804F027FF00224FF44871244801F073
:102D5C00E5FD254B1978254B0122254802F0B6FBE1
:102D6C0003461A46234B1A70224B1B78022B47D072
:102D7C00022B56DC002B02D0012B11D051E01E4847
:102D8C00FDF7DEF9034619461B4804F04FFC1248C8
:102D9C00FDF7D6F9034619460F4804F047FC40E00E
:102DAC001648FDF7CDF903461946144804F03EFCCD
:102DBC000948FDF7C5F903461946074804F036FCE7
:102DCC002FE000BFB0010020680700201F85EB51E9
:102DDC00CDCCCCCCBC01002068010020B40000207C
:102DEC0008060020E0000020640700208C0800206A
:102DFC0054070020810700203802002070020020B8
:102E0C00B448FDF79DF903461946B24804F00EFC90
:102E1C00B148FDF795F903461946AF4804F006FC96
:102E2C0000BFAE48FDF78CF903461946AB4804F0D9
:102E3C00FDFBAB4A1021AB4800F066FE2F21A848E1
:102E4C0004F0F4FBA448FDF77BF903461946A248AD
:102E5C0004F0ECFB02F00EFC0346A34A1360A24BF9
:102E6C001B6807F108021146184602F05DFC07F1D9
:102E7C000803184602F042FD03469C4A1360BB68E7
:102E8C009B4A82FB03129211DB17D21A994B83FBDC
:102E9C0002139910D317C91A0B469B000B445B0005
:102EAC00D11ACBB23033DAB2934B1A70BB68934A57
:102EBC0082FB03125211DB17D21A8E4B83FB0213C7
:102ECC009910D317C91A0B469B000B445B00D11AFF
:102EDC00CBB23033DAB2884B5A70BB68854A82FB6E
:102EEC0003129210DB17D21A824B83FB0213991038
:102EFC00D317C91A0B469B000B445B00D11ACBB2FB
:102F0C003033DAB27C4B9A70BA687A4B83FB02137B
:102F1C009910D317C91A0B469B000B445B00D11AAE
:102F2C00CBB23033DAB2744BDA703B7B744AA2FB0F
:102F3C000323DB08DBB23033DAB26F4B5A713A7BC6
:102F4C006F4BA3FB0213D9080B469B000B445B0091
:102F5C00D31ADBB23033DAB2674B9A717B7B684A97
:102F6C00A2FB0323DB08DBB23033DAB2624B1A72FA
:102F7C007A7B634BA3FB0213D9080B469B000B44D3
:102F8C005B00D31ADBB23033DAB25B4B5A72BB7BC9
:102F9C005B4AA2FB0323DB08DBB23033DAB2564BBD
:102FAC00DA72BA7B564BA3FB0213D9080B469B0073
:102FBC000B445B00D31ADBB23033DAB24E4B1A73CC
:102FCC00FB7B4F4AA2FB0323DB08DBB23033DAB2C4
:102FDC00494B9A73FA7B4A4BA3FB0213D9080B4655
:102FEC009B000B445B00D31ADBB23033DAB2424B9A
:102FFC00DA733B7C424AA2FB0323DB08DBB230339F
:10300C00DAB23D4B5A743A7C3D4BA3FB0213D90800
:10301C000B469B000B445B00D31ADBB23033DAB2A5
:10302C00354B9A7413223449364804F0DFFD0023E3
:10303C001A463549334804F0D9FD3448FDF780F879
:10304C0003461A4631492F4804F0D0FD2248FDF7BB
:10305C0077F803461A4620492A4804F0C7FD294848
:10306C00FDF76EF803461946264804F0DFFA1A48B5
:10307C00FDF766F803461946174804F0D7FA2148BD
:10308C00FDF75EF803461A4600211E4804F07AFD4F
:10309C001F4B1B78002B02D11E4B00221A701E4BAB
:1030AC0000221A601C4B1B6801331B4A136001225F
:1030BC004FF44871154801F031FC3DE0174B1B787B
:1030CC00002B2FD1C02001F0B1F9154801F05EFAA8
:1030DC0032E000BFD8020020680100202403002049
:1030EC00F40200208C080020380300205C0900202A
:1030FC00D34D621067666666200200201F85EB5177
:10310C00CDCCCCCC1C090020D0010020080600201E
:10311C0052070020510700206C0700207007002088
:10312C00200000206C4B1B78403BDBB2184601F0B2
:10313C007DF96A4801F02AFA694B1B78002B1AD0EA
:10314C00684B1B78012B16D16748FCF7F9FF034637
:10315C001A460021644804F015FD1A22634962489E
:10316C0004F02FFD00224FF448715F4801F042FB40
:10317C005C4B00221A7001224FF448715A4801F03E
:10318C0039FB574B1B78092B7DF403AD00F020FD68
:10319C005748FCF7D5FF03461946554804F046FA44
:1031AC000421544804F042FA5348FCF7C9FF034683
:1031BC001946514804F03AFA504B19784D4B0122FC
:1031CC004F48FDF7FDF803461A464E4B1A704D4B0F
:1031DC001B78042B61D801A252F823F0FD310008B2
:1031EC001F320008413200086332000885320008A3
:1031FC004548FCF7A5FF03461946434804F016FA68
:10320C003D48FCF79DFF034619463B4804F00EFA77
:10321C0043E03E48FCF794FF034619463B4804F054
:10322C0005FA3548FCF78CFF03461946324804F082
:10323C00FDF932E03648FCF783FF03461946344863
:10324C0004F0F4F92C48FCF77BFF034619462A4896
:10325C0004F0ECF921E02F48FCF772FF0346194605
:10326C002C4804F0E3F92448FCF76AFF034619469E
:10327C00214804F0DBF910E02748FCF761FF034616
:10328C001946254804F0D2F91B48FCF759FF0346B0
:10329C001946194804F0CAF900BF114B00221A70E4
:1032AC001148FCF74DFF03461A4600210E4804F066
:1032BC0069FC1A2219490C4804F083FC00224FF4D3
:1032CC004871094801F096FAC02001F0AFF8144893
:1032DC0001F05CF9FDF75DBC5C070020D00100201B
:1032EC007F07002080070020D0050020C8000020A8
:1032FC00980100206007002068010020640700206E
:10330C005407002082070020540200207002002085
:10331C00D802002094020020B002002034000020CB
:10332C006400002080B483B000AF0346FB71FB79CE
:10333C0003F01F03012202FA03F1054A97F9073043
:10334C005B0942F8231000BF0C37BD4680BC7047A8
:10335C0000E100E080B582B000AF0121042003F051
:10336C0025FD0223BB711023FB714FF48053BB80EE
:10337C003B1D1946064803F085F900224FF4805195
:10338C00034803F054FA00BF0837BD4680BD00BFA8
:10339C000008014080B582B000AF0121082003F085
:1033AC0005FD0223BB714823FB710123BB803B1D30
:1033BC001946034803F066F900BF0837BD4680BDC7
:1033CC00000C014080B500AF012003F033F9034637
:1033DC00012B34D11B4B1B78022B17D11A4B00221B
:1033EC00DA701A4B08225A71174803F0C1F8184BBF
:1033FC0000221A80134B01221A7000F069F8012286
:10340C004FF48051134803F012FA15E00E4B0022D2
:10341C00DA700E4B0C225A710B4803F0A9F80C4BC6
:10342C001A880D4B1A80074B02221A7000224FF497
:10343C008051084803F0FBF9012003F015F900BF97
:10344C0080BD00BF79070020500B0020480B0020E6
:10345C0076070020000801407A07002080B584B070
:10346C0000AF01214FF4006003F0A0FC41F61F43B4
:10347C00BB800023FB804FF4FA733B8100237B81DC
:10348C0000233B733B1D19460F4803F0E1FD0F4B26
:10349C0019221A700D4B00225A700C4B01229A7093
:1034AC000A4B0022DA70094803F062F8002201216D
:1034BC00054803F068FE0021034803F045FE00BFF9
:1034CC001037BD4680BD00BF002C0140440B0020CE
:1034DC0080B500AF01220121054803F054FE012103
:1034EC00034803F031FE1920FFF71CFF00BF80BD1D
:1034FC00002C014080B500AF0121874803F066FE27
:10350C000346002B00F005810121844803F076F975
:10351C000346002B2DD1824B1B78012B06D1814BFE
:10352C0000221A70804B00221A80EAE07E4B1B8826
:10353C0001339AB27C4B1A807B4B1B883C2B40F09E
:10354C00E0807A4B1B78002B40F0DB80774B01221C
:10355C001A70774B01221A70764B00221A70764B38
:10356C0000221A70754B00221A70754B00221A80BB
:10357C00C7E06B4B1B78002B31D16A4B01221A70C0
:10358C00694B00221A806F4B00221A80674B1B7804
:10359C00013B072B00F2B580664B1B780133DAB286
:1035AC00644B1A70634B1B780F2B02D9614B0022B2
:1035BC001A70604B1B78092B08D85E4B1B785E4A3F
:1035CC0012783033D9B2604B99549AE0594B1B782E
:1035DC00594A12783733D9B25B4B995491E0594B15
:1035EC001B8801339AB2574B1A80564B1B88B3F584
:1035FC00167F05D14D4B00221A70524B00221A80B7
:10360C004F4B1B8801339AB24D4B1A804C4B1B8885
:10361C000A2B08D14A4B00221A80484B1B78DB43FB
:10362C00DAB2464B1A70404B1B8801339AB23E4BB0
:10363C001A803D4B1B88642B62D13C4B1B78013BA1
:10364C00072B5ED801A252F823F000BF7936000890
:10365C008D360008A1360008B5360008C9360008BA
:10366C00DD360008F1360008053700082F4B022222
:10367C001A70304B00221A702F4B01221A7040E046
:10368C002A4B03221A702B4B00221A702A4B02224F
:10369C001A7036E0254B04221A70264B00221A7041
:1036AC00254B03221A702CE0204B05221A70214B5B
:1036BC0000221A70204B04221A7022E01B4B0622A7
:1036CC001A701C4B00221A701B4B05221A7018E042
:1036DC00164B07221A70174B00221A70164B062233
:1036EC001A700EE0114B08221A70124B00221A703D
:1036FC00114B07221A7004E00C4B09221A7000E0DF
:10370C0000BF084B1A78064B1A700121024803F0CF
:10371C0086FD00BF80BD00BF002C0140000C0140A5
:10372C007807002079070020760700207F0700200B
:10373C00800700205B0700205C070020700700203A
:10374C0074070020720700202000002080B400AF16
:10375C00024B1B681846BD4680BC7047540B0020BA
:10376C0080B483B000AF78607B681B0EDAB24B4B31
:10377C001A707B681B0CDAB2494B1A707B681B0AF7
:10378C00DAB2484B1A707B68DAB2474B1A70434B6B
:10379C001B781B09DBB23033DAB2444B1A703F4B47
:1037AC001B7803F00F03DBB23033DAB23F4B5A70A5
:1037BC003B4B1B783E4AA2FB03235B09DBB2303345
:1037CC00DAB23C4B1A70364B1B783B4AA2FB0323F4
:1037DC00DB08DAB2384BA3FB0213D9080B469B006B
:1037EC000B445B00D31ADBB23033DAB2314B5A7074
:1037FC002B4B1A78304BA3FB0213D9080B469B00BA
:10380C000B445B00D31ADBB23033DAB2294B9A701B
:10381C00244B1B78264AA2FB03235B09DBB2303313
:10382C00DAB2264B1A701F4B1B78234AA2FB0323D8
:10383C00DB08DAB2204BA3FB0213D9080B469B0022
:10384C000B445B00D31ADBB23033DAB21B4B5A7029
:10385C00144B1A78184BA3FB0213D9080B469B0088
:10386C000B445B00D31ADBB23033DAB2134B9A70D1
:10387C000D4B1B781B09DBB23033DAB2104B1A70CC
:10388C00094B1B7803F00F03DBB23033DAB20C4B6D
:10389C005A7000BF0C37BD4680BC704783070020B0
:1038AC00840700208507002086070020DC0100200B
:1038BC001F85EB51E0010020CDCCCCCCE4010020E5
:1038CC00E801002080B400AF364B1B88364AA2FBBF
:1038DC0003235B0B9AB2354BA3FB0213D9080B469F
:1038EC009B000B445B00D31A9BB2DBB23033DAB2D1
:1038FC002F4B1A702B4B1B882E4AA2FB03239B09C0
:10390C009AB22A4BA3FB0213D9080B469B000B441B
:10391C005B00D31A9BB2DBB23033DAB2244B5A7051
:10392C00204B1B88244AA2FB03235B099AB21F4B32
:10393C00A3FB0213D9080B469B000B445B00D31A64
:10394C009BB2DBB23033DAB2194B9A70154B1B8831
:10395C00164AA2FB0323DB089AB2144BA3FB0213F7
:10396C00D9080B469B000B445B00D31A9BB2DBB20D
:10397C003033DAB20E4BDA700A4B1A880B4BA3FBBE
:10398C000213D9080B469B000B445B00D31A9BB265
:10399C00DBB23033DAB2064B1A7100BFBD4680BCC5
:1039AC00704700BF7C0700205917B7D1CDCCCCCCC9
:1039BC0018020020D34D62101F85EB5180B485B0E6
:1039CC0000AF786039600023FB730023BB730023C6
:1039DC007B7300233B730023BB735AE0BB7B7A6879
:1039EC0013441B781B097B737B7B092B03D87B7BD4
:1039FC0030337B7308E07B7B092B05D97B7B0F2B4A
:103A0C0002D87B7B37337B73BB7B7A6813441B7880
:103A1C0003F00F033B733B7B092B03D83B7B303309
:103A2C003B7308E03B7B092B05D93B7B0F2B02D862
:103A3C003B7B37333B73FB7B3A68134430221A7061
:103A4C00FB7B0133FB73FB7B3A68134478221A70BF
:103A5C00FB7B0133FB73FB7B3A6813447A7B1A7054
:103A6C00FB7B0133FB73FB7B3A6813443A7B1A7084
:103A7C00FB7B0133FB73FB7B112B07D8FB7B3A6879
:103A8C00134420221A70FB7B0133FB73BB7B013385
:103A9C00BB73BB7B032BA1D9012318461437BD463E
:103AAC0080BC704780B485B000AF78600B46FB706B
:103ABC000023FB60FB78042B20D17B681B78FB6018
:103ACC00FB681B02FB607B6801331B781A46FB68A2
:103ADC001343FB60FB681B02FB607B6802331B78A3
:103AEC001A46FB681343FB60FB681B02FB607B6898
:103AFC0003331B781A46FB681343FB60FB681846BC
:103B0C001437BD4680BC704780B487B000AFF860F6
:103B1C000B467A60FB720023FB750023BB750023F8
:103B2C007B7500233B750023BB7547E0BB7DFA68B2
:103B3C0013441B781B097B757B7D092B03D87B7D7C
:103B4C0030337B7508E07B7D092B05D97B7D0F2BF2
:103B5C0002D87B7D37337B75BB7DFA6813441B78A9
:103B6C0003F00F033B753B7D092B03D83B7D3033B2
:103B7C003B7508E03B7D092B05D93B7D0F2B02D80B
:103B8C003B7D37333B75FB7D7A6813447A7D1A7025
:103B9C00FB7D0133FB75FB7D7A6813443A7D1A700B
:103BAC00FB7D0133FB75FB7D7A68134420221A7070
:103BBC00FB7D0133FB75BB7D0133BB75BA7DFB7A95
:103BCC009A42B3D3012318461C37BD4680BC7047BC
:103BDC0080B483B000AF0023FB710023BB710023C2
:103BEC007B7100237B7155E0FB792F4AD35C2F2B23
:103BFC000AD9FB792C4AD35C392B05D8FB792A4A94
:103C0C00D35C303BBB710EE0FB79274AD35C402B75
:103C1C0009D9FB79244AD35C462B04D8FB79224A78
:103C2C00D35C373BBB717B79BA791201D1B21F4A95
:103C3C00D154FB790133FB71FB791B4AD35C2F2BDD
:103C4C000AD9FB79184AD35C392B05D8FB79164A6B
:103C5C00D35C303BBB710EE0FB79134AD35C402B39
:103C6C0009D9FB79104AD35C462B04D8FB790E4A50
:103C7C00D35C373BBB717B790C4AD15C7B79BA79CD
:103C8C000A43D1B2094AD154FB790133FB717B79D8
:103C9C0001337B717B79032BA6D900BF00BF0C3796
:103CAC00BD4680BC704700BF20000020600700208C
:103CBC0080B582B000AF0121082003F077F8012114
:103CCC004FF4804003F090F80323BB711823FB7171
:103CDC004FF42043BB803B1D19460E4802F0D2FC2A
:103CEC000323BB711023FB714FF48853BB803B1D26
:103CFC001946084802F0C6FC4823FB714FF4804378
:103D0C00BB803B1D1946034802F0BCFC00BF0837C2
:103D1C00BD4680BD000C01402DE9B00387B000AF5B
:103D2C00786039603B683B613B681B780A2B02D199
:103D3C003B6901333B610023FB600BE03B695A1C80
:103D4C003A6119783C4AFB6813440A461A70FB68BE
:103D5C000133FB60FB680C2BF0DD0023BB605EE0E5
:103D6C00BB68002B14D1344ABB6813441B78303B1E
:103D7C00FB75FB7D1B01FB75BB6801332E4AD35CC5
:103D8C00303BDBB25AB297F9173013435BB2FB7579
:103D9C00BB68002B18DDBB68052B15DCBB685B0012
:103DAC00254AD35C303BFB75FB7D1B01FB75BB6867
:103DBC005B000133204AD35C303BDBB25AB297F93B
:103DCC00173013435BB2FB75BB68062B08D1BB687D
:103DDC005B00194AD35C303BFB75FB7D1B01FB750B
:103DEC00164BD3E900014FF000024FF000030B0219
:103DFC0043EA106302021149C1E90023FB7D002252
:103E0C001C4615460D4BD3E9002344EA020845EA4B
:103E1C0003090A4BC3E90089BB680133BB60BB686B
:103E2C00062B9DDD054BD3E90023104619461C37A4
:103E3C00BD46BDE8B0037047B8090020B0090020AA
:103E4C0080B485B000AFF860C7E90023FB681B0E97
:103E5C00DAB2304B1A70FB681B0CDAB22D4B5A706D
:103E6C00FB681B0ADAB22B4B9A70FB68DAB2294B4F
:103E7C00DA70D7E900014FF000024FF000030A0C92
:103E8C000023D2B2234B1A71D7E900014FF0000284
:103E9C004FF000030A0A0023D2B21E4B5A71D7E925
:103EAC0000014FF000024FF000030A000023D2B2D1
:103EBC00184B9A71D7E900014FF000024FF0000344
:103ECC00020E42EA01220B0ED2B2124BDA71D7E982
:103EDC0000014FF000024FF00003020C42EA0142D5
:103EEC000B0CD2B20B4B1A72D7E900014FF0000247
:103EFC004FF00003020A42EA01620B0AD2B2054BF0
:103F0C005A723A78034B9A7200BF1437BD4680BC84
:103F1C00704700BF040A002080B483B000AF786003
:103F2C0039607B681B0EDAB2134B1A707B681B0C62
:103F3C00DAB2114B5A707B681B0ADAB20E4B9A70CC
:103F4C007B68DAB20C4BDA703B681B0EDAB20A4BA8
:103F5C001A713B681B0CDAB2074B5A713B681B0A8F
:103F6C00DAB2054B9A713B68DAB2034BDA7100BFD7
:103F7C000C37BD4680BC7047140A002080B485B055
:103F8C0000AF78607B681B781A067B6801331B785E
:103F9C001B041A437B6802331B781B0213437A6899
:103FAC00033212781343FB60FB6818461437BD4686
:103FBC0080BC704780B400AF384B1B791B09DBB257
:103FCC003033DAB2364B1A70344B1B7903F00F03D3
:103FDC00DBB23033DAB2324B5A70304B5B791B099F
:103FEC00DBB23033DAB22E4B9A702C4B5B7903F088
:103FFC000F03DBB23033DAB2294BDA70274B9B79E3
:10400C001B09DBB23033DAB2254B1A71234B9B7987
:10401C0003F00F03DBB23033DAB2214B5A711F4B72
:10402C00DB791B09DBB23033DAB21D4B9A711B4BB7
:10403C00DB7903F00F03DBB23033DAB2184BDA71F1
:10404C00164B1B7A1B09DBB23033DAB2144B1A72E3
:10405C00124B1B7A03F00F03DBB23033DAB2104B86
:10406C005A720E4B5B7A1B09DBB23033DAB20C4B53
:10407C009A720A4B5B7A03F00F03DBB23033DAB27D
:10408C00074BDA72054B9B7A1B09DBB23033DAB281
:10409C00034B1A7300BFBD4680BC7047240B002035
:1040AC00340B002080B485B000AF78607B6804339B
:1040BC001B781A067B6805331B781B041A437B6834
:1040CC0006331B781B0213437A68073212781343AA
:1040DC00FB60FB6818461437BD4680BC7047000077
:1040EC0080B483B000AF78607B685B0A5A4AA2FB4D
:1040FC000323DB09DBB23033DAB2584B1A707B681E
:10410C00574AA2FB0323590E564BA3FB0123DA0893
:10411C0013469B0013445B00CA1AD3B23033DAB295
:10412C004E4B5A707B68504AA2FB0323990D4D4BA2
:10413C00A3FB0123DA0813469B0013445B00CA1A45
:10414C00D3B23033DAB2454B9A707B68474AA2FB44
:10415C000323990C434BA3FB0123DA0813469B0062
:10416C0013445B00CA1AD3B23033DAB23B4BDA7069
:10417C007B685B093E4AA2FB0323D909394BA3FB9D
:10418C000123DA0813469B0013445B00CA1AD3B20E
:10419C003033DAB2314B1A717B68364AA2FB0323F7
:1041AC00590B304BA3FB0123DA0813469B00134435
:1041BC005B00CA1AD3B23033DAB2284B5A717B681F
:1041CC002D4AA2FB03239909264BA3FB0123DA08F2
:1041DC0013469B0013445B00CA1AD3B23033DAB2D5
:1041EC001E4B9A717B68254AA2FB032359091D4B70
:1041FC00A3FB0123DA0813469B0013445B00CA1A85
:10420C00D3B23033DAB2154BDA717B68154AA2FBA4
:10421C000323D908134BA3FB0123DA0813469B0095
:10422C0013445B00CA1AD3B23033DAB20B4B1A7296
:10423C0079680C4BA3FB0123DA0813469B0013444B
:10424C005B00CA1AD3B23033DAB2044B5A7200BFD5
:10425C000C37BD4680BC7047834B0400F809002026
:10426C00893BE655CDCCCCCC6BCA5F6B83DE1B4354
:10427C00C55A7C0A5917B7D1D34D62101F85EB5123
:10428C0080B400AF084B1B68002B04D0064B1B6896
:10429C00013B054A1360054B1B680133034A13604D
:1042AC0000BFBD4680BC704730050020540B002079
:1042BC0080B483B000AF7860064A7B68136000BF9F
:1042CC00044B1B68002BFBD100BF00BF0C37BD4655
:1042DC0080BC70473005002080B586B000AF01214E
:1042EC00082002F063FD0223BB751823FB754023E5
:1042FC00BB8207F1140319461A4802F0C3F90121D5
:10430C00082002F053FD0223BB751C23FB75802390
:10431C00BB8207F114031946124802F0B3F90121CC
:10432C004FF4001002F060FD4FF48063FB814FF4FA
:10433C0080433B824CF250337B604BF6FF737B81A6
:10434C0000233B810123BB813B1D1946064802F02B
:10435C0085FA0121044802F043FB00BF1837BD4623
:10436C0080BD00BF000C01400054004080B584B0FB
:10437C0000AF78600B46FB701346BB704FF47A733A
:10438C00FB600121786802F04AFB4FF47A73FB6002
:10439C0006E0FB685A1EFA60002B01D1FF233AE0BD
:1043AC001F49786802F0A5FB0346002BF1D0FB787F
:1043BC0000221946786802F07FFB4FF47A73FB6099
:1043CC0006E0FB685A1EFA60002B01D1FF2322E0A5
:1043DC001449786802F08DFB0346002BF1D0BB78B2
:1043EC001946786802F059FB4FF47A73FB6006E0CB
:1043FC00FB685A1EFA60002B01D1FF230BE00A491F
:10440C00786802F076FB0346002BF1D00121786826
:10441C0002F024FB002318461037BD4680BD00BFB8
:10442C0001000300800007008400070080B584B001
:10443C0000AF0346FB71FB7923F00F03FB73FB7991
:10444C001B01BB73FB7B23F00703DBB21A464E2127
:10445C001C48FFF78BFFFB7B43F00203DBB223F01E
:10446C000503DBB21A464E211648FFF77FFFFB7B94
:10447C0023F00703DBB21A464E211248FFF776FFF2
:10448C00BB7B23F00703DBB21A464E210D48FFF726
:10449C006DFFBB7B43F00203DBB223F00503DBB201
:1044AC001A464E210748FFF761FFBB7B23F0070339
:1044BC00DBB21A464E210348FFF758FF00BF1037F6
:1044CC00BD4680BD0054004080B584B000AF0346AB
:1044DC00FB71FB7923F00F03FB73FB791B01BB739F
:1044EC0097F90F3023F007035BB243F004035BB280
:1044FC00DBB21A464E212448FFF738FFFB7B43F012
:10450C000603DBB223F00103DBB21A464E211E4830
:10451C00FFF72CFF97F90F3023F007035BB243F042
:10452C0004035BB2DBB21A464E211748FFF71EFF9D
:10453C0097F90E3023F007035BB243F004035BB230
:10454C00DBB21A464E211048FFF710FFBB7B43F03D
:10455C000603DBB223F00103DBB21A464E210A48F4
:10456C00FFF704FF97F90E3023F007035BB243F01B
:10457C0004035BB2DBB21A464E210348FFF7F6FE8A
:10458C0000BF1037BD4680BD0054004090B585B0CB
:10459C0000AF78600023FB7309E0FB7B7A6813445F
:1045AC001B781846FFF790FFFB7B0133FB73FC7BFA
:1045BC007868FBF7C5FD03469C42EED300BF00BFF5
:1045CC001437BD4690BD000080B58AB000AFF860CE
:1045DC00B9607A60FFF7BAF803467F4A13607F4BE5
:1045EC0000221A70002387F826307D4B00221A70A7
:1045FC007C4B00221A70002387F827301CE0784887
:10460C00FBF79EFD03461A46754B134476491A4632
:10461C000B461B8813807348FBF792FD03461A4622
:10462C00704B134470491A460B461B88138097F83D
:10463C002730013387F8273097F82730062BDED93F
:10464C00F968674803F0A6FAB968664803F0A2FA5D
:10465C00002387F827301CE06148FBF771FD034607
:10466C001A465F4B134460491A460B461B8813804D
:10467C005C48FBF765FD03461A465A4B13445A49EE
:10468C001A460B461B88138097F82730013387F89E
:10469C00273097F82730062BDED95148FBF750FD11
:1046AC000346DAB2514B1A704E48FBF749FD0346EC
:1046BC00DAB24F4B1A707AE0FFF748F80246464BD5
:1046CC001B68D31A7A689A4271D2FFF73FF80346F7
:1046DC00414A1360414B1B780133DAB23F4B1A70DD
:1046EC0097F82620414B1B78013B9A4229DA00238C
:1046FC0087F8273019E0394B1B781A4697F8273082
:10470C0013443A4A127893FBF2F101FB02F29A1A23
:10471C0097F8273032498A5C28333B4403F80C2C39
:10472C0097F82730013387F8273097F82730072B75
:10473C00E1D98020FFF77AFE07F11C031846FFF73A
:10474C0025FF97F826202A4B1B78013B9A4229DA41
:10475C00002387F8273019E0204B1B781A4697F86E
:10476C0027301344224A127893FBF2F101FB02F238
:10477C009A1A97F827301B498A5C28333B4403F874
:10478C00182C97F82730013387F8273097F8273003
:10479C00072BE1D9C020FFF749FE07F1100318469B
:1047AC00FFF7F4FE97F82630013387F8263097F898
:1047BC0026200E4B1B78013B9A42FFF67DAF97F8F3
:1047CC0026200B4B1B78013B9A42FFF675AF00BFBE
:1047DC0000BF2837BD4680BD580B00205C0B002065
:1047EC00600B0020D80B00206C8E00084D0C0020B4
:1047FC004E0C002080B588B000AFF860B96013464D
:10480C00FB71FB79002B3FD1FEF7A0FF03463E4A1C
:10481C0013603E4B00221A703D4B00221A7000238D
:10482C00FB770EE03A48FBF78BFC03461A46384BF5
:10483C00134438491A460B461B881380FB7F0133FF
:10484C00FB77FB7F062BEDD9F968314803F0A2F911
:10485C000023FB770EE02E48FBF772FC03461A464A
:10486C002B4B13442B491A460B461B881380FB7F9A
:10487C000133FB77FB7F062BEDD92548FBF760FC5A
:10488C000346DAB2244B1A70FB681B78002B37D026
:10489C00FEF75CFF02461C4B1B68D31ABA689A429F
:1048AC002ED2FEF753FF0346174A1360174B1B78A3
:1048BC000133DAB2154B1A700023FB7715E0134B5A
:1048CC001B781A46FB7F1344134A127893FBF2F1C0
:1048DC0001FB02F29A1AFB7F0D498A5C20333B44A0
:1048EC0003F80C2CFB7F0133FB77FB7F072BE6D9FE
:1048FC008020FFF79BFD07F114031846FFF746FED7
:10490C0000BF2037BD4680BD500C0020540C002049
:10491C00580C00206C8E0008830C002080B588B0E9
:10492C0000AFF860B9601346FB71FB79002B3FD1E7
:10493C00FEF70CFF03463E4A13603E4B00221A70F2
:10494C003D4B00221A700023FB770EE03A48FBF730
:10495C00F7FB03461A46384B134438491A460B46A4
:10496C001B881380FB7F0133FB77FB7F062BEDD974
:10497C00F968314803F00EF90023FB770EE02E485E
:10498C00FBF7DEFB03461A462B4B13442B491A4606
:10499C000B461B881380FB7F0133FB77FB7F062BB9
:1049AC00EDD92548FBF7CCFB0346DAB2244B1A7041
:1049BC00FB681B78002B37D0FEF7C8FE02461C4B59
:1049CC001B68D31ABA689A422ED2FEF7BFFE034672
:1049DC00174A1360174B1B780133DAB2154B1A7058
:1049EC000023FB7715E0134B1B781A46FB7F13440F
:1049FC00134A127893FBF2F101FB02F29A1AFB7F35
:104A0C000D498A5C20333B4403F80C2CFB7F0133AB
:104A1C00FB77FB7F072BE6D9C020FFF707FD07F1DB
:104A2C0014031846FFF7B2FD00BF2037BD4680BD0A
:104A3C00840C0020880C00208C0C00206C8E00084C
:104A4C00B70C002080B582B000AFFFF745FC002307
:104A5C00FB712DE0FB79204AD35C1B01DBB21A46BB
:104A6C004E211E48FFF782FC0A20FFF721FCFB7940
:104A7C00194AD35C1B015BB243F002035BB2DBB29D
:104A8C001A464E211548FFF771FC0A20FFF710FC5F
:104A9C00FB79114AD35C1B01DBB21A464E210F483D
:104AAC00FFF764FC0A20FFF703FCFB790133FB7171
:104ABC00FB790B2BCED98020FFF7B8FC0848FFF709
:104ACC0065FDC020FFF7B2FC0548FFF75FFD00BF96
:104ADC000837BD4680BD00BF840400200054004050
:104AEC00708E000880B483B000AF786000BF7B6824
:104AFC005A1E7A60002BFAD100BF00BF0C37BD469E
:104B0C0080BC704780B500AF00224FF4805107483D
:104B1C0001F08DFE0A20FFF7CBFB01224FF48051F0
:104B2C00024801F084FE0123184680BD000C0140B0
:104B3C0080B582B000AF0346FB710F4B32221A7066
:104B4C000D4B05225A700C4BFF229A700A4B012216
:104B5C00DA70094AFB7913714FF47A720521064811
:104B6C0000F000F90346002B01D1002300E00123E3
:104B7C0018460837BD4680BDD00C002080B584B0E7
:104B8C0000AFB9607A601A460346FB731346BB81CB
:104B9C000F4B4A221A700E4B01225A700C4AFB7BA7
:104BAC009370BB891A460321094800F0DBF80346D1
:104BBC00002B01D1002307E01420FFF779FB796863
:104BCC00B86800F007F8034618461037BD4680BD9C
:104BDC00D00C002080B584B000AF78603960002222
:104BEC001321194800F0C6F9174BDB79012B01D0C2
:104BFC00002324E0144B5B7ABB81BB891B02BB8175
:104C0C00114B9B7A9AB2BB891343BB810E4B1A7B17
:104C1C003B681A700023FB730BE0FB7B03F10D0266
:104C2C00FB7B79680B4408498A5C1A70FB7B013367
:104C3C00FB73054B1B7BFA7B9A42EED30123184680
:104C4C001037BD4680BD00BF100D002080B500AFF1
:104C5C00124B14221A70114B01225A700F4B142252
:104C6C009A700E4B0022DA704FF4FA7204210B4842
:104C7C0000F078F80346002B01D100230BE0FF2253
:104C8C000921074800F076F9054B9B79152B0CBFD1
:104C9C0001230023DBB2184680BD00BFD00C0020DE
:104CAC00100D002080B584B000AF2B4A3B4692E833
:104CBC000300186004331980284B02221A704FF439
:104CCC00FA720121254800F04DF80346002B01D162
:104CDC0000233CE0FF220D21214800F04BF93B461C
:104CEC00062219461E4802F015FF0346002B01D080
:104CFC0000232CE00723FB60FB685A1CFA60184A5F
:104D0C00D35CBB60BB681B02BB60FB685A1CFA60BF
:104D1C00134AD35C1A46BB681343BB60BB681B02C7
:104D2C00BB60FB685A1CFA600D4AD35C1A46BB6820
:104D3C001343BB60BB681B02BB60FB685A1CFA6068
:104D4C00074AD35C1A46BB681343BB60BB68184662
:104D5C001037BD4680BD00BF848E0008D00C0020EB
:104D6C00100D002080B582B000AF78600B46FB7050
:104D7C0013463B80FB781946786800F01BF83B889B
:104D8C00184600F091FA0346002B01D100230DE0E8
:104D9C006420FFF7A7FE00F05FF90346002B01D15A
:104DAC00002303E06420FFF79DFE0123184608371B
:104DBC00BD4680BD2DE9F04389B000AF78600B464D
:104DCC00FB706B461E46FB7803F108014B1E3B61E2
:104DDC000A460023904699464FF000024FF000031C
:104DEC004FEAC90343EA58734FEAC8020A46002344
:104DFC0014461D464FF000024FF00003EB0043EA4F
:104E0C005473E2000B460733DB08DB00ADEB030DFC
:104E1C006B460033FB60FB68BB61FB780133FB70B6
:104E2C00BB6901221A70BB690133BB61BB690022EB
:104E3C001A70BB690133BB61BB6900221A70BB6974
:104E4C000133BB61BB69FF221A70BB690133BB61C3
:104E5C00FF23FB75BB69FA781A70BB690133BB6120
:104E6C00FB785B42DAB2BB691A70BB690133BB6178
:104E7C00BB69D4221A70BB690133BB61FB7D2C3B2F
:104E8C00FB750023FB7712E0FB7F7A6813441A78DA
:104E9C00BB691A70BB690133BB61FB7F7A68134431
:104EAC001A78FB7D1344FB75FB7F0133FB77FA7F8C
:104EBC00FB78013B9A42E7DBFB7DDB43DAB2BB6953
:104ECC001A70BB690133BB61BB6900221A70BB69E4
:104EDC000133BB61FB7808331946F86800F006F81B
:104EEC00B54600BF2437BD46BDE8F08380B584B01D
:104EFC0000AF7860396000BF02211C4802F08CF8CA
:104F0C000346002BF8D000224FF48051184801F0D2
:104F1C008EFC0220FFF7CCF90023FB6017E07A68C7
:104F2C00FB6813441B789BB21946104802F01CF81E
:104F3C004FF4C870FFF7D6FD00BF02210B4802F0FA
:104F4C006BF80346002BF8D0FB680133FB60FA6862
:104F5C003B689A42E3D301224FF48051044801F09C
:104F6C0066FC00BF1037BD4680BD00BF0038004056
:104F7C00000C014080B584B000AF78600B46FB702C
:104F8C0013463B8000224FF48051314801F04FFC16
:104F9C000220FFF78DF900BF02212E4802F03CF8E9
:104FAC000346002BF8D003212A4801F0DDFF00BF97
:104FBC000221284802F030F80346002BF8D000BF3D
:104FCC000121244802F028F80346002BF8D0214890
:104FDC0001F0D8FF0346BB730023FB7329E04FF4A9
:104FEC00C870FFF77FFD3B8819461A4801F0BCFFDB
:104FFC004FF4C870FFF776FD00BF0221154802F090
:10500C000BF80346002BF8D000BF0121114802F029
:10501C0003F80346002BF8D00E4801F0B3FF03460B
:10502C001946FB7B7A681344CAB21A70FB7B0133B6
:10503C00FB73FA7BFB789A42D1D301224FF4805157
:10504C00034801F0F4FB00BF1037BD4680BD00BF24
:10505C00000C01400038004080B584B000AF3F4ADE
:10506C0007F1080392E8030018600433198000224A
:10507C004FF480513A4801F0DAFB0220FFF718F99F
:10508C0000BF0221374801F0C7FF0346002BF8D0C0
:10509C000321344801F068FF00BF0221314801F0C0
:1050AC00BBFF0346002BF8D000BF01212D4801F0B7
:1050BC00B3FF0346002BF8D02A4801F063FF0346E8
:1050CC00BB730023FB732FE06420FFF70BFD00BFC5
:1050DC000221244801F0A0FF0346002BF8D0002148
:1050EC00204801F041FF6420FFF7FCFC00BF0221C7
:1050FC001C4801F091FF0346002BF8D000BF0121A2
:10510C00184801F089FF0346002BF8D0154801F030
:10511C0039FF03461A46FB7BD2B210333B4403F8EB
:10512C00102CFB7B0133FB73FB7B052BCCD90122B1
:10513C004FF480510A4801F07AFB07F108013B4615
:10514C000622184602F0E6FC0346002B0CBF012396
:10515C000023DBB218461037BD4680BD8C8E00088C
:10516C00000C01400038004080B582B000AF00BF99
:10517C000221494801F050FF0346002BF8D000BF34
:10518C000121454801F048FF0346002BF8D0424866
:10519C0001F0F8FE03461946404B1B781A46C9B27B
:1051AC003F4B99543D4B1B780133DAB23B4B1A7091
:1051BC0000224FF480513B4801F039FB0220FFF7ED
:1051CC0077F80221344801F0CFFE00BF02213248AB
:1051DC0001F022FF0346002BF8D000BF01212E481E
:1051EC0001F01AFF0346002BF8D02B4801F0CAFE41
:1051FC0003461946294B1B781A46C9B2284B9954B9
:10520C00264B1B780133DAB2244B1A704FF4C8705A
:10521C00FFF768FC00BF02211F4801F0FDFE0346AA
:10522C00002BF8D0FF211C4801F09EFE4FF4C870F3
:10523C00FFF758FC00BF0221174801F0EDFE0346B2
:10524C00002BF8D000BF0121134801F0E5FE034606
:10525C00002BF8D0104801F095FE0346FB7101229B
:10526C004FF480510F4801F0E2FA0C4B1B781946B1
:10527C000B4AFB795354094B1B780133DAB2074BB9
:10528C001A70FB79012B0CBF01230023DBB21846EB
:10529C000837BD4680BD00BF00380040CC0C002054
:1052AC00B80C0020000C014080B584B000AF034660
:1052BC00FB800023FB810520FEF7FAFFFB890533F9
:1052CC00FB810EE0FB88002B08D0FB890533FB81AA
:1052DC00FA89FB889A4201D9002308E00520FEF7E1
:1052EC00E7FFFFF741FF0346002BEBD001231846E5
:1052FC001037BD4680BD000080B586B000AFF860A9
:10530C007A601A460B46FB721346BB722F4B3A6AF5
:10531C001068186092889A80FB7A1A46F9682C48B3
:10532C0002F008FC97F90B202A4B1A702A4B4022EA
:10533C001A70294B01225A70BB7A002B01D06122C2
:10534C0000E06022244B9A707B68DAB2224BDA7050
:10535C00224B1E4A1068186092889A800023FB75B5
:10536C000AE0FB7D1A4AD256FB7D0A33D1B21A4AA7
:10537C00D154FB7D0133FB75FB7D164A92F900205D
:10538C009342EEDB134B93F90030DBB20A33DBB202
:10539C00642219461048FFF7E5FC0346002B01D1A7
:1053AC0000230EE00A20FEF783FFFF220C210C489D
:1053BC00FFF7E0FD0A4BDB79002B01D0002300E066
:1053CC00012318461837BD4680BD00BF580D00207C
:1053DC00500D0020570D0020D00C0020D40C0020C4
:1053EC00100D002080B582B000AF03463960FB7110
:1053FC00174B40221A70164B01225A70144B302254
:10540C009A70134AFB79D370642204211048FFF779
:10541C00A9FC0346002B01D1002314E00A20FEF75F
:10542C0047FFFF221A210B48FFF7A4FD094BDB793C
:10543C00002B01D0002306E0074B102219463868D8
:10544C0002F078FB012318460837BD4680BD00BF2B
:10545C00D00C0020100D0020180D002080B582B05B
:10546C0000AF03463960FB71154B40221A70144B88
:10547C0001225A70124BA0229A70114AFB79D370F8
:10548C00104B10223968184602F054FB6422142188
:10549C000B48FFF767FC0346002B01D100230BE000
:1054AC000A20FEF705FF0A20FEF702FFFF221A2151
:1054BC000548FFF75FFD012318460837BD4680BD40
:1054CC00D00C0020D40C0020100D002080B58EB024
:1054DC0002AFF8607B600B46FB721346BB72002375
:1054EC0087F82F30204A07F1240392E80300186054
:1054FC0004331980002387F82E301C4A07F110035F
:10550C001268114619800233120C1A70F97A07F1DD
:10551C002403009301230022F868FFF7EDFE0346F5
:10552C00002B05D1012387F82D3097F82D3016E08C
:10553C00BB7A79681846FFF755FF034687F82D307C
:10554C0097F82D30002B05D1022387F82D3097F8D2
:10555C002D3004E0002387F82D3097F82D301846B5
:10556C003037BD4680BD00BFC88E0008D08E000805
:10557C0080B400AF3B4B1B6A03F40043B3F5004F00
:10558C006CD0384BDB69374A43F0C053D361364B90
:10559C001B68354A43F480731360324B1B6A314AE3
:1055AC0043F4803313622F4B1B6A2E4A23F480334F
:1055BC0013622C4B1B6A2B4A43F401431362294B95
:1055CC001B6A284A43F00103136200BF254B1B6A78
:1055DC0003F00103012BF9D1244B9B8D9BB2234A81
:1055EC0043F003039BB2938500BF214B9B889BB276
:1055FC0003F02003002BF8D01D4B9B889BB21C4A58
:10560C0043F010039BB29380194B47F6FF729A81BB
:10561C00174B9B889BB2164A23F010039BB29380C6
:10562C0000BF134B9B889BB203F02003002BF8D0D8
:10563C000F4B9B889BB20E4A23F010039BB29380B6
:10564C0000BF0B4B9B889BB203F00803082BF8D1CF
:10565C00054B1B68044A23F48073136000BFBD46DE
:10566C0080BC70470010024000700040006C00408D
:10567C000028004080B400AF054B1B8B9BB21B0471
:10568C00034A928B92B213431846BD4680BC7047B6
:10569C000028004080B483B000AF78601F4BDB69FA
:1056AC001E4A43F0C053D3611D4B1B681C4A43F484
:1056BC008073136000BF1B4B9B889BB203F02003CD
:1056CC00002BF8D0174B9B889BB2164A43F0100363
:1056DC009BB293807B681A0C124B92B21A83114BBB
:1056EC007A6892B29A830F4B9B889BB20D4A23F037
:1056FC0010039BB2938000BF0A4B9B889BB203F0B4
:10570C002003002BF8D0064B1B68054A23F480734A
:10571C00136000BF0C37BD4680BC704700100240C0
:10572C00007000400028004080B487B000AF786063
:10573C0039607B68654AA2FB0312120C644901FBB9
:10574C0002F29B1A7B617B6803F52843C0335F4AE6
:10575C00A2FB0323DA0B5F4B13443B613B695B08F1
:10576C003B613A695C4BA3FB0213D11A49080B4409
:10577C0099080B46DB005B1AD11ACAB23B685A7205
:10578C003B6903F5FA432C333B613B699B000333C4
:10579C00524AA2FB0323DB0BFB73FB7B504A02FB3D
:1057AC0003F3002B00DA03339B101A463B699B1A58
:1057BC003B613B699B0003334A4AA2FB0323DB0991
:1057CC00BB73BB7B40F2B55202FB03F3002B00DA38
:1057DC0003339B101A463B699B1A3B613A6913468B
:1057EC009B0013440233404AA2FB0323DB097B7367
:1057FC003B69D9B27A7B1346DB0013441A0113447C
:10580C0002333A4A82FB03025210DB17D31ADBB283
:10581C00CB1ADBB20133DAB23B685A717B7B344A68
:10582C00A2FB0323DB08DBB21A469B00D31A9B00B6
:10583C00DAB27B7B1344DBB20333DAB23B681A7106
:10584C00FB7B642203FB02F2BB7B1344A3F5965350
:10585C007A7B2749A1FB0212D208D2B21A443B68C8
:10586C001A607B69234AA2FB0323DB0ADAB23B688A
:10587C009A717A691F4BA3FB0213DB0A4FF4616127
:10588C0001FB03F3D31A1C4AA2FB03235B09DAB214
:10589C003B68DA717B69174AA2FB0312D20A4FF4F8
:1058AC00616101FB02F29A1A134BA3FB0213590913
:1058BC000B461B015B1A9B00D11ACAB23B681A72C9
:1058CC0000BF1C37BD4680BC704700BF07452EC2C9
:1058DC0080510100177B4A0025499224BD066B3983
:1058EC00B13A020073B06D16D7802BD66766666628
:1058FC00CDCCCCCCC5B3A2918988888880B489B032
:10590C0000AF78607B681B79C3F10E03354A82FBCC
:10591C0003125210DB17D31AFB777B681B6803F555
:10592C009652FB7FD31ABB617B681A79FB7F1946B1
:10593C0049000B449B00DBB21344DBB2033BFB7509
:10594C007B685B791946FA7D1346DB0013441A0118
:10595C0013440233244A82FB03025210DB17D31A7E
:10596C00CA18BB6940F26D1101FB03F31A44BB6901
:10597C00002B00DA03339B101A44BB691B4981FBD3
:10598C0003014911DB175B1A1A44BB69174981FBE8
:10599C000301C911DB17CB1A1A44154B13443B6195
:1059AC003B69144A02FB03F3FB607B681B7A1946C4
:1059BC007B68DB791A4613461B019B1A9B00CA189D
:1059CC007B689B7919464FF4616301FB03F3134425
:1059DC001A46FB681344FB60FB6818462437BD4627
:1059EC0080BC7047ABAAAA2A676666661F85EB5116
:1059FC004745DAFF8051010080B596B000AF786062
:105A0C003960002387F84F303B683B653B6D0133B1
:105A1C003B653B6D01333B653B6D01333B653B6D3A
:105A2C0001333B653B6D01333B6500237B650CE02B
:105A3C003B6D5A1C3A65197807F10C027B6D1344C7
:105A4C000A461A707B6D01337B657B6D032BEFDD92
:105A5C0007F10C03184602F02FF802467B681A6017
:105A6C007B681B68002B05D07B681B6840F2BB72FF
:105A7C00934205DC012387F84F3097F84F30F4E060
:105A8C003B6D01333B6507F10C031846FAF758FBE5
:105A9C00024607F10C030021184602F073F80023AC
:105AAC007B650CE03B6D5A1C3A65197807F10C02CA
:105ABC007B6D13440A461A707B6D01337B657B6DDD
:105ACC00012BEFDD07F10C03184601F0F5FF03463F
