:020000040800F2
:100000000050002019590008615900086159000882
:10001000615900086159000861590008000000009A
:10002000000000000000000000000000615900080E
:100030006159000800000000615900080D2B0008FC
:1000400061590008615900086159000861590008A8
:100050006159000861590008291F0008615900080A
:100060006159000861590008615900086159000888
:100070006159000861590008615900086159000878
:100080006159000861590008615900086159000868
:100090006159000861590008615900086159000858
:1000A0006159000859200008615900086159000889
:1000B0006159000861590008615900086159000838
:1000C0006159000861590008615900086159000828
:1000D00035470008655B0008CD5C000861590008E1
:1000E00061590008615900086159000800000000CA
:1000F0000000000000000000000000000000000000
:0C01000000000000000000005FF808F1A3
:10010C0010B5054C237833B9044B13B10448AFF345
:10011C0000800123237010BD80040020000000002B
:10012C001C72000808B5034B1BB103490348AFF31D
:10013C00008008BD00000000840400201C72000830
:10014C00034613F8012B002AFBD1181A013870470B
:10015C0080B500AF00F002F800BF80BD80B500AFE5
:10016C0000F002F800BF80BD80B483B000AF002364
:10017C007B6000233B603A4B1B68394A43F4803365
:10018C001360374B1B6803F400333B607B6801330F
:10019C007B603B68002B03D17B68B3F5A06FF0D17B
:1001AC002F4B1B6803F40033002B02D001233B6060
:1001BC0001E000233B603B68012B4BD1294B1B68B2
:1001CC00284A43F010031360264B1B68254A23F082
:1001DC0003031360234B1B68224A43F00203136092
:1001EC001F4B1F4A5B6853601D4B1D4A5B68536075
:1001FC001B4B5B681A4A43F480635360184B5B6873
:10020C00174A23F47C135360154B5B68144A43F470
:10021C00E8135360124B1B68114A43F08073136050
:10022C0000BF0F4B1B6803F00073002BF9D00C4B75
:10023C005B680B4A23F003035360094B5B68084A65
:10024C0043F00203536000BF054B5B6803F00C03E3
:10025C00082BF9D100BF0C37BD4680BC704700BFDE
:10026C00001002400020024080B483B000AF03466F
:10027C003960FB7197F90730002B0BDA3B68DAB267
:10028C000C49FB7903F00F03043B1201D2B20B446F
:10029C001A7609E03B68DAB2074997F90730120180
:1002AC00D2B20B4483F8002300BF0C37BD4680BC90
:1002BC00704700BF00ED00E000E100E080B582B0C7
:1002CC0000AF78607B68B3F1807F01D3012311E02C
:1002DC007B6823F07F43094A013B53600F214FF0A9
:1002EC00FF30FFF7C1FF054B00229A60034B07223A
:1002FC001A60002318460837BD4680BD10E000E0A8
:10030C0080B500AF1249134805F041FE124911485F
:10031C0005F02EFE11490F4805F02AFE10490D4834
:10032C0005F026FE0F490B4805F022FE0E49094840
:10033C0005F01EFE0949074805F01AFE0B49054851
:10034C0005F016FE0A49034805F012FE00BF80BDF9
:10035C00EC010020C8060020DC010020D0010020A8
:10036C00FC010020E0010020E40100200C02002030
:10037C00E801002080B582B000AF0D490D4805F0B2
:10038C0065FE786079680C4805F001FE0B490A4857
:10039C0005F0EEFD0649002005F058FE78607968FE
:1003AC00054805F0E5FD00BF0837BD4680BD00BF20
:1003BC0034720008400C002048070020D0010020B7
:1003CC0080B592B002AFF8607B600B46FB721346AF
:1003DC00BB72514A07F1340392E8030018600433EE
:1003EC001980002387F83E304C4A07F1200312682D
:1003FC00114619800233120C1A70102387F83D3005
:10040C00002387F83F30F97A07F134030093012376
:10041C000022F86803F0B0FB0346002B05D1012342
:10042C0087F83C3097F83C3072E007F1100319461E
:10043C00012003F017FC034687F83C3007F110034A
:10044C001946012003F00EFC0346002B05D10223B4
:10045C0087F83C3097F83C305AE0002387F83F305F
:10046C000FE097F83F307A681A4497F83F301278CB
:10047C0040333B4403F8302C97F83F30013387F876
:10048C003F3097F83F30032BEBD907F11003194697
:10049C00012003F023FC0346002B05D1032387F82E
:1004AC003C3097F83C3033E007F1240307F1340279
:1004BC0092E8030018600433198007F12403063313
:1004CC001A4607F1200319889B78118093706923D1
:1004DC0087F82D3007F124030A331A4607F1340349
:1004EC00186810609B88938007F124031946032039
:1004FC0003F0F4FB0346002B05D1042387F83C30B2
:10050C0097F83C3004E0002387F83C3097F83C30F7
:10051C0018464037BD4680BD38720008407200084E
:10052C0080B590B000AFA54B00221A7203F060FCAE
:10053C00002004F047FD4FF4803004F0F7FC01205C
:10054C0004F05EFE4FF4E0114FF4803004F01CFD1B
:10055C00022004F047FD0023FB62994B5B68FB62B1
:10056C00974AFB6A23F470635360954AFB6A43F421
:10057C00A0635360924B5B68914A43F480035360D1
:10058C00012004F01FFD8F4804F048FD8D4B5B6883
:10059C008D4AA2FB03239B091846FFF78FFE8B4B5A
:1005AC0000221A708A4B1B68184603F0B3FC02F049
:1005BC0089FE01F09BFC0121864804F00DFB0346EB
:1005CC001A46854B1A70844B1A78844B1A7001F0BA
:1005DC006DFC02F019F905F0BFF905F03DFA03F0D6
:1005EC00E5FF7F4B00221A707E4B00221A7001F03F
:1005FC0059FEB86201F056FE78627B6A3B627A481B
:10060C00FFF79EFD03461946774805F0FDF977483C
:10061C00FFF796FD03461946744805F0F5F9744842
:10062C00FFF78EFD03461946714805F0EDF9C82217
:10063C007049714802F008FC00BF704B1B78DBB2AC
:10064C00002B06D080216E4804F0D4FE0346002B0C
:10065C00F3D16A4B01221A7002F094FE03461A463B
:10066C00684B1A7002F032FF03461A46664B1A703A
:10067C0002F058FFF861FB69002B13D0594B1B7823
:10068C0043F00103DAB2574B1A70F86901F014FE0B
:10069C00FF2002F08DFE03461A465C4B1A705C4B31
:1006AC0000221A7000BF0221554804F0A3FE034635
:1006BC00002BF8D0514B00221A7000BF4F4B1B7807
:1006CC00DBB2002B06D080214D4804F093FE03468C
:1006DC00002BF3D104F078F84E4B00221A604E4BED
:1006EC0020221A604D4B40221A604D4B60221A603A
:1006FC004C4B80221A604C4BA0221A604B4B0422AC
:10070C001A704B4B01221A704A4BFF221A704A4B3B
:10071C0000221A70494B00221A60494BFF221A70B2
:10072C00FF220021474805F01BFC3A4B1B683F4A4F
:10073C00127891B2434A184604F09EF8414802F0F0
:10074C00C3F90346404A1360FF2200213D4805F0DF
:10075C0007FC334B1B68354A127891B2394A18465C
:10076C0004F08AF8374802F0AFF90346374A1360B1
:10077C00224B00221A7000BF204B1B78DBB2002BDF
:10078C0006D080211E4804F035FE0346002BF3D121
:10079C0003F00CFF2E4B01221A702E4B00221A7004
:1007AC000C212D4805F0B0F90023BB610023FB633D
:1007BC0001F078FDB861BB69FB6352E09C0400203A
:1007CC0000100240AC040020D34D62107F050020C5
:1007DC0038030020000C0140B9060020B8060020A8
:1007EC008D060020C8070020E8000020F40000203F
:1007FC00340100204000002028000020220C0020A2
:10080C00003800408E0600208F0600209006002045
:10081C009106002078080020800800207C08002029
:10082C00840800208C0800208808002090080020F4
:10083C0091080020920800209308002064080020F2
:10084C0068080020F8080020940800209808002070
:10085C00800500203E0C00200000002001F022FD4D
:10086C00F863B34B1B78002BF8D1FA6BBB69D31A26
:10087C00B3F57A7FF2D8AE4B1B78002B06D1AD4B7B
:10088C001B7843F01003DAB2AA4B1A70A94B1B78F1
:10089C00112B00F2298101A252F823F0F108000873
:1008AC0035090008F50A0008F50A0008F50A0008E1
:1008BC00F50A0008F50A0008F50A0008F50A000810
:1008CC00F50A0008F50A0008F50A0008F50A000800
:1008DC00F50A0008F50A0008F50A0008CF09000817
:1008EC00270A00089448FFF72BFC03461946934847
:1008FC0005F08AF89248FFF723FC03461946904806
:10090C0005F082F81C218F4805F07EF88C48FFF723
:10091C0017FC034619468A4805F076F8C82289491F
:10092C00864802F091FADFE08348FFF709FC0346A2
:10093C001946824805F068F88148FFF701FC034628
:10094C0019467F4805F060F87F48FFF7F9FB03462E
:10095C0019467D4805F058F802217C4805F054F8FA
:10096C0002217B4805F050F87A48FFF7E9FB034673
:10097C001946784805F048F80321774805F044F803
:10098C0000231946754805F03FF80321744805F01B
:10099C003BF802216E4805F037F80A21714805F042
:1009AC0033F80221704805F02FF80221684805F051
:1009BC002BF8FFF7A5FCC8226C49604802F044FAFA
:1009CC0092E05D48FFF7BCFB034619465A4805F018
:1009DC001BF86748FFF7B4FB03461946644805F05B
:1009EC0013F85748FFF7ACFB03461946544805F07B
:1009FC000BF81C21534805F007F85148FFF7A0FBF2
:100A0C00034619464E4804F0FFFFFFF7B3FCC8221B
:100A1C004C49584802F018FA66E04748FFF790FB3B
:100A2C0003461946444804F0EFFF5148FFF788FB92
:100A3C00034619464E4804F0E7FF4148FFF780FB98
:100A4C00034619463E4804F0DFFF3F48FFF778FBAA
:100A5C00034619463C4804F0D7FF02213B4804F0FA
:100A6C00D3FF02213A4804F0CFFF3A48FFF768FB66
:100A7C0003461946374804F0C7FF0321364804F0F3
:100A8C00C3FF00231946354804F0BEFF0321344848
:100A9C0004F0BAFF02212E4804F0B6FF0A213148B7
:100AAC0004F0B2FF0221304804F0AEFF02212848C6
:100ABC0004F0AAFFFFF75EFCFFF722FCC8222B49CB
:100ACC002C4802F0C1F9802002F0F0F82A4802F01C
:100ADC009DF9C02002F0EAF8284802F097F921218C
:100AEC00274804F091FF00BF2121254804F08CFF1A
:100AFC0001F060FA01F098FA224B1B78012B10D10F
:100B0C0001F08CFC0621204804F07EFF0C48FFF716
:100B1C0017FB034619460A4804F076FF194B0022CE
:100B2C001A701A4B1B78002B41F074804CE000BFFC
:100B3C0080050020C80700204C0100208C000020FC
:100B4C006801002070000020EC010020DC01002076
:100B5C00D8010020FC010020E0010020D40100207D
:100B6C00E40100200C020020E8010020C80600204F
:100B7C00400C0020480700203400002064000020B6
:100B8C0010010020BE06002018020020BF06002025
:100B9C00974B1B685A1C96490A60F978954AD154B0
:100BAC00934B1B68934A0021D154914B1B687F2BAC
:100BBC000ADD914B802219468E4805F0B7F98C4B13
:100BCC001B68013B8A4A1360FB1C184605F01CF895
:100BDC000346012BDCD02BE0884B1B685A1C874941
:100BEC000A60B978864AD154844B1B68844A002128
:100BFC00D154824B1B687F2B0ADD824B8022194615
:100C0C007F4805F093F97D4B1B68013B7B4A1360D1
:100C1C007B48FFF795FA03461946794804F0F4FE31
:100C2C007948FFF78DFA03461946774804F0ECFE35
:100C3C00BB1C184605F016F80346012BCCD07349A3
:100C4C006F4805F0ECF90346002B00F09C826C4BCE
:100C5C00BB636B4B1A786E4B1B789A4240F0458203
:100C6C00BB6B0133BB6300237B630BE0BB6B5A1C78
:100C7C00BA631978674A7B6B13440A461A707B6B0C
:100C8C0001337B637B6B022BF0DD624805F002F9CC
:100C9C000346614A1360604B1B68002B0FD15F4801
:100CAC00FFF74EFA034619465C4804F0ADFE564871
:100CBC00FFF746FA03461946534804F0A5FE564B77
:100CCC001B68CB2B00F0EF81CB2B00F3FD81CA2BE3
:100CDC0000F0D881CA2B00F3F781C92B00F0C18139
:100CEC00C92B00F3F181672B00F01082672B00F306
:100CFC00EB81652B03D0662B00F09C80E4E145482A
:100D0C00FFF71EFA03461946424804F07DFE3E48A2
:100D1C00FFF716FA034619463B4804F075FE3B1DD7
:100D2C003749184603F0A8FA0346FB75FB7D032BE5
:100D3C0000F20C8201A252F823F000BF590D0008FA
:100D4C00930D0008B50D0008D70D00083B1D184683
:100D5C0003F014FA0346324A1360314B1B681846F1
:100D6C0003F0D8F82F48FFF7EBF9034619462D4846
:100D7C0004F04AFE2448FFF7E3F9034619462248DB
:100D8C0004F042FE32E02848FFF7DAF90346194630
:100D9C00254804F039FE1C48FFF7D2F903461946E2
:100DAC00194804F031FE21E02048FFF7C9F9034649
:100DBC0019461E4804F028FE1348FFF7C1F90346F4
:100DCC001946114804F020FE10E01948FFF7B8F955
:100DDC0003461946164804F017FE0B48FFF7B0F906
:100DEC0003461946084804F00FFE00BFAEE100BFF1
:100DFC0044050020C0040020C10400200806002087
:100E0C00840500208505002068010020347200084C
:100E1C00F60300200C060020600800205C03002074
:100E2C005C08002058000020700300208003002084
:100E3C0090030020B648FFF783F903461946B448DF
:100E4C0004F0E2FDB348FFF77BF903461946B148BD
:100E5C0004F0DAFD03F04EF80346AF4A1360AE4BD4
:100E6C001B683A1D1146184603F09EF83B1D1846A8
:100E7C0003F084F90346A94A13607B68A84A82FBF5
:100E8C0003129211DB17D21AA64B83FB0213991093
:100E9C00D317C91A0B469B000B445B00D11ACBB27B
:100EAC003033DAB2A04B1A707B68A04A82FB031273
:100EBC005211DB17D21A9B4B83FB02139910D317D9
:100ECC00C91A0B469B000B445B00D11ACBB23033D2
:100EDC00DAB2954B5A707B68924A82FB03129210DD
:100EEC00DB17D21A8F4B83FB02139910D317C91A35
:100EFC000B469B000B445B00D11ACBB23033DAB2F9
:100F0C00894B9A707A68874B83FB02139910D3171D
:100F1C00C91A0B469B000B445B00D11ACBB2303381
:100F2C00DAB2814BDA703B7A814AA2FB0323DB08ED
:100F3C00DBB23033DAB27C4B5A713A7A7C4BA3FB7E
:100F4C000213D9080B469B000B445B00D31ADBB28F
:100F5C003033DAB2744B9A717B7A754AA2FB032355
:100F6C00DB08DBB23033DAB26F4B1A727A7A704B21
:100F7C00A3FB0213D9080B469B000B445B00D31A4E
:100F8C00DBB23033DAB2684B5A72BB7A684AA2FBD6
:100F9C000323DB08DBB23033DAB2634BDA72BA7A92
:100FAC00634BA3FB0213D9080B469B000B445B005D
:100FBC00D31ADBB23033DAB25B4B1A73FB7A5C4A6E
:100FCC00A2FB0323DB08DBB23033DAB2564B9A7345
:100FDC00FA7A574BA3FB0213D9080B469B000B4420
:100FEC005B00D31ADBB23033DAB24F4BDA733B7B94
:100FFC004F4AA2FB0323DB08DBB23033DAB24A4B95
:10100C005A743A7B4A4BA3FB0213D9080B469B003C
:10101C000B445B00D31ADBB23033DAB2424B9A7416
:10102C004148FFF78DF8034619463F4804F0ECFCA5
:10103C003848FFF785F803461946364804F0E4FCB7
:10104C003C48FFF77DF8034619463A4804F0DCFCAF
:10105C003048FFF775F8034619462E4804F0D4FCC7
:10106C0075E03548FFF76CF803461946324804F032
:10107C00CBFC2848FFF764F803461946254804F0D2
:10108C00C3FC64E02D48FFF75BF8034619462B4878
:10109C0004F0BAFC1F48FFF753F8034619461D48E5
:1010AC0004F0B2FC53E02648FFF74AF80346194611
:1010BC00234804F0A9FC1748FFF742F803461946E9
:1010CC00144804F0A1FC42E01E48FFF739F803462F
:1010DC0019461C4804F098FC0E48FFF731F80346FB
:1010EC0019460C4804F090FC31E01748FFF728F83B
:1010FC0003461946144804F087FC0648FFF720F80D
:10110C0003461946034804F07FFC20E000BF1EE0B4
:10111C000C06002068010020380300205C08002029
:10112C00D34D621067666666200200201F85EB5166
:10113C00CDCCCCCC58000020A0030020BC03002058
:10114C00D8030020500300203C03002000BF1548AA
:10115C00FEF7F6FF03461946124804F055FC1248F8
:10116C00FEF7EEFF034619460F4804F04DFC0F4BFB
:10117C0000221A600B48FEF7E3FF03461A460021D3
:10118C00084804F0EDFE0A490A4804F048FF0346FB
:10119C00002B00F084810649064804F057FF054BEC
:1011AC003B630CE084050020680100200806002049
:1011BC0034720008C00400203B6B01333B63BA4916
:1011CC00386B04F014FF0346002BF5D1B748FEF73B
:1011DC00B7FF03461A460021B44804F0C1FE1A2298
:1011EC00B349B24804F0DBFE396BB04804F0C0FEE2
:1011FC0002F080FE0346AF4A1360AE4B1B683A1DEB
:10120C001146184602F0D0FE3B1D184602F0B6FF00
:10121C000346A94A1360A84B1B68A849184601F05D
:10122C0027FB02460B46A649C1E90023A24B1968CD
:10123C00A34BD3E90023084601F0A8FB7B68A14A25
:10124C0082FB03129211DB17D21A9F4B83FB021302
:10125C009910D317C91A0B469B000B445B00D11A8B
:10126C00CBB23033DAB2994B1A707B68984A82FB56
:10127C0003125211DB17D21A934B83FB02139910F2
:10128C00D317C91A0B469B000B445B00D11ACBB287
:10129C003033DAB28D4B5A707B688B4A82FB031267
:1012AC009210DB17D21A884B83FB02139910D317B9
:1012BC00C91A0B469B000B445B00D11ACBB23033DE
:1012CC00DAB2824B9A707A687F4B83FB02139910C7
:1012DC00D317C91A0B469B000B445B00D11ACBB237
:1012EC003033DAB2794BDA703B7A7A4AA2FB0323B9
:1012FC00DB08DBB23033DAB2744B5A713A7A754B85
:10130C00A3FB0213D9080B469B000B445B00D31ABA
:10131C00DBB23033DAB26D4B9A717B7A6D4AA2FB39
:10132C000323DB08DBB23033DAB2684B1A727A7AF9
:10133C00684BA3FB0213D9080B469B000B445B00C4
:10134C00D31ADBB23033DAB2604B5A72BB7A614AD1
:10135C00A2FB0323DB08DBB23033DAB25B4BDA726D
:10136C00BA7A5C4BA3FB0213D9080B469B000B44C7
:10137C005B00D31ADBB23033DAB2544B1A73FB7AFC
:10138C00544AA2FB0323DB08DBB23033DAB24F4BF7
:10139C009A73FA7A4F4BA3FB0213D9080B469B00A6
:1013AC000B445B00D31ADBB23033DAB2474BDA733F
:1013BC003B7B484AA2FB0323DB08DBB23033DAB2B7
:1013CC00424B5A743A7B434BA3FB0213D9080B468E
:1013DC009B000B445B00D31ADBB23033DAB23B4BCD
:1013EC009A74802001F062FC3B4801F00FFDC02094
:1013FC0001F05CFC384801F009FD00224FF4487103
:10140C002A4801F037FE2D48FEF79AFE03460133B9
:10141C003B61324B1A683B69D31A304A13603B6903
:10142C00264A99183B69C3F181031A46234804F0F4
:10143C007DFD132225492A4804F0C6FD00231A46D7
:10144C002849274804F0C0FD1848FEF779FE0346EA
:10145C001A461649224804F0B7FD2348FEF770FEE1
:10146C0003461A4620491E4804F0AEFD1C48FEF700
:10147C0067FE034619461A4804F0C6FA1A48FEF7E6
:10148C005FFE03461946184804F0BEFA1448FEF7EE
:10149C0057FE03461A460021114804F061FD134B18
:1014AC001B78012B29D023E044720008480500204A
:1014BC00D4000020380300205C080020C004002069
:1014CC0070080020D34D621067666666200200200B
:1014DC001F85EB51CDCCCCCCB400002044050020B2
:1014EC00DC070020D001002068010020C807002084
:1014FC00B94B1B78112B40F0CB83B84B1B684CF2CB
:10150C005032934240F07A8340F2DC53B44AB549EE
:10151C00002001F073FF03461A46B34B1A70B24B0E
:10152C001B78002B00F06083B04B1B78002B40F035
:10153C005B83AE4B01221A70A94B1B78AC4AA2FB01
:10154C0003235B09DBB23033DAB2AA4B1A70A44B1B
:10155C001B78A94AA2FB0323DB08DAB2A64BA3FB38
:10156C000213D9080B469B000B445B00D31ADBB269
:10157C003033DAB29F4B5A70994B1A789E4BA3FBBF
:10158C000213D9080B469B000B445B00D31ADBB249
:10159C003033DAB2974B9A709848FEF7D1FD034678
:1015AC001946964804F030FA9548FEF7C9FD0346F3
:1015BC001946934804F028FA8E48FEF7C1FD0346FD
:1015CC0019468C4804F020FA8E48FEF7B9FD034604
:1015DC0019468C4804F018FA8B49824800F09AFF9F
:1015EC0003461A46894B1A708948FEF7A9FD034633
:1015FC001946874804F008FA8348FEF7A1FD034614
:10160C001946814804F000FA7E48FEF799FD03461E
:10161C0019467C4804F0F8F9714B1B78194671484F
:10162C0000F0ECFF03467B4A136002F063FC0346B8
:10163C00794A1360784B1B683A1D1146184602F024
:10164C00B3FC3B1D184602F099FD0346734A136028
:10165C00724B1B686F4A12681146184601F002FA69
:10166C006C4B1B685B0A6E4AA2FB0323DB09DBB2E3
:10167C003033DAB26B4B1A70664B1B686A4AA2FBAA
:10168C000323590E5C4BA3FB0123DA0813469B0082
:10169C0013445B00CA1AD3B23033DAB2614B5A70BE
:1016AC005C4B1B68614AA2FB0323990D524BA3FBB5
:1016BC000123DA0813469B0013445B00CA1AD3B209
:1016CC003033DAB2574B9A70524B1B68584AA2FB14
:1016DC000323990C484BA3FB0123DA0813469B0008
:1016EC0013445B00CA1AD3B23033DAB24D4BDA7002
:1016FC00484B1B685B094F4AA2FB0323D9093E4B9D
:10170C00A3FB0123DA0813469B0013445B00CA1A9F
:10171C00D3B23033DAB2434B1A713E4B1B68464A94
:10172C00A2FB0323590B344BA3FB0123DA0813460A
:10173C009B0013445B00CA1AD3B23033DAB2394B74
:10174C005A71344B1B683D4AA2FB032399092A4B5F
:10175C00A3FB0123DA0813469B0013445B00CA1A4F
:10176C00D3B23033DAB22F4B9A712A4B1B68204A12
:10177C00A2FB03235909204BA3FB0123DA081346D0
:10178C009B0013445B00CA1AD3B23033DAB2254B38
:10179C00DA71204B1B68184AA2FB0323D908164B9D
:1017AC00A3FB0123DA0813469B0013445B00CA1AFF
:1017BC00D3B23033DAB21B4B1A72164B19680E4B7C
:1017CC00A3FB0123DA0813469B0013445B00CA1ADF
:1017DC00D3B23033DAB233E0C8070020AC060020B5
:1017EC00A4060020940600209206002091060020FA
:1017FC001F85EB51AC010020CDCCCCCC6C01002072
:10180C0080010020680100200C00002093060020BD
:10181C0098010020A8060020380300205C08002056
:10182C00834B0400B0010020893BE6556BCA5F6B0B
:10183C0083DE1B43C55A7C0A5917B7D1D34D6210AE
:10184C003A4B5A723A48FEF77BFC03461946384825
:10185C0004F0DAF83548FEF773FC034619463348B2
:10186C0004F0D2F83348FEF76BFC034619463148B6
:10187C0004F0CAF8802001F019FA2F4801F0C6FADA
:10188C00C02001F013FA2C4801F0C0FA2B48FEF7E7
:10189C0057FC03461A460021284804F061FB1A2223
:1018AC002749264804F07BFB2049244804F060FBC0
:1018BC0000224FF44871214801F070FC214B19783B
:1018CC00214B0122214802F041FA03461A46204BD3
:1018DC001A701F4B1B78022B40D0022B4FDC002BB5
:1018EC0002D0012B11D04AE01A48FEF729FC03461E
:1018FC001946184804F088F80E48FEF721FC0346F8
:10190C0019460C4804F080F839E01348FEF718FC2F
:10191C0003461946104804F077F80648FEF710FC09
:10192C0003461946034804F06FF828E0B001002084
:10193C00BC01002068010020B400002064050020D8
:10194C00E0000020A4060020CC0700209406002014
:10195C00C10600203802002070020020B348FEF7B8
:10196C00EFFB03461946B14804F04EF8B048FEF7B9
:10197C00E7FB03461946AE4804F046F800BFAD48F5
:10198C00FEF7DEFB03461946AA4804F03DF8AA4AC6
:10199C001021AA4800F064FE2F21A74804F034F867
:1019AC00A348FEF7CDFB03461946A14804F02CF8DA
:1019BC0002F0A0FA0346A24A1360A14B1B683A1D21
:1019CC001146184602F0F0FA3B1D184602F0D6FB01
:1019DC0003469C4A13607B689B4A82FB031292115C
:1019EC00DB17D21A994B83FB02139910D317C91A20
:1019FC000B469B000B445B00D11ACBB23033DAB2EE
:101A0C00934B1A707B68934A82FB03125211DB17BB
:101A1C00D21A8E4B83FB02139910D317C91A0B469B
:101A2C009B000B445B00D11ACBB23033DAB2884B3B
:101A3C005A707B68854A82FB03129210DB17D21A0C
:101A4C00824B83FB02139910D317C91A0B469B00C8
:101A5C000B445B00D11ACBB23033DAB27C4B9A70A8
:101A6C007A687A4B83FB02139910D317C91A0B4669
:101A7C009B000B445B00D11ACBB23033DAB2744BFF
:101A8C00DA703B7A744AA2FB0323DB08DBB23033F7
:101A9C00DAB26F4B5A713A7A6F4BA3FB0213D90827
:101AAC000B469B000B445B00D31ADBB23033DAB22B
:101ABC00674B9A717B7A684AA2FB0323DB08DBB283
:101ACC003033DAB2624B1A727A7A634BA3FB02138D
:101ADC00D9080B469B000B445B00D31ADBB23033A6
:101AEC00DAB25B4B5A72BB7A5B4AA2FB0323DB086C
:101AFC00DBB23033DAB2564BDA72BA7A564BA3FBFE
:101B0C000213D9080B469B000B445B00D31ADBB2C3
:101B1C003033DAB24E4B1A73FB7A4F4AA2FB0323D3
:101B2C00DB08DBB23033DAB2494B9A73FA7A4A4BA0
:101B3C00A3FB0213D9080B469B000B445B00D31A82
:101B4C00DBB23033DAB2424BDA733B7B424AA2FB54
:101B5C000323DB08DBB23033DAB23D4B5A743A7BE9
:101B6C003D4BA3FB0213D9080B469B000B445B00B7
:101B7C00D31ADBB23033DAB2354B9A7413223449B0
:101B8C00364804F021FA00231A463549334804F04C
:101B9C001BFA3448FEF7D4FA03461A4631492F484B
:101BAC0004F012FA2248FEF7CBFA03461A462049F3
:101BBC002A4804F009FA2948FEF7C2FA03461946E6
:101BCC00264803F021FF1A48FEF7BAFA03461946D5
:101BDC00174803F019FF2148FEF7B2FA03461A46DC
:101BEC0000211E4804F0BCF91F4B1B78002B02D1BE
:101BFC001E4B00221A701E4B00221A601C4B1B68D5
:101C0C0001331B4A136001224FF44871154801F04F
:101C1C00C5FA3DE0174B1B78002B2FD1C02001F0EB
:101C2C0045F8154801F0F2F832E000BFD802002068
:101C3C006801002024030020F4020020CC070020BF
:101C4C00380300205C080020D34D6210676666667E
:101C5C00200200201F85EB51CDCCCCCC1C080020E1
:101C6C00D00100206405002092060020910600207F
:101C7C00AC060020B0060020200000206C4B1B7826
:101C8C00403BDBB2184601F011F86A4801F0BEF88F
:101C9C00694B1B78002B1AD0684B1B78012B16D183
:101CAC006748FEF74DFA03461A460021644804F0D3
:101CBC0057F91A226349624804F071F900224FF473
:101CCC0048715F4801F0D6F95C4B00221A70012272
:101CDC004FF448715A4801F0CDF9574B1B78092B3A
:101CEC007EF40AAF00F020FD5748FEF729FA0346B0
:101CFC001946554803F088FE0421544803F084FE2D
:101D0C005348FEF71DFA03461946514803F07CFE72
:101D1C00504B19784D4B01224F48FEF751FB0346AF
:101D2C001A464E4B1A704D4B1B78042B61D801A2EE
:101D3C0052F823F0551D0008771D0008991D000866
:101D4C00BB1D0008DD1D00084548FEF7F9F90346E8
:101D5C001946434803F058FE3D48FEF7F1F9034697
:101D6C0019463B4803F050FE43E03E48FEF7E8F9C5
:101D7C00034619463B4803F047FE3548FEF7E0F9A9
:101D8C0003461946324803F03FFE32E03648FEF770
:101D9C00D7F903461946344803F036FE2C48FEF7B3
:101DAC00CFF9034619462A4803F02EFE21E02F48AE
:101DBC00FEF7C6F9034619462C4803F025FE2448C5
:101DCC00FEF7BEF903461946214803F01DFE10E04C
:101DDC002748FEF7B5F903461946254803F014FECB
:101DEC001B48FEF7ADF903461946194803F00CFEE3
:101DFC0000BF114B00221A701148FEF7A1F90346DF
:101E0C001A4600210E4804F0ABF81A2219490C4866
:101E1C0004F0C5F800224FF44871094801F02AF982
:101E2C00C02000F043FF144800F0F0FFFEF764BE42
:101E3C009C060020D0010020BF060020C006002018
:101E4C0048050020C800002098010020A0060020B2
:101E5C0068010020A406002094060020C206002081
:101E6C005402002070020020D802002094020020AE
:101E7C00B0020020340000206400002080B483B045
:101E8C0000AF0346FB71FB7903F01F03012202FA3A
:101E9C0003F1054A97F907305B0942F8231000BF9C
:101EAC000C37BD4680BC704700E100E080B582B0C5
:101EBC0000AF0121042003F067F90223BB7110234A
:101ECC00FB714FF48053BB803B1D1946064802F052
:101EDC00C7FD00224FF48051034802F096FE00BF6C
:101EEC000837BD4680BD00BF0008014080B582B0F8
:101EFC0000AF0121082003F047F90223BB714823EE
:101F0C00FB710123BB803B1D1946034802F0A8FD61
:101F1C0000BF0837BD4680BD000C014080B500AF46
:101F2C00012002F075FD0346012B34D11B4B1B78AD
:101F3C00022B17D11A4B0022DA701A4B08225A7155
:101F4C00174802F003FD184B00221A80134B012294
:101F5C001A7000F069F801224FF48051134802F016
:101F6C0054FE15E00E4B0022DA700E4B0C225A7107
:101F7C000B4802F0EBFC0C4B1A880D4B1A80074BEC
:101F8C0002221A7000224FF48051084802F03DFEE4
:101F9C00012002F057FD00BF80BD00BFB906002034
:101FAC00040A0020FC090020B606002000080140AD
:101FBC00BA06002080B584B000AF01214FF4006058
:101FCC0003F0E2F841F61F43BB800023FB804FF483
:101FDC00FA733B8100237B8100233B733B1D194625
:101FEC000F4803F023FA0F4B19221A700D4B0022E5
:101FFC005A700C4B01229A700A4B0022DA70094875
:10200C0002F0A4FC00220121054803F0AAFA0021E9
:10201C00034803F087FA00BF1037BD4680BD00BFF0
:10202C00002C0140F809002080B500AF01220121ED
:10203C00054803F096FA0121034803F073FA1920BE
:10204C00FFF71CFF00BF80BD002C014080B500AF26
:10205C000121874803F0A8FA0346002B00F0058104
:10206C000121844802F0B8FD0346002B2DD1824B90
:10207C001B78012B06D1814B00221A70804B002259
:10208C001A80EAE07E4B1B8801339AB27C4B1A8093
:10209C007B4B1B883C2B40F0E0807A4B1B78002B51
:1020AC0040F0DB80774B01221A70774B01221A70BB
:1020BC00764B00221A70764B00221A70754B002258
:1020CC001A70754B00221A80C7E06B4B1B78002BE3
:1020DC0031D16A4B01221A70694B00221A806F4B66
:1020EC0000221A80674B1B78013B072B00F2B5804E
:1020FC00664B1B780133DAB2644B1A70634B1B7856
:10210C000F2B02D9614B00221A70604B1B78092BE4
:10211C0008D85E4B1B785E4A12783033D9B2604BCC
:10212C0099549AE0594B1B78594A12783733D9B2E3
:10213C005B4B995491E0594B1B8801339AB2574B26
:10214C001A80564B1B88B3F5167F05D14D4B0022D8
:10215C001A70524B00221A804F4B1B8801339AB2D3
:10216C004D4B1A804C4B1B880A2B08D14A4B002232
:10217C001A80484B1B78DB43DAB2464B1A70404B43
:10218C001B8801339AB23E4B1A803D4B1B88642B43
:10219C0062D13C4B1B78013B072B5ED801A252F855
:1021AC0023F000BFD1210008E5210008F921000827
:1021BC000D220008212200083522000849220008BF
:1021CC005D2200082F4B02221A70304B00221A702D
:1021DC002F4B01221A7040E02A4B03221A702B4B12
:1021EC0000221A702A4B02221A7036E0254B042268
:1021FC001A70264B00221A70254B03221A702CE001
:10220C00204B05221A70214B00221A70204B0422FD
:10221C001A7022E01B4B06221A701C4B00221A70FB
:10222C001B4B05221A7018E0164B07221A70174B1D
:10223C0000221A70164B06221A700EE0114B08225F
:10224C001A70124B00221A70114B07221A7004E0FC
:10225C000C4B09221A7000E000BF084B1A78064B91
:10226C001A700121024803F0C8F900BF80BD00BFFD
:10227C00002C0140000C0140B8060020B9060020DB
:10228C00B6060020BF060020C00600209B060020DA
:10229C009C060020B0060020B4060020B2060020E8
:1022AC002000002080B400AF024B1B681846BD46CE
:1022BC0080BC7047080A002080B483B000AF7860FF
:1022CC007B681B0EDAB24B4B1A707B681B0CDAB2B4
:1022DC00494B1A707B681B0ADAB2484B1A707B6840
:1022EC00DAB2474B1A70434B1B781B09DBB2303305
:1022FC00DAB2444B1A703F4B1B7803F00F03DBB27E
:10230C003033DAB23F4B5A703B4B1B783E4AA2FB40
:10231C0003235B09DBB23033DAB23C4B1A70364B19
:10232C001B783B4AA2FB0323DB08DAB2384BA3FB36
:10233C000213D9080B469B000B445B00D31ADBB28B
:10234C003033DAB2314B5A702B4B1A78304BA3FB2B
:10235C000213D9080B469B000B445B00D31ADBB26B
:10236C003033DAB2294B9A70244B1B78264AA2FBE5
:10237C0003235B09DBB23033DAB2264B1A701F4BE6
:10238C001B78234AA2FB0323DB08DAB2204BA3FB06
:10239C000213D9080B469B000B445B00D31ADBB22B
:1023AC003033DAB21B4B5A70144B1A78184BA3FB10
:1023BC000213D9080B469B000B445B00D31ADBB20B
:1023CC003033DAB2134B9A700D4B1B781B09DBB20E
:1023DC003033DAB2104B1A70094B1B7803F00F0331
:1023EC00DBB23033DAB20C4B5A7000BF0C37BD463F
:1023FC0080BC7047C3060020C4060020C506002020
:10240C00C6060020DC0100201F85EB51E0010020F6
:10241C00CDCCCCCCE4010020E801002080B400AF8E
:10242C00364B1B88364AA2FB03235B0B9AB2354B07
:10243C00A3FB0213D9080B469B000B445B00D31A79
:10244C009BB2DBB23033DAB22F4B1A702B4B1B889A
:10245C002E4AA2FB03239B099AB22A4BA3FB02131D
:10246C00D9080B469B000B445B00D31A9BB2DBB222
:10247C003033DAB2244B5A70204B1B88244AA2FB0F
:10248C0003235B099AB21F4BA3FB0213D9080B461B
:10249C009B000B445B00D31A9BB2DBB23033DAB235
:1024AC00194B9A70154B1B88164AA2FB0323DB08A9
:1024BC009AB2144BA3FB0213D9080B469B000B4496
:1024CC005B00D31A9BB2DBB23033DAB20E4BDA704C
:1024DC000A4B1A880B4BA3FB0213D9080B469B0023
:1024EC000B445B00D31A9BB2DBB23033DAB2064B2F
:1024FC001A7100BFBD4680BC704700BFBC060020EF
:10250C005917B7D1CDCCCCCC18020020D34D6210CA
:10251C001F85EB5180B485B000AF78603960002323
:10252C00FB730023BB7300237B7300233B730023DB
:10253C00BB735AE0BB7B7A6813441B781B097B7313
:10254C007B7B092B03D87B7B30337B7308E07B7B55
:10255C00092B05D97B7B0F2B02D87B7B37337B7305
:10256C00BB7B7A6813441B7803F00F033B733B7BF4
:10257C00092B03D83B7B30333B7308E03B7B092BA7
:10258C0005D93B7B0F2B02D83B7B37333B73FB7B53
:10259C003A68134430221A70FB7B0133FB73FB7BCC
:1025AC003A68134478221A70FB7B0133FB73FB7B74
:1025BC003A6813447A7B1A70FB7B0133FB73FB7B09
:1025CC003A6813443A7B1A70FB7B0133FB73FB7B39
:1025DC00112B07D8FB7B3A68134420221A70FB7B23
:1025EC000133FB73BB7B0133BB73BB7B032BA1D9C7
:1025FC00012318461437BD4680BC704780B485B0A3
:10260C0000AF78600B46FB700023FB60FB78042B5B
:10261C0020D17B681B78FB60FB681B02FB607B682E
:10262C0001331B781A46FB681343FB60FB681B02E3
:10263C00FB607B6802331B781A46FB681343FB6014
:10264C00FB681B02FB607B6803331B781A46FB6834
:10265C001343FB60FB6818461437BD4680BC7047BB
:10266C0080B487B000AFF8600B467A60FB72002331
:10267C00FB750023BB7500237B7500233B75002382
:10268C00BB7547E0BB7DFA6813441B781B097B754F
:10269C007B7D092B03D87B7D30337B7508E07B7DFC
:1026AC00092B05D97B7D0F2B02D87B7D37337B75AE
:1026BC00BB7DFA6813441B7803F00F033B753B7D1D
:1026CC00092B03D83B7D30333B7508E03B7D092B50
:1026DC0005D93B7D0F2B02D83B7D37333B75FB7DFA
:1026EC007A6813447A7D1A70FB7D0133FB75FB7D90
:1026FC007A6813443A7D1A70FB7D0133FB75FB7DC0
:10270C007A68134420221A70FB7D0133FB75BB7D64
:10271C000133BB75BA7DFB7A9A42B3D301231846B9
:10272C001C37BD4680BC704780B483B000AF00231B
:10273C00FB710023BB7100237B7100237B7155E07F
:10274C00FB792F4AD35C2F2B0AD9FB792C4AD35C0B
:10275C00392B05D8FB792A4AD35C303BBB710EE090
:10276C00FB79274AD35C402B09D9FB79244AD35CEB
:10277C00462B04D8FB79224AD35C373BBB717B795F
:10278C00BA791201D1B21F4AD154FB790133FB71D2
:10279C00FB791B4AD35C2F2B0AD9FB79184AD35CE3
:1027AC00392B05D8FB79164AD35C303BBB710EE054
:1027BC00FB79134AD35C402B09D9FB79104AD35CC3
:1027CC00462B04D8FB790E4AD35C373BBB717B7923
:1027DC000C4AD15C7B79BA790A43D1B2094AD154FB
:1027EC00FB790133FB717B7901337B717B79032B93
:1027FC00A6D900BF00BF0C37BD4680BC704700BFD8
:10280C0020000020A006002080B582B000AF01217E
:10281C00082002F0B9FC01214FF4804002F0D2FCF8
:10282C000323BB711823FB714FF42043BB803B1D6A
:10283C0019460E4802F014F90323BB711023FB71E7
:10284C004FF48853BB803B1D1946084802F008F929
:10285C004823FB714FF48043BB803B1D1946034852
:10286C0002F0FEF800BF0837BD4680BD000C0140E9
:10287C002DE9B00387B000AF786039603B683B61ED
:10288C000023FB600BE03B695A1C3A6119783D4A06
:10289C00FB6813440A461A70FB680133FB60FB6843
:1028AC000C2BF0DD0023BB605EE0BB68002B14D169
:1028BC00344ABB6813441B78303BFB75FB7D1B0112
:1028CC00FB75BB6801332F4AD35C303BDBB25AB289
:1028DC0097F9173013435BB2FB75BB68002B18DDFF
:1028EC00BB68052B15DCBB685B00264AD35C303B10
:1028FC00FB75FB7D1B01FB75BB685B000133214A3B
:10290C00D35C303BDBB25AB297F9173013435BB24E
:10291C00FB75BB68062B08D1BB685B00194AD35CFE
:10292C00303BFB75FB7D1B01FB75174BD3E900019D
:10293C004FF000024FF000030B0243EA1063020257
:10294C001149C1E90023FB7D00221C4615460E4BA4
:10295C00D3E9002344EA020845EA03090A4BC3E918
:10296C000089BB680133BB60BB68062B9DDD064B41
:10297C00D3E90023104619461C37BD46BDE8B00309
:10298C00704700BFA8080020A008002080B485B0C4
:10299C0000AFF860C7E90023FB681B0EDAB2304BBE
:1029AC001A70FB681B0CDAB22D4B5A70FB681B0AB1
:1029BC00DAB22B4B9A70FB68DAB2294BDA70D7E992
:1029CC0000014FF000024FF000030A0C0023D2B2BA
:1029DC00234B1A71D7E900014FF000024FF00003AE
:1029EC000A0A0023D2B21E4B5A71D7E900014FF0EC
:1029FC0000024FF000030A000023D2B2184B9A7168
:102A0C00D7E900014FF000024FF00003020E42EA3A
:102A1C0001220B0ED2B2124BDA71D7E900014FF042
:102A2C0000024FF00003020C42EA01420B0CD2B23E
:102A3C000B4B1A72D7E900014FF000024FF0000364
:102A4C00020A42EA01620B0AD2B2054B5A723A7878
:102A5C00034B9A7200BF1437BD4680BC704700BF51
:102A6C00E808002080B483B000AF786039607B68E0
:102A7C001B0EDAB2134B1A707B681B0CDAB2114BBB
:102A8C005A707B681B0ADAB20E4B9A707B68DAB20A
:102A9C000C4BDA703B681B0EDAB20A4B1A713B68AE
:102AAC001B0CDAB2074B5A713B681B0ADAB2054BA6
:102ABC009A713B68DAB2034BDA7100BF0C37BD4632
:102ACC0080BC7047E808002080B485B000AF786007
:102ADC007B681B781A067B6801331B781B041A432E
:102AEC007B6802331B781B0213437A68033212781B
:102AFC001343FB60FB6818461437BD4680BC704717
:102B0C0080B400AF084B1B68002B04D0064B1B682D
:102B1C00013B054A1360054B1B680133034A1360E4
:102B2C0000BFBD4680BC7047A8040020080A0020E6
:102B3C0080B483B000AF7860064A7B68136000BF36
:102B4C00044B1B68002BFBD100BF00BF0C37BD46EC
:102B5C0080BC7047A804002080B586B000AF01216E
:102B6C00082002F011FB0223BB751823FB754023D0
:102B7C00BB8207F1140319461A4801F071FF0121B9
:102B8C00082002F001FB0223BB751C23FB7580237C
:102B9C00BB8207F114031946124801F061FF0121B1
:102BAC004FF4001002F00EFB4FF48063FB814FF4E6
:102BBC0080433B824CF250337B604BF6FF737B813E
:102BCC0000233B810123BB813B1D1946064802F0C3
:102BDC0033F80121044802F0F1F800BF1837BD4664
:102BEC0080BD00BF000C01400054004080B584B093
:102BFC0000AF78600B46FB701346BB704FF47A73D2
:102C0C00FB600121786802F0F8F84FF47A73FB60EE
:102C1C0006E0FB685A1EFA60002B01D1FF233AE054
:102C2C001F49786802F053F90346002BF1D0FB786A
:102C3C0000221946786802F02DF94FF47A73FB6084
:102C4C0006E0FB685A1EFA60002B01D1FF2322E03C
:102C5C001449786802F03BF90346002BF1D0BB789D
:102C6C001946786802F007F94FF47A73FB6006E0B6
:102C7C00FB685A1EFA60002B01D1FF230BE00A49B6
:102C8C00786802F024F90346002BF1D00121786812
:102C9C0002F0D2F8002318461037BD4680BD00BFA5
:102CAC0001000300800007008400070080B584B099
:102CBC0000AF0346FB71FB7923F00F03FB73FB7929
:102CCC001B01BB73FB7B23F00703DBB21A464E21BF
:102CDC001C48FFF78BFFFB7B43F00203DBB223F0B6
:102CEC000503DBB21A464E211648FFF77FFFFB7B2C
:102CFC0023F00703DBB21A464E211248FFF776FF8A
:102D0C00BB7B23F00703DBB21A464E210D48FFF7BD
:102D1C006DFFBB7B43F00203DBB223F00503DBB298
:102D2C001A464E210748FFF761FFBB7B23F00703D0
:102D3C00DBB21A464E210348FFF758FF00BF10378D
:102D4C00BD4680BD0054004080B584B000AF034642
:102D5C00FB71FB7923F00F03FB73FB791B01BB7336
:102D6C0097F90F3023F007035BB243F004035BB217
:102D7C00DBB21A464E212448FFF738FFFB7B43F0A9
:102D8C000603DBB223F00103DBB21A464E211E48C8
:102D9C00FFF72CFF97F90F3023F007035BB243F0DA
:102DAC0004035BB2DBB21A464E211748FFF71EFF35
:102DBC0097F90E3023F007035BB243F004035BB2C8
:102DCC00DBB21A464E211048FFF710FFBB7B43F0D5
:102DDC000603DBB223F00103DBB21A464E210A488C
:102DEC00FFF704FF97F90E3023F007035BB243F0B3
:102DFC0004035BB2DBB21A464E210348FFF7F6FE22
:102E0C0000BF1037BD4680BD0054004090B585B062
:102E1C0000AF78600023FB7309E0FB7B7A681344F6
:102E2C001B781846FFF790FFFB7B0133FB73FC7B91
:102E3C007868FDF785F903469C42EED300BF00BFCE
:102E4C001437BD4690BD000080B58AB000AFF86065
:102E5C00B9607A60FFF726FA03467F4A13607F4B0E
:102E6C0000221A70002387F826307D4B00221A703E
:102E7C007C4B00221A70002387F827301CE078481E
:102E8C00FDF75EF903461A46754B134476491A460C
:102E9C000B461B8813807348FDF752F903461A46FC
:102EAC00704B134470491A460B461B88138097F8D5
:102EBC002730013387F8273097F82730062BDED9D7
:102ECC00F968674803F054F8B968664803F050F89D
:102EDC00002387F827301CE06148FDF731F90346E1
:102EEC001A465F4B134460491A460B461B881380E5
:102EFC005C48FDF725F903461A465A4B13445A49C8
:102F0C001A460B461B88138097F82730013387F835
:102F1C00273097F82730062BDED95148FDF710F9EA
:102F2C000346DAB2514B1A704E48FDF709F90346C5
:102F3C00DAB24F4B1A707AE0FFF7B4F90246464BFF
:102F4C001B68D31A7A689A4271D2FFF7ABF9034621
:102F5C00414A1360414B1B780133DAB23F4B1A7074
:102F6C0097F82620414B1B78013B9A4229DA002323
:102F7C0087F8273019E0394B1B781A4697F8273019
:102F8C0013443A4A127893FBF2F101FB02F29A1ABB
:102F9C0097F8273032498A5C28333B4403F80C2CD1
:102FAC0097F82730013387F8273097F82730072B0D
:102FBC00E1D98020FFF77AFE07F11C031846FFF7D2
:102FCC0025FF97F826202A4B1B78013B9A4229DAD9
:102FDC00002387F8273019E0204B1B781A4697F806
:102FEC0027301344224A127893FBF2F101FB02F2D0
:102FFC009A1A97F827301B498A5C28333B4403F80C
:10300C00182C97F82730013387F8273097F827309A
:10301C00072BE1D9C020FFF749FE07F11003184632
:10302C00FFF7F4FE97F82630013387F8263097F82F
:10303C0026200E4B1B78013B9A42FFF67DAF97F88A
:10304C0026200B4B1B78013B9A42FFF675AF00BF55
:10305C0000BF2837BD4680BD0C0A0020100A002096
:10306C00140A00208C0A002048720008010B002072
:10307C00020B002080B588B000AFF860B960134631
:10308C00FB71FB79002B3FD1FFF70CF903463E4A4D
:10309C0013603E4B00221A703D4B00221A70002325
:1030AC00FB770EE03A48FDF74BF803461A46384BCF
:1030BC00134438491A460B461B881380FB7F013397
:1030CC00FB77FB7F062BEDD9F968314802F050FFF6
:1030DC000023FB770EE02E48FDF732F803461A4624
:1030EC002B4B13442B491A460B461B881380FB7F32
:1030FC000133FB77FB7F062BEDD92548FDF720F834
:10310C000346DAB2244B1A70FB681B78002B37D0BD
:10311C00FFF7C8F802461C4B1B68D31ABA689A42D0
:10312C002ED2FFF7BFF80346174A1360174B1B78D4
:10313C000133DAB2154B1A700023FB7715E0134BF1
:10314C001B781A46FB7F1344134A127893FBF2F157
:10315C0001FB02F29A1AFB7F0D498A5C20333B4437
:10316C0003F80C2CFB7F0133FB77FB7F072BE6D995
:10317C008020FFF79BFD07F114031846FFF746FE6E
:10318C0000BF2037BD4680BD040B0020080B00207B
:10319C000C0B002048720008370B002080B588B05B
:1031AC0000AFF860B9601346FB71FB79002B3FD17F
:1031BC00FFF778F803463E4A13603E4B00221A7024
:1031CC003D4B00221A700023FB770EE03A48FCF7C7
:1031DC00B7FF03461A46384B134438491A460B4678
:1031EC001B881380FB7F0133FB77FB7F062BEDD90C
:1031FC00F968314802F0BCFE0023FB770EE02E4844
:10320C00FCF79EFF03461A462B4B13442B491A46D8
:10321C000B461B881380FB7F0133FB77FB7F062B50
:10322C00EDD92548FCF78CFF0346DAB2244B1A7013
:10323C00FB681B78002B37D0FFF734F802461C4B89
:10324C001B68D31ABA689A422ED2FFF72BF80346A2
:10325C00174A1360174B1B780133DAB2154B1A70EF
:10326C000023FB7715E0134B1B781A46FB7F1344A6
:10327C00134A127893FBF2F101FB02F29A1AFB7FCC
:10328C000D498A5C20333B4403F80C2CFB7F013343
:10329C00FB77FB7F072BE6D9C020FFF707FD07F173
:1032AC0014031846FFF7B2FD00BF2037BD4680BDA2
:1032BC00380B00203C0B0020400B0020487200080B
:1032CC006B0B002080B582B000AFFFF745FC0023EC
:1032DC00FB712DE0FB79204AD35C1B01DBB21A4653
:1032EC004E211E48FFF782FC0A20FFF721FCFB79D8
:1032FC00194AD35C1B015BB243F002035BB2DBB235
:10330C001A464E211548FFF771FC0A20FFF710FCF6
:10331C00FB79114AD35C1B01DBB21A464E210F48D4
:10332C00FFF764FC0A20FFF703FCFB790133FB7108
:10333C00FB790B2BCED98020FFF7B8FC0848FFF7A0
:10334C0065FDC020FFF7B2FC0548FFF75FFD00BF2D
:10335C000837BD4680BD00BFF80300200054004074
:10336C004C72000880B483B000AF786000BF7B68FB
:10337C005A1E7A60002BFAD100BF00BF0C37BD4635
:10338C0080BC704780B500AF00224FF480510748D5
:10339C0001F03BFC0A20FFF7CBFB01224FF48051DC
:1033AC00024801F032FC0123184680BD000C01409C
:1033BC0080B582B000AF0346FB710F4B32221A70FE
:1033CC000D4B05225A700C4BFF229A700A4B0122AE
:1033DC00DA70094AFB7913714FF47A7205210648A9
:1033EC0000F000F90346002B01D1002300E001237B
:1033FC0018460837BD4680BD840B002080B584B0CC
:10340C0000AFB9607A601A460346FB731346BB8162
:10341C000F4B4A221A700E4B01225A700C4AFB7B3E
:10342C009370BB891A460321094800F0DBF8034668
:10343C00002B01D1002307E01420FFF779FB7968FA
:10344C00B86800F007F8034618461037BD4680BD33
:10345C00840B002080B584B000AF78603960002206
:10346C001321194800F0C6F9174BDB79012B01D059
:10347C00002324E0144B5B7ABB81BB891B02BB810C
:10348C00114B9B7A9AB2BB891343BB810E4B1A7BAF
:10349C003B681A700023FB730BE0FB7B03F10D02FE
:1034AC00FB7B79680B4408498A5C1A70FB7B0133FF
:1034BC00FB73054B1B7BFA7B9A42EED30123184618
:1034CC001037BD4680BD00BFC40B002080B500AFD7
:1034DC00124B14221A70114B01225A700F4B1422EA
:1034EC009A700E4B0022DA704FF4FA7204210B48DA
:1034FC0000F078F80346002B01D100230BE0FF22EB
:10350C000921074800F076F9054B9B79152B0CBF68
:10351C0001230023DBB2184680BD00BF840B0020C2
:10352C00C40B002080B584B000AF2B4A3B4692E818
:10353C000300186004331980284B02221A704FF4D0
:10354C00FA720121254800F04DF80346002B01D1F9
:10355C0000233CE0FF220D21214800F04BF93B46B3
:10356C00062219461E4802F0C3FC0346002B01D06C
:10357C0000232CE00723FB60FB685A1CFA60184AF6
:10358C00D35CBB60BB681B02BB60FB685A1CFA6057
:10359C00134AD35C1A46BB681343BB60BB681B025F
:1035AC00BB60FB685A1CFA600D4AD35C1A46BB68B8
:1035BC001343BB60BB681B02BB60FB685A1CFA6000
:1035CC00074AD35C1A46BB681343BB60BB681846FA
:1035DC001037BD4680BD00BF60720008840B002010
:1035EC00C40B002080B582B000AF78600B46FB7036
:1035FC0013463B80FB781946786800F01BF83B8833
:10360C00184600F091FA0346002B01D100230DE07F
:10361C006420FFF7A7FE00F05FF90346002B01D1F1
:10362C00002303E06420FFF79DFE012318460837B2
:10363C00BD4680BD2DE9F04389B000AF78600B46E4
:10364C00FB706B461E46FB7803F108014B1E3B6179
:10365C000A460023904699464FF000024FF00003B3
:10366C004FEAC90343EA58734FEAC8020A460023DB
:10367C0014461D464FF000024FF00003EB0043EAE6
:10368C005473E2000B460733DB08DB00ADEB030D94
:10369C006B460033FB60FB68BB61FB780133FB704E
:1036AC00BB6901221A70BB690133BB61BB69002283
:1036BC001A70BB690133BB61BB6900221A70BB690C
:1036CC000133BB61BB69FF221A70BB690133BB615B
:1036DC00FF23FB75BB69FA781A70BB690133BB61B8
:1036EC00FB785B42DAB2BB691A70BB690133BB6110
:1036FC00BB69D4221A70BB690133BB61FB7D2C3BC7
:10370C00FB750023FB7712E0FB7F7A6813441A7871
:10371C00BB691A70BB690133BB61FB7F7A681344C8
:10372C001A78FB7D1344FB75FB7F0133FB77FA7F23
:10373C00FB78013B9A42E7DBFB7DDB43DAB2BB69EA
:10374C001A70BB690133BB61BB6900221A70BB697B
:10375C000133BB61FB7808331946F86800F006F8B2
:10376C00B54600BF2437BD46BDE8F08380B584B0B4
:10377C0000AF7860396000BF02211C4801F03AFEAE
:10378C000346002BF8D000224FF48051184801F06A
:10379C003CFA0220FFF7CCF90023FB6017E07A68B3
:1037AC00FB6813441B789BB21946104801F0CAFD04
:1037BC004FF4C870FFF7D6FD00BF02210B4801F093
:1037CC0019FE0346002BF8D0FB680133FB60FA6846
:1037DC003B689A42E3D301224FF48051044801F034
:1037EC0014FA00BF1037BD4680BD00BF0038004042
:1037FC00000C014080B584B000AF78600B46FB70C4
:10380C0013463B8000224FF48051314801F0FDF902
:10381C000220FFF78DF900BF02212E4801F0EAFDCE
:10382C000346002BF8D003212A4801F08BFD00BF82
:10383C000221284801F0DEFD0346002BF8D000BF22
:10384C000121244801F0D6FD0346002BF8D0214875
:10385C0001F086FD0346BB730023FB7329E04FF494
:10386C00C870FFF77FFD3B8819461A4801F06AFDC6
:10387C004FF4C870FFF776FD00BF0221154801F028
:10388C00B9FD0346002BF8D000BF0121114801F00F
:10389C00B1FD0346002BF8D00E4801F061FD034644
:1038AC001946FB7B7A681344CAB21A70FB7B01334E
:1038BC00FB73FA7BFB789A42D1D301224FF48051EF
:1038CC00034801F0A2F900BF1037BD4680BD00BF10
:1038DC00000C01400038004080B584B000AF3F4A76
:1038EC0007F1080392E803001860043319800022E2
:1038FC004FF480513A4801F088F90220FFF718F98B
:10390C0000BF0221374801F075FD0346002BF8D0AB
:10391C000321344801F016FD00BF0221314801F0AB
:10392C0069FD0346002BF8D000BF01212D4801F0A2
:10393C0061FD0346002BF8D02A4801F011FD034627
:10394C00BB730023FB732FE06420FFF70BFD00BF5C
:10395C000221244801F04EFD0346002BF8D0002133
:10396C00204801F0EFFC6420FFF7FCFC00BF0221B3
:10397C001C4801F03FFD0346002BF8D000BF01218D
:10398C00184801F037FD0346002BF8D0154801F01C
:10399C00E7FC03461A46FB7BD2B210333B4403F8D8
:1039AC00102CFB7B0133FB73FB7B052BCCD9012249
:1039BC004FF480510A4801F028F907F108013B4601
:1039CC000622184602F094FA0346002B0CBF012382
:1039DC000023DBB218461037BD4680BD6872000864
:1039EC00000C01400038004080B582B000AF00BF31
:1039FC000221494801F0FEFC0346002BF8D000BF21
:103A0C000121454801F0F6FC0346002BF8D0424852
:103A1C0001F0A6FC03461946404B1B781A46C9B266
:103A2C003F4B99543D4B1B780133DAB23B4B1A7028
:103A3C0000224FF480513B4801F0E7F80220FFF7D9
:103A4C0077F80221344801F07DFC00BF0221324896
:103A5C0001F0D0FC0346002BF8D000BF01212E480A
:103A6C0001F0C8FC0346002BF8D02B4801F078FC81
:103A7C0003461946294B1B781A46C9B2284B995450
:103A8C00264B1B780133DAB2244B1A704FF4C870F2
:103A9C00FFF768FC00BF02211F4801F0ABFC034696
:103AAC00002BF8D0FF211C4801F04CFC4FF4C870DF
:103ABC00FFF758FC00BF0221174801F09BFC03469E
:103ACC00002BF8D000BF0121134801F093FC0346F2
:103ADC00002BF8D0104801F043FC0346FB71012287
:103AEC004FF480510F4801F090F80C4B1B7819469D
:103AFC000B4AFB795354094B1B780133DAB2074B51
:103B0C001A70FB79012B0CBF01230023DBB2184682
:103B1C000837BD4680BD00BF00380040800B002038
:103B2C006C0B0020000C014080B584B000AF034644
:103B3C00FB800023FB810520FEF7FAFFFB89053390
:103B4C00FB810EE0FB88002B08D0FB890533FB8141
:103B5C00FA89FB889A4201D9002308E00520FEF778
:103B6C00E7FFFFF741FF0346002BEBD0012318467C
:103B7C001037BD4680BD000080B586B000AFF86040
:103B8C007A601A460B46FB721346BB722F4B3A6A8D
:103B9C001068186092889A80FB7A1A46F9682C484B
:103BAC0002F0B6F997F90B202A4B1A702A4B4022D7
:103BBC001A70294B01225A70BB7A002B01D061225A
:103BCC0000E06022244B9A707B68DAB2224BDA70E8
:103BDC00224B1E4A1068186092889A800023FB754D
:103BEC000AE0FB7D1A4AD256FB7D0A33D1B21A4A3F
:103BFC00D154FB7D0133FB75FB7D164A92F90020F5
:103C0C009342EEDB134B93F90030DBB20A33DBB299
:103C1C00642219461048FFF7E5FC0346002B01D13E
:103C2C0000230EE00A20FEF783FFFF220C210C4834
:103C3C00FFF7E0FD0A4BDB79002B01D0002300E0FD
:103C4C00012318461837BD4680BD00BF0C0C002060
:103C5C00040C00200B0C0020840B0020880B00208F
:103C6C00C40B002080B582B000AF03463960FB71F5
:103C7C00174B40221A70164B01225A70144B3022EB
:103C8C009A70134AFB79D370642204211048FFF711
:103C9C00A9FC0346002B01D1002314E00A20FEF7F7
:103CAC0047FFFF221A210B48FFF7A4FD094BDB79D4
:103CBC00002B01D0002306E0074B10221946386870
:103CCC0002F026F9012318460837BD4680BD00BF17
:103CDC00840B0020C40B0020CC0B002080B582B0DC
:103CEC0000AF03463960FB71154B40221A70144B20
:103CFC0001225A70124BA0229A70114AFB79D37090
:103D0C00104B10223968184602F002F96422142173
:103D1C000B48FFF767FC0346002B01D100230BE097
:103D2C000A20FEF705FF0A20FEF702FFFF221A21E8
:103D3C000548FFF75FFD012318460837BD4680BDD7
:103D4C00840B0020880B0020C40B002080B58EB0A3
:103D5C0002AFF8607B600B46FB721346BB7200230C
:103D6C0087F82F30204A07F1240392E803001860EB
:103D7C0004331980002387F82E301C4A07F11003F6
:103D8C001268114619800233120C1A70F97A07F175
:103D9C002403009301230022F868FFF7EDFE03468D
:103DAC00002B05D1012387F82D3097F82D3016E024
:103DBC00BB7A79681846FFF755FF034687F82D3014
:103DCC0097F82D30002B05D1022387F82D3097F86A
:103DDC002D3004E0002387F82D3097F82D3018464D
:103DEC003037BD4680BD00BFA4720008AC7200081D
:103DFC0080B400AF3B4B1B6A03F40043B3F5004F98
:103E0C006CD0384BDB69374A43F0C053D361364B27
:103E1C001B68354A43F480731360324B1B6A314A7A
:103E2C0043F4803313622F4B1B6A2E4A23F48033E6
:103E3C0013622C4B1B6A2B4A43F401431362294B2C
:103E4C001B6A284A43F00103136200BF254B1B6A0F
:103E5C0003F00103012BF9D1244B9B8D9BB2234A18
:103E6C0043F003039BB2938500BF214B9B889BB20D
:103E7C0003F02003002BF8D01D4B9B889BB21C4AEF
:103E8C0043F010039BB29380194B47F6FF729A8153
:103E9C00174B9B889BB2164A23F010039BB293805E
:103EAC0000BF134B9B889BB203F02003002BF8D070
:103EBC000F4B9B889BB20E4A23F010039BB293804E
:103ECC0000BF0B4B9B889BB203F00803082BF8D167
:103EDC00054B1B68044A23F48073136000BFBD4676
:103EEC0080BC70470010024000700040006C004025
:103EFC000028004080B400AF054B1B8B9BB21B0409
:103F0C00034A928B92B213431846BD4680BC70474D
:103F1C000028004080B483B000AF78601F4BDB6991
:103F2C001E4A43F0C053D3611D4B1B681C4A43F41B
:103F3C008073136000BF1B4B9B889BB203F0200364
:103F4C00002BF8D0174B9B889BB2164A43F01003FA
:103F5C009BB293807B681A0C124B92B21A83114B52
:103F6C007A6892B29A830F4B9B889BB20D4A23F0CE
:103F7C0010039BB2938000BF0A4B9B889BB203F04B
:103F8C002003002BF8D0064B1B68054A23F48073E2
:103F9C00136000BF0C37BD4680BC70470010024058
:103FAC00007000400028004080B487B000AF7860FB
:103FBC0039607B68654AA2FB0312120C644901FB51
:103FCC0002F29B1A7B617B6803F52843C0335F4A7E
:103FDC00A2FB0323DA0B5F4B13443B613B695B0889
:103FEC003B613A695C4BA3FB0213D11A49080B44A1
:103FFC0099080B46DB005B1AD11ACAB23B685A729D
:10400C003B6903F5FA432C333B613B699B0003335B
:10401C00524AA2FB0323DB0BFB73FB7B504A02FBD4
:10402C0003F3002B00DA03339B101A463B699B1AEF
:10403C003B613B699B0003334A4AA2FB0323DB0928
:10404C00BB73BB7B40F2B55202FB03F3002B00DACF
:10405C0003339B101A463B699B1A3B613A69134622
:10406C009B0013440233404AA2FB0323DB097B73FE
:10407C003B69D9B27A7B1346DB0013441A01134413
:10408C0002333A4A82FB03025210DB17D31ADBB21B
:10409C00CB1ADBB20133DAB23B685A717B7B344A00
:1040AC00A2FB0323DB08DBB21A469B00D31A9B004E
:1040BC00DAB27B7B1344DBB20333DAB23B681A719E
:1040CC00FB7B642203FB02F2BB7B1344A3F59653E8
:1040DC007A7B2749A1FB0212D208D2B21A443B6860
:1040EC001A607B69234AA2FB0323DB0ADAB23B6822
:1040FC009A717A691F4BA3FB0213DB0A4FF46161BF
:10410C0001FB03F3D31A1C4AA2FB03235B09DAB2AB
:10411C003B68DA717B69174AA2FB0312D20A4FF48F
:10412C00616101FB02F29A1A134BA3FB02135909AA
:10413C000B461B015B1A9B00D11ACAB23B681A7260
:10414C0000BF1C37BD4680BC704700BF07452EC260
:10415C0080510100177B4A0025499224BD066B391A
:10416C00B13A020073B06D16D7802BD667666666BF
:10417C00CDCCCCCCC5B3A2918988888880B489B0C9
:10418C0000AF78607B681B79C3F10E03354A82FB64
:10419C0003125210DB17D31AFB777B681B6803F5ED
:1041AC009652FB7FD31ABB617B681A79FB7F194649
:1041BC0049000B449B00DBB21344DBB2033BFB75A1
:1041CC007B685B791946FA7D1346DB0013441A01B0
:1041DC0013440233244A82FB03025210DB17D31A16
:1041EC00CA18BB6940F26D1101FB03F31A44BB6999
:1041FC00002B00DA03339B101A44BB691B4981FB6B
:10420C0003014911DB175B1A1A44BB69174981FB7F
:10421C000301C911DB17CB1A1A44154B13443B612C
:10422C003B69144A02FB03F3FB607B681B7A19465B
:10423C007B68DB791A4613461B019B1A9B00CA1834
:10424C007B689B7919464FF4616301FB03F31344BC
:10425C001A46FB681344FB60FB6818462437BD46BE
:10426C0080BC7047ABAAAA2A676666661F85EB51AD
:10427C004745DAFF8051010080B596B000AF7860F9
:10428C003960002387F84F303B683B653B6D013349
:10429C003B653B6D01333B653B6D01333B653B6DD2
:1042AC0001333B653B6D01333B6500237B650CE0C3
:1042BC003B6D5A1C3A65197807F10C027B6D13445F
:1042CC000A461A707B6D01337B657B6D032BEFDD2A
:1042DC0007F10C03184601F0DDFD02467B681A60FD
:1042EC007B681B68002B05D07B681B6840F2BB7297
:1042FC00934205DC012387F84F3097F84F30F4E0F8
:10430C003B6D01333B6507F10C031846FBF718FFB7
:10431C00024607F10C030021184601F021FE002390
:10432C007B650CE03B6D5A1C3A65197807F10C0261
:10433C007B6D13440A461A707B6D01337B657B6D74
:10434C00012BEFDD07F10C03184601F0A3FD03462A
:10435C00DAB27B681A717B681B79002B03D07B68FF
:10436C001B790C2B05D9022387F84F3097F84F3067
:10437C00BBE03B6D01333B6507F10C031846FBF7C3
:10438C00DFFE024607F10C030021184601F0E8FDA0
:10439C0000237B650CE03B6D5A1C3A65197807F1DC
:1043AC000C027B6D13440A461A707B6D01337B65DE
:1043BC007B6D012BEFDD07F10C03184601F06AFD54
:1043CC000346DAB27B685A717B685B79002B03D0A9
:1043DC007B685B791F2B05D9032387F84F3097F83F
:1043EC004F3082E03B6D01333B6507F10C031846FF
:1043FC00FBF7A6FE024607F10C030021184601F05C
:10440C00AFFD00237B650CE03B6D5A1C3A651978B7
:10441C0007F10C027B6D13440A461A707B6D013355
:10442C007B657B6D012BEFDD07F10C03184601F06A
:10443C0031FD0346DAB27B689A713B6D01333B6503
:10444C0007F10C031846FBF77BFE024607F10C0341
:10445C000021184601F084FD00237B650CE03B6DC8
:10446C005A1C3A65197807F10C027B6D13440A4605
:10447C001A707B6D01337B657B6D012BEFDD07F1D2
:10448C000C03184601F006FD0346DAB27B68DA71BC
:10449C003B6D01333B6507F10C031846FBF750FEEF
:1044AC00024607F10C030021184601F059FD0023C8
:1044BC007B650CE03B6D5A1C3A65197807F10C02D0
:1044CC007B6D13440A461A707B6D01337B657B6DE3
:1044DC00012BEFDD07F10C03184601F0DBFC034662
:1044EC00DAB27B681A7297F84F3018465837BD46C7
:1044FC0080BD000080B483B000AF0346FB71FB7934
:10450C0003F01F03012202FA03F1054A97F9073061
:10451C005B0942F8231000BF0C37BD4680BC7047C6
:10452C0000E100E080B483B000AF0346FB71FB797F
:10453C0003F01F03012202FA03F1064A97F9073030
:10454C005B09203342F8231000BF0C37BD4680BCFA
:10455C00704700BF00E100E080B483B000AF0346B9
:10456C003960FB7197F90730002B0BDA3B68DAB234
:10457C000C49FB7903F00F03043B1201D2B20B443C
:10458C001A7609E03B68DAB2074997F9073012014D
:10459C00D2B20B4483F8002300BF0C37BD4680BC5D
:1045AC00704700BF00ED00E000E100E080B586B090
:1045BC0000AF204B01221A7000211F4800F073FE3F
:1045CC002420FFF7AFFF0023BB804FF48273FB80E6
:1045DC0000233B8100237B810023BB810023FB81D3
:1045EC0038233B8280237B820723BB823B1D1946E9
:1045FC00114800F015FE002260210F4800F072FEF9
:10460C0000210D4800F0D7FE01224FF480510B48D9
:10461C0000F0FBFA0121084800F0AEFE012106482B
:10462C0000F041FE034B00221A7000BF1837BD4644
:10463C0080BD00BF220C002000380040000C01405F
:10464C0080B485B000AFF860B9601346FB80164BA0
:10465C0001221A70154AFB681360154ABB68136077
:10466C00144B00221A80144B01221A80134AFB8827
:10467C00138000BF124B1B899BB203F00203002B6B
:10468C00F8D00A4B1B68002B05D0084B1B680D4A51
:10469C001B78137002E00B4BFF221A7000BF14370B
:1046AC00BD4680BC704700BF220C0020140C0020BB
:1046BC00180C00201C0C00201E0C0020200C0020CC
:1046CC00003800400C38004080B586B000AFF86070
:1046DC00B9607A60FB700023FB751AE0FB7D9B00D0
:1046EC00FA6813441868FB7D9B00BA681344196878
:1046FC00FB7D5B007A6813441B881A46FFF7A0FF0A
:10470C0000BF084B1B78DBB2002BFAD1FB7D0133C9
:10471C00FB75FA7DFB789A42E0D300BF00BF1837D7
:10472C00BD4680BD220C002080B483B000AF1F4B6F
:10473C001B78FB711E4B1B68002B07D01C4B1B6896
:10474C001C4A12881344FA79D2B21A701A4B1A887E
:10475C001A4B1B889A4215D2194B1B68002B08D098
:10476C00174B1B68144A12881344104A1B78137099
:10477C0002E00E4BFF221A700F4B1B8801339AB2CA
:10478C000D4B1A800B4B1B8801339AB2094B1A80C4
:10479C00084B1A88094B1B889A4202D3094B0022FA
:1047AC001A7000BF0C37BD4680BC70470C380040F7
:1047BC00180C00201C0C00201E0C0020200C0020CB
:1047CC00140C0020220C002080B586B000AF012212
:1047DC004FF48071254800F018FA01224FF48051F3
:1047EC00224800F012FA0021214800F05CFD002361
:1047FC00BB804FF48273FB8000233B8100237B81C1
:10480C000023BB814FF40073FB8138233B820023D0
:10481C007B820723BB823B1D1946154800F000FD27
:10482C000021134800F0C7FD01224FF480510F48BE
:10483C0000F0EBF901210E4800F09EFD01226021F1
:10484C000B4800F04FFD03212420FFF785FE2420A8
:10485C00FFF750FE0121064800F025FD054B002214
:10486C001A7000BF1837BD4680BD00BF000C014058
:10487C0000380040220C002080B584B000AFF860F6
:10488C000B467A607B8101224FF48071204800F046
:10489C00BCF9204B03221A70FB681B0CDAB21D4BBF
:1048AC005A70FB681B0ADAB21A4B9A70FB68DAB2C0
:1048BC00184BDA70184B174A1A60184B00221A6002
:1048CC00174B04221A80144B00225A60134A7B683F
:1048DC005360134A7B89538000224FF480710C483B
:1048EC0000F093F902230E4A0C490B48FFF7ECFE3B
:1048FC0000BF0C4B1B78DBB2002BFAD101224FF41A
:10490C008071034800F081F900BF1037BD4680BDAF
:10491C00000C0140380C0020240C00202C0C002032
:10492C00340C0020220C002080B483B000AF7860DF
:10493C00054A7B6843F0BF6343F40033D36000BF88
:10494C000C37BD4680BC704700ED00E080B487B0EA
:10495C0000AF786000237B6100233B610F23FB6079
:10496C007B68DB78002B3AD0274BDB68DB431B0AD8
:10497C0003F007037B617B69C3F104033B61FA68B5
:10498C007B6922FA03F3FB607B685B781A463B6910
:10499C0002FA03F37B617B689B781A46FB68134031
:1049AC007A6913437B617B691B017B61174A7B68C6
:1049BC001B787969C9B213440A4683F800237B68D3
:1049CC001B7803F01F0311497A6812785209D2B28E
:1049DC001046012202FA03F341F820300FE07B6805
:1049EC001B7803F01F0309497A6812785209D2B276
:1049FC00104601229A4000F1200341F8232000BF09
:104A0C001C37BD4680BC704700ED00E000E100E0C3
:104A1C0080B485B000AF78600023FB73084B5A69F3
:104A2C007B681340002B02D00123FB7301E00023B1
:104A3C00FB73FB7B18461437BD4680BC704700BF28
:104A4C000004014080B483B000AF7860034A7B68F7
:104A5C00536100BF0C37BD4680BC70470004014059
:104A6C0080B489B000AF786039600023FB6100230B
:104A7C003B610023BB610023FB6000237B610023AF
:104A8C00BB603B68DB7803F00F03FB613B68DB78B2
:104A9C0003F01003002B05D03B689B781A46FB698A
:104AAC001343FB613B681B88DBB2002B44D07B6853
:104ABC001B687B610023BB6138E00122BB6902FAF1
:104ACC0003F3FB603B681B881A46FB6813403B6191
:104ADC003A69FB689A4226D1BB699B00FB600F22A6
:104AEC00FB6802FA03F3BB60BB68DB437A691340D3
:104AFC007B61FA69FB6802FA03F37A6913437B6101
:104B0C003B68DB78282B05D10122BB699A407B6876
:104B1C005A6108E03B68DB78482B04D10122BB6961
:104B2C009A407B681A61BB690133BB61BB69072B77
:104B3C00C3D97B687A691A603B681B88FF2B46D9FE
:104B4C007B685B687B610023BB613AE0BB6908331F
:104B5C00012202FA03F3FB603B681B881A46FB68D0
:104B6C0013403B613A69FB689A4227D1BB699B00B1
:104B7C00FB600F22FB6802FA03F3BB60BB68DB43EC
:104B8C007A6913407B61FA69FB6802FA03F37A696C
:104B9C0013437B613B68DB78282B05D1BB69083359
:104BAC0001229A407B685A613B68DB78482B05D11F
:104BBC00BB69083301229A407B681A61BB690133D7
:104BCC00BB61BB69072BC1D97B687A695A6000BF8E
:104BDC002437BD4680BC704780B485B000AF786088
:104BEC000B467B800023FB737B689A687B881340A1
:104BFC00002B02D00123FB7301E00023FB73FB7B32
:104C0C0018461437BD4680BC704780B483B000AFE3
:104C1C0078600B467B8013467B707B78002B03D02F
:104C2C007A887B681A6102E07A887B685A6100BFD7
:104C3C000C37BD4680BC704780B58AB000AF786039
:104C4C0039600023FB8400237B840423BB84574BF3
:104C5C00FB617B689B88FB84FB8C23F03F03FB840C
:104C6C0007F10803184600F0D9F93B69FB61FB69B1
:104C7C004F4AA2FB03239B0C7B84FA8C7B8C134343
:104C8C00FB847B68FA8C9A807B681B889BB223F030
:104C9C0001039AB27B681A800023FB843B681B6873
:104CAC00444A934215D83B681B685B00FA69B2FB17
:104CBC00F3F3BB84BB8C032B01D80423BB84FA8C89
:104CCC00BB8C1343FB847B8C01339AB27B681A84B4
:104CDC0040E03B68DB884BF6FF72934209D13B689E
:104CEC001A6813465B001344FA69B2FBF3F3BB84F6
:104CFC000EE03B681A6813469B0013449A00134459
:104D0C00FA69B2FBF3F3BB84BB8C43F48043BB84E2
:104D1C00BB8CC3F30B03002B03D1BB8C43F00103FF
:104D2C00BB84BA8CFB8C13439BB26FEA43436FEA90
:104D3C005343FB847B8C4FF4967202FB03F31E4AA5
:104D4C0082FB03129211DB17D31A9BB201339AB276
:104D5C007B681A847B68FA8C9A837B681B889BB26D
:104D6C0043F001039AB27B681A807B681B88FB8432
:104D7C00FB8C23F4816323F00203FB843B689A8849
:104D8C003B685B8913439AB2FB8C1343FB847B68AF
:104D9C00FA8C1A803B689A893B681B8913439AB238
:104DAC007B681A8100BF2837BD4680BD00127A008F
:104DBC0083DE1B43A0860100D34D621080B483B008
:104DCC0000AF78600B46FB70FB78002B08D07B683B
:104DDC001B889BB243F001039AB27B681A8007E0F0
:104DEC007B681B889BB223F001039AB27B681A8004
:104DFC0000BF0C37BD4680BC704780B483B000AF99
:104E0C0078600B46FB70FB78002B08D07B681B8806
:104E1C009BB243F480739AB27B681A8007E07B687C
:104E2C001B889BB223F480739AB27B681A8000BFF4
:104E3C000C37BD4680BC704780B483B000AF78603F
:104E4C000B46FB70FB78002B08D07B681B889BB251
:104E5C0043F400739AB27B681A8007E07B681B8866
:104E6C009BB223F400739AB27B681A8000BF0C3794
:104E7C00BD4680BC704780B483B000AF78600B46F1
:104E8C00FB70FB789AB27B681A8200BF0C37BD4668
:104E9C0080BC704780B483B000AF78600B46FB7069
:104EAC001346BB70BB78002B04D0FB7843F0010396
:104EBC00FB7003E0FB7823F00103FB70FB789AB2E4
:104ECC007B681A8200BF0C37BD4680BC704780B42B
:104EDC0087B000AF7860396000233B610023FB6032
:104EEC000023BB600023FB757B689B8A9BB2FB6035
:104EFC007B681B8B9BB2BB60BB681B04BB60FA68F6
:104F0C00BB68134323F07F433B613A693B68134012
:104F1C003A689A4202D10123FB7501E00023FB752C
:104F2C00FB7D18461C37BD4680BC704780B483B0EF
:104F3C0000AF7860134B1B68124A23F48033136064
:104F4C00104B1B680F4A23F4802313607B68B3F566
:104F5C00803F04D07B68B3F5802F07D00DE0094B60
:104F6C001B68084A43F48033136006E0054B1B684A
:104F7C00044A43F4A023136000BF00BF0C37BD46A6
:104F8C0080BC70470010024080B485B000AF7860E0
:104F9C0039600023FB600A4B5B68FB60FB6823F401
:104FAC007C13FB607A683B681343FA681343FB601D
:104FBC00034AFB68536000BF1437BD4680BC704782
:104FCC000010024080B483B000AF0346FB71044A6A
:104FDC00FB79136000BF0C37BD4680BC704700BF27
:104FEC006000424280B485B000AF78600023FB6063
:104FFC00094B5B68FB60FB6823F00303FB60FA68FA
:10500C007B681343FB60044AFB68536000BF143792
:10501C00BD4680BC704700BF0010024080B487B012
:10502C0000AF786000237B6100233B610023FB60B1
:10503C000023BB604F4B5B6803F00C037B617B6907
:10504C00082B11D07B69082B3AD87B69002B03D035
:10505C007B69042B04D033E07B68474A1A6033E049
:10506C007B68454A1A602FE0424B5B6803F470136F
:10507C003B61404B5B6803F48033FB603B699B0CEA
:10508C0002333B61FB68002B06D13B693B4A03FBB7
:10509C0002F27B681A6017E0364B5B6803F400334E
:1050AC00002B06D03B69354A03FB02F27B681A6081
:1050BC000AE03B69304A03FB02F27B681A6003E0AA
:1050CC007B682D4A1A6000BF2A4B5B6803F0F00323
:1050DC007B617B691B097B61294A7B6913441B78C3
:1050EC00DBB2BB607B681A68BB68DA407B685A60CD
:1050FC00204B5B6803F4E0637B617B691B0A7B617B
:10510C001F4A7B6913441B78DBB2BB607B685A680F
:10511C00BB68DA407B689A60164B5B6803F460539B
:10512C007B617B69DB0A7B61154A7B6913441B78C5
:10513C00DBB2BB607B685A68BB68DA407B68DA60BC
:10514C000C4B5B6803F440437B617B699B0B7B617D
:10515C000C4A7B6913441B78DBB2BB607B68DA6852
:10516C00BB68B2FBF3F27B681A6100BF1C37BD460B
:10517C0080BC70470010024000127A0000093D000C
:10518C00040400201404002080B483B000AF7860C5
:10519C000B46FB70FB78002B06D0094B9A6908492B
:1051AC007B6813438B6106E0054B9A697B68DB4394
:1051BC00034913408B6100BF0C37BD4680BC704760
:1051CC000010024080B483B000AF78600B46FB70D7
:1051DC00FB78002B06D0094BDA6908497B6813432E
:1051EC00CB6106E0054BDA697B68DB43034913406E
:1051FC00CB6100BF0C37BD4680BC7047001002402D
:10520C0080B483B000AF0346FB71044AFB79136092
:10521C0000BF0C37BD4680BC704700BF4C004242FB
:10522C0080B485B000AF786039600023FB817B6867
:10523C001B88FB81FB8903F44153FB813B681A8873
:10524C003B685B8813439AB23B689B8813439AB2C2
:10525C003B68DB8813439AB23B681B8913439AB2B1
:10526C003B685B8913439AB23B689B8913439AB2A0
:10527C003B68DB8913439AB2FB891343FB817B6840
:10528C00FA891A807B689B8B9BB223F400639AB2D9
:10529C007B689A833B681A8A7B681A8200BF143732
:1052AC00BD4680BC704780B483B000AF78600B46BD
:1052BC00FB70FB78002B08D07B681B889BB243F0FB
:1052CC0040039AB27B681A8007E07B681B889BB20C
:1052DC0023F040039AB27B681A8000BF0C37BD469E
:1052EC0080BC704780B485B000AF78600B46FB7013
:1052FC001346BB700023FB810023BB81FB781B0989
:10530C00DBB2FB81FB89012202FA03F3BB81BB7880
:10531C00002B08D07B689B889AB2BB8913439AB246
:10532C007B689A8009E07B689B889AB2BB89DB43D7
:10533C009BB213409AB27B689A8000BF1437BD466B
:10534C0080BC704780B483B000AF78600B467B8024
:10535C007B687A889A8100BF0C37BD4680BC704749
:10536C0080B483B000AF78607B689B899BB2184691
:10537C000C37BD4680BC704780B483B000AF7860FA
:10538C000B46FB70FB78002B08D07B689B889BB28C
:10539C0043F004039AB27B689A8007E07B689B8891
:1053AC009BB223F004039AB27B689A8000BF0C373F
:1053BC00BD4680BC704780B483B000AF78600B46AC
:1053CC00FB70FB78002B08D07B681B889BB243F4E6
:1053DC0000539AB27B681A8007E07B681B889BB2EB
:1053EC0023F400539AB27B681A8000BF0C37BD4679
:1053FC0080BC704780B485B000AF78600B467B8072
:10540C000023FB737B681B899AB27B8813409BB289
:10541C00002B02D00123FB7301E00023FB73FB7B09
:10542C0018461437BD4680BC7047000080B485B068
:10543C0000AF786039600023FB817B681B88FB819F
:10544C007B682E4A934213D07B682D4A93420FD02F
:10545C007B68B3F1804F0BD07B682A4A934207D00C
:10546C007B68294A934203D07B68284A934208D12F
:10547C00FB8923F07003FB813B685A88FB8913433B
:10548C00FB817B68224A93420CD07B68214A934271
:10549C0008D0FB8923F44073FB813B68DA88FB89D5
:1054AC001343FB817B68FA891A803B689A887B6876
:1054BC009A853B681A887B681A857B680F4A9342E9
:1054CC000FD07B680E4A93420BD07B68124A9342F2
:1054DC0007D07B68114A934203D07B68104A9342F1
:1054EC0004D13B681B7A9AB27B681A867B680122CE
:1054FC009A8200BF1437BD4680BC7047002C014017
:10550C00003401400004004000080040000C004042
:10551C0000100040001400400040014000440140D5
:10552C000048014080B483B000AF78600B46FB703C
:10553C00FB78002B08D07B681B889BB243F00103DF
:10554C009AB27B681A8007E07B681B889BB223F0B9
:10555C0001039AB27B681A8000BF0C37BD4680BC31
:10556C00704780B483B000AF78600B467B801346E5
:10557C007B707B78002B08D07B689B899AB27B88E8
:10558C0013439AB27B689A8109E07B689B899AB233
:10559C007B88DB439BB213409AB27B689A8100BF35
:1055AC000C37BD4680BC704780B485B000AF7860C6
:1055BC000B467B800023FB730023BB8100237B8184
:1055CC007B681B8A9AB27B881340BB817B689B8962
:1055DC009AB27B8813407B81BB89002B05D07B89D9
:1055EC00002B02D00123FB7301E00023FB73FB7B38
:1055FC0018461437BD4680BC704780B483B000AFEA
:10560C0078600B467B807B88DB439AB27B681A827E
:10561C0000BF0C37BD4680BC7047000080B58CB015
:10562C0000AF786039600023FB620023BB6200236B
:10563C007B6200233B620023FB617B68FB617B6820
:10564C001B8A9BB2FB62FA6A4CF6FF731340FB6237
:10565C003B68DB881A46FB6A1343FB62FB6A9AB20F
:10566C007B681A827B689B899BB2FB62FA6A4EF656
:10567C00F3131340FB623B689A883B681B89134306
:10568C009AB23B685B8913439BB21A46FB6A13437D
:10569C00FB62FB6A9AB27B689A817B689B8A9BB29D
:1056AC00FB62FA6A4FF6FF431340FB623B689B892F
:1056BC001A46FB6A1343FB62FB6A9AB27B689A82B6
:1056CC0007F108031846FFF7A9FCFB692E4A934221
:1056DC0002D17B69BB6201E03B69BB627B689B8941
:1056EC009BB21BB2002B0CDABA6A13469B00134414
:1056FC009A001A443B681B685B00B2FBF3F37B62B5
:10570C000BE0BA6A13469B0013449A001A443B6898
:10571C001B689B00B2FBF3F37B627B6A1B4AA2FB08
:10572C0003235B091B01FB62FB6A1B09642202FB5E
:10573C0003F37A6AD31A3B627B689B899BB21BB2D8
:10574C00002B0CDA3B6ADB003233104AA2FB03233A
:10575C005B0903F00703FA6A1343FB620BE03B6A35
:10576C001B013233094AA2FB03235B0903F00F032D
:10577C00FA6A1343FB62FB6A9AB27B681A8100BF18
:10578C003037BD4680BD00BF003801401F85EB514E
:10579C0080B483B000AF78600B46FB70FB78002BB5
:1057AC0008D07B689B899BB243F400539AB27B6808
:1057BC009A8107E07B689B899BB223F400539AB2D1
:1057CC007B689A8100BF0C37BD4680BC704780B4A3
:1057DC0087B000AF78600B467B8013467B7000234C
:1057EC003B610023FB600023BB6000237B617B6873
:1057FC007B617B88DBB25B09DBB23B617B8803F0AE
:10580C001F03FB600122FB6802FA03F3BB603B69D8
:10581C00012B03D17B690C337B6109E03B69022BC3
:10582C0003D17B6910337B6102E07B6914337B61AC
:10583C007B78002B06D07B6919687B69BA680A43B0
:10584C001A6006E07B691968BB68DA437B690A4019
:10585C001A6000BF1C37BD4680BC704780B483B053
:10586C0000AF78600B467B807B88C3F308039AB249
:10587C007B689A8000BF0C37BD4680BC704780B4F3
:10588C0083B000AF78607B689B889BB2C3F308033E
:10589C009BB218460C37BD4680BC704780B485B0AF
:1058AC0000AF78600B467B800023FB737B681B8802
:1058BC009AB27B8813409BB2002B02D00123FB735E
:1058CC0001E00023FB73FB7B18461437BD4680BCFC
:1058DC00704780B485B000AF78600B467B800023A6
:1058EC00FB810023BB817B881B0AFB81FB89012286
:1058FC0002FA03F3BB81BB89DB439AB27B681A8043
:10590C0000BF1437BD4680BC704700000C480D49E1
:10591C000D4A002302E0D458C4500433C4188C42FE
:10592C00F9D30A4A0A4C002301E013600432A24264
:10593C00FBD3FAF70DFC00F0B7FAFAF7F1FD70475C
:10594C00000000207C04002000750008800400206A
:10595C00300D0020FEE7000080B586B000AF0121BD
:10596C004FF40030FFF72EFC0223BB751823FB7598
:10597C000423BB8207F1140319462148FFF770F882
:10598C004823FB750823BB8207F1140319461C48F6
:10599C00FFF766F801214FF40030FFF7F5FB4FF4E9
:1059AC0016537B6000233B820C23FB810023BB81BD
:1059BC0000237B8100233B813B1D19461148FFF7D7
:1059CC002DFE01210F48FFF7E3FE4FF4E060FEF7D8
:1059DC00ABFF26233B700123FB7000237B7000235D
:1059EC00BB703B461846FEF7B1FF012240F2255131
:1059FC000448FFF7ECFE00BF1837BD4680BD00BF62
:105A0C00000801400044004080B584B000AF7860CD
:105A1C0039600023FB6013E000BF80210D48FFF7C5
:105A2C003DFF0346002BF8D0FB687A6813441B78C3
:105A3C009BB219460748FFF711FFFB680133FB6067
:105A4C00FA683B689A42E7DB00BF00BF1037BD46DF
:105A5C0080BD00BF0044004080B586B000AF01217E
:105A6C000420FFF791FB0223BB751823FB754FF441
:105A7C000073BB8207F1140319462148FEF7F0FFAF
:105A8C004823FB754FF48063BB8207F1140319465E
:105A9C001B48FEF7E5FF01214FF48040FFF774FB34
:105AAC004FF416537B6000233B820C23FB810023B5
:105ABC00BB8100237B8100233B813B1D1946114890
:105ACC00FFF7ACFD01210F48FFF762FE4FF4E060D9
