:020000040800F2
:10000000005000204D6D0008956D0008956D0008AA
:10001000956D0008956D0008956D000800000000C2
:10002000000000000000000000000000956D0008C6
:10003000956D000800000000956D00089D3A0008CD
:10004000956D0008956D0008956D0008956D000888
:10005000956D0008956D0008E12B0008956D00086E
:10006000956D0008956D0008956D0008956D000868
:10007000956D0008956D0008956D0008956D000858
:10008000956D0008956D0008956D0008956D000848
:10009000956D0008956D0008956D0008956D000838
:1000A000956D0008112D0008956D0008956D0008EC
:1000B000956D0008956D0008956D0008956D000818
:1000C000956D0008956D0008956D0008956D000808
:1000D0000D590008996F000801710008956D00081E
:1000E000956D0008956D0008956D000800000000F2
:1000F0000000000000000000000000000000000000
:0C01000000000000000000005FF808F1A3
:10010C0010B5054C237833B9044B13B10448AFF345
:10011C0000800123237010BDC804002000000000E3
:10012C005086000808B5034B1BB103490348AFF3D5
:10013C00008008BD00000000CC04002050860008A0
:10014C00034613F8012B002AFBD1181A013870470B
:10015C0080B500AF00F002F800BF80BD80B500AFE5
:10016C0000F002F800BF80BD80B483B000AF002364
:10017C007B6000233B603A4B1B68394A43F4803365
:10018C001360374B1B6803F400333B607B6801330F
:10019C007B603B68002B03D17B68B3F5A06FF0D17B
:1001AC002F4B1B6803F40033002B02D001233B6060
:1001BC0001E000233B603B68012B4BD1294B1B68B2
:1001CC00284A43F010031360264B1B68254A23F082
:1001DC0003031360234B1B68224A43F00203136092
:1001EC001F4B1F4A5B6853601D4B1D4A5B68536075
:1001FC001B4B5B681A4A43F480635360184B5B6873
:10020C00174A23F47C135360154B5B68144A43F470
:10021C00E8135360124B1B68114A43F08073136050
:10022C0000BF0F4B1B6803F00073002BF9D00C4B75
:10023C005B680B4A23F003035360094B5B68084A65
:10024C0043F00203536000BF054B5B6803F00C03E3
:10025C00082BF9D100BF0C37BD4680BC704700BFDE
:10026C00001002400020024080B483B000AF03466F
:10027C003960FB7197F90730002B0BDA3B68DAB267
:10028C000C49FB7903F00F03043B1201D2B20B446F
:10029C001A7609E03B68DAB2074997F90730120180
:1002AC00D2B20B4483F8002300BF0C37BD4680BC90
:1002BC00704700BF00ED00E000E100E080B582B0C7
:1002CC0000AF78607B68B3F1807F01D3012311E02C
:1002DC007B6823F07F43094A013B53600F214FF0A9
:1002EC00FF30FFF7C1FF054B00229A60034B07223A
:1002FC001A60002318460837BD4680BD10E000E0A8
:10030C0080B500AF1249134807F05BF81249114849
:10031C0007F048F811490F4807F044F810490D4808
:10032C0007F040F80F490B4807F03CF80E49094814
:10033C0007F038F80949074807F034F80B49054825
:10034C0007F030F80A49034807F02CF800BF80BDCD
:10035C00EC01002048070020DC010020D001002027
:10036C00FC010020E0010020E40100200C02002030
:10037C00E801002080B582B000AF0D490D4807F0B0
:10038C007FF8786079680C4807F01BF80B490A482D
:10039C0007F008F80649002007F072F878607968D1
:1003AC00054806F0FFFF00BF0837BD4680BD00BF03
:1003BC0068860008900D0020C8070020D00100209E
:1003CC0080B592B002AFF8607B600B46FB721346AF
:1003DC00BB72514A07F1340392E8030018600433EE
:1003EC001980002387F83E304C4A07F1200312682D
:1003FC00114619800233120C1A70102387F83D3005
:10040C00002387F83F30F97A07F134030093012376
:10041C000022F86804F078FB0346002B05D1012379
:10042C0087F83C3097F83C3072E007F1100319461E
:10043C00012004F0DFFB034687F83C3007F1100382
:10044C001946012004F0D6FB0346002B05D10223EC
:10045C0087F83C3097F83C305AE0002387F83F305F
:10046C000FE097F83F307A681A4497F83F301278CB
:10047C0040333B4403F8302C97F83F30013387F876
:10048C003F3097F83F30032BEBD907F11003194697
:10049C00012004F0EBFB0346002B05D1032387F866
:1004AC003C3097F83C3033E007F1240307F1340279
:1004BC0092E8030018600433198007F12403063313
:1004CC001A4607F1200319889B78118093706923D1
:1004DC0087F82D3007F124030A331A4607F1340349
:1004EC00186810609B88938007F124031946032039
:1004FC0004F0BCFB0346002B05D1042387F83C30E9
:10050C0097F83C3004E0002387F83C3097F83C30F7
:10051C0018464037BD4680BD6C86000874860008BE
:10052C0080B596B000AFA54B00221A7204F028FCDF
:10053C00002005F061FF4FF4803005F011FF012021
:10054C0006F078F84FF4E0114FF4803005F036FFE8
:10055C00022005F061FF0023FB62994B5B68FB6294
:10056C00974AFB6A23F470635360954AFB6A43F421
:10057C00A0635360924B5B68914A43F480035360D1
:10058C00012005F039FF8F4805F062FF8D4B5B6849
:10059C008D4AA2FB03239B091846FFF78FFE8B4B5A
:1005AC0000221A708A4B1B68184604F07BFC03F07F
:1005BC0051FE02F0F7FA0121864805F027FD0346AB
:1005CC001A46854B1A70844B1A78844B1A7002F0B9
:1005DC00C9FA02F075FF06F0D9FB06F057FC05F0DE
:1005EC00D1F87F4B00221A707E4B00221A7002F059
:1005FC00B5FCB86202F0B2FC78627B6A3B627A4866
:10060C00FFF79EFD03461946774806F017FC77481E
:10061C00FFF796FD03461946744806F00FFC744824
:10062C00FFF78EFD03461946714806F007FCC822F9
:10063C007049714803F0D0FB00BF704B1B78DBB2E4
:10064C00002B06D080216E4806F0EEF80346002BF6
:10065C00F3D16A4B01221A7003F05CFE03461A4672
:10066C00684B1A7003F0FAFE03461A46664B1A7072
:10067C0003F020FFF861FB69002B13D0594B1B785A
:10068C0043F00103DAB2574B1A70F86902F070FCB0
:10069C00FF2003F055FE03461A465C4B1A705C4B68
:1006AC0000221A7000BF0221554806F0BDF803461F
:1006BC00002BF8D0514B00221A70564B4FF40052BD
:1006CC001A60554B00221A60544B4FF440521A607A
:1006DC00534B4FF480521A60524B04221A70524BF7
:1006EC0001221A70514B10221A80514BFF221A70A2
:1006FC00504B00221A70504B00221A604F4BFF22B5
:10070C001A7000BF3D4B1B78DBB2002B06D080214A
:10071C003B4806F089F80346002BF3D105F040F96D
:10072C00FF220021464806F035FE3B4B1B68434A2E
:10073C00127891B2424A184605F08AF900237B657B
:10074C0015E03F4A7B6D13441B78FF2B0CD17B6D5E
:10075C00002B09D1304B1B68334A127891B2354AC1
:10076C00184604F0E3FE05E07B6D01337B657B6D81
:10077C00FF2BE6DDFF220021314806F00BFE284B53
:10078C001B682E4A127891B22D4A184605F060F972
:10079C0000233B6559E02A4A3B6D13441B78FF2B21
:1007AC0050D13B6D002B4DD11D4B1B681E4A12784E
:1007BC0091B2204A184604F0B9FE49E0E404002046
:1007CC0000100240F4040020D34D6210FF050020FD
:1007DC0038030020000C01403907002038070020A6
:1007EC000D07002048080020E8000020F40000203D
:1007FC003401002040000020280000202E0D002095
:10080C00003800400E0700200F07002010070020C2
:10081C0011070020380900203C0900204009002065
:10082C00440900204809002049090020160D002029
:10083C004B0900204C090020280900202C0900201D
:10084C00DC0900203B6D01333B653B6DFF2BA2DDCA
:10085C00824B00221A7000BF804B1B78DBB2002B3E
:10086C0006D080217E4805F0DFFF0346002BF3D134
:10087C0004F088FF7B4B01221A707B4B00221A700C
:10088C000C217A4806F05AFB0023BB610023FB6461
:10089C0002F064FBB861BB69FB6402E002F05EFB32
:1008AC00F864704B1B78002BF8D1FA6CBB69D31A27
:1008BC00B3F57A7FF2D86B4B1B78002B06D16C4BBF
:1008CC001B7843F01003DAB2694B1A70684B1B7833
:1008DC00112B00F2568101A252F823F031090008C5
:1008EC00750900088F0B00088F0B00088F0B000890
:1008FC008F0B00088F0B00088F0B00088F0B000864
:10090C008F0B00088F0B00088F0B00088F0B000853
:10091C008F0B00088F0B00088F0B00080F0A0008C4
:10092C00C10A00085348FFF70BFC0346194652480E
:10093C0006F084FA5148FFF703FC034619464F486A
:10094C0006F07CFA1C214E4806F078FA4B48FFF76B
:10095C00F7FB03461946494806F070FAC822484985
:10096C00454803F039FA0CE14248FFF7E9FB03462E
:10097C001946414806F062FA4048FFF7E1FB03468E
:10098C0019463E4806F05AFA3E48FFF7D9FB034693
:10099C0019463C4806F052FA02213B4806F04EFA42
:1009AC0002213A4806F04AFA3948FFF7C9FB0346D8
:1009BC001946374806F042FA0321364806F03EFA4B
:1009CC0000231946344806F039FA0321334806F05F
:1009DC0035FA02212D4806F031FA0A21304806F08A
:1009EC002DFA02212F4806F029FA0221274806F099
:1009FC0025FAFFF785FCC8222B491F4803F0ECF9B8
:100A0C00BFE01C48FFF79CFB03461946194806F04B
:100A1C0015FA2648FFF794FB03461946234806F0BF
:100A2C000DFA1648FFF78CFB03461946134806F0DF
:100A3C0005FA1C21124806F001FA1048FFF780FB5A
:100A4C00034619460D4806F0F9F9FFF793FCC82246
:100A5C000B49174803F0C0F993E000BF2E0D00209E
:100A6C0000380040000600208C0D00200000002003
:100A7C00480800204C0100208C0000206801002058
:100A8C0070000020EC010020DC010020D8010020C7
:100A9C00FC010020E0010020D4010020E401002032
:100AAC000C020020E801002048070020900D0020D7
:100ABC00C8070020B348FFF743FB03461946B1486B
:100ACC0006F0BCF9B048FFF73BFB03461946AE48AD
:100ADC0006F0B4F9AD48FFF733FB03461946AB48B3
:100AEC0006F0ACF9AA48FFF72BFB03461946A848B9
:100AFC0006F0A4F90221A74806F0A0F90221A648A5
:100B0C0006F09CF9A548FFF71BFB03461946A348C2
:100B1C0006F094F90321A24806F090F90023194637
:100B2C00A04806F08BF903219F4806F087F90221B3
:100B3C00994806F083F90A219C4806F07FF90221B6
:100B4C009B4806F07BF90221934806F077F9FFF7F2
:100B5C0011FCFFF7D5FBC8229649974803F03CF9E6
:100B6C00802003F06BF8954803F018F9C02003F0CF
:100B7C0065F8934803F012F92121924806F05EF9CA
:100B8C0000BF21218F4806F059F902F06FF802F0EE
:100B9C00A7F88D4B1B78012B10D102F09BFA062184
:100BAC008A4806F04BF97948FFF7CAFA034619460A
:100BBC00764806F043F9844B00221A70844B1B785C
:100BCC00002B41F083861BE0824B1B685A1C814929
:100BDC000A60F978804AD1547E4B1B687E4A00210A
:100BEC00D1547C4B1B687F2B0ADD7C4B8022194631
:100BFC00794806F0B5FB774B1B68013B754A1360CF
:100C0C00FB1C184606F01AFA0346012BDCD02BE02D
:100C1C00734B1B685A1C72490A60B978714AD154DB
:100C2C006F4B1B686F4A0021D1546D4B1B687F2B97
:100C3C000ADD6D4B802219466A4806F091FB684B21
:100C4C001B68013B664A13606648FFF779FA034656
:100C5C001946644806F0F2F84C48FFF771FA03465F
:100C6C0019464A4806F0EAF8BB1C184606F014FA76
:100C7C000346012BCCD05D495A4806F0EAFB0346EB
:100C8C00002B00F06F86574BBB64564B1A78584BB1
:100C9C001B789A4240F03686BB6C0133BB64002350
:100CAC007B640BE0BB6C5A1CBA641978514A7B6CA0
:100CBC0013440A461A707B6C01337B647B6C022BE9
:100CCC00F0DD4C4806F000FB03464B4A13604A4BE0
:100CDC001B68002B0FD14948FFF732FA034619461F
:100CEC00464806F0ABF82948FFF72AFA034619469E
:100CFC00264806F0A3F8404B1B68CB2B00F0E08590
:100D0C00CB2B00F3EE85CA2B00F0E883CA2B00F343
:100D1C00E885C92B00F0F881C92B00F3E285672B1D
:100D2C0000F00186672B00F3DC85652B04D0662B65
:100D3C0000F0B88000F0D5BD2E48FFF701FA03464D
:100D4C0019462C4806F07AF81048FFF7F9F90346D3
:100D5C0019460E4806F072F83B1D2249184604F05D
:100D6C0053FA0346FB75FB7D032B00F2DE8501A2D3
:100D7C0052F823F00D0E0008470E0008690E00080B
:100D8C008B0E00084C010020900D00206801002003
:100D9C00EC010020DC010020D8010020FC01002027
:100DAC00E0010020D4010020E40100200C0200200E
:100DBC00E801002048070020C8070020340000206C
:100DCC0064000020100100203E07002018020020C3
:100DDC003F0700208C050020080500200905002095
:100DEC0088060020040600200506002068860008FE
:100DFC003D0400208C060020200900205C0300200C
:100E0C003B1D184604F082F90346B24A1360B14BFD
:100E1C001B68184604F046F8AF48FFF791F90346F3
:100E2C001946AD4806F00AF8AC48FFF789F90346B5
:100E3C001946AA4806F002F832E0A948FFF780F9F3
:100E4C0003461946A64805F0F9FFA448FFF778F9C0
:100E5C0003461946A14805F0F1FF21E0A148FFF730
:100E6C006FF9034619469F4805F0E8FF9B48FFF7CA
:100E7C0067F903461946994805F0E0FF10E09A48D7
:100E8C00FFF75EF903461946974805F0D7FF9348DC
:100E9C00FFF756F903461946904805F0CFFF00BFFF
:100EAC0000F043BD9148FFF74BF9034619468F48B4
:100EBC0005F0C4FF8948FFF743F9034619468748F4
:100ECC0005F0BCFF03F0DEFF0346894A1360884B34
:100EDC001B683A1D1146184604F02EF83B1D1846A7
:100EEC0004F014F903467B4A13607B68814A82FB49
:100EFC0003129211DB17D21A7F4B83FB021399104A
:100F0C00D317C91A0B469B000B445B00D11ACBB20A
:100F1C003033DAB2794B1A707B68794A82FB031250
:100F2C005211DB17D21A744B83FB02139910D3178F
:100F3C00C91A0B469B000B445B00D11ACBB2303361
:100F4C00DAB26E4B5A707B686B4A82FB03129210BA
:100F5C00DB17D21A684B83FB02139910D317C91AEB
:100F6C000B469B000B445B00D11ACBB23033DAB288
:100F7C00624B9A707A68604B83FB02139910D317FB
:100F8C00C91A0B469B000B445B00D11ACBB2303311
:100F9C00DAB25A4BDA703B7A5A4AA2FB0323DB08CB
:100FAC00DBB23033DAB2554B5A713A7A554BA3FB5C
:100FBC000213D9080B469B000B445B00D31ADBB21F
:100FCC003033DAB24D4B9A717B7A4E4AA2FB032333
:100FDC00DB08DBB23033DAB2484B1A727A7A494BFF
:100FEC00A3FB0213D9080B469B000B445B00D31ADE
:100FFC00DBB23033DAB2414B5A72BB7A414AA2FBB4
:10100C000323DB08DBB23033DAB23C4BDA72BA7A48
:10101C003C4BA3FB0213D9080B469B000B445B0013
:10102C00D31ADBB23033DAB2344B1A73FB7A354A4B
:10103C00A2FB0323DB08DBB23033DAB22F4B9A73FB
:10104C00FA7A304BA3FB0213D9080B469B000B44D6
:10105C005B00D31ADBB23033DAB2284BDA733B7B4A
:10106C00284AA2FB0323DB08DBB23033DAB2234B72
:10107C005A743A7B234BA3FB0213D9080B469B00F3
:10108C000B445B00D31ADBB23033DAB21B4B9A74CD
:10109C001A48FFF755F803461946184805F0CEFED6
:1010AC000E48FFF74DF8034619460C4805F0C6FEEE
:1010BC000948FFF745F803461946074805F0BEFEF8
:1010CC000648FFF73DF803461946044805F0B6FEFE
:1010DC0000F02CBC1C0900205800002068010020E6
:1010EC007003002080030020900300208C06002059
:1010FC0038030020D34D621067666666200200201C
:10110C001F85EB51CDCCCCCC1F48FFF719F803460B
:10111C0019461D4805F092FE1C48FFF711F80346CE
:10112C0019461A4805F08AFE00BF194B1B78DBB232
:10113C00002B06D08021174805F076FB0346002BC8
:10114C00F3D104F02DFCFF220021134806F022F904
:10115C00124B1B68124A127891B20F4A184604F0CF
:10116C0077FC00233B6424E00B4A3B6C13441B7854
:10117C00FF2B1BD13B6C013B074AD25C094B1A700D
:10118C003B6C094A136017E0A003002068010020A3
:10119C002E0D002000380040DC0900203C09002006
:1011AC002C0900204A0900205C0900203B6C01330B
:1011BC003B643B6C062BD7DDB44B1B78002B0FD15B
:1011CC00B348FEF7BDFF03461946B14805F036FE9D
:1011DC00B048FEF7B5FF03461946AE4805F02EFEA3
:1011EC00AA4B1B78002B00F04A81A84B1B78062BCE
:1011FC0000F24581A54B1B7803F2FF131B011A4625
:10120C00A54B1A60FF220021A44806F0C3F8102257
:10121C000021A34806F0BEF89F4B1B68A14A118819
:10122C009F4A184604F014FC9D4802F0AFFA03469E
:10123C009D4A13609C4B1B683A1D1146184603F0DF
:10124C007BFE7B68994A82FB03129211DB17D21A40
:10125C00974B83FB02139910D317C91A0B469B00AB
:10126C000B445B00D11ACBB23033DAB2914B1A700B
:10127C007B68914A82FB03125211DB17D21A8C4BFA
:10128C0083FB02139910D317C91A0B469B000B440E
:10129C005B00D11ACBB23033DAB2864B5A707B6812
:1012AC00834A82FB03129210DB17D21A804B83FB0A
:1012BC0002139910D317C91A0B469B000B445B0001
:1012CC00D11ACBB23033DAB27A4B9A707A68784B47
:1012DC0083FB02139910D317C91A0B469B000B44BE
:1012EC005B00D11ACBB23033DAB2724BDA703B7A84
:1012FC00724AA2FB0323DB08DBB23033DAB26D4B4C
:10130C005A713A7A6D4BA3FB0213D9080B469B001A
:10131C000B445B00D31ADBB23033DAB2654B9A71F3
:10132C007B7A664AA2FB0323DB08DBB23033DAB2EA
:10133C00604B1A727A7A614BA3FB0213D9080B46E5
:10134C009B000B445B00D31ADBB23033DAB2594B3F
:10135C005A72BB7A594AA2FB0323DB08DBB2303347
:10136C00DAB2544BDA72BA7A544BA3FB0213D90893
:10137C000B469B000B445B00D31ADBB23033DAB262
:10138C004C4B1A73FB7A4D4AA2FB0323DB08DBB2EE
:10139C003033DAB2474B9A73FA7A484BA3FB0213F9
:1013AC00D9080B469B000B445B00D31ADBB23033DD
:1013BC00DAB2404BDA733B7B404AA2FB0323DB08D7
:1013CC00DBB23033DAB23B4B5A743A7B3B4BA3FB68
:1013DC000213D9080B469B000B445B00D31ADBB2FB
:1013EC003033DAB2334B9A742D4802F0EBF93448AF
:1013FC00FEF7A6FE03461A460021324805F0CAFF46
:10140C001A2231492F4805F0E4FF30492D4805F0E8
:10141C00C9FF132227492E4805F0F0FF00231A4676
:10142C002C492B4805F0EAFF2648FEF789FE0346B7
:10143C001A462449264805F0E1FF1648FEF780FEBF
:10144C0003461A461349224805F0D8FF2048FEF7F8
:10145C0077FE034619461E4805F0F0FC0D48FEF7D2
:10146C006FFE034619460B4805F0E8FC1848FEF7DA
:10147C0067FE03461A460021154805F08BFF164BF4
:10148C0000221A7004F07EF950E200BF4A090020D5
:10149C00F80300206801002050090020DC0900201E
:1014AC00DC0A0020160D002058090020D34D6210D4
:1014BC0067666666200200201F85EB51CDCCCCCC34
:1014CC00E4050020AC050020D4000020EC0A00202C
:1014DC009C080020D00100202E0D00201F48FEF794
:1014EC002FFE034619461D4805F0A8FC1C48FEF7C4
:1014FC0027FE034619461A4805F0A0FC00BF194BFD
:10150C001B78DBB2002B06D08021174805F08CF934
:10151C000346002BF3D104F043FAFF2200211348B9
:10152C0005F038FF124B1B68124A127891B20F4A21
:10153C00184604F08DFA0023FB6324E00B4AFB6B86
:10154C0013441B78FF2B1BD1FB6B013B074AD25C6E
:10155C00094B1A70FB6B094A136017E0BC0300209F
:10156C00680100202E0D002000380040DC0900200E
:10157C00440900202C0900204A09002060090020A1
:10158C00FB6B0133FB63FB6B062BD7DDB84B1B7876
:10159C00002B0FD1B748FEF7D3FD03461946B548CB
:1015AC0005F04CFCB448FEF7CBFD03461946B24897
:1015BC0005F044FCAE4B1B78002B00F05281AC4B79
:1015CC001B78062B00F24D81A94B1B7803F2FF23ED
:1015DC001B011A46A94B1A60FF220021A84805F0EE
:1015EC00D9FE10220021A74805F0D4FEA34B1B689E
:1015FC00A54A1188A34A184604F02AFAA14802F019
:10160C00C5F80346A14A1360A04B1B683A1D11464E
:10161C00184603F091FC7B689D4A82FB03129211E1
:10162C00DB17D21A9B4B83FB02139910D317C91AE1
:10163C000B469B000B445B00D11ACBB23033DAB2B1
:10164C00954B1A707B68954A82FB03125211DB177B
:10165C00D21A904B83FB02139910D317C91A0B465D
:10166C009B000B445B00D11ACBB23033DAB28A4BFD
:10167C005A707B68874A82FB03129210DB17D21ACE
:10168C00844B83FB02139910D317C91A0B469B008A
:10169C000B445B00D11ACBB23033DAB27E4B9A706A
:1016AC007A687C4B83FB02139910D317C91A0B462B
:1016BC009B000B445B00D11ACBB23033DAB2764BC1
:1016CC00DA703B7A764AA2FB0323DB08DBB23033B9
:1016DC00DAB2714B5A713A7A714BA3FB0213D908E7
:1016EC000B469B000B445B00D31ADBB23033DAB2EF
:1016FC00694B9A717B7A6A4AA2FB0323DB08DBB243
:10170C003033DAB2644B1A727A7A654BA3FB02134C
:10171C00D9080B469B000B445B00D31ADBB2303369
:10172C00DAB25D4B5A72BB7A5D4AA2FB0323DB082B
:10173C00DBB23033DAB2584BDA72BA7A584BA3FBBD
:10174C000213D9080B469B000B445B00D31ADBB287
:10175C003033DAB2504B1A73FB7A514AA2FB032393
:10176C00DB08DBB23033DAB24B4B9A73FA7A4C4B60
:10177C00A3FB0213D9080B469B000B445B00D31A46
:10178C00DBB23033DAB2444BDA733B7B444AA2FB14
:10179C000323DB08DBB23033DAB23F4B5A743A7BAB
:1017AC003F4BA3FB0213D9080B469B000B445B0079
:1017BC00D31ADBB23033DAB2374B9A74314802F0B9
:1017CC0079F80346374A1360364B1B68184602F00B
:1017DC008FF83548FEF7B4FC03461A460021324810
:1017EC0005F0D8FD1A2231492F4805F0F2FD304999
:1017FC002D4805F0D7FD132227492E4805F0FEFD94
:10180C0000231A462C492B4805F0F8FD2648FEF714
:10181C0097FC03461A462449264805F0EFFD164866
:10182C00FEF78EFC03461A461349224805F0E6FDE6
:10183C002048FEF785FC034619461E4805F0FEFAC3
:10184C000D48FEF77DFC034619460B4805F0F6FAE9
:10185C001848FEF775FC03461A460021154805F09A
:10186C0099FD164B00221A7003F08CFF5EE000BF4E
:10187C004A0900201C0400206801002054090020A3
:10188C00DC090020DC0A0020160D0020580900207D
:10189C00D34D621067666666200200201F85EB51EF
:1018AC00CDCCCCCC64090020E4050020E000002065
:1018BC00B00900209C080020D00100202E0D002033
:1018CC006948FEF73DFC03461946674805F0B6FA31
:1018DC006648FEF735FC03461946644805F0AEFA37
:1018EC0024E06348FEF72CFC03461946604805F0DB
:1018FC00A5FA5E48FEF724FC034619465B4805F042
:10190C009DFA13E05B48FEF71BFC03461946594849
:10191C0005F094FA5548FEF713FC03461946534854
:10192C0005F08CFA02E000BF00E000BF5248FEF761
:10193C0007FC03461946504805F080FA4B48FEF761
:10194C00FFFB03461946494805F078FA4B4B002239
:10195C001A604948FEF7F4FB03461A460021464834
:10196C0005F018FD4649474805F073FD0346002B6A
:10197C0000F0D3824249434805F082FD414BBB63E2
:10198C0002E0BB6B0133BB633F49B86B05F049FD0B
:10199C000346002BF5D13D48FEF7D2FB03461A4611
:1019AC0000213A4805F0F6FC1A223949374805F06F
:1019BC0010FDB96B354805F0F5FC03F063FA0346EE
:1019CC00344A1360334B1B683A1D1146184603F01A
:1019DC00B3FA3B1D184603F099FB03462E4A1360DD
:1019EC002D4B1B682749184601F09EFD02460B46FD
:1019FC002A49C1E90023284B1968284BD3E9002355
:101A0C00084601F025FE00BF254B1B78DBB2002BEE
:101A1C0006D08021234804F007FF0346002BF3D1A6
:101A2C0003F0BEFF102200211F4805F0B3FC1F4B32
:101A3C001B681F4A127891B21E4A184604F008F827
:101A4C0000237B633FE01B4A7B6B13441B78FF2B0B
:101A5C0036D17B6B013B174AD25C174B1A707B6BF0
:101A6C00164A136032E000BFD80300206801002042
:101A7C00500300203C0300200406002088060020B0
:101A8C00688600080805002078860008900500206C
:101A9C00D4000020380300201C090020300900204D
:101AAC002E0D002000380040DC0A00203C090020EC
:101ABC002C090020DC0900204A0900205C090020C8
:101ACC007B6B01337B637B6B062BBCDDAC4B1B78D8
:101ADC00042B41D8FF220021AA4805F05BFCAA4B3D
:101AEC001B68AA4A127891B2A64A184603F0B0FFB6
:101AFC00A34B1B7803F500731B011A46A44B1A6009
:101B0C00A34B1B68A34A1188A34A184603F0BAFCDE
:101B1C009F4B1B689F4A11889F4A184603F0F0FFA1
:101B2C00052004F04BF803469AB29C4B1A809B4B51
:101B3C001B8803F00103002BF2D1914B1B7801336E
:101B4C00DAB28F4B1A70964B1B68964A127891B288
:101B5C008B4A184603F0EAFC914B1B68062B66D1A6
:101B6C00FF220021874805F015FC874B1B68874A2C
:101B7C00127891B2834A184603F06AFF884B002210
:101B8C001A60834B1B68834A1188834A184603F0FA
:101B9C0079FC7F4B4FF400521A607D4B1B68184642
:101BAC0003F02CFD7A4B1B687A4A11887A4A184646
:101BBC0003F068FC7A4B1B68184603F01FFD704B52
:101BCC0000221A70764B1B68764A127891B26C4AD6
:101BDC00184603F0ABFC6E4B1B686E4A11886E4ABC
:101BEC00184603F04FFC6A4B1B686A4A11886A4A14
:101BFC00184603F085FF052003F0E0FF03469AB278
:101C0C00664B1A80654B1B8803F00103002BF2D145
:101C1C00634B01221A605A4B01221A70604B1B68ED
:101C2C00604A127891B2564A184603F07FFCFF22A4
:101C3C000021544805F0AEFB5B4B1B68534A1278ED
:101C4C0091B2504A184603F003FFFF2200214D4881
:101C5C0005F0A0FB4E4B1B684C4A127891B2494AD6
:101C6C00184603F0F5FE514B00221A7003F08AFD62
:101C7C007B684F4A82FB03129211DB17D21A4D4B31
:101C8C0083FB02139910D317C91A0B469B000B4404
:101C9C005B00D11ACBB23033DAB2474B1A707B6887
:101CAC00464A82FB03125211DB17D21A414B83FBBB
:101CBC0002139910D317C91A0B469B000B445B00F7
:101CCC00D11ACBB23033DAB23B4B5A707B68394AFB
:101CDC0082FB03129210DB17D21A364B83FB0213D2
:101CEC009910D317C91A0B469B000B445B00D11AF1
:101CFC00CBB23033DAB2304B9A707A682D4B83FB0F
:101D0C0002139910D317C91A0B469B000B445B00A6
:101D1C00D11ACBB23033DAB2274BDA703B7A284A7D
:101D2C00A2FB0323DB08DBB23033DAB2224B5A714D
:101D3C003A7A234BA3FB0213D9080B469B000B44A6
:101D4C005B00D31ADBB23033DAB21B4B9A717B7A5D
:101D5C001B4AA2FB0323DB08DBB23033DAB2164B8F
:101D6C001A727A7A164BA3FB0213D9080B469B0006
:101D7C000B445B00D31ADBB23033DAB222E000BF83
:101D8C004A090020DC090020380900202C09002019
:101D9C0050090020160D0020BC090020180D002051
:101DAC005C09002049090020280900202E0D002084
:101DBC00D34D621067666666200200201F85EB51CA
:101DCC00CDCCCCCCB74B5A72BB7AB74AA2FB03230F
:101DDC00DB08DBB23033DAB2B24BDA72BA7AB24B1E
:101DEC00A3FB0213D9080B469B000B445B00D31AD0
:101DFC00DBB23033DAB2AB4B1A73FB7AAA4AA2FBD2
:101E0C000323DB08DBB23033DAB2A64B9A73FA7ACF
:101E1C00A54BA3FB0213D9080B469B000B445B009C
:101E2C00D31ADBB23033DAB29E4BDA733B7B9E4A69
:101E3C00A2FB0323DB08DBB23033DAB2994B5A74C2
:101E4C003A7B994BA3FB0213D9080B469B000B441E
:101E5C005B00D31ADBB23033DAB2924B9A74802027
:101E6C0001F0ECFE914801F099FFC02001F0E6FE74
:101E7C008E4801F093FF00224FF448718C4802F019
:101E8C00C1F88C48FEF75CF9034601333B618A4B81
:101E9C001A683B69D31A884A13603B69854A9918BA
:101EAC003B69C3F181031A46824805F059FA1322A3
:101EBC007C49824805F0A2FA00231A4680497F48E3
:101ECC0005F09CFA7A48FEF73BF903461A46784926
:101EDC007A4805F093FA7B48FEF732F903461A4626
:101EEC007849764805F08AFA7448FEF729F90346D2
:101EFC001946724804F0A2FF7248FEF721F9034616
:101F0C001946704804F09AFF6C48FEF719F903461D
:101F1C001A460021694805F03DFA6B4B1B78012BE2
:101F2C0004D0694B1B78112B40F00E85674B1B6856
:101F3C004CF25032934240F0BD8440F2DC53644A80
:101F4C006449002002F022FA03461A46624B1A70CA
:101F5C00614B1B78002B00F0A384604B1B78002B8B
:101F6C0040F09E845D4B01221A70594B1B785C4AE1
:101F7C00A2FB03235B09DBB23033DAB2594B1A7084
:101F8C00534B1B78484AA2FB0323DB08DAB2464BBF
:101F9C00A3FB0213D9080B469B000B445B00D31A1E
:101FAC00DBB23033DAB24F4B5A70494B1A783E4B96
:101FBC00A3FB0213D9080B469B000B445B00D31AFE
:101FCC00DBB23033DAB2474B9A704748FEF7B8F8B9
:101FDC0003461946444804F031FF4448FEF7B0F874
:101FEC0003461946414804F029FF3E48FEF7A8F87D
:101FFC00034619463B4804F021FF3248FEF7A0F88F
:10200C00034619462F4804F019FF3949314801F0AD
:10201C00DDF803461A46374B1A703748FEF790F82E
:10202C0003461946344804F009FF3148FEF788F896
:10203C00034619462E4804F001FF2248FEF780F8AB
:10204C00034619461F4804F0F9FE214B1B7819462C
:10205C00204801F02FF90346284A136002F012FFC2
:10206C000346274A1360264B1B68244A1268114604
:10207C00184601F059FB00BF224B1B78DBB2002B3A
:10208C0006D08021204804F0CFFB0346002BF3D16F
:10209C0003F086FC102200211C4805F07BF91C4B38
:1020AC001B6837E020020020CDCCCCCCB400002043
:1020BC0090050020080500208C0500205C080020FD
:1020CC00D001002068010020480800202C070020C7
:1020DC0024070020140700201207002011070020FD
:1020EC001F85EB51AC0100206C0100208001002009
:1020FC000C00002013070020980100202807002066
:10210C001C0900202E0D002000380040DC0A0020A5
:10211C00440900200C4A127891B20C4A184603F07C
:10212C0097FC00233B631AE0084A3B6B13441B7873
:10213C00FF2B11D13B6B013B044AD25C044B1A7050
:10214C003B6B044A13600DE02C090020DC090020D5
:10215C004A090020600900203B6B01333B633B6B59
:10216C00062BE1DDAA4B1B78042B47D8FF2200215C
:10217C00A84805F00FF9A84B1B68A84A127891B231
:10218C00A44A184603F064FCA14B1B7803F540737A
:10219C001B011A46A24B1A60A14B1B68A14A11885D
:1021AC00A14A184603F06EF99D4B1B689D4A118895
:1021BC009D4A184603F0A4FC052003F0FFFC0346DF
:1021CC009AB29A4B1A80994B1B8803F00103002B8F
:1021DC00F2D18F4B1B780133DAB28D4B1A70944BC2
:1021EC001B6803F58053924A1360914B1B68914A0C
:1021FC00127891B2864A184603F098F98C4B1B68FA
:10220C00062B68D1FF220021824805F0C3F8824BCF
:10221C001B68824A127891B27E4A184603F018FC69
:10222C00834B4FF480521A607D4B1B687D4A11889A
:10223C007D4A184603F026F9794B4FF440521A6048
:10224C007B4B1B68184603F0D9F9754B1B68754A14
:10225C001188754A184603F015F9714B1B6818461E
:10226C0003F0CCF96A4B00221A70714B1B68714A4F
:10227C00127891B2664A184603F058F9684B1B68FD
:10228C00684A1188684A184603F0FCF8644B1B68CE
:10229C00644A1188644A184603F032FC052003F0A6
:1022AC008DFC03469AB2614B1A80604B1B8803F07D
:1022BC000103002BF2D15E4B41F201021A60544B28
:1022CC0001221A705A4B1B685A4A127891B2504A22
:1022DC00184603F02BF9FF2200214E4805F05AF85E
:1022EC00554B1B684D4A127891B24A4A184603F076
:1022FC00AFFBFF220021474805F04CF8484B1B6808
:10230C00464A127891B2434A184603F0A1FB4B4B54
:10231C0000221A7003F036FA494B1B685B0A494AD3
:10232C00A2FB0323DB09DBB23033DAB2464B1A7063
:10233C00434B1B68454AA2FB0323590E444BA3FB9A
:10234C000123DA0813469B0013445B00CA1AD3B26C
:10235C003033DAB23C4B5A70394B1B683D4AA2FB06
:10236C000323990D3A4BA3FB0123DA0813469B0078
:10237C0013445B00CA1AD3B23033DAB2324B9A70C0
:10238C002F4B1B68344AA2FB0323990C304BA3FB45
:10239C000123DA0813469B0013445B00CA1AD3B21C
:1023AC003033DAB2284BDA70254B1B685B092B4AA9
:1023BC00A2FB0323D909264BA3FB0123DA081346FE
:1023CC009B0013445B00CA1AD3B23033DAB21E4BF3
:1023DC001A711B4B1B68224AA2FB0323590B1C4B83
:1023EC00A3FB0123DA0813469B0013445B00CA1AB3
:1023FC00D3B23033DAB2144B5A71114B1B68194AF1
:10240C00A2FB03239909124BA3FB01232CE000BF71
:10241C004A090020DC090020400900202C0900207A
:10242C0054090020160D0020CC090020180D0020A6
:10243C006009002049090020440900202E0D0020CD
:10244C0028070020834B0400B0010020893BE6558F
:10245C00CDCCCCCC6BCA5F6B83DE1B43C55A7C0ADC
:10246C005917B7D1D34D6210DA0813469B001344A9
:10247C005B00CA1AD3B23033DAB2574B9A71574B4E
:10248C001B68574AA2FB03235909564BA3FB012394
:10249C00DA0813469B0013445B00CA1AD3B23033DC
:1024AC00DAB24D4BDA714D4B1B684E4AA2FB03233B
:1024BC00D9084C4BA3FB0123DA0813469B001344A9
:1024CC005B00CA1AD3B23033DAB2434B1A72434BA5
:1024DC001968444BA3FB0123DA0813469B001344F1
:1024EC005B00CA1AD3B23033DAB23B4B5A723E4855
:1024FC00FDF726FE034619463B4804F09FFC364880
:10250C00FDF71EFE03461946334804F097FC374886
:10251C00FDF716FE03461946344804F08FFC802064
:10252C0001F08CFB324801F039FCC02001F086FB35
:10253C002F4801F033FC2F48FDF702FE03461A46E4
:10254C0000212C4804F026FF1A222B49294804F0BC
:10255C0040FF2149274804F025FF00224FF4487121
:10256C00244801F0E3FD254B1978254B0122254821
:10257C0002F0B4FB03461A46234B1A70224B1B780D
:10258C00022B47D0022B56DC002B02D0012B11D092
:10259C0051E01E48FDF7D4FD034619461B4804F0D4
:1025AC004DFC1248FDF7CCFD034619460F4804F0CC
:1025BC0045FC40E01648FDF7C3FD03461946144898
:1025CC0004F03CFC0948FDF7BBFD034619460748DF
:1025DC0004F034FC2FE000BFB001002028070020DD
:1025EC001F85EB51CDCCCCCCBC0100206801002068
:1025FC00B4000020C8050020E000002024070020C3
:10260C004C0800201407002041070020380200204D
:10261C0070020020B348FDF793FD03461946B148FC
:10262C0004F00CFCB048FDF78BFD03461946AE4890
:10263C0004F004FC00BFAD48FDF782FD03461946CB
:10264C00AA4804F0FBFBAA4A1021AA4800F064FE39
:10265C002F21A74804F0F2FBA348FDF771FD0346B8
:10266C001946A14804F0EAFB02F00CFC0346A24A0E
:10267C001360A14B1B683A1D1146184602F05CFC16
:10268C003B1D184602F042FD03469C4A13607B68D2
:10269C009B4A82FB03129211DB17D21A994B83FBD4
:1026AC0002139910D317C91A0B469B000B445B00FD
:1026BC00D11ACBB23033DAB2934B1A707B68934A8F
:1026CC0082FB03125211DB17D21A8E4B83FB0213BF
:1026DC009910D317C91A0B469B000B445B00D11AF7
:1026EC00CBB23033DAB2884B5A707B68854A82FBA6
:1026FC0003129210DB17D21A824B83FB0213991030
:10270C00D317C91A0B469B000B445B00D11ACBB2F2
:10271C003033DAB27C4B9A707A687A4B83FB0213B3
:10272C009910D317C91A0B469B000B445B00D11AA6
:10273C00CBB23033DAB2744BDA703B7A744AA2FB08
:10274C000323DB08DBB23033DAB26F4B5A713A7ABF
:10275C006F4BA3FB0213D9080B469B000B445B0089
:10276C00D31ADBB23033DAB2674B9A717B7A684A90
:10277C00A2FB0323DB08DBB23033DAB2624B1A72F2
:10278C007A7A634BA3FB0213D9080B469B000B44CC
:10279C005B00D31ADBB23033DAB25B4B5A72BB7AC2
:1027AC005B4AA2FB0323DB08DBB23033DAB2564BB5
:1027BC00DA72BA7A564BA3FB0213D9080B469B006C
:1027CC000B445B00D31ADBB23033DAB24E4B1A73C4
:1027DC00FB7A4F4AA2FB0323DB08DBB23033DAB2BD
:1027EC00494B9A73FA7A4A4BA3FB0213D9080B464E
:1027FC009B000B445B00D31ADBB23033DAB2424B92
:10280C00DA733B7B424AA2FB0323DB08DBB2303397
:10281C00DAB23D4B5A743A7B3D4BA3FB0213D908F9
:10282C000B469B000B445B00D31ADBB23033DAB29D
:10283C00354B9A7413223449364804F0DFFD0023DB
:10284C001A463549334804F0D9FD3448FDF778FC75
:10285C0003461A4631492F4804F0D0FD2248FDF7B3
:10286C006FFC03461A4620492A4804F0C7FD294844
:10287C00FDF766FC03461946264804F0DFFA1A48B1
:10288C00FDF75EFC03461946174804F0D7FA2148B9
:10289C00FDF756FC03461A4600211E4804F07AFD4B
:1028AC001F4B1B78002B02D11E4B00221A701E4BA3
:1028BC0000221A601C4B1B6801331B4A1360012257
:1028CC004FF44871154801F031FC3DE0174B1B7873
:1028DC00002B2FD1C02001F0B1F9154801F05EFAA0
:1028EC0032E000BFD8020020680100202403002041
:1028FC00F40200204C080020380300201C090020A2
:10290C00D34D621067666666200200201F85EB516E
:10291C00CDCCCCCCDC080020D0010020C805002098
:10292C0012070020110700202C0700203007002080
:10293C00200000206C4B1B78403BDBB2184601F0AA
:10294C007DF96A4801F02AFA694B1B78002B1AD0E2
:10295C00684B1B78012B16D16748FDF7F1FB03463A
:10296C001A460021644804F015FD1A226349624896
:10297C0004F02FFD00224FF448715F4801F042FB38
:10298C005C4B00221A7001224FF448715A4801F036
:10299C0039FB574B1B78092B7EF4FBA800F020FD6C
:1029AC005748FDF7CDFB03461946554804F046FA47
:1029BC000421544804F042FA5348FDF7C1FB034686
:1029CC001946514804F03AFA504B19784D4B0122F4
:1029DC004F48FDF7F5FC03461A464E4B1A704D4B0B
:1029EC001B78042B61D801A252F823F00D2A0008A1
:1029FC002F2A0008512A0008732A0008952A00087B
:102A0C004548FDF79DFB03461946434804F016FA6A
:102A1C003D48FDF795FB034619463B4804F00EFA7A
:102A2C0043E03E48FDF78CFB034619463B4804F057
:102A3C0005FA3548FDF784FB03461946324804F085
:102A4C00FDF932E03648FDF77BFB03461946344866
:102A5C0004F0F4F92C48FDF773FB034619462A4899
:102A6C0004F0ECF921E02F48FDF76AFB0346194608
:102A7C002C4804F0E3F92448FDF762FB03461946A1
:102A8C00214804F0DBF910E02748FDF759FB034619
:102A9C001946254804F0D2F91B48FDF751FB0346B3
:102AAC001946194804F0CAF900BF114B00221A70DC
:102ABC001148FDF745FB03461A4600210E4804F069
:102ACC0069FC1A2219490C4804F083FC00224FF4CB
:102ADC004871094801F096FAC02001F0AFF814488B
:102AEC0001F05CF9FEF755B81C070020D00100205E
:102AFC003F0700204007002090050020C800002060
:102B0C0098010020200700206801002024070020E5
:102B1C0014070020420700205402002070020020FD
:102B2C00D802002094020020B002002034000020C3
:102B3C006400002080B483B000AF0346FB71FB79C6
:102B4C0003F01F03012202FA03F1054A97F907303B
:102B5C005B0942F8231000BF0C37BD4680BC7047A0
:102B6C0000E100E080B582B000AF0121042003F049
:102B7C0025FD0223BB711023FB714FF48053BB80E6
:102B8C003B1D1946064803F085F900224FF480518D
:102B9C00034803F054FA00BF0837BD4680BD00BFA0
:102BAC000008014080B582B000AF0121082003F07D
:102BBC0005FD0223BB714823FB710123BB803B1D28
:102BCC001946034803F066F900BF0837BD4680BDBF
:102BDC00000C014080B500AF012003F033F903462F
:102BEC00012B34D11B4B1B78022B17D11A4B002213
:102BFC00DA701A4B08225A71174803F0C1F8184BB7
:102C0C0000221A80134B01221A7000F069F801227D
:102C1C004FF48051134803F012FA15E00E4B0022CA
:102C2C00DA700E4B0C225A710B4803F0A9F80C4BBE
:102C3C001A880D4B1A80074B02221A7000224FF48F
:102C4C008051084803F0FBF9012003F015F900BF8F
:102C5C0080BD00BF39070020080B0020000B0020AE
:102C6C0036070020000801403A07002080B584B0E8
:102C7C0000AF01214FF4006003F0A0FC41F61F43AC
:102C8C00BB800023FB804FF4FA733B8100237B81D4
:102C9C0000233B733B1D19460F4803F0E1FD0F4B1E
:102CAC0019221A700D4B00225A700C4B01229A708B
:102CBC000A4B0022DA70094803F062F80022012165
:102CCC00054803F068FE0021034803F045FE00BFF1
:102CDC001037BD4680BD00BF002C0140FC0A00200F
:102CEC0080B500AF01220121054803F054FE0121FB
:102CFC00034803F031FE1920FFF71CFF00BF80BD15
:102D0C00002C014080B500AF0121874803F066FE1E
:102D1C000346002B00F005810121844803F076F96D
:102D2C000346002B2DD1824B1B78012B06D1814BF6
:102D3C0000221A70804B00221A80EAE07E4B1B881E
:102D4C0001339AB27C4B1A807B4B1B883C2B40F096
:102D5C00E0807A4B1B78002B40F0DB80774B012214
:102D6C001A70774B01221A70764B00221A70764B30
:102D7C0000221A70754B00221A70754B00221A80B3
:102D8C00C7E06B4B1B78002B31D16A4B01221A70B8
:102D9C00694B00221A806F4B00221A80674B1B78FC
:102DAC00013B072B00F2B580664B1B780133DAB27E
:102DBC00644B1A70634B1B780F2B02D9614B0022AA
:102DCC001A70604B1B78092B08D85E4B1B785E4A37
:102DDC0012783033D9B2604B99549AE0594B1B7826
:102DEC00594A12783733D9B25B4B995491E0594B0D
:102DFC001B8801339AB2574B1A80564B1B88B3F57C
:102E0C00167F05D14D4B00221A70524B00221A80AE
:102E1C004F4B1B8801339AB24D4B1A804C4B1B887D
:102E2C000A2B08D14A4B00221A80484B1B78DB43F3
:102E3C00DAB2464B1A70404B1B8801339AB23E4BA8
:102E4C001A803D4B1B88642B62D13C4B1B78013B99
:102E5C00072B5ED801A252F823F000BF892E000880
:102E6C009D2E0008B12E0008C52E0008D92E000892
:102E7C00ED2E0008012F0008152F00082F4B022201
:102E8C001A70304B00221A702F4B01221A7040E03E
:102E9C002A4B03221A702B4B00221A702A4B022247
:102EAC001A7036E0254B04221A70264B00221A7039
:102EBC00254B03221A702CE0204B05221A70214B53
:102ECC0000221A70204B04221A7022E01B4B06229F
:102EDC001A701C4B00221A701B4B05221A7018E03A
:102EEC00164B07221A70174B00221A70164B06222B
:102EFC001A700EE0114B08221A70124B00221A7035
:102F0C00114B07221A7004E00C4B09221A7000E0D6
:102F1C0000BF084B1A78064B1A700121024803F0C7
:102F2C0086FD00BF80BD00BF002C0140000C01409D
:102F3C003807002039070020360700203F07002003
:102F4C00400700201B0700201C0700203007002032
:102F5C0034070020320700202000002080B400AF8E
:102F6C00024B1B681846BD4680BC70470C0B0020FA
:102F7C0080B483B000AF78607B681B0EDAB24B4B29
:102F8C001A707B681B0CDAB2494B1A707B681B0AEF
:102F9C00DAB2484B1A707B68DAB2474B1A70434B63
:102FAC001B781B09DBB23033DAB2444B1A703F4B3F
:102FBC001B7803F00F03DBB23033DAB23F4B5A709D
:102FCC003B4B1B783E4AA2FB03235B09DBB230333D
:102FDC00DAB23C4B1A70364B1B783B4AA2FB0323EC
:102FEC00DB08DAB2384BA3FB0213D9080B469B0063
:102FFC000B445B00D31ADBB23033DAB2314B5A706C
:10300C002B4B1A78304BA3FB0213D9080B469B00B1
:10301C000B445B00D31ADBB23033DAB2294B9A7013
:10302C00244B1B78264AA2FB03235B09DBB230330B
:10303C00DAB2264B1A701F4B1B78234AA2FB0323D0
:10304C00DB08DAB2204BA3FB0213D9080B469B001A
:10305C000B445B00D31ADBB23033DAB21B4B5A7021
:10306C00144B1A78184BA3FB0213D9080B469B0080
:10307C000B445B00D31ADBB23033DAB2134B9A70C9
:10308C000D4B1B781B09DBB23033DAB2104B1A70C4
:10309C00094B1B7803F00F03DBB23033DAB20C4B65
:1030AC005A7000BF0C37BD4680BC704743070020E8
:1030BC00440700204507002046070020DC010020C3
:1030CC001F85EB51E0010020CDCCCCCCE4010020DD
:1030DC00E801002080B400AF364B1B88364AA2FBB7
:1030EC0003235B0B9AB2354BA3FB0213D9080B4697
:1030FC009B000B445B00D31A9BB2DBB23033DAB2C9
:10310C002F4B1A702B4B1B882E4AA2FB03239B09B7
:10311C009AB22A4BA3FB0213D9080B469B000B4413
:10312C005B00D31A9BB2DBB23033DAB2244B5A7049
:10313C00204B1B88244AA2FB03235B099AB21F4B2A
:10314C00A3FB0213D9080B469B000B445B00D31A5C
:10315C009BB2DBB23033DAB2194B9A70154B1B8829
:10316C00164AA2FB0323DB089AB2144BA3FB0213EF
:10317C00D9080B469B000B445B00D31A9BB2DBB205
:10318C003033DAB20E4BDA700A4B1A880B4BA3FBB6
:10319C000213D9080B469B000B445B00D31A9BB25D
:1031AC00DBB23033DAB2064B1A7100BFBD4680BCBD
:1031BC00704700BF3C0700205917B7D1CDCCCCCC01
:1031CC0018020020D34D62101F85EB5180B485B0DE
:1031DC0000AF786039600023FB730023BB730023BE
:1031EC007B7300233B730023BB735AE0BB7B7A6871
:1031FC0013441B781B097B737B7B092B03D87B7BCC
:10320C0030337B7308E07B7B092B05D97B7B0F2B41
:10321C0002D87B7B37337B73BB7B7A6813441B7878
:10322C0003F00F033B733B7B092B03D83B7B303301
:10323C003B7308E03B7B092B05D93B7B0F2B02D85A
:10324C003B7B37333B73FB7B3A68134430221A7059
:10325C00FB7B0133FB73FB7B3A68134478221A70B7
:10326C00FB7B0133FB73FB7B3A6813447A7B1A704C
:10327C00FB7B0133FB73FB7B3A6813443A7B1A707C
:10328C00FB7B0133FB73FB7B112B07D8FB7B3A6871
:10329C00134420221A70FB7B0133FB73BB7B01337D
:1032AC00BB73BB7B032BA1D9012318461437BD4636
:1032BC0080BC704780B485B000AF78600B46FB7063
:1032CC000023FB60FB78042B20D17B681B78FB6010
:1032DC00FB681B02FB607B6801331B781A46FB689A
:1032EC001343FB60FB681B02FB607B6802331B789B
:1032FC001A46FB681343FB60FB681B02FB607B6890
:10330C0003331B781A46FB681343FB60FB681846B3
:10331C001437BD4680BC704780B487B000AFF860EE
:10332C000B467A60FB720023FB750023BB750023F0
:10333C007B7500233B750023BB7547E0BB7DFA68AA
:10334C0013441B781B097B757B7D092B03D87B7D74
:10335C0030337B7508E07B7D092B05D97B7D0F2BEA
:10336C0002D87B7D37337B75BB7DFA6813441B78A1
:10337C0003F00F033B753B7D092B03D83B7D3033AA
:10338C003B7508E03B7D092B05D93B7D0F2B02D803
:10339C003B7D37333B75FB7D7A6813447A7D1A701D
:1033AC00FB7D0133FB75FB7D7A6813443A7D1A7003
:1033BC00FB7D0133FB75FB7D7A68134420221A7068
:1033CC00FB7D0133FB75BB7D0133BB75BA7DFB7A8D
:1033DC009A42B3D3012318461C37BD4680BC7047B4
:1033EC0080B483B000AF0023FB710023BB710023BA
:1033FC007B7100237B7155E0FB792F4AD35C2F2B1B
:10340C000AD9FB792C4AD35C392B05D8FB792A4A8B
:10341C00D35C303BBB710EE0FB79274AD35C402B6D
:10342C0009D9FB79244AD35C462B04D8FB79224A70
:10343C00D35C373BBB717B79BA791201D1B21F4A8D
:10344C00D154FB790133FB71FB791B4AD35C2F2BD5
:10345C000AD9FB79184AD35C392B05D8FB79164A63
:10346C00D35C303BBB710EE0FB79134AD35C402B31
:10347C0009D9FB79104AD35C462B04D8FB790E4A48
:10348C00D35C373BBB717B790C4AD15C7B79BA79C5
:10349C000A43D1B2094AD154FB790133FB717B79D0
:1034AC0001337B717B79032BA6D900BF00BF0C378E
:1034BC00BD4680BC704700BF2000002020070020C4
:1034CC0080B582B000AF0121082003F077F801210C
:1034DC004FF4804003F090F80323BB711823FB7169
:1034EC004FF42043BB803B1D19460E4802F0D2FC22
:1034FC000323BB711023FB714FF48853BB803B1D1E
:10350C001946084802F0C6FC4823FB714FF480436F
:10351C00BB803B1D1946034802F0BCFC00BF0837BA
:10352C00BD4680BD000C01402DE9B00387B000AF53
:10353C00786039603B683B613B681B780A2B02D191
:10354C003B6901333B610023FB600BE03B695A1C78
:10355C003A6119783C4AFB6813440A461A70FB68B6
:10356C000133FB60FB680C2BF0DD0023BB605EE0DD
:10357C00BB68002B14D1344ABB6813441B78303B16
:10358C00FB75FB7D1B01FB75BB6801332E4AD35CBD
:10359C00303BDBB25AB297F9173013435BB2FB7571
:1035AC00BB68002B18DDBB68052B15DCBB685B000A
:1035BC00254AD35C303BFB75FB7D1B01FB75BB685F
:1035CC005B000133204AD35C303BDBB25AB297F933
:1035DC00173013435BB2FB75BB68062B08D1BB6875
:1035EC005B00194AD35C303BFB75FB7D1B01FB7503
:1035FC00164BD3E900014FF000024FF000030B0211
:10360C0043EA106302021149C1E90023FB7D002249
:10361C001C4615460D4BD3E9002344EA020845EA43
:10362C0003090A4BC3E90089BB680133BB60BB6863
:10363C00062B9DDD054BD3E90023104619461C379C
:10364C00BD46BDE8B0037047700900206809002032
:10365C0080B485B000AFF860C7E90023FB681B0E8F
:10366C00DAB2304B1A70FB681B0CDAB22D4B5A7065
:10367C00FB681B0ADAB22B4B9A70FB68DAB2294B47
:10368C00DA70D7E900014FF000024FF000030A0C8A
:10369C000023D2B2234B1A71D7E900014FF000027C
:1036AC004FF000030A0A0023D2B21E4B5A71D7E91D
:1036BC0000014FF000024FF000030A000023D2B2C9
:1036CC00184B9A71D7E900014FF000024FF000033C
:1036DC00020E42EA01220B0ED2B2124BDA71D7E97A
:1036EC0000014FF000024FF00003020C42EA0142CD
:1036FC000B0CD2B20B4B1A72D7E900014FF000023F
:10370C004FF00003020A42EA01620B0AD2B2054BE7
:10371C005A723A78034B9A7200BF1437BD4680BC7C
:10372C00704700BFBC09002080B483B000AF786044
:10373C0039607B681B0EDAB2134B1A707B681B0C5A
:10374C00DAB2114B5A707B681B0ADAB20E4B9A70C4
:10375C007B68DAB20C4BDA703B681B0EDAB20A4BA0
:10376C001A713B681B0CDAB2074B5A713B681B0A87
:10377C00DAB2054B9A713B68DAB2034BDA7100BFCF
:10378C000C37BD4680BC7047CC09002080B485B096
:10379C0000AF78607B681B781A067B6801331B7856
:1037AC001B041A437B6802331B781B0213437A6891
:1037BC00033212781343FB60FB6818461437BD467E
:1037CC0080BC704780B400AF384B1B791B09DBB24F
:1037DC003033DAB2364B1A70344B1B7903F00F03CB
:1037EC00DBB23033DAB2324B5A70304B5B791B0997
:1037FC00DBB23033DAB22E4B9A702C4B5B7903F080
:10380C000F03DBB23033DAB2294BDA70274B9B79DA
:10381C001B09DBB23033DAB2254B1A71234B9B797F
:10382C0003F00F03DBB23033DAB2214B5A711F4B6A
:10383C00DB791B09DBB23033DAB21D4B9A711B4BAF
:10384C00DB7903F00F03DBB23033DAB2184BDA71E9
:10385C00164B1B7A1B09DBB23033DAB2144B1A72DB
:10386C00124B1B7A03F00F03DBB23033DAB2104B7E
:10387C005A720E4B5B7A1B09DBB23033DAB20C4B4B
:10388C009A720A4B5B7A03F00F03DBB23033DAB275
:10389C00074BDA72054B9B7A1B09DBB23033DAB279
:1038AC00034B1A7300BFBD4680BC7047DC0A002076
:1038BC00EC0A002080B485B000AF78607B680433DC
:1038CC001B781A067B6805331B781B041A437B682C
:1038DC0006331B781B0213437A68073212781343A2
:1038EC00FB60FB6818461437BD4680BC704700006F
:1038FC0080B483B000AF78607B685B0A5A4AA2FB45
:10390C000323DB09DBB23033DAB2584B1A707B6815
:10391C00574AA2FB0323590E564BA3FB0123DA088B
:10392C0013469B0013445B00CA1AD3B23033DAB28D
:10393C004E4B5A707B68504AA2FB0323990D4D4B9A
:10394C00A3FB0123DA0813469B0013445B00CA1A3D
:10395C00D3B23033DAB2454B9A707B68474AA2FB3C
:10396C000323990C434BA3FB0123DA0813469B005A
:10397C0013445B00CA1AD3B23033DAB23B4BDA7061
:10398C007B685B093E4AA2FB0323D909394BA3FB95
:10399C000123DA0813469B0013445B00CA1AD3B206
:1039AC003033DAB2314B1A717B68364AA2FB0323EF
:1039BC00590B304BA3FB0123DA0813469B0013442D
:1039CC005B00CA1AD3B23033DAB2284B5A717B6817
:1039DC002D4AA2FB03239909264BA3FB0123DA08EA
:1039EC0013469B0013445B00CA1AD3B23033DAB2CD
:1039FC001E4B9A717B68254AA2FB032359091D4B68
:103A0C00A3FB0123DA0813469B0013445B00CA1A7C
:103A1C00D3B23033DAB2154BDA717B68154AA2FB9C
:103A2C000323D908134BA3FB0123DA0813469B008D
:103A3C0013445B00CA1AD3B23033DAB20B4B1A728E
:103A4C0079680C4BA3FB0123DA0813469B00134443
:103A5C005B00CA1AD3B23033DAB2044B5A7200BFCD
:103A6C000C37BD4680BC7047834B0400B009002066
:103A7C00893BE655CDCCCCCC6BCA5F6B83DE1B434C
:103A8C00C55A7C0A5917B7D1D34D62101F85EB511B
:103A9C0080B400AF084B1B68002B04D0064B1B688E
:103AAC00013B054A1360054B1B680133034A136045
:103ABC0000BFBD4680BC7047F00400200C0B0020FA
:103ACC0080B483B000AF7860064A7B68136000BF97
:103ADC00044B1B68002BFBD100BF00BF0C37BD464D
:103AEC0080BC7047F004002080B586B000AF012187
:103AFC00082002F063FD0223BB751823FB754023DD
:103B0C00BB8207F1140319461A4802F0C3F90121CC
:103B1C00082002F053FD0223BB751C23FB75802388
:103B2C00BB8207F114031946124802F0B3F90121C4
:103B3C004FF4001002F060FD4FF48063FB814FF4F2
:103B4C0080433B824CF250337B604BF6FF737B819E
:103B5C0000233B810123BB813B1D1946064802F023
:103B6C0085FA0121044802F043FB00BF1837BD461B
:103B7C0080BD00BF000C01400054004080B584B0F3
:103B8C0000AF78600B46FB701346BB704FF47A7332
:103B9C00FB600121786802F04AFB4FF47A73FB60FA
:103BAC0006E0FB685A1EFA60002B01D1FF233AE0B5
:103BBC001F49786802F0A5FB0346002BF1D0FB7877
:103BCC0000221946786802F07FFB4FF47A73FB6091
:103BDC0006E0FB685A1EFA60002B01D1FF2322E09D
:103BEC001449786802F08DFB0346002BF1D0BB78AA
:103BFC001946786802F059FB4FF47A73FB6006E0C3
:103C0C00FB685A1EFA60002B01D1FF230BE00A4916
:103C1C00786802F076FB0346002BF1D0012178681E
:103C2C0002F024FB002318461037BD4680BD00BFB0
:103C3C0001000300800007008400070080B584B0F9
:103C4C0000AF0346FB71FB7923F00F03FB73FB7989
:103C5C001B01BB73FB7B23F00703DBB21A464E211F
:103C6C001C48FFF78BFFFB7B43F00203DBB223F016
:103C7C000503DBB21A464E211648FFF77FFFFB7B8C
:103C8C0023F00703DBB21A464E211248FFF776FFEA
:103C9C00BB7B23F00703DBB21A464E210D48FFF71E
:103CAC006DFFBB7B43F00203DBB223F00503DBB2F9
:103CBC001A464E210748FFF761FFBB7B23F0070331
:103CCC00DBB21A464E210348FFF758FF00BF1037EE
:103CDC00BD4680BD0054004080B584B000AF0346A3
:103CEC00FB71FB7923F00F03FB73FB791B01BB7397
:103CFC0097F90F3023F007035BB243F004035BB278
:103D0C00DBB21A464E212448FFF738FFFB7B43F009
:103D1C000603DBB223F00103DBB21A464E211E4828
:103D2C00FFF72CFF97F90F3023F007035BB243F03A
:103D3C0004035BB2DBB21A464E211748FFF71EFF95
:103D4C0097F90E3023F007035BB243F004035BB228
:103D5C00DBB21A464E211048FFF710FFBB7B43F035
:103D6C000603DBB223F00103DBB21A464E210A48EC
:103D7C00FFF704FF97F90E3023F007035BB243F013
:103D8C0004035BB2DBB21A464E210348FFF7F6FE82
:103D9C0000BF1037BD4680BD0054004090B585B0C3
:103DAC0000AF78600023FB7309E0FB7B7A68134457
:103DBC001B781846FFF790FFFB7B0133FB73FC7BF2
:103DCC007868FCF7BDF903469C42EED300BF00BFF8
:103DDC001437BD4690BD000080B58AB000AFF860C6
:103DEC00B9607A60FFF7BAF803467F4A13607F4BDD
:103DFC0000221A70002387F826307D4B00221A709F
:103E0C007C4B00221A70002387F827301CE078487E
:103E1C00FCF796F903461A46754B134476491A4635
:103E2C000B461B8813807348FCF78AF903461A4625
:103E3C00704B134470491A460B461B88138097F835
:103E4C002730013387F8273097F82730062BDED937
:103E5C00F968674803F0A6FAB968664803F0A2FA55
:103E6C00002387F827301CE06148FCF769F903460A
:103E7C001A465F4B134460491A460B461B88138045
:103E8C005C48FCF75DF903461A465A4B13445A49F1
:103E9C001A460B461B88138097F82730013387F896
:103EAC00273097F82730062BDED95148FCF748F914
:103EBC000346DAB2514B1A704E48FCF741F90346EF
:103ECC00DAB24F4B1A707AE0FFF748F80246464BCD
:103EDC001B68D31A7A689A4271D2FFF73FF80346EF
:103EEC00414A1360414B1B780133DAB23F4B1A70D5
:103EFC0097F82620414B1B78013B9A4229DA002384
:103F0C0087F8273019E0394B1B781A4697F8273079
:103F1C0013443A4A127893FBF2F101FB02F29A1A1B
:103F2C0097F8273032498A5C28333B4403F80C2C31
:103F3C0097F82730013387F8273097F82730072B6D
:103F4C00E1D98020FFF77AFE07F11C031846FFF732
:103F5C0025FF97F826202A4B1B78013B9A4229DA39
:103F6C00002387F8273019E0204B1B781A4697F866
:103F7C0027301344224A127893FBF2F101FB02F230
:103F8C009A1A97F827301B498A5C28333B4403F86C
:103F9C00182C97F82730013387F8273097F82730FB
:103FAC00072BE1D9C020FFF749FE07F11003184693
:103FBC00FFF7F4FE97F82630013387F8263097F890
:103FCC0026200E4B1B78013B9A42FFF67DAF97F8EB
:103FDC0026200B4B1B78013B9A42FFF675AF00BFB6
:103FEC0000BF2837BD4680BD100B0020140B0020ED
:103FFC00180B0020900B00207C860008050C00207C
:10400C00060C002080B588B000AFF860B96013468C
:10401C00FB71FB79002B3FD1FEF7A0FF03463E4A14
:10402C0013603E4B00221A703D4B00221A70002385
:10403C00FB770EE03A48FCF783F803461A46384BF8
:10404C00134438491A460B461B881380FB7F0133F7
:10405C00FB77FB7F062BEDD9F968314803F0A2F909
:10406C000023FB770EE02E48FCF76AF803461A464D
:10407C002B4B13442B491A460B461B881380FB7F92
:10408C000133FB77FB7F062BEDD92548FCF758F85D
:10409C000346DAB2244B1A70FB681B78002B37D01E
:1040AC00FEF75CFF02461C4B1B68D31ABA689A4297
:1040BC002ED2FEF753FF0346174A1360174B1B789B
:1040CC000133DAB2154B1A700023FB7715E0134B52
:1040DC001B781A46FB7F1344134A127893FBF2F1B8
:1040EC0001FB02F29A1AFB7F0D498A5C20333B4498
:1040FC0003F80C2CFB7F0133FB77FB7F072BE6D9F6
:10410C008020FFF79BFD07F114031846FFF746FECE
:10411C0000BF2037BD4680BD080C00200C0C0020D1
:10412C00100C00207C8600083B0C002080B588B069
:10413C0000AFF860B9601346FB71FB79002B3FD1DF
:10414C00FEF70CFF03463E4A13603E4B00221A70EA
:10415C003D4B00221A700023FB770EE03A48FBF728
:10416C00EFFF03461A46384B134438491A460B46A0
:10417C001B881380FB7F0133FB77FB7F062BEDD96C
:10418C00F968314803F00EF90023FB770EE02E4856
:10419C00FBF7D6FF03461A462B4B13442B491A4602
:1041AC000B461B881380FB7F0133FB77FB7F062BB1
:1041BC00EDD92548FBF7C4FF0346DAB2244B1A703D
:1041CC00FB681B78002B37D0FEF7C8FE02461C4B51
:1041DC001B68D31ABA689A422ED2FEF7BFFE03466A
:1041EC00174A1360174B1B780133DAB2154B1A7050
:1041FC000023FB7715E0134B1B781A46FB7F134407
:10420C00134A127893FBF2F101FB02F29A1AFB7F2C
:10421C000D498A5C20333B4403F80C2CFB7F0133A3
:10422C00FB77FB7F072BE6D9C020FFF707FD07F1D3
:10423C0014031846FFF7B2FD00BF2037BD4680BD02
:10424C003C0C0020400C0020440C00207C86000814
:10425C006F0C002080B582B000AFFFF745FC002347
:10426C00FB712DE0FB79204AD35C1B01DBB21A46B3
:10427C004E211E48FFF782FC0A20FFF721FCFB7938
:10428C00194AD35C1B015BB243F002035BB2DBB295
:10429C001A464E211548FFF771FC0A20FFF710FC57
:1042AC00FB79114AD35C1B01DBB21A464E210F4835
:1042BC00FFF764FC0A20FFF703FCFB790133FB7169
:1042CC00FB790B2BCED98020FFF7B8FC0848FFF701
:1042DC0065FDC020FFF7B2FC0548FFF75FFD00BF8E
:1042EC000837BD4680BD00BF40040020005400408C
:1042FC008086000880B483B000AF786000BF7B6814
:10430C005A1E7A60002BFAD100BF00BF0C37BD4695
:10431C0080BC704780B500AF00224FF48051074835
:10432C0001F08DFE0A20FFF7CBFB01224FF48051E8
:10433C00024801F084FE0123184680BD000C0140A8
:10434C0080B582B000AF0346FB710F4B32221A705E
:10435C000D4B05225A700C4BFF229A700A4B01220E
:10436C00DA70094AFB7913714FF47A720521064809
:10437C0000F000F90346002B01D1002300E00123DB
:10438C0018460837BD4680BD880C002080B584B027
:10439C0000AFB9607A601A460346FB731346BB81C3
:1043AC000F4B4A221A700E4B01225A700C4AFB7B9F
:1043BC009370BB891A460321094800F0DBF80346C9
:1043CC00002B01D1002307E01420FFF779FB79685B
:1043DC00B86800F007F8034618461037BD4680BD94
:1043EC00880C002080B584B000AF78603960002262
:1043FC001321194800F0C6F9174BDB79012B01D0BA
:10440C00002324E0144B5B7ABB81BB891B02BB816C
:10441C00114B9B7A9AB2BB891343BB810E4B1A7B0F
:10442C003B681A700023FB730BE0FB7B03F10D025E
:10443C00FB7B79680B4408498A5C1A70FB7B01335F
:10444C00FB73054B1B7BFA7B9A42EED30123184678
:10445C001037BD4680BD00BFC80C002080B500AF32
:10446C00124B14221A70114B01225A700F4B14224A
:10447C009A700E4B0022DA704FF4FA7204210B483A
:10448C0000F078F80346002B01D100230BE0FF224B
:10449C000921074800F076F9054B9B79152B0CBFC9
:1044AC0001230023DBB2184680BD00BF880C00201E
:1044BC00C80C002080B584B000AF2B4A3B4692E874
:1044CC000300186004331980284B02221A704FF431
:1044DC00FA720121254800F04DF80346002B01D15A
:1044EC0000233CE0FF220D21214800F04BF93B4614
:1044FC00062219461E4802F015FF0346002B01D078
:10450C0000232CE00723FB60FB685A1CFA60184A56
:10451C00D35CBB60BB681B02BB60FB685A1CFA60B7
:10452C00134AD35C1A46BB681343BB60BB681B02BF
:10453C00BB60FB685A1CFA600D4AD35C1A46BB6818
:10454C001343BB60BB681B02BB60FB685A1CFA6060
:10455C00074AD35C1A46BB681343BB60BB6818465A
:10456C001037BD4680BD00BF94860008880C002023
:10457C00C80C002080B582B000AF78600B46FB7091
:10458C0013463B80FB781946786800F01BF83B8893
:10459C00184600F091FA0346002B01D100230DE0E0
:1045AC006420FFF7A7FE00F05FF90346002B01D152
:1045BC00002303E06420FFF79DFE01231846083713
:1045CC00BD4680BD2DE9F04389B000AF78600B4645
:1045DC00FB706B461E46FB7803F108014B1E3B61DA
:1045EC000A460023904699464FF000024FF0000314
:1045FC004FEAC90343EA58734FEAC8020A4600233C
:10460C0014461D464FF000024FF00003EB0043EA46
:10461C005473E2000B460733DB08DB00ADEB030DF4
:10462C006B460033FB60FB68BB61FB780133FB70AE
:10463C00BB6901221A70BB690133BB61BB690022E3
:10464C001A70BB690133BB61BB6900221A70BB696C
:10465C000133BB61BB69FF221A70BB690133BB61BB
:10466C00FF23FB75BB69FA781A70BB690133BB6118
:10467C00FB785B42DAB2BB691A70BB690133BB6170
:10468C00BB69D4221A70BB690133BB61FB7D2C3B27
:10469C00FB750023FB7712E0FB7F7A6813441A78D2
:1046AC00BB691A70BB690133BB61FB7F7A68134429
:1046BC001A78FB7D1344FB75FB7F0133FB77FA7F84
:1046CC00FB78013B9A42E7DBFB7DDB43DAB2BB694B
:1046DC001A70BB690133BB61BB6900221A70BB69DC
:1046EC000133BB61FB7808331946F86800F006F813
:1046FC00B54600BF2437BD46BDE8F08380B584B015
:10470C0000AF7860396000BF02211C4802F08CF8C1
:10471C000346002BF8D000224FF48051184801F0CA
:10472C008EFC0220FFF7CCF90023FB6017E07A68BF
:10473C00FB6813441B789BB21946104802F01CF816
:10474C004FF4C870FFF7D6FD00BF02210B4802F0F2
:10475C006BF80346002BF8D0FB680133FB60FA685A
:10476C003B689A42E3D301224FF48051044801F094
:10477C0066FC00BF1037BD4680BD00BF003800404E
:10478C00000C014080B584B000AF78600B46FB7024
:10479C0013463B8000224FF48051314801F04FFC0E
:1047AC000220FFF78DF900BF02212E4802F03CF8E1
:1047BC000346002BF8D003212A4801F0DDFF00BF8F
:1047CC000221284802F030F80346002BF8D000BF35
:1047DC000121244802F028F80346002BF8D0214888
:1047EC0001F0D8FF0346BB730023FB7329E04FF4A1
:1047FC00C870FFF77FFD3B8819461A4801F0BCFFD3
:10480C004FF4C870FFF776FD00BF0221154802F087
:10481C000BF80346002BF8D000BF0121114802F021
:10482C0003F80346002BF8D00E4801F0B3FF034603
:10483C001946FB7B7A681344CAB21A70FB7B0133AE
:10484C00FB73FA7BFB789A42D1D301224FF480514F
:10485C00034801F0F4FB00BF1037BD4680BD00BF1C
:10486C00000C01400038004080B584B000AF3F4AD6
:10487C0007F1080392E80300186004331980002242
:10488C004FF480513A4801F0DAFB0220FFF718F997
:10489C0000BF0221374801F0C7FF0346002BF8D0B8
:1048AC000321344801F068FF00BF0221314801F0B8
:1048BC00BBFF0346002BF8D000BF01212D4801F0AF
:1048CC00B3FF0346002BF8D02A4801F063FF0346E0
:1048DC00BB730023FB732FE06420FFF70BFD00BFBD
:1048EC000221244801F0A0FF0346002BF8D0002140
:1048FC00204801F041FF6420FFF7FCFC00BF0221BF
:10490C001C4801F091FF0346002BF8D000BF012199
:10491C00184801F089FF0346002BF8D0154801F028
:10492C0039FF03461A46FB7BD2B210333B4403F8E3
:10493C00102CFB7B0133FB73FB7B052BCCD90122A9
:10494C004FF480510A4801F07AFB07F108013B460D
:10495C000622184602F0E6FC0346002B0CBF01238E
:10496C000023DBB218461037BD4680BD9C8600087C
:10497C00000C01400038004080B582B000AF00BF91
:10498C000221494801F050FF0346002BF8D000BF2C
:10499C000121454801F048FF0346002BF8D042485E
:1049AC0001F0F8FE03461946404B1B781A46C9B273
:1049BC003F4B99543D4B1B780133DAB23B4B1A7089
:1049CC0000224FF480513B4801F039FB0220FFF7E5
:1049DC0077F80221344801F0CFFE00BF02213248A3
:1049EC0001F022FF0346002BF8D000BF01212E4816
:1049FC0001F01AFF0346002BF8D02B4801F0CAFE39
:104A0C0003461946294B1B781A46C9B2284B9954B0
:104A1C00264B1B780133DAB2244B1A704FF4C87052
:104A2C00FFF768FC00BF02211F4801F0FDFE0346A2
:104A3C00002BF8D0FF211C4801F09EFE4FF4C870EB
:104A4C00FFF758FC00BF0221174801F0EDFE0346AA
:104A5C00002BF8D000BF0121134801F0E5FE0346FE
:104A6C00002BF8D0104801F095FE0346FB71012293
:104A7C004FF480510F4801F0E2FA0C4B1B781946A9
:104A8C000B4AFB795354094B1B780133DAB2074BB1
:104A9C001A70FB79012B0CBF01230023DBB21846E3
:104AAC000837BD4680BD00BF00380040840C002094
:104ABC00700C0020000C014080B584B000AF0346A0
:104ACC00FB800023FB810520FEF7FAFFFB890533F1
:104ADC00FB810EE0FB88002B08D0FB890533FB81A2
:104AEC00FA89FB889A4201D9002308E00520FEF7D9
:104AFC00E7FFFFF741FF0346002BEBD001231846DD
:104B0C001037BD4680BD000080B586B000AFF860A0
:104B1C007A601A460B46FB721346BB722F4B3A6AED
:104B2C001068186092889A80FB7A1A46F9682C48AB
:104B3C0002F008FC97F90B202A4B1A702A4B4022E2
:104B4C001A70294B01225A70BB7A002B01D06122BA
:104B5C0000E06022244B9A707B68DAB2224BDA7048
:104B6C00224B1E4A1068186092889A800023FB75AD
:104B7C000AE0FB7D1A4AD256FB7D0A33D1B21A4A9F
:104B8C00D154FB7D0133FB75FB7D164A92F9002055
:104B9C009342EEDB134B93F90030DBB20A33DBB2FA
:104BAC00642219461048FFF7E5FC0346002B01D19F
:104BBC0000230EE00A20FEF783FFFF220C210C4895
:104BCC00FFF7E0FD0A4BDB79002B01D0002300E05E
:104BDC00012318461837BD4680BD00BF100D0020BC
:104BEC00080D00200F0D0020880C00208C0C0020DC
:104BFC00C80C002080B582B000AF03463960FB7151
:104C0C00174B40221A70164B01225A70144B30224B
:104C1C009A70134AFB79D370642204211048FFF771
:104C2C00A9FC0346002B01D1002314E00A20FEF757
:104C3C0047FFFF221A210B48FFF7A4FD094BDB7934
:104C4C00002B01D0002306E0074B102219463868D0
:104C5C0002F078FB012318460837BD4680BD00BF23
:104C6C00880C0020C80C0020D00C002080B582B02D
:104C7C0000AF03463960FB71154B40221A70144B80
:104C8C0001225A70124BA0229A70114AFB79D370F0
:104C9C00104B10223968184602F054FB6422142180
:104CAC000B48FFF767FC0346002B01D100230BE0F8
:104CBC000A20FEF705FF0A20FEF702FFFF221A2149
:104CCC000548FFF75FFD012318460837BD4680BD38
:104CDC00880C00208C0C0020C80C002080B58EB0F5
:104CEC0002AFF8607B600B46FB721346BB7200236D
:104CFC0087F82F30204A07F1240392E8030018604C
:104D0C0004331980002387F82E301C4A07F1100356
:104D1C001268114619800233120C1A70F97A07F1D5
:104D2C002403009301230022F868FFF7EDFE0346ED
:104D3C00002B05D1012387F82D3097F82D3016E084
:104D4C00BB7A79681846FFF755FF034687F82D3074
:104D5C0097F82D30002B05D1022387F82D3097F8CA
:104D6C002D3004E0002387F82D3097F82D301846AD
:104D7C003037BD4680BD00BFD8860008E0860008ED
:104D8C0080B400AF3B4B1B6A03F40043B3F5004FF8
:104D9C006CD0384BDB69374A43F0C053D361364B88
:104DAC001B68354A43F480731360324B1B6A314ADB
:104DBC0043F4803313622F4B1B6A2E4A23F4803347
:104DCC0013622C4B1B6A2B4A43F401431362294B8D
:104DDC001B6A284A43F00103136200BF254B1B6A70
:104DEC0003F00103012BF9D1244B9B8D9BB2234A79
:104DFC0043F003039BB2938500BF214B9B889BB26E
:104E0C0003F02003002BF8D01D4B9B889BB21C4A4F
:104E1C0043F010039BB29380194B47F6FF729A81B3
:104E2C00174B9B889BB2164A23F010039BB29380BE
:104E3C0000BF134B9B889BB203F02003002BF8D0D0
:104E4C000F4B9B889BB20E4A23F010039BB29380AE
:104E5C0000BF0B4B9B889BB203F00803082BF8D1C7
:104E6C00054B1B68044A23F48073136000BFBD46D6
:104E7C0080BC70470010024000700040006C004085
:104E8C000028004080B400AF054B1B8B9BB21B0469
:104E9C00034A928B92B213431846BD4680BC7047AE
:104EAC000028004080B483B000AF78601F4BDB69F2
:104EBC001E4A43F0C053D3611D4B1B681C4A43F47C
:104ECC008073136000BF1B4B9B889BB203F02003C5
:104EDC00002BF8D0174B9B889BB2164A43F010035B
:104EEC009BB293807B681A0C124B92B21A83114BB3
:104EFC007A6892B29A830F4B9B889BB20D4A23F02F
:104F0C0010039BB2938000BF0A4B9B889BB203F0AB
:104F1C002003002BF8D0064B1B68054A23F4807342
:104F2C00136000BF0C37BD4680BC704700100240B8
:104F3C00007000400028004080B487B000AF78605B
:104F4C0039607B68654AA2FB0312120C644901FBB1
:104F5C0002F29B1A7B617B6803F52843C0335F4ADE
:104F6C00A2FB0323DA0B5F4B13443B613B695B08E9
:104F7C003B613A695C4BA3FB0213D11A49080B4401
:104F8C0099080B46DB005B1AD11ACAB23B685A72FD
:104F9C003B6903F5FA432C333B613B699B000333BC
:104FAC00524AA2FB0323DB0BFB73FB7B504A02FB35
:104FBC0003F3002B00DA03339B101A463B699B1A50
:104FCC003B613B699B0003334A4AA2FB0323DB0989
:104FDC00BB73BB7B40F2B55202FB03F3002B00DA30
:104FEC0003339B101A463B699B1A3B613A69134683
:104FFC009B0013440233404AA2FB0323DB097B735F
:10500C003B69D9B27A7B1346DB0013441A01134473
:10501C0002333A4A82FB03025210DB17D31ADBB27B
:10502C00CB1ADBB20133DAB23B685A717B7B344A60
:10503C00A2FB0323DB08DBB21A469B00D31A9B00AE
:10504C00DAB27B7B1344DBB20333DAB23B681A71FE
:10505C00FB7B642203FB02F2BB7B1344A3F5965348
:10506C007A7B2749A1FB0212D208D2B21A443B68C0
:10507C001A607B69234AA2FB0323DB0ADAB23B6882
:10508C009A717A691F4BA3FB0213DB0A4FF461611F
:10509C0001FB03F3D31A1C4AA2FB03235B09DAB20C
:1050AC003B68DA717B69174AA2FB0312D20A4FF4F0
:1050BC00616101FB02F29A1A134BA3FB021359090B
:1050CC000B461B015B1A9B00D11ACAB23B681A72C1
:1050DC0000BF1C37BD4680BC704700BF07452EC2C1
:1050EC0080510100177B4A0025499224BD066B397B
:1050FC00B13A020073B06D16D7802BD66766666620
:10510C00CDCCCCCCC5B3A2918988888880B489B029
:10511C0000AF78607B681B79C3F10E03354A82FBC4
:10512C0003125210DB17D31AFB777B681B6803F54D
:10513C009652FB7FD31ABB617B681A79FB7F1946A9
:10514C0049000B449B00DBB21344DBB2033BFB7501
:10515C007B685B791946FA7D1346DB0013441A0110
:10516C0013440233244A82FB03025210DB17D31A76
:10517C00CA18BB6940F26D1101FB03F31A44BB69F9
:10518C00002B00DA03339B101A44BB691B4981FBCB
:10519C0003014911DB175B1A1A44BB69174981FBE0
:1051AC000301C911DB17CB1A1A44154B13443B618D
:1051BC003B69144A02FB03F3FB607B681B7A1946BC
:1051CC007B68DB791A4613461B019B1A9B00CA1895
:1051DC007B689B7919464FF4616301FB03F313441D
:1051EC001A46FB681344FB60FB6818462437BD461F
:1051FC0080BC7047ABAAAA2A676666661F85EB510E
:10520C004745DAFF8051010080B596B000AF786059
:10521C003960002387F84F303B683B653B6D0133A9
:10522C003B653B6D01333B653B6D01333B653B6D32
:10523C0001333B653B6D01333B6500237B650CE023
:10524C003B6D5A1C3A65197807F10C027B6D1344BF
:10525C000A461A707B6D01337B657B6D032BEFDD8A
:10526C0007F10C03184602F02FF802467B681A600F
:10527C007B681B68002B05D07B681B6840F2BB72F7
:10528C00934205DC012387F84F3097F84F30F4E058
:10529C003B6D01333B6507F10C031846FAF750FFE1
:1052AC00024607F10C030021184602F073F80023A4
:1052BC007B650CE03B6D5A1C3A65197807F10C02C2
:1052CC007B6D13440A461A707B6D01337B657B6DD5
:1052DC00012BEFDD07F10C03184601F0F5FF034637
:1052EC00DAB27B681A717B681B79002B03D07B6860
:1052FC001B790C2B05D9022387F84F3097F84F30C8
:10530C00BBE03B6D01333B6507F10C031846FAF724
:10531C0017FF024607F10C030021184602F03AF879
:10532C0000237B650CE03B6D5A1C3A65197807F13C
:10533C000C027B6D13440A461A707B6D01337B653E
:10534C007B6D012BEFDD07F10C03184601F0BCFF60
:10535C000346DAB27B685A717B685B79002B03D009
:10536C007B685B791F2B05D9032387F84F3097F89F
:10537C004F3082E03B6D01333B6507F10C0318465F
:10538C00FAF7DEFE024607F10C030021184602F084
:10539C0001F800237B650CE03B6D5A1C3A651978CB
:1053AC0007F10C027B6D13440A461A707B6D0133B6
:1053BC007B657B6D012BEFDD07F10C03184601F0CB
:1053CC0083FF0346DAB27B689A713B6D01333B6510
:1053DC0007F10C031846FAF7B3FE024607F10C036B
:1053EC000021184601F0D6FF00237B650CE03B6DD5
:1053FC005A1C3A65197807F10C027B6D13440A4666
:10540C001A707B6D01337B657B6D012BEFDD07F132
:10541C000C03184601F058FF0346DAB27B68DA71C8
:10542C003B6D01333B6507F10C031846FAF788FE18
:10543C00024607F10C030021184601F0ABFF0023D4
:10544C007B650CE03B6D5A1C3A65197807F10C0230
:10545C007B6D13440A461A707B6D01337B657B6D43
:10546C00012BEFDD07F10C03184601F02DFF03466D
:10547C00DAB27B681A7297F84F3018465837BD4627
:10548C0080BD000080B584B000AFF8600B467A6038
:10549C007B8100F0C5FB03461A46204B1A70052091
:1054AC0000F08CFB03469AB21D4B1A80352000F09D
:1054BC0085FB03469AB21B4B1A80194B1B88022B97
:1054CC0027D000F0D9FB03461A46174B1A7005205B
:1054DC0000F074FB03469AB2114B1A80352000F091
:1054EC006DFB03469AB20F4B1A8000F099FB0346F2
:1054FC001A460A4B1A70052000F060FB03469AB25C
:10550C00074B1A80352000F059FB03469AB2054B25
:10551C001A8000BF1037BD4680BD00BF1C0D002097
:10552C00180D00201A0D00201D0D002080B584B030
:10553C0000AFF8600B467A607B8100F071FB03468C
:10554C001A462A4B1A70052000F038FB03469AB213
:10555C00274B1A80352000F031FB03469AB2254BBD
:10556C001A80234B1B88022B27D000F085FB0346A7
:10557C001A46214B1A70052000F020FB03469AB204
:10558C001B4B1A80352000F019FB03469AB2194BBD
:10559C001A8000F045FB03461A46144B1A7005207E
:1055AC0000F00CFB03469AB2114B1A80352000F028
:1055BC0005FB03469AB20F4B1A807B897A68194611
:1055CC00F86800F09DFA052000F0F8FA03469AB24C
:1055DC00074B1A80064B1B8803F00103002BF2D1FA
:1055EC0000BF00BF1037BD4680BD00BF1C0D0020A2
:1055FC00180D00201A0D00201D0D002080B582B062
:10560C0000AF786000F00CFB03461A462A4B1A7068
:10561C00052000F0D3FA03469AB2284B1A803520A5
:10562C0000F0CCFA03469AB2254B1A80234B1B8808
:10563C00022B27D000F020FB03461A46214B1A7090
:10564C00052000F0BBFA03469AB21C4B1A80352099
:10565C0000F0B4FA03469AB2194B1A8000F0E0FA43
:10566C0003461A46144B1A70052000F0A7FA03469D
:10567C009AB2124B1A80352000F0A0FA03469AB267
:10568C000F4B1A80786800F027FB03461A460E4B26
:10569C001A70052000F092FA03469AB2074B1A8052
:1056AC00064B1B8803F00103002BF2D100BF00BF97
:1056BC000837BD4680BD00BF1C0D0020180D002012
:1056CC001A0D00201D0D00202409002080B483B089
:1056DC0000AF0346FB71FB7903F01F03012202FAB2
:1056EC0003F1054A97F907305B0942F8231000BF14
:1056FC000C37BD4680BC704700E100E080B483B03D
:10570C0000AF0346FB71FB7903F01F03012202FA81
:10571C0003F1064A97F907305B09203342F823104E
:10572C0000BF0C37BD4680BC704700BF00E100E0F5
:10573C0080B483B000AF03463960FB7197F9073032
:10574C00002B0BDA3B68DAB20C49FB7903F00F0340
:10575C00043B1201D2B20B441A7609E03B68DAB270
:10576C00074997F907301201D2B20B4483F8002392
:10577C0000BF0C37BD4680BC704700BF00ED00E099
:10578C0000E100E080B586B000AF204B01221A701A
:10579C0000211F4800F0A1FF2420FFF7AFFF0023DA
:1057AC00BB804FF48273FB8000233B8100237B8101
:1057BC000023BB810023FB8138233B8280237B8227
:1057CC000723BB823B1D1946114800F043FF002202
:1057DC0060210F4800F0A0FF00210D4801F005F8F2
:1057EC0001224FF480510B4800F029FC012108489C
:1057FC0000F0DCFF0121064800F06FFF034B002294
:10580C001A7000BF1837BD4680BD00BF2E0D00209A
:10581C0000380040000C014080B485B000AFF86047
:10582C00B9601346FB80164B01221A70154AFB68AF
:10583C001360154ABB681360144B00221A80144B7A
:10584C0001221A80134AFB88138000BF124B1B895C
:10585C009BB203F00203002BF8D00A4B1B68002B01
:10586C0005D0084B1B680D4A1B78137002E00B4BDC
:10587C00FF221A7000BF1437BD4680BC704700BFB2
:10588C002E0D0020200D0020240D0020280D0020BE
:10589C002A0D00202C0D0020003800400C38004050
:1058AC0080B586B000AFF860B9607A60FB700023F9
:1058BC00FB751AE0FB7D9B00FA6813441868FB7DAE
:1058CC009B00BA6813441968FB7D5B007A6813442B
:1058DC001B881A46FFF7A0FF00BF084B1B78DBB2F2
:1058EC00002BFAD1FB7D0133FB75FA7DFB789A42D4
:1058FC00E0D300BF00BF1837BD4680BD2E0D002081
:10590C0080B483B000AF1F4B1B78FB711E4B1B6820
:10591C00002B07D01C4B1B681C4A12881344FA79C5
:10592C00D2B21A701A4B1A881A4B1B889A4215D28B
:10593C00194B1B68002B08D0174B1B68144A128894
:10594C001344104A1B78137002E00E4BFF221A709E
:10595C000F4B1B8801339AB20D4B1A800B4B1B88D3
:10596C0001339AB2094B1A80084B1A88094B1B88D1
:10597C009A4202D3094B00221A7000BF0C37BD4665
:10598C0080BC70470C380040240D0020280D0020EE
:10599C002A0D00202C0D0020200D00202E0D0020A3
:1059AC0080B586B000AF01224FF48071254800F01D
:1059BC0046FB01224FF48051224800F040FB0021AD
:1059CC00214800F08AFE0023BB804FF48273FB80D9
:1059DC0000233B8100237B810023BB814FF40073A8
:1059EC00FB8138233B8200237B820723BB823B1D38
:1059FC001946154800F02EFE0021134800F0F5FE64
:105A0C0001224FF480510F4800F019FB01210E4880
:105A1C0000F0CCFE012260210B4800F07DFE03213A
:105A2C002420FFF785FE2420FFF750FE01210648B5
:105A3C0000F053FE054B00221A7000BF1837BD460C
:105A4C0080BD00BF000C0140003800402E0D00202E
:105A5C0080B584B000AFF8600B467A607B81012280
:105A6C004FF48071204800F0EAFA204B03221A70A0
:105A7C00FB681B0CDAB21D4B5A70FB681B0ADAB2BE
:105A8C001A4B9A70FB68DAB2184BDA70184B174A3B
:105A9C001A60184B00221A60174B04221A80144B00
:105AAC0000225A60134A7B685360134A7B895380E7
:105ABC0000224FF480710C4800F0C1FA02230E4A08
:105ACC000C490B48FFF7ECFE00BF0C4B1B78DBB20C
