:020000040800F2
:10000000005000202955000871550008715500085E
:100010007155000871550008715500080000000076
:100020000000000000000000000000007155000802
:100030007155000800000000715500086527000890
:100040007155000871550008715500087155000878
:100050007155000871550008111E000871550008FF
:100060007155000871550008715500087155000858
:100070007155000871550008715500087155000848
:100080007155000871550008715500087155000838
:100090007155000871550008715500087155000828
:1000A00071550008411F000871550008715500087E
:1000B0007155000871550008715500087155000808
:1000C00071550008715500087155000871550008F8
:1000D0007D43000875570008DD5800087155000879
:1000E00071550008715500087155000800000000A6
:1000F0000000000000000000000000000000000000
:0C01000000000000000000005FF808F1A3
:10010C0010B5054C237833B9044B13B10448AFF345
:10011C0000800123237010BD7C040020000000002F
:10012C002C6E000808B5034B1BB103490348AFF311
:10013C00008008BD00000000800400202C6E000828
:10014C00034613F8012B002AFBD1181A013870470B
:10015C0080B500AF00F002F800BF80BD80B500AFE5
:10016C0000F002F800BF80BD80B483B000AF002364
:10017C007B6000233B603A4B1B68394A43F4803365
:10018C001360374B1B6803F400333B607B6801330F
:10019C007B603B68002B03D17B68B3F5A06FF0D17B
:1001AC002F4B1B6803F40033002B02D001233B6060
:1001BC0001E000233B603B68012B4BD1294B1B68B2
:1001CC00284A43F010031360264B1B68254A23F082
:1001DC0003031360234B1B68224A43F00203136092
:1001EC001F4B1F4A5B6853601D4B1D4A5B68536075
:1001FC001B4B5B681A4A43F480635360184B5B6873
:10020C00174A23F47C135360154B5B68144A43F470
:10021C00E8135360124B1B68114A43F08073136050
:10022C0000BF0F4B1B6803F00073002BF9D00C4B75
:10023C005B680B4A23F003035360094B5B68084A65
:10024C0043F00203536000BF054B5B6803F00C03E3
:10025C00082BF9D100BF0C37BD4680BC704700BFDE
:10026C00001002400020024080B483B000AF03466F
:10027C003960FB7197F90730002B0BDA3B68DAB267
:10028C000C49FB7903F00F03043B1201D2B20B446F
:10029C001A7609E03B68DAB2074997F90730120180
:1002AC00D2B20B4483F8002300BF0C37BD4680BC90
:1002BC00704700BF00ED00E000E100E080B582B0C7
:1002CC0000AF78607B68B3F1807F01D3012311E02C
:1002DC007B6823F07F43094A013B53600F214FF0A9
:1002EC00FF30FFF7C1FF054B00229A60034B07223A
:1002FC001A60002318460837BD4680BD10E000E0A8
:10030C0080B500AF1249134805F049FC1249114859
:10031C0005F036FC11490F4805F032FC10490D4828
:10032C0005F02EFC0F490B4805F02AFC0E49094834
:10033C0005F026FC0949074805F022FC0B49054845
:10034C0005F01EFC0A49034805F01AFC00BF80BDED
:10035C00EC010020C4060020DC010020D0010020AC
:10036C00FC010020E0010020E40100200C02002030
:10037C00E801002080B582B000AF0D490D4805F0B2
:10038C006DFC786079680C4805F009FC0B490A484B
:10039C0005F0F6FB0649002005F060FC78607968F2
:1003AC00054805F0EDFB00BF0837BD4680BD00BF1A
:1003BC00446E0008AC0A002044070020D001002045
:1003CC0080B592B002AFF8607B600B46FB721346AF
:1003DC00BB72514A07F1340392E8030018600433EE
:1003EC001980002387F83E304C4A07F1200312682D
:1003FC00114619800233120C1A70102387F83D3005
:10040C00002387F83F30F97A07F134030093012376
:10041C000022F86803F0DCF90346002B05D1012318
:10042C0087F83C3097F83C3072E007F1100319461E
:10043C00012003F043FA034687F83C3007F1100320
:10044C001946012003F03AFA0346002B05D102238A
:10045C0087F83C3097F83C305AE0002387F83F305F
:10046C000FE097F83F307A681A4497F83F301278CB
:10047C0040333B4403F8302C97F83F30013387F876
:10048C003F3097F83F30032BEBD907F11003194697
:10049C00012003F04FFA0346002B05D1032387F804
:1004AC003C3097F83C3033E007F1240307F1340279
:1004BC0092E8030018600433198007F12403063313
:1004CC001A4607F1200319889B78118093706923D1
:1004DC0087F82D3007F124030A331A4607F1340349
:1004EC00186810609B88938007F124031946032039
:1004FC0003F020FA0346002B05D1042387F83C3087
:10050C0097F83C3004E0002387F83C3097F83C30F7
:10051C0018464037BD4680BD486E0008506E000836
:10052C0080B590B000AFB54B00221A7203F08CFA74
:10053C00002004F04FFB4FF4803004F0FFFA012050
:10054C0004F066FC4FF4E0114FF4803004F024FB0F
:10055C00022004F04FFB0023FB62A94B5B68FB629B
:10056C00A74AFB6A23F470635360A54AFB6A43F401
:10057C00A0635360A24B5B68A14A43F480035360B1
:10058C00012004F027FB9F4804F050FB9D4B5B6857
:10059C009D4AA2FB03239B091846FFF78FFE9B4B3A
:1005AC0000221A709A4B1B68184603F0DFFA02F00F
:1005BC00B5FC01F00FFC0121964804F015F9034637
:1005CC001A46954B1A70944B1A78944B1A7001F08A
:1005DC00E1FB02F08DF804F0C7FF05F045F803F0DD
:1005EC0011FE8F4B00221A708E4B00221A7001F0F4
:1005FC00CDFDB86201F0CAFD78627B6A3B628A4825
:10060C00FFF79EFD03461946874805F005F8874815
:10061C00FFF796FD03461946844804F0FDFF844815
:10062C00FFF78EFD03461946814804F0F5FFC822FA
:10063C008049814802F034FA00BF804B1B78DBB252
:10064C00002B06D080217E4804F0DCFC0346002BF6
:10065C00F3D17A4B01221A7002F0C0FC03461A4601
:10066C00784B1A7002F05EFD03461A46764B1A70F0
:10067C0002F084FDF861FB69002B13D0694B1B78E9
:10068C0043F00103DAB2674B1A70F86901F088FD88
:10069C00FF2002F0B9FC03461A466C4B1A706C4BE7
:1006AC0000221A7000BF0221654804F0ABFC03461F
:1006BC00002BF8D0614B00221A7000BF5F4B1B78E7
:1006CC00DBB2002B06D080215D4804F09BFC034676
:1006DC00002BF3D103F09CFE03F0F0FE03465D4AC1
:1006EC001360564B00221A7000BF544B1B78DBB2C0
:1006FC00002B06D08021524804F084FC0346002BCA
:10070C00F3D103F07FFD544B01221A70534B00229E
:10071C001A700C21524804F0FFFF0023BB61002328
:10072C00FB6301F033FDB861BB69FB6302E001F0D0
:10073C002DFDF863484B1B78002BF8D1FA6BBB6985
:10074C00D31AB3F57A7FF2D8434B1B78002B06D122
:10075C00344B1B7843F01003DAB2324B1A70314B26
:10076C001B78112B00F2668101A252F823F000BF16
:10077C00C507000881080008410A0008410A000862
:10078C00410A0008410A0008410A0008410A000811
:10079C00410A0008410A0008410A0008410A000801
:1007AC00410A0008410A0008410A0008410A0008F1
:1007BC001B090008730900082A48FFF7C1FC03460F
:1007CC001946294804F028FF2848FFF7B9FC0346CE
:1007DC001946264804F020FF1C21254804F01CFF74
:1007EC002248FFF7ADFC03461946204804F014FFDD
:1007FC00C8221F491C4802F053F91BE19804002041
:10080C0000100240A8040020D34D62107B0500208C
:10081C0038030020000C0140B5060020B40600206F
:10082C0089060020C4070020E8000020F400002006
:10083C003401002040000020280000208E0A0020F7
:10084C00003800408A0600208B0600208C06002011
:10085C008D060020600800207C050020AA0A0020DC
:10086C00000000204C0100208C00002068010020BA
:10087C0070000020B848FFF763FC03461946B748E0
:10088C0004F0CAFEB648FFF75BFC03461946B448B1
:10089C0004F0C2FEB348FFF753FC03461946B148B7
:1008AC0004F0BAFE0221B04804F0B6FE0221AF48B3
:1008BC0004F0B2FEAE48FFF743FC03461946AC48C1
:1008CC0004F0AAFE0321AB4804F0A6FE002319464F
:1008DC00A94804F0A1FE0321A84804F09DFE0221C2
:1008EC00A24804F099FE0A21A54804F095FE0221C5
:1008FC00A44804F091FE02219C4804F08DFEFFF701
:10090C00FFFCC822A049954802F0CAF892E0924830
:10091C00FFF716FC034619468F4804F07DFE9B48F2
:10092C00FFF70EFC03461946984804F075FE8C48F8
:10093C00FFF706FC03461946894804F06DFE1C219E
:10094C00934804F069FE8648FFF7FAFB0346194604
:10095C00834804F061FEFFF70DFDC8228C498D48D9
:10096C0002F09EF866E07C48FFF7EAFB0346194666
:10097C00794804F051FE8548FFF7E2FB034619461F
:10098C00824804F049FE7648FFF7DAFB0346194625
:10099C00734804F041FE7348FFF7D2FB0346194637
:1009AC00704804F039FE02216F4804F035FE022134
:1009BC006E4804F031FE6E48FFF7C2FB0346194641
:1009CC006B4804F029FE03216A4804F025FE00233D
:1009DC001946694804F020FE0321684804F01CFE07
:1009EC000221624804F018FE0A21654804F014FE46
:1009FC000221644804F010FE02215C4804F00CFE55
:100A0C00FFF7B8FCFFF77CFCC8225F49614802F095
:100A1C0047F8802001F076FF5F4802F023F8C020F1
:100A2C0001F070FF5D4802F01DF821215C4804F0D4
:100A3C00F3FD00BF21215A4804F0EEFD01F02EFA1F
:100A4C0001F066FA574B1B78012B10D101F05AFCC0
:100A5C000621554804F0E0FD4148FFF771FB0346C1
:100A6C0019463F4804F0D8FD4E4B00221A704F4BEC
:100A7C001B78002B41F042801BE04D4B1B685A1C2D
:100A8C004B490A60F9784B4AD154494B1B68494A87
:100A9C000021D154464B1B687F2B0ADD464B80222C
:100AAC001946444805F04AF8414B1B68013B404A43
:100ABC001360FB1C184604F0AFFE0346012BDCD080
:100ACC002BE03E4B1B685A1C3C490A60B9783C4AE7
:100ADC00D1543A4B1B683A4A0021D154374B1B680E
:100AEC007F2B0ADD374B80221946354805F026F856
:100AFC00324B1B68013B314A13603148FFF720FB36
:100B0C00034619462E4804F087FD1548FFF718FBDD
:100B1C0003461946124804F07FFDBB1C184604F02E
:100B2C00A9FE0346012BCCD02749254805F07FF8B8
:100B3C000346002B00F0CB82214BBB63204B1A7871
:100B4C00224B1B789A4240F07482BB6B0133BB631F
:100B5C0000237B6348E000BF4C0100208C00002088
:100B6C0068010020EC010020DC010020D8010020ED
:100B7C00FC010020E0010020D4010020E401002051
:100B8C000C020020E8010020C4060020AC0A002062
:100B9C007000002044070020340000206400002076
:100BAC0010010020BA06002018020020BB0600200D
:100BBC0040050020BC040020BD04002004060020D9
:100BCC008005002081050020446E0008F6030020FB
:100BDC00BB6B5A1CBA6319785E4A7B6B13440A468A
:100BEC001A707B6B01337B637B6B022BF0DD5948F6
:100BFC0004F058FF0346584A1360574B1B68002BF0
:100C0C000FD15648FFF79CFA03461946534804F097
:100C1C0003FD5348FFF794FA03461946504804F075
:100C2C00FBFC4D4B1B68CB2B00F0E181CB2B00F375
:100C3C00EF81CA2B00F0CA81CA2B00F3E981C92BC2
:100C4C0000F0B381C92B00F3E381672B00F0028223
:100C5C00672B00F3DD81652B03D0662B00F08E80B3
:100C6C00D6E13C48FFF76CFA03461946394804F0C4
:100C7C00D3FC3B48FFF764FA03461946384804F0A6
:100C8C00CBFC3B1D3749184603F022F90346FB7594
:100C9C00FB7D032B00F2FE8101A252F823F000BF72
:100CAC00BD0C0008F70C0008190D00083B0D0008DE
:100CBC003B1D184603F08EF803462B4A13602A4B53
:100CCC001B68184602F052FF2848FFF739FA034612
:100CDC001946264804F0A0FC2148FFF731FA0346D8
:100CEC0019461F4804F098FC32E02148FFF728FA17
:100CFC00034619461E4804F08FFC1948FFF720FAEA
:100D0C0003461946164804F087FC21E01948FFF702
:100D1C0017FA03461946174804F07EFC1048FFF7F3
:100D2C000FFA034619460E4804F076FC10E0124800
:100D3C00FFF706FA034619460F4804F06DFC084805
:100D4C00FFF7FEF903461946054804F065FC00BFA1
:100D5C00A0E100BF080600205C0800205C03002016
:100D6C006801002080050020580800205800002051
:100D7C00700300208003002090030020B648FFF78A
:100D8C00DFF903461946B44804F046FCB348FFF7B4
:100D9C00D7F903461946B14804F03EFC02F0D6FEE2
:100DAC000346AF4A1360AE4B1B683A1D11461846FA
:100DBC0002F026FF3B1D184603F00CF80346A94A27
:100DCC0013607B68A84A82FB03129211DB17D21ABC
:100DDC00A64B83FB02139910D317C91A0B469B0021
:100DEC000B445B00D11ACBB23033DAB2A04B1A7081
:100DFC007B68A04A82FB03125211DB17D21A9B4B61
:100E0C0083FB02139910D317C91A0B469B000B4492
:100E1C005B00D11ACBB23033DAB2954B5A707B6887
:100E2C00924A82FB03129210DB17D21A8F4B83FB70
:100E3C0002139910D317C91A0B469B000B445B0085
:100E4C00D11ACBB23033DAB2894B9A707A68874BAD
:100E5C0083FB02139910D317C91A0B469B000B4442
:100E6C005B00D11ACBB23033DAB2814BDA703B7AF9
:100E7C00814AA2FB0323DB08DBB23033DAB27C4BB2
:100E8C005A713A7A7C4BA3FB0213D9080B469B0090
:100E9C000B445B00D31ADBB23033DAB2744B9A7169
:100EAC007B7A754AA2FB0323DB08DBB23033DAB260
:100EBC006F4B1A727A7A704BA3FB0213D9080B464C
:100ECC009B000B445B00D31ADBB23033DAB2684BB5
:100EDC005A72BB7A684AA2FB0323DB08DBB23033BD
:100EEC00DAB2634BDA72BA7A634BA3FB0213D908FA
:100EFC000B469B000B445B00D31ADBB23033DAB2E7
:100F0C005B4B1A73FB7A5C4AA2FB0323DB08DBB254
:100F1C003033DAB2564B9A73FA7A574BA3FB02135F
:100F2C00D9080B469B000B445B00D31ADBB2303361
:100F3C00DAB24F4BDA733B7B4F4AA2FB0323DB083D
:100F4C00DBB23033DAB24A4B5A743A7B4A4BA3FBCE
:100F5C000213D9080B469B000B445B00D31ADBB27F
:100F6C003033DAB2424B9A744148FFF7E9F8034642
:100F7C0019463F4804F050FB3848FFF7E1F80346A8
:100F8C001946364804F048FB3C48FFF7D9F80346AD
:100F9C0019463A4804F040FB3048FFF7D1F80346B5
:100FAC0019462E4804F038FB75E03548FFF7C8F8B1
:100FBC0003461946324804F02FFB2848FFF7C0F8C7
:100FCC0003461946254804F027FB64E02D48FFF73B
:100FDC00B7F8034619462B4804F01EFB1F48FFF7D1
:100FEC00AFF8034619461D4804F016FB53E026489B
:100FFC00FFF7A6F803461946234804F00DFB1748E3
:10100C00FFF79EF803461946144804F005FB42E02E
:10101C001E48FFF795F8034619461C4804F0FCFAE5
:10102C000E48FFF78DF8034619460C4804F0F4FA05
:10103C0031E01748FFF784F803461946144804F0CA
:10104C00EBFA0648FFF77CF803461946034804F010
:10105C00E3FA20E000BF1EE0080600206801002033
:10106C003803002058080020D34D6210676666666E
:10107C00200200201F85EB51CDCCCCCC5800002099
:10108C00A0030020BC030020D80300205003002044
:10109C003C03002000BF1548FFF752F803461946E1
:1010AC00124804F0B9FA1248FFF74AF803461946F9
:1010BC000F4804F0B1FA0F4B00221A600B48FFF7EF
:1010CC003FF803461A460021084804F051FD0A492E
:1010DC000A4804F0ACFD0346002B00F07181064970
:1010EC00064804F0BBFD054B3B630CE0800500207B
:1010FC006801002004060020446E0008BC04002097
:10110C003B6B01333B63BB49386B04F078FD034602
:10111C00002BF5D1B848FFF713F803461A46002107
:10112C00B54804F025FD1A22B449B34804F03FFD3C
:10113C00396BB14804F024FD802001F0E3FBB0488A
:10114C0001F090FCC02001F0DDFBAD4801F08AFC01
:10115C0000224FF44871A84801F0B8FDA948FEF7E9
:10116C00EFFF034601333B61A74B1A683B69D31A67
:10117C00A54A13603B69A34A99183B69C3F18103E3
:10118C001A46A04804F0DAFC02F0E0FC03469F4A41
:10119C0013609E4B1B683A1D1146184602F030FD39
:1011AC003B1D184602F016FE0346994A13607B68F5
:1011BC00984A82FB03129211DB17D21A964B83FBCF
:1011CC0002139910D317C91A0B469B000B445B00F2
:1011DC00D11ACBB23033DAB2904B1A707B68904A8A
:1011EC0082FB03125211DB17D21A8B4B83FB0213B7
:1011FC009910D317C91A0B469B000B445B00D11AEC
:10120C00CBB23033DAB2854B5A707B68824A82FBA0
:10121C0003129210DB17D21A7F4B83FB0213991027
:10122C00D317C91A0B469B000B445B00D11ACBB2E7
:10123C003033DAB2794B9A707A68774B83FB0213AE
:10124C009910D317C91A0B469B000B445B00D11A9B
:10125C00CBB23033DAB2714BDA703B7A714AA2FB03
:10126C000323DB08DBB23033DAB26C4B5A713A7AB7
:10127C006C4BA3FB0213D9080B469B000B445B0081
:10128C00D31ADBB23033DAB2644B9A717B7A654A8B
:10129C00A2FB0323DB08DBB23033DAB25F4B1A72EA
:1012AC007A7A604BA3FB0213D9080B469B000B44C4
:1012BC005B00D31ADBB23033DAB2584B5A72BB7ABA
:1012CC00584AA2FB0323DB08DBB23033DAB2534BB0
:1012DC00DA72BA7A534BA3FB0213D9080B469B0064
:1012EC000B445B00D31ADBB23033DAB24B4B1A73BC
:1012FC00FB7A4C4AA2FB0323DB08DBB23033DAB2B5
:10130C00464B9A73FA7A474BA3FB0213D9080B4648
:10131C009B000B445B00D31ADBB23033DAB23F4B89
:10132C00DA733B7B3F4AA2FB0323DB08DBB230338F
:10133C00DAB23A4B5A743A7B3A4BA3FB0213D908F4
:10134C000B469B000B445B00D31ADBB23033DAB292
:10135C00324B9A7413223149334804F03DFC00237C
:10136C001A463249304804F037FC2348FEF7E8FEB1
:10137C0003461A4620492C4804F02EFC2C48FEF754
:10138C00DFFE03461A462A49274804F025FC264866
:10139C00FEF7D6FE03461946234804F03DF92448CF
:1013AC00FEF7CEFE03461946214804F035F91E48D7
:1013BC00FEF7C6FE03461A4600211B4804F0D8FB74
:1013CC001C4B1B78012B04D01A4B1B78112B40F0B3
:1013DC00D383194B1B684CF25032934240F08283FA
:1013EC0040F2DC53154A1649002001F033FE034647
:1013FC001A4627E0546E000844050020D400002053
:10140C00B4000020BC04002040050020380300205C
:10141C0058080020D34D62106766666620020020D3
:10142C001F85EB51CDCCCCCCD8070020D0010020AF
:10143C0068010020C4070020A8060020A006002098
:10144C0090060020BB4B1A70BA4B1B78002B00F097
:10145C003F83B94B1B78002B40F03A83B64B0122EB
:10146C001A70B64B1B78B64AA2FB03235B09DBB29E
:10147C003033DAB2B34B1A70B04B1B78B24AA2FBC2
:10148C000323DB08DAB2B04BA3FB0213D9080B46DB
:10149C009B000B445B00D31ADBB23033DAB2A94B9E
:1014AC005A70A64B1A78A84BA3FB0213D9080B460B
:1014BC009B000B445B00D31ADBB23033DAB2A14B86
:1014CC009A70A248FEF73CFE034619469F4804F06A
:1014DC00A3F89F48FEF734FE034619469C4804F0D7
:1014EC009BF89848FEF72CFE03461946954804F0E5
:1014FC0093F89848FEF724FE03461946954804F0E5
:10150C008BF89549954800F079FF03461A46944BA1
:10151C001A709448FEF714FE03461946914804F0DD
:10152C007BF88D48FEF70CFE034619468A4804F0FA
:10153C0073F88848FEF704FE03461946854804F004
:10154C006BF87E4B1B781946844800F0CBFF0346A2
:10155C00854A1360844B1B685B0A844AA2FB0323F5
:10156C00DB09DBB23033DAB2814B1A707E4B1B686D
:10157C00804AA2FB0323590E734BA3FB0123DA0809
:10158C0013469B0013445B00CA1AD3B23033DAB251
:10159C00774B5A70744B1B68774AA2FB0323990D47
:1015AC00694BA3FB0123DA0813469B0013445B0031
:1015BC00CA1AD3B23033DAB26D4B9A706A4B1B68CD
:1015CC006E4AA2FB0323990C5F4BA3FB0123DA08A1
:1015DC0013469B0013445B00CA1AD3B23033DAB201
:1015EC00634BDA70604B1B685B09654AA2FB0323F3
:1015FC00D909554BA3FB0123DA0813469B0013446E
:10160C005B00CA1AD3B23033DAB2594B1A71564B4B
:10161C001B685C4AA2FB0323590B4B4BA3FB012316
:10162C00DA0813469B0013445B00CA1AD3B230335A
:10163C00DAB24F4B5A714C4B1B68534AA2FB032333
:10164C009909414BA3FB0123DA0813469B00134471
:10165C005B00CA1AD3B23033DAB2454B9A71424BA3
:10166C001B68374AA2FB03235909374BA3FB012301
:10167C00DA0813469B0013445B00CA1AD3B230330A
:10168C00DAB23B4BDA71384B1B682F4AA2FB0323AF
:10169C00D9082D4BA3FB0123DA0813469B001344F6
:1016AC005B00CA1AD3B23033DAB2314B1A722E4BFA
:1016BC001968254BA3FB0123DA0813469B0013443E
:1016CC005B00CA1AD3B23033DAB2294B5A722F48A4
:1016DC00FEF736FD034619462C4803F09DFF2448BF
:1016EC00FEF72EFD03461946214803F095FF1948D5
:1016FC00FEF726FD03461946164803F08DFF8020A1
:10170C0001F000F9224801F0ADF9C02001F0FAF81F
:10171C001F4801F0A7F91F48FEF712FD03461A46B1
:10172C0000211C4804F024FA1A221B49194804F021
:10173C003EFA33E08E0600208D060020A006002025
:10174C001F85EB51AC010020CDCCCCCC6C01002022
:10175C0080010020680100200C0000209006002071
:10176C008F06002098010020A4060020834B040063
:10177C00B0010020893BE6556BCA5F6B83DE1B43CF
:10178C00C55A7C0A5917B7D1D34D6210BC01002041
:10179C00B400002060050020E00000202049214812
:1017AC0004F0EEF900224FF448711E4801F022FBC0
:1017BC001D4B19781D4B01221D4802F0F3F803460E
:1017CC001A461C4B1A701B4B1B78022B3AD0022B5F
:1017DC0049DC002B02D0012B11D044E01648FEF757
:1017EC00AFFC03461946144803F016FF1348FEF7E6
:1017FC00A7FC03461946114803F00EFF33E01048CE
:10180C00FEF79EFC034619460D4803F005FF0B48F6
:10181C00FEF796FC03461946084803F0FDFE22E04D
:10182C00B001002060050020A0060020C8070020A1
:10183C0090060020BD060020380200206801002020
:10184C0070020020B348FEF77BFC03461946B148F2
:10185C0003F0E2FEB048FEF773FC03461946AE48AF
:10186C0003F0DAFE00BFAD48FEF76AFC03461946EA
:10187C00AA4803F0D1FEAA4A1021AA4800F064FE3F
:10188C002F21A74803F0C8FEA348FEF759FC0346D6
:10189C001946A14803F0C0FE02F058F90346A24ACB
:1018AC001360A14B1B683A1D1146184602F0A8F9AB
:1018BC003B1D184602F08EFA03469C4A13607B6867
:1018CC009B4A82FB03129211DB17D21A994B83FBB2
:1018DC0002139910D317C91A0B469B000B445B00DB
:1018EC00D11ACBB23033DAB2934B1A707B68934A6D
:1018FC0082FB03125211DB17D21A8E4B83FB02139D
:10190C009910D317C91A0B469B000B445B00D11AD4
:10191C00CBB23033DAB2884B5A707B68854A82FB83
:10192C0003129210DB17D21A824B83FB021399100D
:10193C00D317C91A0B469B000B445B00D11ACBB2D0
:10194C003033DAB27C4B9A707A687A4B83FB021391
:10195C009910D317C91A0B469B000B445B00D11A84
:10196C00CBB23033DAB2744BDA703B7A744AA2FBE6
:10197C000323DB08DBB23033DAB26F4B5A713A7A9D
:10198C006F4BA3FB0213D9080B469B000B445B0067
:10199C00D31ADBB23033DAB2674B9A717B7A684A6E
:1019AC00A2FB0323DB08DBB23033DAB2624B1A72D0
:1019BC007A7A634BA3FB0213D9080B469B000B44AA
:1019CC005B00D31ADBB23033DAB25B4B5A72BB7AA0
:1019DC005B4AA2FB0323DB08DBB23033DAB2564B93
:1019EC00DA72BA7A564BA3FB0213D9080B469B004A
:1019FC000B445B00D31ADBB23033DAB24E4B1A73A2
:101A0C00FB7A4F4AA2FB0323DB08DBB23033DAB29A
:101A1C00494B9A73FA7A4A4BA3FB0213D9080B462B
:101A2C009B000B445B00D31ADBB23033DAB2424B6F
:101A3C00DA733B7B424AA2FB0323DB08DBB2303375
:101A4C00DAB23D4B5A743A7B3D4BA3FB0213D908D7
:101A5C000B469B000B445B00D31ADBB23033DAB27B
:101A6C00354B9A7413223449364804F0B5F80023E8
:101A7C001A463549334804F0AFF83448FEF760FB9A
:101A8C0003461A4631492F4804F0A6F82248FEF7BF
:101A9C0057FB03461A4620492A4804F09DF829486A
:101AAC00FEF74EFB03461946264803F0B5FD1A48CF
:101ABC00FEF746FB03461946174803F0ADFD2148D7
:101ACC00FEF73EFB03461A4600211E4804F050F870
:101ADC001F4B1B78002B02D11E4B00221A701E4B81
:101AEC0000221A601C4B1B6801331B4A1360012235
:101AFC004FF44871154801F07DF93DE0174B1B7808
:101B0C00002B2FD1C02000F0FDFE154800F0AAFFDD
:101B1C0032E000BFD802002068010020240300201E
:101B2C00F4020020C80700203803002058080020C9
:101B3C00D34D621067666666200200201F85EB514C
:101B4C00CDCCCCCC18080020D001002060050020A2
:101B5C008E0600208D060020A8060020AC06002072
:101B6C00200000206C4B1B78403BDBB2184600F089
:101B7C00C9FE6A4800F076FF694B1B78002B1AD01F
:101B8C00684B1B78012B16D16748FEF7D9FA034630
:101B9C001A460021644803F0EBFF1A22634962489D
:101BAC0004F005F800224FF448715F4801F08EF8FC
:101BBC005C4B00221A7001224FF448715A4801F014
:101BCC0085F8574B1B78092B7EF43CAF00F020FDB9
:101BDC005748FEF7B5FA03461946554803F01CFD65
:101BEC000421544803F018FD5348FEF7A9FA0346A4
:101BFC001946514803F010FD504B19784D4B0122FA
:101C0C004F48FEF7DDFB03461A464E4B1A704D4B00
:101C1C001B78042B61D801A252F823F03D1C00085C
:101C2C005F1C0008811C0008A31C0008C51C0008D0
:101C3C004548FEF785FA03461946434803F0ECFC89
:101C4C003D48FEF77DFA034619463B4803F0E4FC99
:101C5C0043E03E48FEF774FA034619463B4803F04E
:101C6C00DBFC3548FEF76CFA03461946324803F0A4
:101C7C00D3FC32E03648FEF763FA03461946344883
:101C8C0003F0CAFC2C48FEF75BFA034619462A48B7
:101C9C0003F0C2FC21E02F48FEF752FA0346194626
:101CAC002C4803F0B9FC2448FEF74AFA03461946BF
:101CBC00214803F0B1FC10E02748FEF741FA034637
:101CCC001946254803F0A8FC1B48FEF739FA0346D1
:101CDC001946194803F0A0FC00BF114B00221A70E2
:101CEC001148FEF72DFA03461A4600210E4803F060
:101CFC003FFF1A2219490C4803F059FF00224FF4F8
:101D0C004871094800F0E2FFC02000F0FBFD1448C8
:101D1C0000F0A8FEFEF796BE98060020D001002029
:101D2C00BB060020BC06002044050020C800002093
:101D3C00980100209C06002068010020A0060020CD
:101D4C0090060020BE0600205402002070020020E5
:101D5C00D802002094020020B002002034000020A1
:101D6C006400002080B483B000AF0346FB71FB79A4
:101D7C0003F01F03012202FA03F1054A97F9073019
:101D8C005B0942F8231000BF0C37BD4680BC70477E
:101D9C0000E100E080B582B000AF0121042002F028
:101DAC00FBFF0223BB711023FB714FF48053BB80EC
:101DBC003B1D1946064802F05BFC00224FF4805193
:101DCC00034802F02AFD00BF0837BD4680BD00BFA6
:101DDC000008014080B582B000AF0121082002F05C
:101DEC00DBFF0223BB714823FB710123BB803B1D2E
:101DFC001946034802F03CFC00BF0837BD4680BDC5
:101E0C00000C014080B500AF012002F009FC034634
:101E1C00012B34D11B4B1B78022B17D11A4B0022F0
:101E2C00DA701A4B08225A71174802F097FB184BBC
:101E3C0000221A80134B01221A7000F069F801225B
:101E4C004FF48051134802F0E8FC15E00E4B0022D1
:101E5C00DA700E4B0C225A710B4802F07FFB0C4BC4
:101E6C001A880D4B1A80074B02221A7000224FF46D
:101E7C008051084802F0D1FC012002F0EBFB00BFBE
:101E8C0080BD00BFB5060020700800206808002047
:101E9C00B206002000080140B606002080B584B0D0
:101EAC0000AF01214FF4006002F076FF41F61F43B2
:101EBC00BB800023FB804FF4FA733B8100237B81B2
:101ECC0000233B733B1D19460F4803F0B7F80F4B2B
:101EDC0019221A700D4B00225A700C4B01229A7069
:101EEC000A4B0022DA70094802F038FB002201216B
:101EFC00054803F03EF90021034803F01BF900BF2D
:101F0C001037BD4680BD00BF002C01406408002086
:101F1C0080B500AF01220121054803F02AF9012107
:101F2C00034803F007F91920FFF71CFF00BF80BD21
:101F3C00002C014080B500AF0121874803F03CF92B
:101F4C000346002B00F005810121844802F04CFC73
:101F5C000346002B2DD1824B1B78012B06D1814BD4
:101F6C0000221A70804B00221A80EAE07E4B1B88FC
:101F7C0001339AB27C4B1A807B4B1B883C2B40F074
:101F8C00E0807A4B1B78002B40F0DB80774B0122F2
:101F9C001A70774B01221A70764B00221A70764B0E
:101FAC0000221A70754B00221A70754B00221A8091
:101FBC00C7E06B4B1B78002B31D16A4B01221A7096
:101FCC00694B00221A806F4B00221A80674B1B78DA
:101FDC00013B072B00F2B580664B1B780133DAB25C
:101FEC00644B1A70634B1B780F2B02D9614B002288
:101FFC001A70604B1B78092B08D85E4B1B785E4A15
:10200C0012783033D9B2604B99549AE0594B1B7803
:10201C00594A12783733D9B25B4B995491E0594BEA
:10202C001B8801339AB2574B1A80564B1B88B3F559
:10203C00167F05D14D4B00221A70524B00221A808C
:10204C004F4B1B8801339AB24D4B1A804C4B1B885B
:10205C000A2B08D14A4B00221A80484B1B78DB43D1
:10206C00DAB2464B1A70404B1B8801339AB23E4B86
:10207C001A803D4B1B88642B62D13C4B1B78013B77
:10208C00072B5ED801A252F823F000BFB92000083C
:10209C00CD200008E1200008F520000809210008E7
:1020AC001D21000831210008452100082F4B022278
:1020BC001A70304B00221A702F4B01221A7040E01C
:1020CC002A4B03221A702B4B00221A702A4B022225
:1020DC001A7036E0254B04221A70264B00221A7017
:1020EC00254B03221A702CE0204B05221A70214B31
:1020FC0000221A70204B04221A7022E01B4B06227D
:10210C001A701C4B00221A701B4B05221A7018E017
:10211C00164B07221A70174B00221A70164B062208
:10212C001A700EE0114B08221A70124B00221A7012
:10213C00114B07221A7004E00C4B09221A7000E0B4
:10214C0000BF084B1A78064B1A700121024803F0A5
:10215C005CF800BF80BD00BF002C0140000C0140AA
:10216C00B4060020B5060020B2060020BB060020F5
:10217C00BC0600209706002098060020AC06002024
:10218C00B0060020AE0600202000002080B400AF76
:10219C00024B1B681846BD4680BC70477408002073
:1021AC0080B483B000AF78607B681B0EDAB24B4B07
:1021BC001A707B681B0CDAB2494B1A707B681B0ACD
:1021CC00DAB2484B1A707B68DAB2474B1A70434B41
:1021DC001B781B09DBB23033DAB2444B1A703F4B1D
:1021EC001B7803F00F03DBB23033DAB23F4B5A707B
:1021FC003B4B1B783E4AA2FB03235B09DBB230331B
:10220C00DAB23C4B1A70364B1B783B4AA2FB0323C9
:10221C00DB08DAB2384BA3FB0213D9080B469B0040
:10222C000B445B00D31ADBB23033DAB2314B5A7049
:10223C002B4B1A78304BA3FB0213D9080B469B008F
:10224C000B445B00D31ADBB23033DAB2294B9A70F1
:10225C00244B1B78264AA2FB03235B09DBB23033E9
:10226C00DAB2264B1A701F4B1B78234AA2FB0323AE
:10227C00DB08DAB2204BA3FB0213D9080B469B00F8
:10228C000B445B00D31ADBB23033DAB21B4B5A70FF
:10229C00144B1A78184BA3FB0213D9080B469B005E
:1022AC000B445B00D31ADBB23033DAB2134B9A70A7
:1022BC000D4B1B781B09DBB23033DAB2104B1A70A2
:1022CC00094B1B7803F00F03DBB23033DAB20C4B43
:1022DC005A7000BF0C37BD4680BC7047BF0600204B
:1022EC00C0060020C1060020C2060020DC01002030
:1022FC001F85EB51E0010020CDCCCCCCE4010020BB
:10230C00E801002080B400AF364B1B88364AA2FB94
:10231C0003235B0B9AB2354BA3FB0213D9080B4674
:10232C009B000B445B00D31A9BB2DBB23033DAB2A6
:10233C002F4B1A702B4B1B882E4AA2FB03239B0995
:10234C009AB22A4BA3FB0213D9080B469B000B44F1
:10235C005B00D31A9BB2DBB23033DAB2244B5A7027
:10236C00204B1B88244AA2FB03235B099AB21F4B08
:10237C00A3FB0213D9080B469B000B445B00D31A3A
:10238C009BB2DBB23033DAB2194B9A70154B1B8807
:10239C00164AA2FB0323DB089AB2144BA3FB0213CD
:1023AC00D9080B469B000B445B00D31A9BB2DBB2E3
:1023BC003033DAB20E4BDA700A4B1A880B4BA3FB94
:1023CC000213D9080B469B000B445B00D31A9BB23B
:1023DC00DBB23033DAB2064B1A7100BFBD4680BC9B
:1023EC00704700BFB80600205917B7D1CDCCCCCC64
:1023FC0018020020D34D62101F85EB5180B485B0BC
:10240C0000AF786039600023FB730023BB7300239B
:10241C007B7300233B730023BB735AE0BB7B7A684E
:10242C0013441B781B097B737B7B092B03D87B7BA9
:10243C0030337B7308E07B7B092B05D97B7B0F2B1F
:10244C0002D87B7B37337B73BB7B7A6813441B7856
:10245C0003F00F033B733B7B092B03D83B7B3033DF
:10246C003B7308E03B7B092B05D93B7B0F2B02D838
:10247C003B7B37333B73FB7B3A68134430221A7037
:10248C00FB7B0133FB73FB7B3A68134478221A7095
:10249C00FB7B0133FB73FB7B3A6813447A7B1A702A
:1024AC00FB7B0133FB73FB7B3A6813443A7B1A705A
:1024BC00FB7B0133FB73FB7B112B07D8FB7B3A684F
:1024CC00134420221A70FB7B0133FB73BB7B01335B
:1024DC00BB73BB7B032BA1D9012318461437BD4614
:1024EC0080BC704780B485B000AF78600B46FB7041
:1024FC000023FB60FB78042B20D17B681B78FB60EE
:10250C00FB681B02FB607B6801331B781A46FB6877
:10251C001343FB60FB681B02FB607B6802331B7878
:10252C001A46FB681343FB60FB681B02FB607B686D
:10253C0003331B781A46FB681343FB60FB68184691
:10254C001437BD4680BC704780B487B000AFF860CC
:10255C000B467A60FB720023FB750023BB750023CE
:10256C007B7500233B750023BB7547E0BB7DFA6888
:10257C0013441B781B097B757B7D092B03D87B7D52
:10258C0030337B7508E07B7D092B05D97B7D0F2BC8
:10259C0002D87B7D37337B75BB7DFA6813441B787F
:1025AC0003F00F033B753B7D092B03D83B7D303388
:1025BC003B7508E03B7D092B05D93B7D0F2B02D8E1
:1025CC003B7D37333B75FB7D7A6813447A7D1A70FB
:1025DC00FB7D0133FB75FB7D7A6813443A7D1A70E1
:1025EC00FB7D0133FB75FB7D7A68134420221A7046
:1025FC00FB7D0133FB75BB7D0133BB75BA7DFB7A6B
:10260C009A42B3D3012318461C37BD4680BC704791
:10261C0080B483B000AF0023FB710023BB71002397
:10262C007B7100237B7155E0FB792F4AD35C2F2BF8
:10263C000AD9FB792C4AD35C392B05D8FB792A4A69
:10264C00D35C303BBB710EE0FB79274AD35C402B4B
:10265C0009D9FB79244AD35C462B04D8FB79224A4E
:10266C00D35C373BBB717B79BA791201D1B21F4A6B
:10267C00D154FB790133FB71FB791B4AD35C2F2BB3
:10268C000AD9FB79184AD35C392B05D8FB79164A41
:10269C00D35C303BBB710EE0FB79134AD35C402B0F
:1026AC0009D9FB79104AD35C462B04D8FB790E4A26
:1026BC00D35C373BBB717B790C4AD15C7B79BA79A3
:1026CC000A43D1B2094AD154FB790133FB717B79AE
:1026DC0001337B717B79032BA6D900BF00BF0C376C
:1026EC00BD4680BC704700BF200000209C06002027
:1026FC0080B582B000AF0121082002F04DFB012112
:10270C004FF4804002F066FB0323BB711823FB716E
:10271C004FF42043BB803B1D19460E4801F0A8FF27
:10272C000323BB711023FB714FF48853BB803B1DFB
:10273C001946084801F09CFF4823FB714FF4804375
:10274C00BB803B1D1946034801F092FF00BF0837C0
:10275C00BD4680BD000C014080B400AF084B1B6827
:10276C00002B04D0064B1B68013B054A1360054B3C
:10277C001B680133034A136000BFBD4680BC704721
:10278C00A40400207408002080B483B000AF7860EB
:10279C00064A7B68136000BF044B1B68002BFBD1FF
:1027AC0000BF00BF0C37BD4680BC7047A40400209E
:1027BC0080B586B000AF0121082002F0EDFA0223AB
:1027CC00BB751823FB754023BB8207F11403194614
:1027DC001A4801F04DFF0121082002F0DDFA022316
:1027EC00BB751C23FB758023BB8207F114031946B0
:1027FC00124801F03DFF01214FF4001002F0EAFAFB
:10280C004FF48063FB814FF480433B824CF2503396
:10281C007B604BF6FF737B8100233B810123BB81E3
:10282C003B1D1946064802F00FF80121044802F03E
:10283C00CDF800BF1837BD4680BD00BF000C01406D
:10284C000054004080B584B000AF78600B46FB703C
:10285C001346BB704FF47A73FB600121786802F069
:10286C00D4F84FF47A73FB6006E0FB685A1EFA60EA
:10287C00002B01D1FF233AE01F49786802F02FF9B1
:10288C000346002BF1D0FB7800221946786802F041
:10289C0009F94FF47A73FB6006E0FB685A1EFA6084
:1028AC00002B01D1FF2322E01449786802F017F9BC
:1028BC000346002BF1D0BB781946786802F0E3F898
:1028CC004FF47A73FB6006E0FB685A1EFA60002B2B
:1028DC0001D1FF230BE00A49786802F000F90346A6
:1028EC00002BF1D00121786802F0AEF800231846D5
:1028FC001037BD4680BD00BF0100030080000700FB
:10290C008400070080B584B000AF0346FB71FB79EF
:10291C0023F00F03FB73FB791B01BB73FB7B23F0D1
:10292C000703DBB21A464E211C48FFF78BFFFB7BDB
:10293C0043F00203DBB223F00503DBB21A464E214F
:10294C001648FFF77FFFFB7B23F00703DBB21A4629
:10295C004E211248FFF776FFBB7B23F00703DBB257
:10296C001A464E210D48FFF76DFFBB7B43F0020367
:10297C00DBB223F00503DBB21A464E210748FFF702
:10298C0061FFBB7B23F00703DBB21A464E210348E1
:10299C00FFF758FF00BF1037BD4680BD0054004004
:1029AC0080B584B000AF0346FB71FB7923F00F03B5
:1029BC00FB73FB791B01BB7397F90F3023F00703F3
:1029CC005BB243F004035BB2DBB21A464E212448DF
:1029DC00FFF738FFFB7B43F00603DBB223F0010368
:1029EC00DBB21A464E211E48FFF72CFF97F90F3029
:1029FC0023F007035BB243F004035BB2DBB21A466D
:102A0C004E211748FFF71EFF97F90E3023F00703EE
:102A1C005BB243F004035BB2DBB21A464E211048A2
:102A2C00FFF710FFBB7B43F00603DBB223F001037F
:102A3C00DBB21A464E210A48FFF704FF97F90E3015
:102A4C0023F007035BB243F004035BB2DBB21A461C
:102A5C004E210348FFF7F6FE00BF1037BD4680BD80
:102A6C000054004090B585B000AF78600023FB7334
:102A7C0009E0FB7B7A6813441B781846FFF790FF3C
:102A8C00FB7B0133FB73FC7B7868FDF759FB03463A
:102A9C009C42EED300BF00BF1437BD4690BD000072
:102AAC0080B58AB000AFF860B9607A60FFF76EFB52
:102ABC0003467F4A13607F4B00221A70002387F86D
:102ACC0026307D4B00221A707C4B00221A7000239A
:102ADC0087F827301CE07848FDF732FB03461A468E
:102AEC00754B134476491A460B461B881380734862
:102AFC00FDF726FB03461A46704B134470491A46E1
:102B0C000B461B88138097F82730013387F8273042
:102B1C0097F82730062BDED9F968674803F030F8B0
:102B2C00B968664803F02CF8002387F827301CE0BE
:102B3C006148FDF705FB03461A465F4B1344604999
:102B4C001A460B461B8813805C48FDF7F9FA0346BE
:102B5C001A465A4B13445A491A460B461B88138083
:102B6C0097F82730013387F8273097F82730062B52
:102B7C00DED95148FDF7E4FA0346DAB2514B1A702C
:102B8C004E48FDF7DDFA0346DAB24F4B1A707AE085
:102B9C00FFF7FCFA0246464B1B68D31A7A689A4236
:102BAC0071D2FFF7F3FA0346414A1360414B1B788D
:102BBC000133DAB23F4B1A7097F82620414B1B7841
:102BCC00013B9A4229DA002387F8273019E0394B68
:102BDC001B781A4697F8273013443A4A127893FB1D
:102BEC00F2F101FB02F29A1A97F8273032498A5C0B
:102BFC0028333B4403F80C2C97F82730013387F823
:102C0C00273097F82730072BE1D98020FFF77AFE81
:102C1C0007F11C031846FFF725FF97F826202A4BCF
:102C2C001B78013B9A4229DA002387F8273019E0F8
:102C3C00204B1B781A4697F827301344224A1278F7
:102C4C0093FBF2F101FB02F29A1A97F827301B4919
:102C5C008A5C28333B4403F8182C97F8273001334F
:102C6C0087F8273097F82730072BE1D9C020FFF7DA
:102C7C0049FE07F110031846FFF7F4FE97F82630CB
:102C8C00013387F8263097F826200E4B1B78013B32
:102C9C009A42FFF67DAF97F826200B4B1B78013B31
:102CAC009A42FFF675AF00BF00BF2837BD4680BD06
:102CBC00780800207C08002080080020F8080020FC
:102CCC00586E00086D0900206E09002080B588B090
:102CDC0000AFF860B9601346FB71FB79002B3FD154
:102CEC00FFF754FA03463E4A13603E4B00221A701B
:102CFC003D4B00221A700023FB770EE03A48FDF79B
:102D0C001FFA03461A46384B134438491A460B46E9
:102D1C001B881380FB7F0133FB77FB7F062BEDD9E0
:102D2C00F968314802F02CFF0023FB770EE02E48A7
:102D3C00FDF706FA03461A462B4B13442B491A4649
:102D4C000B461B881380FB7F0133FB77FB7F062B25
:102D5C00EDD92548FDF7F4F90346DAB2244B1A7085
:102D6C00FB681B78002B37D0FFF710FA02461C4B80
:102D7C001B68D31ABA689A422ED2FFF707FA034699
:102D8C00174A1360174B1B780133DAB2154B1A70C4
:102D9C000023FB7715E0134B1B781A46FB7F13447B
:102DAC00134A127893FBF2F101FB02F29A1AFB7FA1
:102DBC000D498A5C20333B4403F80C2CFB7F013318
:102DCC00FB77FB7F072BE6D98020FFF79BFD07F1F4
:102DDC0014031846FFF746FE00BF2037BD4680BDE2
:102DEC00700900207409002078090020586E000832
:102DFC00A309002080B588B000AFF860B960134615
:102E0C00FB71FB79002B3FD1FFF7C0F903463E4A1B
:102E1C0013603E4B00221A703D4B00221A700023A7
:102E2C00FB770EE03A48FDF78BF903461A46384B10
:102E3C00134438491A460B461B881380FB7F013319
:102E4C00FB77FB7F062BEDD9F968314802F098FE31
:102E5C000023FB770EE02E48FDF772F903461A4665
:102E6C002B4B13442B491A460B461B881380FB7FB4
:102E7C000133FB77FB7F062BEDD92548FDF760F975
:102E8C000346DAB2244B1A70FB681B78002B37D040
:102E9C00FFF77CF902461C4B1B68D31ABA689A429E
:102EAC002ED2FFF773F90346174A1360174B1B78A2
:102EBC000133DAB2154B1A700023FB7715E0134B74
:102ECC001B781A46FB7F1344134A127893FBF2F1DA
:102EDC0001FB02F29A1AFB7F0D498A5C20333B44BA
:102EEC0003F80C2CFB7F0133FB77FB7F072BE6D918
:102EFC00C020FFF707FD07F114031846FFF7B2FDDA
:102F0C0000BF2037BD4680BDA4090020A8090020C1
:102F1C00AC090020586E0008D709002080B582B09B
:102F2C0000AFFFF745FC0023FB712DE0FB79204A35
:102F3C00D35C1B01DBB21A464E211E48FFF782FC04
:102F4C000A20FFF721FCFB79194AD35C1B015BB209
:102F5C0043F002035BB2DBB21A464E211548FFF771
:102F6C0071FC0A20FFF710FCFB79114AD35C1B01A2
:102F7C00DBB21A464E210F48FFF764FC0A20FFF71C
:102F8C0003FCFB790133FB71FB790B2BCED9802031
:102F9C00FFF7B8FC0848FFF765FDC020FFF7B2FC4F
:102FAC000548FFF75FFD00BF0837BD4680BD00BF79
:102FBC00F8030020005400405C6E000880B483B01D
:102FCC0000AF786000BF7B685A1E7A60002BFAD184
:102FDC0000BF00BF0C37BD4680BC704780B500AF4A
:102FEC0000224FF48051074801F017FC0A20FFF72C
:102FFC00CBFB01224FF48051024801F00EFC01235F
:10300C00184680BD000C014080B582B000AF03466D
:10301C00FB710F4B32221A700D4B05225A700C4B60
:10302C00FF229A700A4B0122DA70094AFB7913715C
:10303C004FF47A720521064800F000F90346002B84
:10304C0001D1002300E0012318460837BD4680BD9E
:10305C00F009002080B584B000AFB9607A601A46E0
:10306C000346FB731346BB810F4B4A221A700E4B5F
:10307C0001225A700C4AFB7B9370BB891A460321C0
:10308C00094800F0DBF80346002B01D1002307E0D0
:10309C001420FFF779FB7968B86800F007F803464D
:1030AC0018461037BD4680BDF009002080B584B0AD
:1030BC0000AF7860396000221321194800F0C6F97E
:1030CC00174BDB79012B01D0002324E0144B5B7AE6
:1030DC00BB81BB891B02BB81114B9B7A9AB2BB890A
:1030EC001343BB810E4B1A7B3B681A700023FB7396
:1030FC000BE0FB7B03F10D02FB7B79680B44084969
:10310C008A5C1A70FB7B0133FB73054B1B7BFA7BD0
:10311C009A42EED3012318461037BD4680BD00BF3E
:10312C00300A002080B500AF124B14221A70114BDC
:10313C0001225A700F4B14229A700E4B0022DA7037
:10314C004FF4FA7204210B4800F078F80346002B78
:10315C0001D100230BE0FF220921074800F076F98A
:10316C00054B9B79152B0CBF01230023DBB21846B2
:10317C0080BD00BFF0090020300A002080B584B06B
:10318C0000AF2B4A3B4692E80300186004331980C9
:10319C00284B02221A704FF4FA720121254800F0D4
:1031AC004DF80346002B01D100233CE0FF220D21FA
:1031BC00214800F04BF93B46062219461E4802F006
:1031CC009FFC0346002B01D000232CE00723FB605F
:1031DC00FB685A1CFA60184AD35CBB60BB681B02C4
:1031EC00BB60FB685A1CFA60134AD35C1A46BB6876
:1031FC001343BB60BB681B02BB60FB685A1CFA60C4
:10320C000D4AD35C1A46BB681343BB60BB681B02F8
:10321C00BB60FB685A1CFA60074AD35C1A46BB6851
:10322C001343BB60BB6818461037BD4680BD00BF5A
:10323C00706E0008F0090020300A002080B582B0C2
:10324C0000AF78600B46FB7013463B80FB78194649
:10325C00786800F01BF83B88184600F091FA03469A
:10326C00002B01D100230DE06420FFF7A7FE00F036
:10327C005FF90346002B01D1002303E06420FFF724
:10328C009DFE012318460837BD4680BD2DE9F0434D
:10329C0089B000AF78600B46FB706B461E46FB781E
:1032AC0003F108014B1E3B610A46002390469946E8
:1032BC004FF000024FF000034FEAC90343EA587382
:1032CC004FEAC8020A46002314461D464FF000027E
:1032DC004FF00003EB0043EA5473E2000B46073354
:1032EC00DB08DB00ADEB030D6B460033FB60FB68CA
:1032FC00BB61FB780133FB70BB6901221A70BB699F
:10330C000133BB61BB6900221A70BB690133BB611D
:10331C00BB6900221A70BB690133BB61BB69FF2218
:10332C001A70BB690133BB61FF23FB75BB69FA786B
:10333C001A70BB690133BB61FB785B42DAB2BB69C3
:10334C001A70BB690133BB61BB69D4221A70BB69AB
:10335C000133BB61FB7D2C3BFB750023FB7712E03B
:10336C00FB7F7A6813441A78BB691A70BB69013306
:10337C00BB61FB7F7A6813441A78FB7D1344FB75A1
:10338C00FB7F0133FB77FA7FFB78013B9A42E7DB4B
:10339C00FB7DDB43DAB2BB691A70BB690133BB61DD
:1033AC00BB6900221A70BB690133BB61FB7808331F
:1033BC001946F86800F006F8B54600BF2437BD463C
:1033CC00BDE8F08380B584B000AF7860396000BF91
:1033DC0002211C4801F016FE0346002BF8D00022F7
:1033EC004FF48051184801F018FA0220FFF7CCF97D
:1033FC000023FB6017E07A68FB6813441B789BB2D0
:10340C001946104801F0A6FD4FF4C870FFF7D6FD21
:10341C0000BF02210B4801F0F5FD0346002BF8D04C
:10342C00FB680133FB60FA683B689A42E3D30122E4
:10343C004FF48051044801F0F0F900BF1037BD463D
:10344C0080BD00BF00380040000C014080B584B046
:10345C0000AF78600B46FB7013463B8000224FF4A4
:10346C008051314801F0D9F90220FFF78DF900BFE6
:10347C0002212E4801F0C6FD0346002BF8D0032193
:10348C002A4801F067FD00BF0221284801F0BAFD6F
:10349C000346002BF8D000BF0121244801F0B2FDF7
:1034AC000346002BF8D0214801F062FD0346BB73A4
:1034BC000023FB7329E04FF4C870FFF77FFD3B88B6
:1034CC0019461A4801F046FD4FF4C870FFF776FD17
:1034DC0000BF0221154801F095FD0346002BF8D0E2
:1034EC0000BF0121114801F08DFD0346002BF8D0DF
:1034FC000E4801F03DFD03461946FB7B7A681344E8
:10350C00CAB21A70FB7B0133FB73FA7BFB789A42CD
:10351C00D1D301224FF48051034801F07EF900BF52
:10352C001037BD4680BD00BF000C01400038004084
:10353C0080B584B000AF3F4A07F1080392E803005E
:10354C0018600433198000224FF480513A4801F07E
:10355C0064F90220FFF718F900BF0221374801F087
:10356C0051FD0346002BF8D00321344801F0F2FC46
:10357C0000BF0221314801F045FD0346002BF8D075
:10358C0000BF01212D4801F03DFD0346002BF8D072
:10359C002A4801F0EDFC0346BB730023FB732FE0BC
:1035AC006420FFF70BFD00BF0221244801F02AFD27
:1035BC000346002BF8D00021204801F0CBFC6420FE
:1035CC00FFF7FCFC00BF02211C4801F01BFD034669
:1035DC00002BF8D000BF0121184801F013FD034661
:1035EC00002BF8D0154801F0C3FC03461A46FB7BB0
:1035FC00D2B210333B4403F8102CFB7B0133FB732A
:10360C00FB7B052BCCD901224FF480510A4801F0E9
:10361C0004F907F108013B460622184602F070FA3D
:10362C000346002B0CBF01230023DBB218461037D6
:10363C00BD4680BD786E0008000C0140003800408B
:10364C0080B582B000AF00BF0221494801F0DAFC1E
:10365C000346002BF8D000BF0121454801F0D2FCF5
:10366C000346002BF8D0424801F082FC0346194671
:10367C00404B1B781A46C9B23F4B99543D4B1B78B3
:10368C000133DAB23B4B1A7000224FF480513B48A5
:10369C0001F0C3F80220FFF777F80221344801F05B
:1036AC0059FC00BF0221324801F0ACFC0346002B50
:1036BC00F8D000BF01212E4801F0A4FC0346002BDA
:1036CC00F8D02B4801F054FC03461946294B1B78C3
:1036DC001A46C9B2284B9954264B1B780133DAB2DF
:1036EC00244B1A704FF4C870FFF768FC00BF02211E
:1036FC001F4801F087FC0346002BF8D0FF211C4823
:10370C0001F028FC4FF4C870FFF758FC00BF0221F1
:10371C00174801F077FC0346002BF8D000BF0121BD
:10372C00134801F06FFC0346002BF8D0104801F051
:10373C001FFC0346FB7101224FF480510F4801F02E
:10374C006CF80C4B1B7819460B4AFB795354094BFC
:10375C001B780133DAB2074B1A70FB79012B0CBFC3
:10376C0001230023DBB218460837BD4680BD00BFDD
:10377C0000380040EC090020D8090020000C014062
:10378C0080B584B000AF0346FB800023FB8105208D
:10379C00FEF7FAFFFB890533FB810EE0FB88002B5B
:1037AC0008D0FB890533FB81FA89FB889A4201D941
:1037BC00002308E00520FEF7E7FFFFF741FF034673
:1037CC00002BEBD0012318461037BD4680BD0000FE
:1037DC0080B586B000AFF8607A601A460B46FB7273
:1037EC001346BB722F4B3A6A1068186092889A8005
:1037FC00FB7A1A46F9682C4802F092F997F90B20DB
:10380C002A4B1A702A4B40221A70294B01225A70EB
:10381C00BB7A002B01D0612200E06022244B9A700D
:10382C007B68DAB2224BDA70224B1E4A10681860A1
:10383C0092889A800023FB750AE0FB7D1A4AD256C7
:10384C00FB7D0A33D1B21A4AD154FB7D0133FB758F
:10385C00FB7D164A92F900209342EEDB134B93F951
:10386C000030DBB20A33DBB2642219461048FFF792
:10387C00E5FC0346002B01D100230EE00A20FEF7E5
:10388C0083FFFF220C210C48FFF7E0FD0A4BDB798C
:10389C00002B01D0002300E0012318461837BD4649
:1038AC0080BD00BF780A0020700A0020770A002033
:1038BC00F0090020F4090020300A002080B582B005
:1038CC0000AF03463960FB71174B40221A70164B40
:1038DC0001225A70144B30229A70134AFB79D37020
:1038EC00642204211048FFF7A9FC0346002B01D1E8
:1038FC00002314E00A20FEF747FFFF221A210B4891
:10390C00FFF7A4FD094BDB79002B01D0002306E067
:10391C00074B10221946386802F002F901231846A9
:10392C000837BD4680BD00BFF0090020300A0020DA
:10393C00380A002080B582B000AF03463960FB71B5
:10394C00154B40221A70144B01225A70124BA022B4
:10395C009A70114AFB79D370104B102239681846B3
:10396C0002F0DEF8642214210B48FFF767FC0346D3
:10397C00002B01D100230BE00A20FEF705FF0A20E3
:10398C00FEF702FFFF221A210548FFF75FFD012316
:10399C0018460837BD4680BDF0090020F409002008
:1039AC00300A002080B58EB002AFF8607B600B4609
:1039BC00FB721346BB72002387F82F30204A07F1A5
:1039CC00240392E80300186004331980002387F85D
:1039DC002E301C4A07F1100312681146198002336D
:1039EC00120C1A70F97A07F12403009301230022B8
:1039FC00F868FFF7EDFE0346002B05D1012387F88D
:103A0C002D3097F82D3016E0BB7A79681846FFF701
:103A1C0055FF034687F82D3097F82D30002B05D134
:103A2C00022387F82D3097F82D3004E0002387F817
:103A3C002D3097F82D3018463037BD4680BD00BF6D
:103A4C00B46E0008BC6E000880B400AF3B4B1B6A20
:103A5C0003F40043B3F5004F6CD0384BDB69374AA5
:103A6C0043F0C053D361364B1B68354A43F4807323
:103A7C001360324B1B6A314A43F4803313622F4B71
:103A8C001B6A2E4A23F4803313622C4B1B6A2B4A7D
:103A9C0043F401431362294B1B6A284A43F0010388
:103AAC00136200BF254B1B6A03F00103012BF9D1F4
:103ABC00244B9B8D9BB2234A43F003039BB293850B
:103ACC0000BF214B9B889BB203F02003002BF8D046
:103ADC001D4B9B889BB21C4A43F010039BB29380F6
:103AEC00194B47F6FF729A81174B9B889BB2164A6B
:103AFC0023F010039BB2938000BF134B9B889BB2A7
:103B0C0003F02003002BF8D00F4B9B889BB20E4A7E
:103B1C0023F010039BB2938000BF0B4B9B889BB28E
:103B2C0003F00803082BF8D1054B1B68044A23F457
:103B3C008073136000BFBD4680BC7047001002400C
:103B4C0000700040006C00400028004080B400AFC2
:103B5C00054B1B8B9BB21B04034A928B92B21343F3
:103B6C001846BD4680BC70470028004080B483B026
:103B7C0000AF78601F4BDB691E4A43F0C053D36122
:103B8C001D4B1B681C4A43F48073136000BF1B4B16
:103B9C009B889BB203F02003002BF8D0174B9B881B
:103BAC009BB2164A43F010039BB293807B681A0CAD
:103BBC00124B92B21A83114B7A6892B29A830F4BC2
:103BCC009B889BB20D4A23F010039BB2938000BFDD
:103BDC000A4B9B889BB203F02003002BF8D0064BBA
:103BEC001B68054A23F48073136000BF0C37BD4675
:103BFC0080BC70470010024000700040002800405C
:103C0C0080B487B000AF786039607B68654AA2FBEE
:103C1C000312120C644901FB02F29B1A7B617B6854
:103C2C0003F52843C0335F4AA2FB0323DA0B5F4B37
:103C3C0013443B613B695B083B613A695C4BA3FBFA
:103C4C000213D11A49080B4499080B46DB005B1A86
:103C5C00D11ACAB23B685A723B6903F5FA432C334A
:103C6C003B613B699B000333524AA2FB0323DB0BF2
:103C7C00FB73FB7B504A02FB03F3002B00DA03338C
:103C8C009B101A463B699B1A3B613B699B000333B3
:103C9C004A4AA2FB0323DB09BB73BB7B40F2B55240
:103CAC0002FB03F3002B00DA03339B101A463B692B
:103CBC009B1A3B613A6913469B0013440233404AFA
:103CCC00A2FB0323DB097B733B69D9B27A7B1346D6
:103CDC00DB0013441A01134402333A4A82FB0302F9
:103CEC005210DB17D31ADBB2CB1ADBB20133DAB2C8
:103CFC003B685A717B7B344AA2FB0323DB08DBB2A3
:103D0C001A469B00D31A9B00DAB27B7B1344DBB2BE
:103D1C000333DAB23B681A71FB7B642203FB02F2B9
:103D2C00BB7B1344A3F596537A7B2749A1FB021264
:103D3C00D208D2B21A443B681A607B69234AA2FBB0
:103D4C000323DB0ADAB23B689A717A691F4BA3FB37
:103D5C000213DB0A4FF4616101FB03F3D31A1C4A13
:103D6C00A2FB03235B09DAB23B68DA717B69174A61
:103D7C00A2FB0312D20A4FF4616101FB02F29A1A00
:103D8C00134BA3FB021359090B461B015B1A9B0037
:103D9C00D11ACAB23B681A7200BF1C37BD4680BC30
:103DAC00704700BF07452EC280510100177B4A00A7
:103DBC0025499224BD066B39B13A020073B06D16D9
:103DCC00D7802BD667666666CDCCCCCCC5B3A2911A
:103DDC008988888880B489B000AF78607B681B794B
:103DEC00C3F10E03354A82FB03125210DB17D31AB0
:103DFC00FB777B681B6803F59652FB7FD31ABB617C
:103E0C007B681A79FB7F194649000B449B00DBB297
:103E1C001344DBB2033BFB757B685B791946FA7D77
:103E2C001346DB0013441A0113440233244A82FB69
:103E3C0003025210DB17D31ACA18BB6940F26D117A
:103E4C0001FB03F31A44BB69002B00DA03339B100C
:103E5C001A44BB691B4981FB03014911DB175B1A2F
:103E6C001A44BB69174981FB0301C911DB17CB1A33
:103E7C001A44154B13443B613B69144A02FB03F390
:103E8C00FB607B681B7A19467B68DB791A46134604
:103E9C001B019B1A9B00CA187B689B7919464FF42F
:103EAC00616301FB03F313441A46FB681344FB6084
:103EBC00FB6818462437BD4680BC7047ABAAAA2ABB
:103ECC00676666661F85EB514745DAFF8051010036
:103EDC0080B596B000AF78603960002387F84F301A
:103EEC003B683B653B6D01333B653B6D01333B658B
:103EFC003B6D01333B653B6D01333B653B6D0133E2
:103F0C003B6500237B650CE03B6D5A1C3A651978C8
:103F1C0007F10C027B6D13440A461A707B6D01335A
:103F2C007B657B6D032BEFDD07F10C03184601F06D
:103F3C00B9FD02467B681A607B681B68002B05D0B4
:103F4C007B681B6840F2BB72934205DC012387F847
:103F5C004F3097F84F30F4E03B6D01333B6507F180
:103F6C000C031846FCF7ECF8024607F10C03002191
:103F7C00184601F0FDFD00237B650CE03B6D5A1CDF
:103F8C003A65197807F10C027B6D13440A461A70D6
:103F9C007B6D01337B657B6D012BEFDD07F10C0332
:103FAC00184601F07FFD0346DAB27B681A717B6814
:103FBC001B79002B03D07B681B790C2B05D90223B2
:103FCC0087F84F3097F84F30BBE03B6D01333B65C2
:103FDC0007F10C031846FCF7B3F8024607F10C0383
:103FEC000021184601F0C4FD00237B650CE03B6DFD
:103FFC005A1C3A65197807F10C027B6D13440A467A
:10400C001A707B6D01337B657B6D012BEFDD07F146
:10401C000C03184601F046FD0346DAB27B685A7170
:10402C007B685B79002B03D07B685B791F2B05D9F0
:10403C00032387F84F3097F84F3082E03B6D013304
:10404C003B6507F10C031846FCF77AF8024607F1BA
:10405C000C030021184601F08BFD00237B650CE05E
:10406C003B6D5A1C3A65197807F10C027B6D1344B1
:10407C000A461A707B6D01337B657B6D012BEFDD7E
:10408C0007F10C03184601F00DFD0346DAB27B680C
:10409C009A713B6D01333B6507F10C031846FCF735
:1040AC004FF8024607F10C030021184601F060FDA1
:1040BC0000237B650CE03B6D5A1C3A65197807F1BF
:1040CC000C027B6D13440A461A707B6D01337B65C1
:1040DC007B6D012BEFDD07F10C03184601F0E2FCC0
:1040EC000346DAB27B68DA713B6D01333B6507F14D
:1040FC000C031846FCF724F8024607F10C030021C8
:10410C00184601F035FD00237B650CE03B6D5A1C15
:10411C003A65197807F10C027B6D13440A461A7044
:10412C007B6D01337B657B6D012BEFDD07F10C03A0
:10413C00184601F0B7FC0346DAB27B681A7297F89E
:10414C004F3018465837BD4680BD000080B483B050
:10415C0000AF0346FB71FB7903F01F03012202FA47
:10416C0003F1054A97F907305B0942F8231000BFA9
:10417C000C37BD4680BC704700E100E080B483B0D2
:10418C0000AF0346FB71FB7903F01F03012202FA17
:10419C0003F1064A97F907305B09203342F82310E4
:1041AC0000BF0C37BD4680BC704700BF00E100E08B
:1041BC0080B483B000AF03463960FB7197F90730C8
:1041CC00002B0BDA3B68DAB20C49FB7903F00F03D6
:1041DC00043B1201D2B20B441A7609E03B68DAB206
:1041EC00074997F907301201D2B20B4483F8002328
:1041FC0000BF0C37BD4680BC704700BF00ED00E02F
:10420C0000E100E080B586B000AF204B01221A70AF
:10421C0000211F4800F04FFE2420FFF7AFFF0023C2
:10422C00BB804FF48273FB8000233B8100237B8196
:10423C000023BB810023FB8138233B8280237B82BC
:10424C000723BB823B1D1946114800F0F1FD0022EB
:10425C0060210F4800F04EFE00210D4800F0B3FE27
:10426C0001224FF480510B4800F0D7FA0121084885
:10427C0000F08AFE0121064800F01DFE034B0022CF
:10428C001A7000BF1837BD4680BD00BF8E0A0020D3
:10429C0000380040000C014080B485B000AFF860DD
:1042AC00B9601346FB80164B01221A70154AFB6845
:1042BC001360154ABB681360144B00221A80144B10
:1042CC0001221A80134AFB88138000BF124B1B89F2
:1042DC009BB203F00203002BF8D00A4B1B68002B97
:1042EC0005D0084B1B680D4A1B78137002E00B4B72
:1042FC00FF221A7000BF1437BD4680BC704700BF48
:10430C008E0A0020800A0020840A0020880A0020DF
:10431C008A0A00208C0A0020003800400C3800402B
:10432C0080B586B000AFF860B9607A60FB7000238E
:10433C00FB7514E0FB7D9B00FA6813441868FB7D49
:10434C009B00BA6813441968FB7D5B007A681344C0
:10435C001B881A46FFF7A0FFFB7D0133FB75FA7D26
:10436C00FB789A42E6D300BF00BF1837BD4680BD2C
:10437C0080B483B000AF1F4B1B78FB711E4B1B68C6
:10438C00002B07D01C4B1B681C4A12881344FA796B
:10439C00D2B21A701A4B1A881A4B1B889A4215D231
:1043AC00194B1B68002B08D0174B1B68144A12883A
:1043BC001344104A1B78137002E00E4BFF221A7044
:1043CC000F4B1B8801339AB20D4B1A800B4B1B8879
:1043DC0001339AB2094B1A80084B1A88094B1B8877
:1043EC009A4202D3094B00221A7000BF0C37BD460B
:1043FC0080BC70470C380040840A0020880A0020DA
:10440C008A0A00208C0A0020800A00208E0A0020D4
:10441C0080B586B000AF01224FF48071244800F0C3
:10442C00FCF901224FF48051214800F0F6F90021EB
:10443C00204800F040FD0023BB804FF48273FB80CA
:10444C0000233B8100237B810023BB810023FB8164
:10445C0038233B8200237B820723BB823B1D1946FA
:10446C00144800F0E5FC0021124800F0ACFD0122DC
:10447C004FF480510E4800F0D0F901210D4800F0A6
:10448C0083FD012260210B4800F034FD0321242020
:10449C00FFF78EFE2420FFF759FE0121054800F09E
:1044AC000AFD054B00221A7000BF1837BD4680BDAF
:1044BC00000C0140003800408E0A002080B582B00C
:1044CC0000AF00237B6001224FF48071154800F08F
:1044DC00A4F9154B9F221A70144B134A1A60144BF3
:1044EC0000221A60134B01221A80104B00225A60D2
:1044FC000F4A3B1D536000224FF48071094800F0B5
:10450C008CF902230B4A0A490848FFF709FF0122DC
:10451C004FF48071034800F080F97B681846083727
:10452C00BD4680BD000C0140A40A0020900A00206A
:10453C00980A0020A00A002080B483B000AF7860F5
:10454C00054A7B6843F0BF6343F40033D36000BF7C
:10455C000C37BD4680BC704700ED00E080B487B0DE
:10456C0000AF786000237B6100233B610F23FB606D
:10457C007B68DB78002B3AD0274BDB68DB431B0ACC
:10458C0003F007037B617B69C3F104033B61FA68A9
:10459C007B6922FA03F3FB607B685B781A463B6904
:1045AC0002FA03F37B617B689B781A46FB68134025
:1045BC007A6913437B617B691B017B61174A7B68BA
:1045CC001B787969C9B213440A4683F800237B68C7
:1045DC001B7803F01F0311497A6812785209D2B282
:1045EC001046012202FA03F341F820300FE07B68F9
:1045FC001B7803F01F0309497A6812785209D2B26A
:10460C00104601229A4000F1200341F8232000BFFC
:10461C001C37BD4680BC704700ED00E000E100E0B7
:10462C0080B485B000AF78600023FB73084B5A69E7
:10463C007B681340002B02D00123FB7301E00023A5
:10464C00FB73FB7B18461437BD4680BC704700BF1C
:10465C000004014080B483B000AF7860034A7B68EB
:10466C00536100BF0C37BD4680BC7047000401404D
:10467C0080B489B000AF786039600023FB610023FF
:10468C003B610023BB610023FB6000237B610023A3
:10469C00BB603B68DB7803F00F03FB613B68DB78A6
:1046AC0003F01003002B05D03B689B781A46FB697E
:1046BC001343FB613B681B88DBB2002B44D07B6847
:1046CC001B687B610023BB6138E00122BB6902FAE5
:1046DC0003F3FB603B681B881A46FB6813403B6185
:1046EC003A69FB689A4226D1BB699B00FB600F229A
:1046FC00FB6802FA03F3BB60BB68DB437A691340C7
:10470C007B61FA69FB6802FA03F37A6913437B61F4
:10471C003B68DB78282B05D10122BB699A407B686A
:10472C005A6108E03B68DB78482B04D10122BB6955
:10473C009A407B681A61BB690133BB61BB69072B6B
:10474C00C3D97B687A691A603B681B88FF2B46D9F2
:10475C007B685B687B610023BB613AE0BB69083313
:10476C00012202FA03F3FB603B681B881A46FB68C4
:10477C0013403B613A69FB689A4227D1BB699B00A5
:10478C00FB600F22FB6802FA03F3BB60BB68DB43E0
:10479C007A6913407B61FA69FB6802FA03F37A6960
:1047AC0013437B613B68DB78282B05D1BB6908334D
:1047BC0001229A407B685A613B68DB78482B05D113
:1047CC00BB69083301229A407B681A61BB690133CB
:1047DC00BB61BB69072BC1D97B687A695A6000BF82
:1047EC002437BD4680BC704780B485B000AF78607C
:1047FC000B467B800023FB737B689A687B88134095
:10480C00002B02D00123FB7301E00023FB73FB7B25
:10481C0018461437BD4680BC704780B483B000AFD7
:10482C0078600B467B8013467B707B78002B03D023
:10483C007A887B681A6102E07A887B685A6100BFCB
:10484C000C37BD4680BC704780B58AB000AF78602D
:10485C0039600023FB8400237B840423BB84574BE7
:10486C00FB617B689B88FB84FB8C23F03F03FB8400
:10487C0007F10803184600F0D9F93B69FB61FB69A5
:10488C004F4AA2FB03239B0C7B84FA8C7B8C134337
:10489C00FB847B68FA8C9A807B681B889BB223F024
:1048AC0001039AB27B681A800023FB843B681B6867
:1048BC00444A934215D83B681B685B00FA69B2FB0B
:1048CC00F3F3BB84BB8C032B01D80423BB84FA8C7D
:1048DC00BB8C1343FB847B8C01339AB27B681A84A8
:1048EC0040E03B68DB884BF6FF72934209D13B6892
:1048FC001A6813465B001344FA69B2FBF3F3BB84EA
:10490C000EE03B681A6813469B0013449A0013444C
:10491C00FA69B2FBF3F3BB84BB8C43F48043BB84D6
:10492C00BB8CC3F30B03002B03D1BB8C43F00103F3
:10493C00BB84BA8CFB8C13439BB26FEA43436FEA84
:10494C005343FB847B8C4FF4967202FB03F31E4A99
:10495C0082FB03129211DB17D31A9BB201339AB26A
:10496C007B681A847B68FA8C9A837B681B889BB261
:10497C0043F001039AB27B681A807B681B88FB8426
:10498C00FB8C23F4816323F00203FB843B689A883D
:10499C003B685B8913439AB2FB8C1343FB847B68A3
:1049AC00FA8C1A803B689A893B681B8913439AB22C
:1049BC007B681A8100BF2837BD4680BD00127A0083
:1049CC0083DE1B43A0860100D34D621080B483B0FC
:1049DC0000AF78600B46FB70FB78002B08D07B682F
:1049EC001B889BB243F001039AB27B681A8007E0E4
:1049FC007B681B889BB223F001039AB27B681A80F8
:104A0C0000BF0C37BD4680BC704780B483B000AF8C
:104A1C0078600B46FB70FB78002B08D07B681B88FA
:104A2C009BB243F480739AB27B681A8007E07B6870
:104A3C001B889BB223F480739AB27B681A8000BFE8
:104A4C000C37BD4680BC704780B483B000AF786033
:104A5C000B46FB70FB78002B08D07B681B889BB245
:104A6C0043F400739AB27B681A8007E07B681B885A
:104A7C009BB223F400739AB27B681A8000BF0C3788
:104A8C00BD4680BC704780B483B000AF78600B46E5
:104A9C00FB70FB789AB27B681A8200BF0C37BD465C
:104AAC0080BC704780B483B000AF78600B46FB705D
:104ABC001346BB70BB78002B04D0FB7843F001038A
:104ACC00FB7003E0FB7823F00103FB70FB789AB2D8
:104ADC007B681A8200BF0C37BD4680BC704780B41F
:104AEC0087B000AF7860396000233B610023FB6026
:104AFC000023BB600023FB757B689B8A9BB2FB6029
:104B0C007B681B8B9BB2BB60BB681B04BB60FA68E9
:104B1C00BB68134323F07F433B613A693B68134006
:104B2C003A689A4202D10123FB7501E00023FB7520
:104B3C00FB7D18461C37BD4680BC704780B483B0E3
:104B4C0000AF7860134B1B68124A23F48033136058
:104B5C00104B1B680F4A23F4802313607B68B3F55A
:104B6C00803F04D07B68B3F5802F07D00DE0094B54
:104B7C001B68084A43F48033136006E0054B1B683E
:104B8C00044A43F4A023136000BF00BF0C37BD469A
:104B9C0080BC70470010024080B485B000AF7860D4
:104BAC0039600023FB600A4B5B68FB60FB6823F4F5
:104BBC007C13FB607A683B681343FA681343FB6011
:104BCC00034AFB68536000BF1437BD4680BC704776
:104BDC000010024080B483B000AF0346FB71044A5E
:104BEC00FB79136000BF0C37BD4680BC704700BF1B
:104BFC006000424280B485B000AF78600023FB6057
:104C0C00094B5B68FB60FB6823F00303FB60FA68ED
:104C1C007B681343FB60044AFB68536000BF143786
:104C2C00BD4680BC704700BF0010024080B487B006
:104C3C0000AF786000237B6100233B610023FB60A5
:104C4C000023BB604F4B5B6803F00C037B617B69FB
:104C5C00082B11D07B69082B3AD87B69002B03D029
:104C6C007B69042B04D033E07B68474A1A6033E03D
:104C7C007B68454A1A602FE0424B5B6803F4701363
:104C8C003B61404B5B6803F48033FB603B699B0CDE
:104C9C0002333B61FB68002B06D13B693B4A03FBAB
:104CAC0002F27B681A6017E0364B5B6803F4003342
:104CBC00002B06D03B69354A03FB02F27B681A6075
:104CCC000AE03B69304A03FB02F27B681A6003E09E
:104CDC007B682D4A1A6000BF2A4B5B6803F0F00317
:104CEC007B617B691B097B61294A7B6913441B78B7
:104CFC00DBB2BB607B681A68BB68DA407B685A60C1
:104D0C00204B5B6803F4E0637B617B691B0A7B616E
:104D1C001F4A7B6913441B78DBB2BB607B685A6803
:104D2C00BB68DA407B689A60164B5B6803F460538F
:104D3C007B617B69DB0A7B61154A7B6913441B78B9
:104D4C00DBB2BB607B685A68BB68DA407B68DA60B0
:104D5C000C4B5B6803F440437B617B699B0B7B6171
:104D6C000C4A7B6913441B78DBB2BB607B68DA6846
:104D7C00BB68B2FBF3F27B681A6100BF1C37BD46FF
:104D8C0080BC70470010024000127A0000093D0000
:104D9C00040400201404002080B483B000AF7860B9
:104DAC000B46FB70FB78002B06D0094B9A6908491F
:104DBC007B6813438B6106E0054B9A697B68DB4388
:104DCC00034913408B6100BF0C37BD4680BC704754
:104DDC000010024080B483B000AF78600B46FB70CB
:104DEC00FB78002B06D0094BDA6908497B68134322
:104DFC00CB6106E0054BDA697B68DB430349134062
:104E0C00CB6100BF0C37BD4680BC70470010024020
:104E1C0080B483B000AF0346FB71044AFB79136086
:104E2C0000BF0C37BD4680BC704700BF4C004242EF
:104E3C0080B485B000AF786039600023FB817B685B
:104E4C001B88FB81FB8903F44153FB813B681A8867
:104E5C003B685B8813439AB23B689B8813439AB2B6
:104E6C003B68DB8813439AB23B681B8913439AB2A5
:104E7C003B685B8913439AB23B689B8913439AB294
:104E8C003B68DB8913439AB2FB891343FB817B6834
:104E9C00FA891A807B689B8B9BB223F400639AB2CD
:104EAC007B689A833B681A8A7B681A8200BF143726
:104EBC00BD4680BC704780B483B000AF78600B46B1
:104ECC00FB70FB78002B08D07B681B889BB243F0EF
:104EDC0040039AB27B681A8007E07B681B889BB200
:104EEC0023F040039AB27B681A8000BF0C37BD4692
:104EFC0080BC704780B485B000AF78600B46FB7007
:104F0C001346BB700023FB810023BB81FB781B097C
:104F1C00DBB2FB81FB89012202FA03F3BB81BB7874
:104F2C00002B08D07B689B889AB2BB8913439AB23A
:104F3C007B689A8009E07B689B889AB2BB89DB43CB
:104F4C009BB213409AB27B689A8000BF1437BD465F
:104F5C0080BC704780B483B000AF78600B467B8018
:104F6C007B687A889A8100BF0C37BD4680BC70473D
:104F7C0080B483B000AF78607B689B899BB2184685
:104F8C000C37BD4680BC704780B483B000AF7860EE
:104F9C000B46FB70FB78002B08D07B689B889BB280
:104FAC0043F004039AB27B689A8007E07B689B8885
:104FBC009BB223F004039AB27B689A8000BF0C3733
:104FCC00BD4680BC704780B483B000AF78600B46A0
:104FDC00FB70FB78002B08D07B681B889BB243F4DA
:104FEC0000539AB27B681A8007E07B681B889BB2DF
:104FFC0023F400539AB27B681A8000BF0C37BD466D
:10500C0080BC704780B485B000AF78600B467B8065
:10501C000023FB737B681B899AB27B8813409BB27D
:10502C00002B02D00123FB7301E00023FB73FB7BFD
:10503C0018461437BD4680BC7047000080B485B05C
:10504C0000AF786039600023FB817B681B88FB8193
:10505C007B682E4A934213D07B682D4A93420FD023
:10506C007B68B3F1804F0BD07B682A4A934207D000
:10507C007B68294A934203D07B68284A934208D123
:10508C00FB8923F07003FB813B685A88FB8913432F
:10509C00FB817B68224A93420CD07B68214A934265
:1050AC0008D0FB8923F44073FB813B68DA88FB89C9
:1050BC001343FB817B68FA891A803B689A887B686A
:1050CC009A853B681A887B681A857B680F4A9342DD
:1050DC000FD07B680E4A93420BD07B68124A9342E6
:1050EC0007D07B68114A934203D07B68104A9342E5
:1050FC0004D13B681B7A9AB27B681A867B680122C2
:10510C009A8200BF1437BD4680BC7047002C01400A
:10511C00003401400004004000080040000C004036
:10512C0000100040001400400040014000440140C9
:10513C000048014080B483B000AF78600B46FB7030
:10514C00FB78002B08D07B681B889BB243F00103D3
:10515C009AB27B681A8007E07B681B889BB223F0AD
:10516C0001039AB27B681A8000BF0C37BD4680BC25
:10517C00704780B483B000AF78600B467B801346D9
:10518C007B707B78002B08D07B689B899AB27B88DC
:10519C0013439AB27B689A8109E07B689B899AB227
:1051AC007B88DB439BB213409AB27B689A8100BF29
:1051BC000C37BD4680BC704780B485B000AF7860BA
:1051CC000B467B800023FB730023BB8100237B8178
:1051DC007B681B8A9AB27B881340BB817B689B8956
:1051EC009AB27B8813407B81BB89002B05D07B89CD
:1051FC00002B02D00123FB7301E00023FB73FB7B2C
:10520C0018461437BD4680BC704780B483B000AFDD
:10521C0078600B467B807B88DB439AB27B681A8272
:10522C0000BF0C37BD4680BC7047000080B58CB009
:10523C0000AF786039600023FB620023BB6200235F
:10524C007B6200233B620023FB617B68FB617B6814
:10525C001B8A9BB2FB62FA6A4CF6FF731340FB622B
:10526C003B68DB881A46FB6A1343FB62FB6A9AB203
:10527C007B681A827B689B899BB2FB62FA6A4EF64A
:10528C00F3131340FB623B689A883B681B891343FA
:10529C009AB23B685B8913439BB21A46FB6A134371
:1052AC00FB62FB6A9AB27B689A817B689B8A9BB291
:1052BC00FB62FA6A4FF6FF431340FB623B689B8923
:1052CC001A46FB6A1343FB62FB6A9AB27B689A82AA
:1052DC0007F108031846FFF7A9FCFB692E4A934215
:1052EC0002D17B69BB6201E03B69BB627B689B8935
:1052FC009BB21BB2002B0CDABA6A13469B00134408
:10530C009A001A443B681B685B00B2FBF3F37B62A8
:10531C000BE0BA6A13469B0013449A001A443B688C
:10532C001B689B00B2FBF3F37B627B6A1B4AA2FBFC
:10533C0003235B091B01FB62FB6A1B09642202FB52
:10534C0003F37A6AD31A3B627B689B899BB21BB2CC
:10535C00002B0CDA3B6ADB003233104AA2FB03232E
:10536C005B0903F00703FA6A1343FB620BE03B6A29
:10537C001B013233094AA2FB03235B0903F00F0321
:10538C00FA6A1343FB62FB6A9AB27B681A8100BF0C
:10539C003037BD4680BD00BF003801401F85EB5142
:1053AC0080B483B000AF78600B46FB70FB78002BA9
:1053BC0008D07B689B899BB243F400539AB27B68FC
:1053CC009A8107E07B689B899BB223F400539AB2C5
:1053DC007B689A8100BF0C37BD4680BC704780B497
:1053EC0087B000AF78600B467B8013467B70002340
:1053FC003B610023FB600023BB6000237B617B6867
:10540C007B617B88DBB25B09DBB23B617B8803F0A1
:10541C001F03FB600122FB6802FA03F3BB603B69CC
:10542C00012B03D17B690C337B6109E03B69022BB7
:10543C0003D17B6910337B6102E07B6914337B61A0
:10544C007B78002B06D07B6919687B69BA680A43A4
:10545C001A6006E07B691968BB68DA437B690A400D
:10546C001A6000BF1C37BD4680BC704780B483B047
:10547C0000AF78600B467B807B88C3F308039AB23D
:10548C007B689A8000BF0C37BD4680BC704780B4E7
:10549C0083B000AF78607B689B889BB2C3F3080332
:1054AC009BB218460C37BD4680BC704780B485B0A3
:1054BC0000AF78600B467B800023FB737B681B88F6
:1054CC009AB27B8813409BB2002B02D00123FB7352
:1054DC0001E00023FB73FB7B18461437BD4680BCF0
:1054EC00704780B485B000AF78600B467B8000239A
:1054FC00FB810023BB817B881B0AFB81FB8901227A
:10550C0002FA03F3BB81BB89DB439AB27B681A8036
:10551C0000BF1437BD4680BC704700000C480D49D5
:10552C000D4A002302E0D458C4500433C4188C42F2
:10553C00F9D30A4A0A4C002301E013600432A24258
:10554C00FBD3FAF705FE00F0B7FAFAF7E9FF70475C
:10555C00000000207C040020107100087C04002056
:10556C009C0B0020FEE7000080B586B000AF012147
:10557C004FF40030FFF72EFC0223BB751823FB758C
:10558C000423BB8207F1140319462148FFF770F876
:10559C004823FB750823BB8207F1140319461C48EA
:1055AC00FFF766F801214FF40030FFF7F5FB4FF4DD
:1055BC0016537B6000233B820C23FB810023BB81B1
:1055CC0000237B8100233B813B1D19461148FFF7CB
:1055DC002DFE01210F48FFF7E3FE4FF4E060FEF7CC
:1055EC00ABFF26233B700123FB7000237B70002351
:1055FC00BB703B461846FEF7B1FF012240F2255125
:10560C000448FFF7ECFE00BF1837BD4680BD00BF55
:10561C00000801400044004080B584B000AF7860C1
:10562C0039600023FB6013E000BF80210D48FFF7B9
:10563C003DFF0346002BF8D0FB687A6813441B78B7
:10564C009BB219460748FFF711FFFB680133FB605B
:10565C00FA683B689A42E7DB00BF00BF1037BD46D3
:10566C0080BD00BF0044004080B586B000AF012172
:10567C000420FFF791FB0223BB751823FB754FF435
:10568C000073BB8207F1140319462148FEF7F0FFA3
:10569C004823FB754FF48063BB8207F11403194652
:1056AC001B48FEF7E5FF01214FF48040FFF774FB28
:1056BC004FF416537B6000233B820C23FB810023A9
:1056CC00BB8100237B8100233B813B1D1946114884
:1056DC00FFF7ACFD01210F48FFF762FE4FF4E060CD
:1056EC00FEF72AFF25233B700123FB7000237B7000
:1056FC000023BB703B461846FEF730FF012240F2F8
:10570C0025510448FFF76BFE00BF1837BD4680BD1E
:10571C00000801400038014080B584B000AF7860CB
:10572C0039600023FB6013E000BF0E4B1B889BB25B
:10573C0003F08003802BF8D1FB687A6813441B7844
:10574C009BB219460748FFF791FEFB680133FB60DB
:10575C00FA683B689A42E7DB00BF00BF1037BD46D2
:10576C0080BD00BF0038014080B500AF2021244827
:10577C00FFF79CFE0346012B3FD1224B1B78002BDD
:10578C001ED040F225511E48FFF7ABFE1C48FFF718
:10579C007EFE034618461C4B1B785A1CD1B21A4A83
:1057AC0011701A46C1B2194B9954174B1B78472BE1
:1057BC0023D9144B00221A70134B00221A701CE0D0
:1057CC0040F225510E48FFF78CFE0D48FFF75FFEA7
:1057DC00034618460E4B1B685A1C0D490A60C1B291
:1057EC000C4AD1540A4B1B685A4203F03F0302F097
:1057FC003F0258BF5342064A136000BF80BD00BF32
:10580C00003801407C050020AA0A0020AC0A0020C8
:10581C00800B00203C0B002080B485B000AF78607A
:10582C000023FB73104B1A68104B1B689A4215D05F
:10583C000D4B1B685A1C0C490A600D4AD25C7B68E4
:10584C001A70094B1B685A4203F03F0302F03F02E7
:10585C0058BF5342044A13600123FB73FB7B184669
:10586C001437BD4680BC70477C0B0020800B002099
:10587C003C0B002080B485B000AF78600023FB7334
:10588C00104B1A68104B1B689A4215D00D4B1B68B5
:10589C005A1C0C490A600D4AD25C7B681A70094B81
:1058AC001B685A4203F03F0302F03F0258BF5342B9
:1058BC00044A13600123FB73FB7B18461437BD4667
:1058CC0080BC7047340B0020380B0020F40A0020F9
:1058DC0080B500AF20211448FFF7E8FD0346012BEB
:1058EC001FD1124B01221A6040F225510E48FFF7CE
:1058FC00F8FD0D48FFF7CBFD034618460C4B1B6813
:10590C005A1C0B490A60C1B20A4AD154084B1B6895
:10591C005A4203F03F0302F03F0258BF5342044A7D
:10592C00136000BF80BD00BF00440040840B00200A
:10593C00380B0020F40A002080B400AF0123184675
:10594C00BD4680BC704780B582B000AF78603960CE
:10595C0000F0ACF8034616221A604FF0FF331846DD
:10596C000837BD4680BD80B582B000AF78604FF07F
:10597C00FF317868FFF7E7FFFEE780B586B000AF30
:10598C00F860B9607A6000237B610AE0AFF30080B5
:10599C000146BB685A1CBA60CAB21A707B690133E3
:1059AC007B617A697B689A42F0DB7B681846183712
:1059BC00BD4680BD80B586B000AFF860B9607A6036
:1059CC0000237B6109E0BB685A1CBA601B7818463F
:1059DC00AFF300807B6901337B617A697B689A4203
:1059EC00F1DB7B6818461837BD4680BD80B483B0A8
:1059FC0000AF78604FF0FF3318460C37BD4680BCC3
:105A0C00704780B483B000AF786039603B684FF466
:105A1C0000525A60002318460C37BD4680BC7047B4
:105A2C0080B483B000AF7860012318460C37BD46B4
:105A3C0080BC704780B485B000AFF860B9607A6004
:105A4C00002318461437BD4680BC704780B584B01F
:105A5C0000AF7860114B1B68002B02D10F4B104A22
:105A6C001A600E4B1B68FB600C4B1A687B68134466
:105A7C006A46934207D900F019F803460C221A60C3
:105A8C004FF0FF3306E0054B1A687B681344034A5A
:105A9C001360FB6818461037BD4680BD880B00208C
:105AAC00A00B00200A22002100F0B0B9014B1868AD
:105ABC00704700BF1804002070B500260C4D0D4C2B
:105ACC00641BA410A64209D101F0AAF900260A4DC4
