:020000040800F2
:1000000000500020896A0008D16A0008D16A0008FF
:10001000D16A0008D16A0008D16A00080000000017
:10002000000000000000000000000000D16A00088D
:10003000D16A000800000000D16A00086D3600088F
:10004000D16A0008D16A0008D16A0008D16A0008A4
:10005000D16A0008D16A000879280008D16A00082E
:10006000D16A0008D16A0008D16A0008D16A000884
:10007000D16A0008D16A0008D16A0008D16A000874
:10008000D16A0008D16A0008D16A0008D16A000864
:10009000D16A0008D16A0008D16A0008D16A000854
:1000A000D16A0008A9290008D16A0008D16A0008AD
:1000B000D16A0008D16A0008D16A0008D16A000834
:1000C000D16A0008D16A0008D16A0008D16A000824
:1000D00049560008D56C00083D6E0008D16A00083A
:1000E000D16A0008D16A0008D16A00080000000047
:1000F0000000000000000000000000000000000000
:0C01000000000000000000005FF808F1A3
:10010C0010B5054C237833B9044B13B10448AFF345
:10011C0000800123237010BDC804002000000000E3
:10012C008C83000808B5034B1BB103490348AFF39C
:10013C00008008BD00000000CC0400208C83000867
:10014C00034613F8012B002AFBD1181A013870470B
:10015C0080B500AF00F002F800BF80BD80B500AFE5
:10016C0000F002F800BF80BD80B483B000AF002364
:10017C007B6000233B603A4B1B68394A43F4803365
:10018C001360374B1B6803F400333B607B6801330F
:10019C007B603B68002B03D17B68B3F5A06FF0D17B
:1001AC002F4B1B6803F40033002B02D001233B6060
:1001BC0001E000233B603B68012B4BD1294B1B68B2
:1001CC00284A43F010031360264B1B68254A23F082
:1001DC0003031360234B1B68224A43F00203136092
:1001EC001F4B1F4A5B6853601D4B1D4A5B68536075
:1001FC001B4B5B681A4A43F480635360184B5B6873
:10020C00174A23F47C135360154B5B68144A43F470
:10021C00E8135360124B1B68114A43F08073136050
:10022C0000BF0F4B1B6803F00073002BF9D00C4B75
:10023C005B680B4A23F003035360094B5B68084A65
:10024C0043F00203536000BF054B5B6803F00C03E3
:10025C00082BF9D100BF0C37BD4680BC704700BFDE
:10026C00001002400020024080B483B000AF03466F
:10027C003960FB7197F90730002B0BDA3B68DAB267
:10028C000C49FB7903F00F03043B1201D2B20B446F
:10029C001A7609E03B68DAB2074997F90730120180
:1002AC00D2B20B4483F8002300BF0C37BD4680BC90
:1002BC00704700BF00ED00E000E100E080B582B0C7
:1002CC0000AF78607B68B3F1807F01D3012311E02C
:1002DC007B6823F07F43094A013B53600F214FF0A9
:1002EC00FF30FFF7C1FF054B00229A60034B07223A
:1002FC001A60002318460837BD4680BD10E000E0A8
:10030C0080B500AF1249134806F0F9FE12491148A6
:10031C0006F0E6FE11490F4806F0E2FE10490D48C2
:10032C0006F0DEFE0F490B4806F0DAFE0E490948CE
:10033C0006F0D6FE0949074806F0D2FE0B490548DF
:10034C0006F0CEFE0A49034806F0CAFE00BF80BD87
:10035C00EC01002048070020DC010020D001002027
:10036C00FC010020E0010020E40100200C02002030
:10037C00E801002080B582B000AF0D490D4806F0B1
:10038C001DFF786079680C4806F0B9FE0B490A48E5
:10039C0006F0A6FE0649002006F010FF786079688A
:1003AC00054806F09DFE00BF0837BD4680BD00BF66
:1003BC00A4830008880D0020C8070020D00100206D
:1003CC0080B592B002AFF8607B600B46FB721346AF
:1003DC00BB72514A07F1340392E8030018600433EE
:1003EC001980002387F83E304C4A07F1200312682D
:1003FC00114619800233120C1A70102387F83D3005
:10040C00002387F83F30F97A07F134030093012376
:10041C000022F86804F060F90346002B05D1012393
:10042C0087F83C3097F83C3072E007F1100319461E
:10043C00012004F0C7F9034687F83C3007F110039C
:10044C001946012004F0BEF90346002B05D1022306
:10045C0087F83C3097F83C305AE0002387F83F305F
:10046C000FE097F83F307A681A4497F83F301278CB
:10047C0040333B4403F8302C97F83F30013387F876
:10048C003F3097F83F30032BEBD907F11003194697
:10049C00012004F0D3F90346002B05D1032387F880
:1004AC003C3097F83C3033E007F1240307F1340279
:1004BC0092E8030018600433198007F12403063313
:1004CC001A4607F1200319889B78118093706923D1
:1004DC0087F82D3007F124030A331A4607F1340349
:1004EC00186810609B88938007F124031946032039
:1004FC0004F0A4F90346002B05D1042387F83C3003
:10050C0097F83C3004E0002387F83C3097F83C30F7
:10051C0018464037BD4680BDA8830008B08300084C
:10052C0080B59CB000AFA54B00221A7204F0BEF946
:10053C00002005F0FFFD4FF4803005F0AFFD0120E9
:10054C0005F016FF4FF4E0114FF4803005F0D4FDA8
:10055C00022005F0FFFD0023FB62994B5B68FB62F8
:10056C00974AFB6A23F470635360954AFB6A43F421
:10057C00A0635360924B5B68914A43F480035360D1
:10058C00012005F0D7FD8F4805F000FE8D4B5B6810
:10059C008D4AA2FB03239B091846FFF78FFE8B4B5A
:1005AC0000221A708A4B1B68184604F011FA03F0EB
:1005BC0039FC02F043F90121864805F0C5FB0346DE
:1005CC001A46854B1A70844B1A78844B1A7002F0B9
:1005DC0015F902F05DFD06F077FA06F0F5FA04F075
:1005EC006FFF7F4B00221A707E4B00221A7002F0B4
:1005FC0001FBB86202F0FEFA78627B6A3B627A48D1
:10060C00FFF79EFD03461946774806F0B5FA774882
:10061C00FFF796FD03461946744806F0ADFA744888
:10062C00FFF78EFD03461946714806F0A5FAC8225D
:10063C007049714803F0B8F900BF704B1B78DBB2FE
:10064C00002B06D080216E4805F08CFF0346002B52
:10065C00F3D16A4B01221A7003F044FC03461A468C
:10066C00684B1A7003F0E2FC03461A46664B1A708C
:10067C0003F008FDF861FB69002B13D0594B1B7874
:10068C0043F00103DAB2574B1A70F86902F0BCFA66
:10069C00FF2003F03DFC03461A465C4B1A705C4B82
:1006AC0000221A7000BF0221554805F05BFF03467B
:1006BC00002BF8D0514B00221A70564B4FF40052BD
:1006CC001A60554B00221A60544B4FF440521A607A
:1006DC00534B4FF480521A60524B04221A70524BF7
:1006EC0001221A70514B10221A80514BFF221A70A2
:1006FC00504B00221A70504B00221A604F4BFF22B5
:10070C001A7000BF3D4B1B78DBB2002B06D080214A
:10071C003B4805F027FF0346002BF3D104F0DEFF26
:10072C00FF220021464806F0D3FC3B4B1B68434A92
:10073C00127891B2424A184605F028F80023FB665D
:10074C0015E03F4AFB6E13441B78FF2B0CD1FB6E5C
:10075C00002B09D1304B1B68334A127891B2354AC1
:10076C00184604F081FD05E0FB6E0133FB66FB6E61
:10077C00FF2BE6DDFF220021314806F0A9FC284BB7
:10078C001B682E4A127891B22D4A184604F0FEFFCF
:10079C000023BB6659E02A4ABB6E13441B78FF2B1F
:1007AC0050D1BB6E002B4DD11D4B1B681E4A1278CD
:1007BC0091B2204A184604F057FD49E0E4040020A9
:1007CC0000100240F4040020D34D6210FF050020FD
:1007DC0018030020000C01403907002038070020C6
:1007EC000D07002048080020E8000020F40000203D
:1007FC00340100204000002028000020260D00209D
:10080C00003800400E0700200F07002010070020C2
:10081C0011070020280900202C0900203009002095
:10082C003409002038090020390900200E0D002061
:10083C003B0900203C090020180900201C0900205D
:10084C00D4090020BB6E0133BB66BB6EFF2BA2DD4F
:10085C00824B00221A7000BF804B1B78DBB2002B3E
:10086C0006D080217E4805F07DFE0346002BF3D197
:10087C0004F026FE7B4B01221A707B4B00221A706F
:10088C000C217A4806F0F8F90023BB6100237B6643
:10089C0002F0B0F9B861BB697B6602E002F0AAF91C
:1008AC007866704B1B78002BF8D17A6EBB69D31A23
:1008BC00B3F57A7FF2D86B4B1B78002B06D16C4BBF
:1008CC001B7843F01003DAB2694B1A70684B1B7833
:1008DC00112B00F2568101A252F823F031090008C5
:1008EC00750900088F0B00088F0B00088F0B000890
:1008FC008F0B00088F0B00088F0B00088F0B000864
:10090C008F0B00088F0B00088F0B00088F0B000853
:10091C008F0B00088F0B00088F0B00080F0A0008C4
:10092C00C10A00085348FFF70BFC0346194652480E
:10093C0006F022F95148FFF703FC034619464F48CD
:10094C0006F01AF91C214E4806F016F94B48FFF731
:10095C00F7FB03461946494806F00EF9C8224849E8
:10096C00454803F021F80CE14248FFF7E9FB034648
:10097C001946414806F000F94048FFF7E1FB0346F1
:10098C0019463E4806F0F8F83E48FFF7D9FB0346F7
:10099C0019463C4806F0F0F802213B4806F0ECF80A
:1009AC0002213A4806F0E8F83948FFF7C9FB03463C
:1009BC001946374806F0E0F80321364806F0DCF813
:1009CC0000231946344806F0D7F80321334806F0C3
:1009DC00D3F802212D4806F0CFF80A21304806F052
:1009EC00CBF802212F4806F0C7F80221274806F061
:1009FC00C3F8FFF785FCC8222B491F4802F0D4FF2F
:100A0C00BFE01C48FFF79CFB03461946194806F04B
:100A1C00B3F82648FFF794FB03461946234806F023
:100A2C00ABF81648FFF78CFB03461946134806F043
:100A3C00A3F81C21124806F09FF81048FFF780FB22
:100A4C00034619460D4806F097F8FFF793FCC822A9
:100A5C000B49174802F0A8FF93E000BF260D0020B9
:100A6C000038004000060020840D0020000000200B
:100A7C00480800204C0100208C0000206801002058
:100A8C0070000020EC010020DC010020D8010020C7
:100A9C00FC010020E0010020D4010020E401002032
:100AAC000C020020E801002048070020880D0020DF
:100ABC00C8070020B148FFF743FB03461946AF486F
:100ACC0006F05AF8AE48FFF73BFB03461946AC4814
:100ADC0006F052F8AB48FFF733FB03461946A9481A
:100AEC0006F04AF8A848FFF72BFB03461946A64820
:100AFC0006F042F80221A54806F03EF80221A4486F
:100B0C0006F03AF8A348FFF71BFB03461946A14829
:100B1C0006F032F80321A04806F02EF800231946FF
:100B2C009E4806F029F803219D4806F025F802217D
:100B3C00974806F021F80A219A4806F01DF8022180
:100B4C00994806F019F80221914806F015F8FFF7BC
:100B5C0011FCFFF7D5FBC8229449954802F024FFFD
:100B6C00802002F053FE934802F000FFC02002F0F8
:100B7C004DFE914802F0FAFE2121904805F0FCFF51
:100B8C0000BF01F0BFFE01F0F7FE8D4B1B78012B6F
:100B9C0010D102F0EBF806218A4805F0EDFF7948F8
:100BAC00FFF7CEFA03461946764805F0E5FF844B6D
:100BBC0000221A70844B1B78002B41F0D8841BE068
:100BCC00824B1B685A1C81490A60F978804AD154BF
:100BDC007E4B1B687E4A0021D1547C4B1B687F2BBB
:100BEC000ADD7C4B80221946794806F057FA774B80
:100BFC001B68013B754A1360FB1C184606F0BCF8D9
:100C0C000346012BDCD01BE0734B1B685A1C72494A
:100C1C000A60B978714AD1546F4B1B686F4A002136
:100C2C00D1546D4B1B687F2B0ADD6D4B802219460E
:100C3C006A4806F033FA684B1B68013B664A13603E
:100C4C00BB1C184606F0C6F80346012BDCD06549E0
:100C5C00624806F09CFA0346002B00F078875F4B45
:100C6C003B665E4B1A78604B1B789A4240F02887A3
:100C7C003B6E01333B660023FB650BE03B6E5A1C5D
:100C8C003A661978594AFB6D13440A461A70FB6D83
:100C9C000133FB65FB6D022BF0DD544806F0B2F915
:100CAC000346534A1360524B1B68002B0FD151481B
:100CBC00FFF746FA034619464E4805F05DFF3148EA
:100CCC00FFF73EFA034619462E4805F055FF484BF0
:100CDC001B68CC2B00F3E386C92B0CDA672B00F0D6
:100CEC00FD80672B00F3DB86652B13D0662B00F0A1
:100CFC00BC8000F0D4BEC93B032B00F2D08601A20D
:100D0C0052F823F09F0F0008CF110008ED130008D4
:100D1C003B1700083B1D3149184604F00BF80346FD
:100D2C00FB75FB7D032B00F2058701A252F823F023
:100D3C004D0D00080D0E00082F0E0008510E000876
:100D4C003B1D184603F078FF03462B4A13602A4BD1
:100D5C001B68184603F03CFE2848FFF7F1F90346E0
:100D6C001946264805F008FF0648FFF7E9F903463F
:100D7C001946044805F000FF75E000BF4C01002047
:100D8C00880D002068010020EC010020DC0100200F
:100D9C00D8010020FC010020E0010020D40100203B
:100DAC00E40100200C020020E8010020480700208C
:100DBC00C80700203400002064000020100100202F
:100DCC003E070020580200203F0700208C05002021
:100DDC0008050020090500208806002004060020D4
:100DEC0005060020A48300083D0400208C0600208A
:100DFC00100900203C0300200C09002058000020A2
:100E0C008448FFF79DF903461946824805F0B4FE65
:100E1C008148FFF795F9034619467F4805F0ACFE6B
:100E2C0021E07E48FFF78CF9034619467B4805F014
:100E3C00A3FE7948FFF784F903461946764805F076
:100E4C009BFE10E07648FFF77BF903461946744881
:100E5C0005F092FE7048FFF773F9034619466E4889
:100E6C0005F08AFE00BF00F065BE03F0A1FD03464D
:100E7C006C4A13606B4B1B683A1D1146184603F005
:100E8C00F1FD3B1D184603F0D7FE0346664A13607E
:100E9C003B1D184604F08CF86448FFF751F90346E3
:100EAC001946624805F068FE5B48FFF749F90346AE
:100EBC001946594805F060FE5D48FFF741F90346B5
:100ECC0019465B4805F058FE5348FFF739F90346BD
:100EDC001946514805F050FE00F02DBE5548FFF75D
:100EEC002FF903461946534805F046FE5248FFF7C2
:100EFC0027F903461946504805F03EFE4648FFF7D1
:100F0C001FF903461946444805F036FE4B48FFF7D7
:100F1C0017F903461946494805F02EFE02214848A8
:100F2C0005F02AFE0221474805F026FE4648FFF749
:100F3C0007F903461946444805F01EFE03214348B1
:100F4C0005F01AFE00231946414805F015FE032151
:100F5C00404805F011FE02213A4805F00DFE0A2129
:100F6C003D4805F009FE02213C4805F005FE022132
:100F7C00344805F001FE2021394805F0FDFD1F2104
:100F8C00384805F0F9FD02212E4805F0F5FD00F07A
:100F9C00D2BD3548FFF7D4F803461946324805F060
:100FAC00EBFD1D48FFF7CCF8034619461A4805F02F
:100FBC00E3FD00BF2D4B1B78DBB2002B06D080214C
:100FCC002B4805F0CFFA0346002BF3D104F086FB37
:100FDC00FF220021274806F07BF8274B1B68274A85
:100FEC00127891B2234A184604F0D0FB0023BB655B
:100FFC004DE0204ABB6D13441B78FF2B44D1BB6DD5
:10100C00013B1C4AD25C1E4B1A70BB6D1D4A13600F
:10101C0040E000BF50030020680100206003002066
:10102C0070030020180300200C090020600200202F
:10103C00580000204C010020880D0020EC010020FD
:10104C00DC010020D8010020FC010020E001002080
:10105C00D4010020E40100200C020020E801002053
:10106C00180200203802002080030020260D0020EA
:10107C0000380040D40900202C0900201C09002055
:10108C003A0900204C090020BB6D0133BB65BB6DD8
:10109C00FC2BAEDD6B4B1B78002B0FD16A48FFF796
:1010AC004FF803461946684805F066FD6748FFF798
:1010BC0047F803461946654805F05EFD614B1B7801
:1010CC00002B77D05F4B1B78FC2B73D85D4B1B78B8
:1010DC0003F2FF131B011A465D4B1A60FF2200211D
:1010EC005C4805F0F5FF102200215B4805F0F0FF8D
:1010FC00574B1B68594A1188574A184604F046FB4F
:10110C00554802F02BF90346554A1360544B1B68A3
:10111C003A1D1146184603F0A5FC3B1D184603F07A
:10112C0047FF4D4802F036F94E48FFF709F80346E1
:10113C001A4600214C4805F0CBFF1A224B494A486D
:10114C0005F0E5FF4A49484805F0CAFF1322494912
:10115C00494805F0F1FF4949474805F0C1FF4248AD
:10116C00FEF7EEFF03461A463F49434805F0E4FFFD
:10117C003648FEF7E5FF03461A4634493E4805F06B
:10118C00DBFF3D48FEF7DCFF034619463A4805F005
:10119C00F3FC2E48FEF7D4FF034619462B4805F006
:1011AC00EBFC3548FEF7CCFF03461A4600213248CB
:1011BC0005F08EFF324B00221A7004F081F900F01A
:1011CC00BABC3048FEF7BCFF034619462D4805F063
:1011DC00D3FC1E48FEF7B4FF034619461B4805F026
:1011EC00CBFC00BF264B1B78DBB2002B06D080213A
:1011FC00254805F0B7F90346002BF3D104F06EFA3D
:10120C00FF220021134805F063FF204B1B68204A86
:10121C00127891B20F4A184604F0B8FA00237B6595
:10122C003DE00C4A7B6D13441B78FF2B34D17B6D56
:10123C00013B084AD25C034B1A707B6D154A136054
:10124C0030E000BF3A090020F803002068010020BC
:10125C0040090020D4090020D40A00200E0D0020E3
:10126C0048090020E4050020AC050020D400002033
:10127C00E40A0020600200208C080020D00100202D
:10128C00260D00209C03002000380040340900206B
:10129C001C090020500900207B6D01337B657B6DA0
:1012AC00FC2BBEDD824B1B78002B0FD18148FEF747
:1012BC0047FF034619467F4805F05EFC7E48FEF763
:1012CC003FFF034619467C4805F056FC784B1B78CB
:1012DC00002B7FD0764B1B78FC2B7BD8744B1B7868
:1012EC0003F2FF231B011A46744B1A60FF220021E4
:1012FC00734805F0EDFE10220021724805F0E8FE5F
:10130C006E4B1B68704A11886E4A184604F03EFA00
:10131C006C4802F023F803466C4A13606B4B1B6855
:10132C003A1D1146184603F09DFB3B1D184603F071
:10133C003FFE644802F0A6F80346654A1360644B0E
:10134C001B68184602F0BCF86248FEF7F9FE03462B
:10135C001A4600215F4805F0BBFE1A225E495D4823
:10136C0005F0D5FE5D495B4805F0BAFE13225C49D9
:10137C005C4805F0E1FE5C495A4805F0B1FE554861
:10138C00FEF7DEFE03461A465249564805F0D4FED7
:10139C004948FEF7D5FE03461A464749514805F021
:1013AC00CBFE5048FEF7CCFE034619464D4805F0DF
:1013BC00E3FB4148FEF7C4FE034619463E4805F0E0
:1013CC00DBFB4848FEF7BCFE03461A4600214548A5
:1013DC0005F07EFE454B00221A7004F071F8AAE36A
:1013EC004348FEF7ADFE03461946414805F0C4FBE1
:1013FC003148FEF7A5FE034619462F4805F0BCFB05
:10140C0000BF3A4B1B78DBB2002B06D08021394849
:10141C0005F0A8F80346002BF3D104F05FF9FF2286
:10142C000021274805F054FE334B1B68334A1278D1
:10143C0091B2234A184604F0A9F900233B6512E047
:10144C001F4A3B6D13441B78FF2B09D13B6D013BAD
:10145C001B4AD25C164B1A703B6D294A136005E08F
:10146C003B6D01333B653B6DFC2BE9DD104B1B7871
:10147C00002B0FD12348FEF763FE03461946214883
:10148C0005F07AFB0C48FEF75BFE034619460A484A
:10149C0005F072FB064B1B78002B00F0AE80044B62
:1014AC001B78042B00F2A980014B1B78FB64A1E094
:1014BC003A0900201C040020680100204409002087
:1014CC00D4090020D40A00200E0D00204809002069
:1014DC0058090020E4050020E0000020A8090020A5
:1014EC00600200208C080020D0010020260D002076
:1014FC00D8030020003800402C0900201C090020D3
:10150C004C090020F8030020FB6C03F2FF131B01B5
:10151C001A46A74B1A60FF220021A64805F0D8FDF9
:10152C0010220021A44805F0D3FDA14B1B68A34A4F
:10153C001188A14A184604F029F99F4801F00EFFC2
:10154C0003469F4A13609E4B1B683A1D1146184672
:10155C0003F088FA3B1D184603F02AFD964801F06B
:10156C0019FF9848FEF7ECFD03461A4600219648F1
:10157C0005F0AEFD1A229549934805F0C8FD944933
:10158C00914805F0ADFD13229249934805F0D4FD26
:10159C009249914805F0A4FD8B48FEF7D1FD034616
:1015AC001A4689498C4805F0C7FD8D48FEF7C8FDE1
:1015BC0003461A468A49884805F0BEFD8648FEF760
:1015CC00BFFD03461946844805F0D6FA8448FEF759
:1015DC00B7FD03461946824805F0CEFA7E48FEF761
:1015EC00AFFD03461A4600217B4805F071FDFB6CEC
:1015FC00013BFB64FB6C002B86DC7A4B1B78052BC8
:10160C0040F28F80774B1B78FC2B00F28A80754B55
:10161C001B78053BDAB2744B1A70724B1B7887F847
:10162C004B3078E097F84B3003F2FF131B011A464E
:10163C005F4B1A60FF2200215E4805F049FD102225
:10164C0000215D4805F044FD594B1B685B4A11882D
:10165C00594A184604F09AF8574801F07FFE0346A1
:10166C00574A1360564B1B683A1D1146184603F037
:10167C00F9F93B1D184603F09BFC4F4801F08AFE1C
:10168C005148FEF75DFD03461A4600214E4805F011
:10169C001FFD1A224D494C4805F039FD4C494A486A
:1016AC0005F01EFD13224B494B4805F045FD4B49F7
:1016BC00494805F015FD4448FEF742FD03461A461D
:1016CC004149454805F038FD4548FEF739FD0346CC
:1016DC001A464349404805F02FFD3F48FEF730FDC0
:1016EC00034619463C4805F047FA3D48FEF728FDED
:1016FC00034619463A4805F03FFA3748FEF720FDF5
:10170C0003461A460021344805F0E2FC97F84B30AA
:10171C00013B87F84B30344B1B7897F84B209A429F
:10172C0080D8324B00221A7003F0CAFE03E2304814
:10173C00FEF706FD034619462D4805F01DFA28480C
:10174C00FEF7FEFC03461946254805F015FA00BFC6
:10175C00264B1B78DBB2002B06D08021254804F0E9
:10176C0001FF0346002BF3D103F0B8FFFF22002149
:10177C00104805F0ADFC204B1B68204A127891B242
:10178C000C4A184604F002F800237B643DE0094A39
:10179C007B6C13441B78FF2B34D17B6C013B054ACB
:1017AC00D25C104B1A707B6C154A136030E000BF92
:1017BC0040090020D4090020D40A00200E0D00207E
:1017CC0048090020E4050020AC050020D4000020CE
:1017DC00E40A0020600200208C080020D0010020C8
:1017EC00680100203A09002054090020260D002031
:1017FC00B803002000380040340900201C090020E8
:10180C00500900207B6C01337B647B6CFC2BBEDDB0
:10181C00B44B1B78002B0FD1B348FEF791FC034659
:10182C001946B14805F0A8F9B048FEF789FC034603
:10183C001946AE4805F0A0F9AA4B1B78002B00F016
:10184C008B80A84B1B78042B00F28680A54B1B7851
:10185C003B647DE03B6C03F2FF231B011A46A44B57
:10186C001A60FF220021A34805F032FC102200214F
:10187C00A14805F02DFC9E4B1B68A04A11889E4A7E
:10188C00184603F083FF9C4801F068FD03469C4A10
:10189C0013609B4B1B683A1D1146184603F0E2F887
:1018AC003B1D184603F084FB934801F0EBFD034607
:1018BC00944A1360934B1B68184601F001FE924842
:1018CC00FEF73EFC03461A4600218F4805F000FC4B
:1018DC001A228E498C4805F01AFC8D498A4805F06D
:1018EC00FFFB13228B498C4805F026FC8B498A4858
:1018FC0005F0F6FB8448FEF723FC03461A468249A2
:10190C00854805F019FC7948FEF71AFC03461A467F
:10191C007649814805F010FC7F48FEF711FC034620
:10192C0019467D4805F028F97048FEF709FC034676
:10193C0019466E4805F020F97748FEF701FC03467E
:10194C001A460021744805F0C3FB3B6C013B3B6419
:10195C003B6C002B3FF77EAF624B1B78052B40F2A4
:10196C009880604B1B78FC2B00F293805D4B1B78AE
:10197C00053BDAB26A4B1A705A4B1B7887F83F302A
:10198C0080E097F83F3003F2FF231B011A46654BAA
:10199C001A60FF220021574805F09AFB1022002103
:1019AC00554805F095FB5F4B1B68544A1188524A09
:1019BC00184603F0EBFE504801F0D0FC0346504AA9
:1019CC0013604F4B1B683A1D1146184603F04AF83A
:1019DC003B1D184603F0ECFA474801F053FD034653
:1019EC00484A1360474B1B68184601F069FD46488E
:1019FC00FEF7A6FB03461A460021434805F068FB98
:101A0C001A224249404805F082FB41493E4805F004
:101A1C0067FB13223F49404805F08EFB3F493E4887
:101A2C0005F05EFB3848FEF78BFB03461A46364939
:101A3C00394805F081FB2D48FEF782FB03461A4618
:101A4C002A49354805F078FB3348FEF779FB034605
:101A5C001946314805F090F82448FEF771FB03460F
:101A6C001946224805F088F82B48FEF769FB034617
:101A7C001A460021284805F02BFB97F83F30013B14
:101A8C0087F83F30264B1B7897F83F209A423FF659
:101A9C0078AF254B00221A7003F012FD4BE023485F
:101AAC00FEF74EFB03461946204805F065F80F4833
:101ABC00FEF746FB034619460C4805F05DF83AE084
:101ACC001B48FEF73DFB03461946194805F054F830
:101ADC000648FEF735FB03461946044805F04CF85A
:101AEC0029E000BF3A090020F8030020680100201B
:101AFC0044090020D4090020D40A00200E0D002037
:101B0C004809002058090020E4050020E0000020CE
:101B1C00A8090020600200208C080020D0010020C1
:101B2C005409002040090020260D0020300300201D
:101B3C001C03002000BF464B00221A604548FEF7EC
:101B4C00FFFA03461A460021424805F0C1FA424901
:101B5C00424805F01CFB0346002B00F09B813E49DC
:101B6C003E4805F02BFB3D4BBB6302E0BB6B0133E6
:101B7C00BB633B49B86B05F0F2FA0346002BF5D179
:101B8C003848FEF7DDFA03461A460021354805F0C1
:101B9C009FFA1A223449334805F0B9FAB96B314827
:101BAC0005F09EFA02F004FF0346304A13602F4BF7
:101BBC001B683A1D1146184602F054FF3B1D18468F
:101BCC0003F03AF803462A4A1360294B1B68234951
:101BDC00184601F091FA02460B462649C1E900234A
:101BEC00234B1968234BD3E90023084601F018FB5B
:101BFC0000BF214B1B78DBB2002B06D080211F4885
:101C0C0004F0B0FC0346002BF3D103F067FD102267
:101C1C0000211B4805F05CFA1A4B1B681A4A127813
:101C2C0091B21A4A184603F0B1FD00237B6336E0EB
:101C3C00164A7B6B13441B78FF2B2DD17B6B013B1E
:101C4C00124AD25C124B1A707B6B124A136029E059
:101C5C008806002004060020A48300080805002044
:101C6C00B483000890050020D40000201803002045
:101C7C000C09002020090020260D0020003800400F
:101C8C00D40A00202C0900201C090020D4090020B3
:101C9C003A0900204C0900207B6B01337B637B6B82
:101CAC00FC2BC5DDAE4B1B78FA2B2CD8FF22002168
:101CBC00AC4805F00DFAAC4B1B68AC4A127891B2EB
:101CCC00A84A184603F062FDA54B1B7803F5007378
:101CDC001B011A46A64B1A60A54B1B68A54A118816
:101CEC00A54A184603F058FA9D4B1B780133DAB21B
:101CFC009B4B1A70A14B1B68A14A127891B2984A5F
:101D0C00184603F0B1FA9D4B1B68FC2B41D1FF2206
:101D1C000021944805F0DCF9934B1B68934A127828
:101D2C0091B2904A184603F031FD944B00221A6090
:101D3C008F4B4FF400521A608D4B1B68184603F002
:101D4C00FBFA8E4B1B68184603F0F6FA844B002204
:101D5C001A708A4B1B688A4A127891B2804A1846CC
:101D6C0003F082FA824B1B68824A1188824A184619
:101D7C0003F012FA814B01221A60794B01221A707E
:101D8C007E4B1B687E4A127891B2754A184603F056
:101D9C006BFAFF220021734805F09AF9794B1B6806
:101DAC00724A127891B26F4A184603F0EFFCFF2288
:101DBC0000216C4805F08CF96D4B1B686B4A12784E
:101DCC0091B2684A184603F0E1FC6F4B00221A707E
:101DDC0003F076FB3B1D184603F0EAF8802001F077
:101DEC0015FD6A4801F0C2FDC02001F00FFD6748E7
:101DFC0001F0BCFD00224FF44871654801F0EAFE89
:101E0C006448FEF79DF9034601333B61624B1A6847
:101E1C003B69D31A604A13603B695E4A99183B6967
:101E2C00C3F181031A465B4805F038F913225B496C
:101E3C005B4805F081F95B49594805F051F9544864
:101E4C00FEF77EF903461A465149554805F074F9D8
:101E5C005548FEF775F903461A465349504805F0A4
:101E6C006BF94F48FEF76CF9034619464C4804F0E1
:101E7C0083FE4D48FEF764F9034619464A4804F0C0
:101E8C007BFE4748FEF75CF903461A46002144489E
:101E9C0005F01EF9454B1B78012B04D0434B1B78E6
:101EAC00112B40F07983424B1B684CF25032934219
:101EBC0040F0518340F2DC533E4A3F49002002F08F
:101ECC004DF803461A463D4B1A703C4B1B78002BC1
:101EDC0000F037833A4B1B78002B40F03283384BA1
:101EEC0001221A70334B1B78364AA2FB03235B0981
:101EFC00DBB23033DAB2344B1A702E4B1B78334AC8
:101F0C00A2FB0323DB08DAB2304BA3FB0213D90884
:101F1C000B469B000B445B00D31ADBB23033DAB2B6
:101F2C00294B5A70234B1A78284BA3FB0213D90860
:101F3C000B469B000B445B00D31ADBB23033DAB296
:101F4C00214B9A702248FEF7FBF8034619462048AD
:101F5C0004F012FE1F48FEF7F3F8034619463BE067
:101F6C003A090020D4090020280900201C0900206F
:101F7C00400900200E0D0020B40900204C0900205F
:101F8C003909002018090020260D0020B40000207B
:101F9C0090050020080500208C0500206002002020
:101FAC004C080020D00100206801002048080020C7
:101FBC002C07002024070020140700201207002003
:101FCC00110700201F85EB51AC010020CDCCCCCCEF
:101FDC006C010020800100203C4804F0CDFD3C4801
:101FEC00FEF7AEF803461946394804F0C5FD3948EA
:101FFC00FEF7A6F803461946364804F0BDFD3649EF
:10200C00364800F02FFF03461A46354B1A703548F8
:10201C00FEF796F803461946324804F0ADFD2E48FB
:10202C00FEF78EF8034619462B4804F0A5FD294807
:10203C00FEF786F803461946264804F09DFD2A4B08
:10204C001B781946254800F081FF0346274A136088
:10205C0002F0AEFC0346264A1360254B1B68234A4C
:10206C0012681146184601F047F900BF214B1B7846
:10207C00DBB2002B06D080211F4804F073FA034614
:10208C00002BF3D103F02AFB102200211B4805F092
:10209C001FF81B4B1B681B4A127891B21A4A184640
:1020AC0003F074FB00233B6337E0174A3B6B13448C
:1020BC001B78FF2B2ED13B6B013B134AD25C134B8D
:1020CC001A703B6B124A13602AE000BF800100209B
:1020DC00AC010020680100200C0000201407002037
:1020EC001307002098010020240700202807002057
:1020FC000C090020260D002000380040D40A0020D6
:10210C00340900201C090020D40900203A090020C1
:10211C00500900203B6B01333B633B6BFC2BC4DD54
:10212C00AE4B1B78FA2B32D8FF220021AC4804F0BE
:10213C00CFFFAC4B1B68AC4A127891B2A84A184638
:10214C0003F024FBA54B1B7803F540731B011A46C7
:10215C00A64B1A60A54B1B68A54A1188A54A1846C0
:10216C0003F01AF89D4B1B780133DAB29B4B1A70B3
:10217C00A14B1B6803F580539F4A13609E4B1B6851
:10218C009E4A127891B2954A184603F06DF89A4B14
:10219C001B68FC2B43D1FF220021914804F098FFCF
:1021AC00904B1B68904A127891B28D4A184603F0F6
:1021BC00EDFA914B4FF480521A608C4B4FF4405215
:1021CC001A608D4B1B68184603F0B6F8874B1B68DA
:1021DC00184603F0B1F8814B00221A70864B1B682D
:1021EC00864A127891B27D4A184603F03DF87F4B2F
:1021FC001B687F4A11887F4A184602F0CDFF7E4B40
:10220C0041F201021A60754B01221A707A4B1B685D
:10221C007A4A127891B2714A184603F025F8FF22D7
:10222C0000216F4804F054FF754B1B686E4A1278FE
:10223C0091B26B4A184603F0A9FAFF2200216848B4
:10224C0004F046FF694B1B68674A127891B2644AE6
:10225C00184603F09BFA6B4B00221A7003F030F90E
:10226C00694B1B685B0A694AA2FB0323DB09DBB2DF
:10227C003033DAB2664B1A70634B1B68654AA2FBAB
:10228C000323590E644BA3FB0123DA0813469B006E
:10229C0013445B00CA1AD3B23033DAB25C4B5A70B7
:1022AC00594B1B685D4AA2FB0323990D5A4BA3FBA8
:1022BC000123DA0813469B0013445B00CA1AD3B2FD
:1022CC003033DAB2524B9A704F4B1B68544AA2FB14
:1022DC000323990C504BA3FB0123DA0813469B00F4
:1022EC0013445B00CA1AD3B23033DAB2484BDA70FB
:1022FC00454B1B685B094B4AA2FB0323D909464B90
:10230C00A3FB0123DA0813469B0013445B00CA1A93
:10231C00D3B23033DAB23E4B1A713B4B1B68424A94
:10232C00A2FB0323590B3C4BA3FB0123DA081346F6
:10233C009B0013445B00CA1AD3B23033DAB2344B6D
:10234C005A71314B1B68394AA2FB03239909324B52
:10235C00A3FB0123DA0813469B0013445B00CA1A43
:10236C00D3B23033DAB22A4B9A71274B1B68304AFE
:10237C00A2FB03235909284BA3FB0123DA081346BC
:10238C009B0013445B00CA1AD3B23033DAB2204B31
:10239C00DA711D4B1B68204AA2FB0323D9081E4B84
:1023AC00A3FB0123DA0813469B0013445B00CA1AF3
:1023BC00D3B23033DAB2164B1A72134B1968164B70
:1023CC00A3FB0123DA0813469B0013445B00CA1AD3
:1023DC00D3B23033DAB20E4B5A722BE03A090020EA
:1023EC00D4090020300900201C09002044090020D9
:1023FC000E0D0020C40900205009002039090020CE
:10240C0034090020260D002028070020834B0400EF
:10241C00B0010020893BE655CDCCCCCC6BCA5F6BB0
:10242C0083DE1B43C55A7C0A5917B7D1D34D6210B2
:10243C001F85EB51A948FDF783FE03461946A748B3
:10244C0004F09AFBA648FDF77BFE03461946A44808
:10245C0004F092FBA348FDF773FE03461946A1480E
:10246C0004F08AFB802001F0D1F99F4801F07EFA3C
:10247C00C02001F0CBF99C4801F078FA9B48FDF79D
:10248C005FFE03461A460021984804F021FE1A22EA
:10249C009749964804F03BFE9149944804F020FE7D
:1024AC0000224FF44871914801F028FC02F080FAA8
:1024BC000346904A13608F4B1B683A1D1146184611
:1024CC0002F0D0FA3B1D184602F0B6FB03468A4ACE
:1024DC0013603B1D184602F06BFD13228749884898
:1024EC0004F02AFE8749864804F0FAFD7F48FDF780
:1024FC0027FE03461A467D49814804F01DFE7948A3
:10250C00FDF71EFE03461A4676497D4804F014FE7C
:10251C007B48FDF715FE03461946794804F02CFB61
:10252C007048FDF70DFE034619466E4804F024FB77
:10253C007348FDF705FE03461A460021704804F067
:10254C00C7FD714B1B78002B02D1704B00221A7007
:10255C006F4B00221A606E4B1B6801336C4A136080
:10256C0001224FF44871614801F0C8FB14E0694B3B
:10257C001B78002B06D1C02001F048F9664801F009
:10258C00F5F909E0654B1B78403BDBB2184601F0CE
:10259C003DF95C4801F0EAF9614B1B78002B1AD02D
:1025AC00604B1B78012B16D15F48FDF7C9FD034624
:1025BC001A4600215C4804F08BFD1A225B495A48EC
:1025CC0004F0A5FD00224FF44871574801F002FBBE
:1025DC00544B00221A7001224FF44871524801F0FA
:1025EC00F9FA4F4B1B78092B7EF4CFAA00F0E0FCD4
:1025FC004F48FDF7A5FD034619464D4804F0BCFABB
:10260C0004214C4804F0B8FA3648FDF799FD03460E
:10261C001946344804F0B0FA474B1978454B01225F
:10262C004648FDF7CDFE03461A46454B1A70444BFF
:10263C001B78042B00F29F8001A252F823F000BFFC
:10264C006126000883260008A5260008C726000876
:10265C00612700083B48FDF773FD034619463948CE
:10266C0004F08AFA1F48FDF76BFD034619461D4816
:10267C0004F082FA7FE03448FDF762FD0346194608
:10268C00314804F079FA1748FDF75AFD034619460C
:10269C00144804F071FA6EE02C48FDF751FD034626
:1026AC0019462A4804F068FA0E48FDF749FD03461E
:1026BC0019460C4804F060FA5DE02548FDF740FD32
:1026CC0003461946224804F057FA0648FDF738FD30
:1026DC0003461946034804F04FFA4CE0BC010020B5
:1026EC00B001002068010020B4000020C8050020C3
:1026FC00E0000020180300200C09002060020020DC
:10270C00CC080020D0010020120700201107002067
:10271C002C07002030070020200000201C07002080
:10272C003F0700204007002090050020C800002033
:10273C009801002020070020240700201407002007
:10274C00410700207802002094020020FC020020A7
:10275C00B80200201748FDF7F3FC0346194615484C
:10276C0004F00AFA1448FDF7EBFC0346194612482C
:10277C0004F002FA00BF114B00221A701048FDF74A
:10278C00DFFC03461A4600210D4804F0A1FC1A2276
:10279C000C490B4804F0BBFC00224FF4487108486C
:1027AC0001F018FAC02001F031F8074801F0DEF80A
:1027BC00FEF7EBB9D4020020680100203F0700208F
:1027CC0090050020340000206400002080B483B009
:1027DC0000AF0346FB71FB7903F01F03012202FAE1
:1027EC0003F1054A97F907305B0942F8231000BF43
:1027FC000C37BD4680BC704700E100E080B582B06C
:10280C0000AF0121042003F077FD0223BB711023DC
:10281C00FB714FF48053BB803B1D1946064803F0F7
:10282C00D7F900224FF48051034803F0A6FA00BFF9
:10283C000837BD4680BD00BF0008014080B582B09E
:10284C0000AF0121082003F057FD0223BB71482380
:10285C00FB710123BB803B1D1946034803F0B8F9FB
:10286C0000BF0837BD4680BD000C014080B500AFED
:10287C00012003F085F90346012B34D11B4B1B7847
:10288C00022B17D11A4B0022DA701A4B08225A71FC
:10289C00174803F013F9184B00221A80134B01222E
:1028AC001A7000F069F801224FF48051134803F0BC
:1028BC0064FA15E00E4B0022DA700E4B0C225A71A2
:1028CC000B4803F0FBF80C4B1A880D4B1A80074B86
:1028DC0002221A7000224FF48051084803F04DFA7E
:1028EC00012003F067F900BF80BD00BF390700204D
:1028FC00000B0020F80A00203607002000080140D9
:10290C003A07002080B584B000AF01214FF400607D
:10291C0003F0F2FC41F61F43BB800023FB804FF415
:10292C00FA733B8100237B8100233B733B1D1946CB
:10293C000F4803F033FE0F4B19221A700D4B002277
:10294C005A700C4B01229A700A4B0022DA7009481B
:10295C0003F0B4F800220121054803F0BAFE00216F
:10296C00034803F097FE00BF1037BD4680BD00BF83
:10297C00002C0140F40A002080B500AF0122012197
:10298C00054803F0A6FE0121034803F083FE19203D
:10299C00FFF71CFF00BF80BD002C014080B500AFCD
:1029AC000121874803F0B8FE0346002B00F0058197
:1029BC000121844803F0C8F90346002B2DD1824B2A
:1029CC001B78012B06D1814B00221A70804B002200
:1029DC001A80EAE07E4B1B8801339AB27C4B1A803A
:1029EC007B4B1B883C2B40F0E0807A4B1B78002BF8
:1029FC0040F0DB80774B01221A70774B01221A7062
:102A0C00764B00221A70764B00221A70754B0022FE
:102A1C001A70754B00221A80C7E06B4B1B78002B89
:102A2C0031D16A4B01221A70694B00221A806F4B0C
:102A3C0000221A80674B1B78013B072B00F2B580F4
:102A4C00664B1B780133DAB2644B1A70634B1B78FC
:102A5C000F2B02D9614B00221A70604B1B78092B8B
:102A6C0008D85E4B1B785E4A12783033D9B2604B73
:102A7C0099549AE0594B1B78594A12783733D9B28A
:102A8C005B4B995491E0594B1B8801339AB2574BCD
:102A9C001A80564B1B88B3F5167F05D14D4B00227F
:102AAC001A70524B00221A804F4B1B8801339AB27A
:102ABC004D4B1A804C4B1B880A2B08D14A4B0022D9
:102ACC001A80484B1B78DB43DAB2464B1A70404BEA
:102ADC001B8801339AB23E4B1A803D4B1B88642BEA
:102AEC0062D13C4B1B78013B072B5ED801A252F8FC
:102AFC0023F000BF212B0008352B0008492B0008C0
:102B0C005D2B0008712B0008852B0008992B000801
:102B1C00AD2B00082F4B02221A70304B00221A707A
:102B2C002F4B01221A7040E02A4B03221A702B4BB8
:102B3C0000221A702A4B02221A7036E0254B04220E
:102B4C001A70264B00221A70254B03221A702CE0A7
:102B5C00204B05221A70214B00221A70204B0422A4
:102B6C001A7022E01B4B06221A701C4B00221A70A2
:102B7C001B4B05221A7018E0164B07221A70174BC4
:102B8C0000221A70164B06221A700EE0114B082206
:102B9C001A70124B00221A70114B07221A7004E0A3
:102BAC000C4B09221A7000E000BF084B1A78064B38
:102BBC001A700121024803F0D8FD00BF80BD00BF90
:102BCC00002C0140000C0140380700203907002080
:102BDC00360700203F070020400700201B0700207D
:102BEC001C0700203007002034070020320700208B
:102BFC002000002080B400AF024B1B681846BD4675
:102C0C0080BC7047040B002080B483B000AF7860A8
:102C1C007B681B0EDAB24B4B1A707B681B0CDAB25A
:102C2C00494B1A707B681B0ADAB2484B1A707B68E6
:102C3C00DAB2474B1A70434B1B781B09DBB23033AB
:102C4C00DAB2444B1A703F4B1B7803F00F03DBB224
:102C5C003033DAB23F4B5A703B4B1B783E4AA2FBE7
:102C6C0003235B09DBB23033DAB23C4B1A70364BC0
:102C7C001B783B4AA2FB0323DB08DAB2384BA3FBDD
:102C8C000213D9080B469B000B445B00D31ADBB232
:102C9C003033DAB2314B5A702B4B1A78304BA3FBD2
:102CAC000213D9080B469B000B445B00D31ADBB212
:102CBC003033DAB2294B9A70244B1B78264AA2FB8C
:102CCC0003235B09DBB23033DAB2264B1A701F4B8D
:102CDC001B78234AA2FB0323DB08DAB2204BA3FBAD
:102CEC000213D9080B469B000B445B00D31ADBB2D2
:102CFC003033DAB21B4B5A70144B1A78184BA3FBB7
:102D0C000213D9080B469B000B445B00D31ADBB2B1
:102D1C003033DAB2134B9A700D4B1B781B09DBB2B4
:102D2C003033DAB2104B1A70094B1B7803F00F03D7
:102D3C00DBB23033DAB20C4B5A7000BF0C37BD46E5
:102D4C0080BC704742070020430700204407002046
:102D5C0045070020DC0100201F85EB51E00100201D
:102D6C00CDCCCCCCE4010020E801002080B400AF35
:102D7C00364B1B88364AA2FB03235B0B9AB2354BAE
:102D8C00A3FB0213D9080B469B000B445B00D31A20
:102D9C009BB2DBB23033DAB22F4B1A702B4B1B8841
:102DAC002E4AA2FB03239B099AB22A4BA3FB0213C4
:102DBC00D9080B469B000B445B00D31A9BB2DBB2C9
:102DCC003033DAB2244B5A70204B1B88244AA2FBB6
:102DDC0003235B099AB21F4BA3FB0213D9080B46C2
:102DEC009B000B445B00D31A9BB2DBB23033DAB2DC
:102DFC00194B9A70154B1B88164AA2FB0323DB0850
:102E0C009AB2144BA3FB0213D9080B469B000B443C
:102E1C005B00D31A9BB2DBB23033DAB20E4BDA70F2
:102E2C000A4B1A880B4BA3FB0213D9080B469B00C9
:102E3C000B445B00D31A9BB2DBB23033DAB2064BD5
:102E4C001A7100BFBD4680BC704700BF3C07002014
:102E5C005917B7D1CDCCCCCC58020020D34D621031
:102E6C001F85EB5180B485B000AF786039600023CA
:102E7C00FB730023BB7300237B7300233B73002382
:102E8C00BB735AE0BB7B7A6813441B781B097B73BA
:102E9C007B7B092B03D87B7B30337B7308E07B7BFC
:102EAC00092B05D97B7B0F2B02D87B7B37337B73AC
:102EBC00BB7B7A6813441B7803F00F033B733B7B9B
:102ECC00092B03D83B7B30333B7308E03B7B092B4E
:102EDC0005D93B7B0F2B02D83B7B37333B73FB7BFA
:102EEC003A68134430221A70FB7B0133FB73FB7B73
:102EFC003A68134478221A70FB7B0133FB73FB7B1B
:102F0C003A6813447A7B1A70FB7B0133FB73FB7BAF
:102F1C003A6813443A7B1A70FB7B0133FB73FB7BDF
:102F2C00112B07D8FB7B3A68134420221A70FB7BC9
:102F3C000133FB73BB7B0133BB73BB7B032BA1D96D
:102F4C00012318461437BD4680BC704780B485B049
:102F5C0000AF78600B46FB700023FB60FB78042B02
:102F6C0020D17B681B78FB60FB681B02FB607B68D5
:102F7C0001331B781A46FB681343FB60FB681B028A
:102F8C00FB607B6802331B781A46FB681343FB60BB
:102F9C00FB681B02FB607B6803331B781A46FB68DB
:102FAC001343FB60FB6818461437BD4680BC704762
:102FBC0080B483B000AF0023FB710023BB710023EE
:102FCC007B7100237B7155E0FB792F4AD35C2F2B4F
:102FDC000AD9FB792C4AD35C392B05D8FB792A4AC0
:102FEC00D35C303BBB710EE0FB79274AD35C402BA2
:102FFC0009D9FB79244AD35C462B04D8FB79224AA5
:10300C00D35C373BBB717B79BA791201D1B21F4AC1
:10301C00D154FB790133FB71FB791B4AD35C2F2B09
:10302C000AD9FB79184AD35C392B05D8FB79164A97
:10303C00D35C303BBB710EE0FB79134AD35C402B65
:10304C0009D9FB79104AD35C462B04D8FB790E4A7C
:10305C00D35C373BBB717B790C4AD15C7B79BA79F9
:10306C000A43D1B2094AD154FB790133FB717B7904
:10307C0001337B717B79032BA6D900BF00BF0C37C2
:10308C00BD4680BC704700BF2000002020070020F8
:10309C0080B582B000AF0121082003F02DF9012189
:1030AC004FF4804003F046F90323BB711823FB71E6
:1030BC004FF42043BB803B1D19460E4802F088FD9F
:1030CC000323BB711023FB714FF48853BB803B1D52
:1030DC001946084802F07CFD4823FB714FF48043ED
:1030EC00BB803B1D1946034802F072FD00BF083738
:1030FC00BD4680BD000C01402DE9B00387B000AF88
:10310C00786039603B683B613B681B780A2B02D1C5
:10311C003B6901333B610023FB600BE03B695A1CAC
:10312C003A6119783C4AFB6813440A461A70FB68EA
:10313C000133FB60FB680C2BF0DD0023BB605EE011
:10314C00BB68002B14D1344ABB6813441B78303B4A
:10315C00FB75FB7D1B01FB75BB6801332E4AD35CF1
:10316C00303BDBB25AB297F9173013435BB2FB75A5
:10317C00BB68002B18DDBB68052B15DCBB685B003E
:10318C00254AD35C303BFB75FB7D1B01FB75BB6893
:10319C005B000133204AD35C303BDBB25AB297F967
:1031AC00173013435BB2FB75BB68062B08D1BB68A9
:1031BC005B00194AD35C303BFB75FB7D1B01FB7537
:1031CC00164BD3E900014FF000024FF000030B0245
:1031DC0043EA106302021149C1E90023FB7D00227E
:1031EC001C4615460D4BD3E9002344EA020845EA78
:1031FC0003090A4BC3E90089BB680133BB60BB6898
:10320C00062B9DDD054BD3E90023104619461C37D0
:10321C00BD46BDE8B0037047680900206009002076
:10322C0080B485B000AFF860C7E90023FB681B0EC3
:10323C00DAB2304B1A70FB681B0CDAB22D4B5A7099
:10324C00FB681B0ADAB22B4B9A70FB68DAB2294B7B
:10325C00DA70D7E900014FF000024FF000030A0CBE
:10326C000023D2B2234B1A71D7E900014FF00002B0
:10327C004FF000030A0A0023D2B21E4B5A71D7E951
:10328C0000014FF000024FF000030A000023D2B2FD
:10329C00184B9A71D7E900014FF000024FF0000370
:1032AC00020E42EA01220B0ED2B2124BDA71D7E9AE
:1032BC0000014FF000024FF00003020C42EA014201
:1032CC000B0CD2B20B4B1A72D7E900014FF0000273
:1032DC004FF00003020A42EA01620B0AD2B2054B1C
:1032EC005A723A78034B9A7200BF1437BD4680BCB1
:1032FC00704700BFB409002080B483B000AF786081
:10330C0039607B681B0EDAB2134B1A707B681B0C8E
:10331C00DAB2114B5A707B681B0ADAB20E4B9A70F8
:10332C007B68DAB20C4BDA703B681B0EDAB20A4BD4
:10333C001A713B681B0CDAB2074B5A713B681B0ABB
:10334C00DAB2054B9A713B68DAB2034BDA7100BF03
:10335C000C37BD4680BC7047C409002080B485B0D2
:10336C0000AF78607B681B781A067B6801331B788A
:10337C001B041A437B6802331B781B0213437A68C5
:10338C00033212781343FB60FB6818461437BD46B2
:10339C0080BC704780B400AF384B1B791B09DBB283
:1033AC003033DAB2364B1A70344B1B7903F00F03FF
:1033BC00DBB23033DAB2324B5A70304B5B791B09CB
:1033CC00DBB23033DAB22E4B9A702C4B5B7903F0B4
:1033DC000F03DBB23033DAB2294BDA70274B9B790F
:1033EC001B09DBB23033DAB2254B1A71234B9B79B4
:1033FC0003F00F03DBB23033DAB2214B5A711F4B9F
:10340C00DB791B09DBB23033DAB21D4B9A711B4BE3
:10341C00DB7903F00F03DBB23033DAB2184BDA711D
:10342C00164B1B7A1B09DBB23033DAB2144B1A720F
:10343C00124B1B7A03F00F03DBB23033DAB2104BB2
:10344C005A720E4B5B7A1B09DBB23033DAB20C4B7F
:10345C009A720A4B5B7A03F00F03DBB23033DAB2A9
:10346C00074BDA72054B9B7A1B09DBB23033DAB2AD
:10347C00034B1A7300BFBD4680BC7047D40A0020B2
:10348C00E40A002080B485B000AF78607B68043318
:10349C001B781A067B6805331B781B041A437B6860
:1034AC0006331B781B0213437A68073212781343D6
:1034BC00FB60FB6818461437BD4680BC70470000A3
:1034CC0080B483B000AF78607B685B0A5A4AA2FB79
:1034DC000323DB09DBB23033DAB2584B1A707B684A
:1034EC00574AA2FB0323590E564BA3FB0123DA08C0
:1034FC0013469B0013445B00CA1AD3B23033DAB2C2
:10350C004E4B5A707B68504AA2FB0323990D4D4BCE
:10351C00A3FB0123DA0813469B0013445B00CA1A71
:10352C00D3B23033DAB2454B9A707B68474AA2FB70
:10353C000323990C434BA3FB0123DA0813469B008E
:10354C0013445B00CA1AD3B23033DAB23B4BDA7095
:10355C007B685B093E4AA2FB0323D909394BA3FBC9
:10356C000123DA0813469B0013445B00CA1AD3B23A
:10357C003033DAB2314B1A717B68364AA2FB032323
:10358C00590B304BA3FB0123DA0813469B00134461
:10359C005B00CA1AD3B23033DAB2284B5A717B684B
:1035AC002D4AA2FB03239909264BA3FB0123DA081E
:1035BC0013469B0013445B00CA1AD3B23033DAB201
:1035CC001E4B9A717B68254AA2FB032359091D4B9C
:1035DC00A3FB0123DA0813469B0013445B00CA1AB1
:1035EC00D3B23033DAB2154BDA717B68154AA2FBD1
:1035FC000323D908134BA3FB0123DA0813469B00C2
:10360C0013445B00CA1AD3B23033DAB20B4B1A72C2
:10361C0079680C4BA3FB0123DA0813469B00134477
:10362C005B00CA1AD3B23033DAB2044B5A7200BF01
:10363C000C37BD4680BC7047834B0400A8090020A2
:10364C00893BE655CDCCCCCC6BCA5F6B83DE1B4380
:10365C00C55A7C0A5917B7D1D34D62101F85EB514F
:10366C0080B400AF084B1B68002B04D0064B1B68C2
:10367C00013B054A1360054B1B680133034A136079
:10368C0000BFBD4680BC7047F0040020040B002036
:10369C0080B483B000AF7860064A7B68136000BFCB
:1036AC00044B1B68002BFBD100BF00BF0C37BD4681
:1036BC0080BC7047F004002080B586B000AF0121BB
:1036CC00082002F019FE0223BB751823FB7540235A
:1036DC00BB8207F1140319461A4802F079FA01214A
:1036EC00082002F009FE0223BB751C23FB75802306
:1036FC00BB8207F114031946124802F069FA012142
:10370C004FF4001002F016FE4FF48063FB814FF46F
:10371C0080433B824CF250337B604BF6FF737B81D2
:10372C0000233B810123BB813B1D1946064802F057
:10373C003BFB0121044802F0F9FB00BF1837BD46E2
:10374C0080BD00BF000C01400054004080B584B027
:10375C0000AF78600B46FB701346BB704FF47A7366
:10376C00FB600121786802F000FC4FF47A73FB6077
:10377C0006E0FB685A1EFA60002B01D1FF233AE0E9
:10378C001F49786802F05BFC0346002BF1D0FB78F4
:10379C0000221946786802F035FC4FF47A73FB600E
:1037AC0006E0FB685A1EFA60002B01D1FF2322E0D1
:1037BC001449786802F043FC0346002BF1D0BB7827
:1037CC001946786802F00FFC4FF47A73FB6006E040
:1037DC00FB685A1EFA60002B01D1FF230BE00A494B
:1037EC00786802F02CFC0346002BF1D0012178689C
:1037FC0002F0DAFB002318461037BD4680BD00BF2F
:10380C0001000300800007008400070080B584B02D
:10381C0000AF0346FB71FB7923F00F03FB73FB79BD
:10382C001B01BB73FB7B23F00703DBB21A464E2153
:10383C001C48FFF78BFFFB7B43F00203DBB223F04A
:10384C000503DBB21A464E211648FFF77FFFFB7BC0
:10385C0023F00703DBB21A464E211248FFF776FF1E
:10386C00BB7B23F00703DBB21A464E210D48FFF752
:10387C006DFFBB7B43F00203DBB223F00503DBB22D
:10388C001A464E210748FFF761FFBB7B23F0070365
:10389C00DBB21A464E210348FFF758FF00BF103722
:1038AC00BD4680BD0054004080B584B000AF0346D7
:1038BC00FB71FB7923F00F03FB73FB791B01BB73CB
:1038CC0097F90F3023F007035BB243F004035BB2AC
:1038DC00DBB21A464E212448FFF738FFFB7B43F03E
:1038EC000603DBB223F00103DBB21A464E211E485D
:1038FC00FFF72CFF97F90F3023F007035BB243F06F
:10390C0004035BB2DBB21A464E211748FFF71EFFC9
:10391C0097F90E3023F007035BB243F004035BB25C
:10392C00DBB21A464E211048FFF710FFBB7B43F069
:10393C000603DBB223F00103DBB21A464E210A4820
:10394C00FFF704FF97F90E3023F007035BB243F047
:10395C0004035BB2DBB21A464E210348FFF7F6FEB6
:10396C0000BF1037BD4680BD0054004090B585B0F7
:10397C0000AF78600023FB7309E0FB7B7A6813448B
:10398C001B781846FFF790FFFB7B0133FB73FC7B26
:10399C007868FCF7D5FB03469C42EED300BF00BF12
:1039AC001437BD4690BD000080B58AB000AFF860FA
:1039BC00B9607A60FFF71EF903467F4A13607F4BAC
:1039CC0000221A70002387F826307D4B00221A70D3
:1039DC007C4B00221A70002387F827301CE07848B3
:1039EC00FCF7AEFB03461A46754B134476491A4650
:1039FC000B461B8813807348FCF7A2FB03461A4640
:103A0C00704B134470491A460B461B88138097F869
:103A1C002730013387F8273097F82730062BDED96B
:103A2C00F968674803F05CFBB968664803F058FB1B
:103A3C00002387F827301CE06148FCF781FB034624
:103A4C001A465F4B134460491A460B461B88138079
:103A5C005C48FCF775FB03461A465A4B13445A490B
:103A6C001A460B461B88138097F82730013387F8CA
:103A7C00273097F82730062BDED95148FCF760FB2E
:103A8C000346DAB2514B1A704E48FCF759FB034609
:103A9C00DAB24F4B1A707AE0FFF7ACF80246464B9D
:103AAC001B68D31A7A689A4271D2FFF7A3F80346BF
:103ABC00414A1360414B1B780133DAB23F4B1A7009
:103ACC0097F82620414B1B78013B9A4229DA0023B8
:103ADC0087F8273019E0394B1B781A4697F82730AE
:103AEC0013443A4A127893FBF2F101FB02F29A1A50
:103AFC0097F8273032498A5C28333B4403F80C2C66
:103B0C0097F82730013387F8273097F82730072BA1
:103B1C00E1D98020FFF77AFE07F11C031846FFF766
:103B2C0025FF97F826202A4B1B78013B9A4229DA6D
:103B3C00002387F8273019E0204B1B781A4697F89A
:103B4C0027301344224A127893FBF2F101FB02F264
:103B5C009A1A97F827301B498A5C28333B4403F8A0
:103B6C00182C97F82730013387F8273097F827302F
:103B7C00072BE1D9C020FFF749FE07F110031846C7
:103B8C00FFF7F4FE97F82630013387F8263097F8C4
:103B9C0026200E4B1B78013B9A42FFF67DAF97F81F
:103BAC0026200B4B1B78013B9A42FFF675AF00BFEA
:103BBC0000BF2837BD4680BD080B00200C0B002031
:103BCC00100B0020880B0020B8830008FD0B002090
:103BDC00FE0B002080B588B000AFF860B9601346CA
:103BEC00FB71FB79002B3FD1FFF704F803463E4AEB
:103BFC0013603E4B00221A703D4B00221A700023BA
:103C0C00FB770EE03A48FCF79BFA03461A46384B12
:103C1C00134438491A460B461B881380FB7F01332B
:103C2C00FB77FB7F062BEDD9F968314803F058FA86
:103C3C000023FB770EE02E48FCF782FA03461A4667
:103C4C002B4B13442B491A460B461B881380FB7FC6
:103C5C000133FB77FB7F062BEDD92548FCF770FA77
:103C6C000346DAB2244B1A70FB681B78002B37D052
:103C7C00FEF7C0FF02461C4B1B68D31ABA689A4267
:103C8C002ED2FEF7B7FF0346174A1360174B1B786B
:103C9C000133DAB2154B1A700023FB7715E0134B86
:103CAC001B781A46FB7F1344134A127893FBF2F1EC
:103CBC0001FB02F29A1AFB7F0D498A5C20333B44CC
:103CCC0003F80C2CFB7F0133FB77FB7F072BE6D92A
:103CDC008020FFF79BFD07F114031846FFF746FE03
:103CEC0000BF2037BD4680BD000C0020040C002016
:103CFC00080C0020B8830008330C002080B588B075
:103D0C0000AFF860B9601346FB71FB79002B3FD113
:103D1C00FEF770FF03463E4A13603E4B00221A70BA
:103D2C003D4B00221A700023FB770EE03A48FCF75B
:103D3C0007FA03461A46384B134438491A460B46C1
:103D4C001B881380FB7F0133FB77FB7F062BEDD9A0
:103D5C00F968314803F0C4F90023FB770EE02E48D4
:103D6C00FCF7EEF903461A462B4B13442B491A4623
:103D7C000B461B881380FB7F0133FB77FB7F062BE5
:103D8C00EDD92548FCF7DCF90346DAB2244B1A705E
:103D9C00FB681B78002B37D0FEF72CFF02461C4B20
:103DAC001B68D31ABA689A422ED2FEF723FF034639
:103DBC00174A1360174B1B780133DAB2154B1A7084
:103DCC000023FB7715E0134B1B781A46FB7F13443B
:103DDC00134A127893FBF2F101FB02F29A1AFB7F61
:103DEC000D498A5C20333B4403F80C2CFB7F0133D8
:103DFC00FB77FB7F072BE6D9C020FFF707FD07F108
:103E0C0014031846FFF7B2FD00BF2037BD4680BD36
:103E1C00340C0020380C00203C0C0020B883000827
:103E2C00670C002080B582B000AFFFF745FC002383
:103E3C00FB712DE0FB79204AD35C1B01DBB21A46E7
:103E4C004E211E48FFF782FC0A20FFF721FCFB796C
:103E5C00194AD35C1B015BB243F002035BB2DBB2C9
:103E6C001A464E211548FFF771FC0A20FFF710FC8B
:103E7C00FB79114AD35C1B01DBB21A464E210F4869
:103E8C00FFF764FC0A20FFF703FCFB790133FB719D
:103E9C00FB790B2BCED98020FFF7B8FC0848FFF735
:103EAC0065FDC020FFF7B2FC0548FFF75FFD00BFC2
:103EBC000837BD4680BD00BF4004002000540040C0
:103ECC00BC83000880B483B000AF786000BF7B680F
:103EDC005A1E7A60002BFAD100BF00BF0C37BD46CA
:103EEC0080BC704780B500AF00224FF4805107486A
:103EFC0001F043FF0A20FFF7CBFB01224FF4805166
:103F0C00024801F03AFF0123184680BD000C014025
:103F1C0080B582B000AF0346FB710F4B32221A7092
:103F2C000D4B05225A700C4BFF229A700A4B012242
:103F3C00DA70094AFB7913714FF47A72052106483D
:103F4C0000F000F90346002B01D1002300E001230F
:103F5C0018460837BD4680BD800C002080B584B063
:103F6C0000AFB9607A601A460346FB731346BB81F7
:103F7C000F4B4A221A700E4B01225A700C4AFB7BD3
:103F8C009370BB891A460321094800F0DBF80346FD
:103F9C00002B01D1002307E01420FFF779FB79688F
:103FAC00B86800F007F8034618461037BD4680BDC8
:103FBC00800C002080B584B000AF7860396000229E
:103FCC001321194800F0C6F9174BDB79012B01D0EE
:103FDC00002324E0144B5B7ABB81BB891B02BB81A1
:103FEC00114B9B7A9AB2BB891343BB810E4B1A7B44
:103FFC003B681A700023FB730BE0FB7B03F10D0293
:10400C00FB7B79680B4408498A5C1A70FB7B013393
:10401C00FB73054B1B7BFA7B9A42EED301231846AC
:10402C001037BD4680BD00BFC00C002080B500AF6E
:10403C00124B14221A70114B01225A700F4B14227E
:10404C009A700E4B0022DA704FF4FA7204210B486E
:10405C0000F078F80346002B01D100230BE0FF227F
:10406C000921074800F076F9054B9B79152B0CBFFD
:10407C0001230023DBB2184680BD00BF800C00205A
:10408C00C00C002080B584B000AF2B4A3B4692E8B0
:10409C000300186004331980284B02221A704FF465
:1040AC00FA720121254800F04DF80346002B01D18E
:1040BC0000233CE0FF220D21214800F04BF93B4648
:1040CC00062219461E4802F0CBFF0346002B01D0F6
:1040DC0000232CE00723FB60FB685A1CFA60184A8B
:1040EC00D35CBB60BB681B02BB60FB685A1CFA60EC
:1040FC00134AD35C1A46BB681343BB60BB681B02F4
:10410C00BB60FB685A1CFA600D4AD35C1A46BB684C
:10411C001343BB60BB681B02BB60FB685A1CFA6094
:10412C00074AD35C1A46BB681343BB60BB6818468E
:10413C001037BD4680BD00BFD0830008800C002026
:10414C00C00C002080B582B000AF78600B46FB70CD
:10415C0013463B80FB781946786800F01BF83B88C7
:10416C00184600F091FA0346002B01D100230DE014
:10417C006420FFF7A7FE00F05FF90346002B01D186
:10418C00002303E06420FFF79DFE01231846083747
:10419C00BD4680BD2DE9F04389B000AF78600B4679
:1041AC00FB706B461E46FB7803F108014B1E3B610E
:1041BC000A460023904699464FF000024FF0000348
:1041CC004FEAC90343EA58734FEAC8020A46002370
:1041DC0014461D464FF000024FF00003EB0043EA7B
:1041EC005473E2000B460733DB08DB00ADEB030D29
:1041FC006B460033FB60FB68BB61FB780133FB70E3
:10420C00BB6901221A70BB690133BB61BB69002217
:10421C001A70BB690133BB61BB6900221A70BB69A0
:10422C000133BB61BB69FF221A70BB690133BB61EF
:10423C00FF23FB75BB69FA781A70BB690133BB614C
:10424C00FB785B42DAB2BB691A70BB690133BB61A4
:10425C00BB69D4221A70BB690133BB61FB7D2C3B5B
:10426C00FB750023FB7712E0FB7F7A6813441A7806
:10427C00BB691A70BB690133BB61FB7F7A6813445D
:10428C001A78FB7D1344FB75FB7F0133FB77FA7FB8
:10429C00FB78013B9A42E7DBFB7DDB43DAB2BB697F
:1042AC001A70BB690133BB61BB6900221A70BB6910
:1042BC000133BB61FB7808331946F86800F006F847
:1042CC00B54600BF2437BD46BDE8F08380B584B049
:1042DC0000AF7860396000BF02211C4802F042F93F
:1042EC000346002BF8D000224FF48051184801F0FF
:1042FC0044FD0220FFF7CCF90023FB6017E07A683D
:10430C00FB6813441B789BB21946104802F0D2F894
:10431C004FF4C870FFF7D6FD00BF02210B4802F026
:10432C0021F90346002BF8D0FB680133FB60FA68D7
:10433C003B689A42E3D301224FF48051044801F0C8
:10434C001CFD00BF1037BD4680BD00BF00380040CB
:10435C00000C014080B584B000AF78600B46FB7058
:10436C0013463B8000224FF48051314801F005FD8B
:10437C000220FFF78DF900BF02212E4802F0F2F85F
:10438C000346002BF8D003212A4802F093F800BF13
:10439C000221284802F0E6F80346002BF8D000BFB3
:1043AC000121244802F0DEF80346002BF8D0214806
:1043BC0002F08EF80346BB730023FB7329E04FF425
:1043CC00C870FFF77FFD3B8819461A4802F072F857
:1043DC004FF4C870FFF776FD00BF0221154802F0BC
:1043EC00C1F80346002BF8D000BF0121114802F0A0
:1043FC00B9F80346002BF8D00E4802F069F80346D2
:10440C001946FB7B7A681344CAB21A70FB7B0133E2
:10441C00FB73FA7BFB789A42D1D301224FF4805183
:10442C00034801F0AAFC00BF1037BD4680BD00BF99
:10443C00000C01400038004080B584B000AF3F4A0A
:10444C0007F1080392E80300186004331980002276
:10445C004FF480513A4801F090FC0220FFF718F914
:10446C0000BF0221374802F07DF80346002BF8D03C
:10447C000321344802F01EF800BF0221314802F03B
:10448C0071F80346002BF8D000BF01212D4802F033
:10449C0069F80346002BF8D02A4802F019F80346B5
:1044AC00BB730023FB732FE06420FFF70BFD00BFF1
:1044BC000221244802F056F80346002BF8D00021C4
:1044CC00204801F0F7FF6420FFF7FCFC00BF02213D
:1044DC001C4802F047F80346002BF8D000BF01211E
:1044EC00184802F03FF80346002BF8D0154801F0AD
:1044FC00EFFF03461A46FB7BD2B210333B4403F862
:10450C00102CFB7B0133FB73FB7B052BCCD90122DD
:10451C004FF480510A4801F030FC07F108013B468A
:10452C000622184602F09CFD0346002B0CBF01230B
:10453C000023DBB218461037BD4680BDD883000877
:10454C00000C01400038004080B582B000AF00BFC5
:10455C000221494802F006F80346002BF8D000BFB0
:10456C000121454801F0FEFF0346002BF8D04248DC
:10457C0001F0AEFF03461946404B1B781A46C9B2F0
:10458C003F4B99543D4B1B780133DAB23B4B1A70BD
:10459C0000224FF480513B4801F0EFFB0220FFF763
:1045AC0077F80221344801F085FF00BF0221324820
:1045BC0001F0D8FF0346002BF8D000BF01212E4894
:1045CC0001F0D0FF0346002BF8D02B4801F080FF00
:1045DC0003461946294B1B781A46C9B2284B9954E5
:1045EC00264B1B780133DAB2244B1A704FF4C87087
:1045FC00FFF768FC00BF02211F4801F0B3FF034620
:10460C00002BF8D0FF211C4801F054FF4FF4C87068
:10461C00FFF758FC00BF0221174801F0A3FF034627
:10462C00002BF8D000BF0121134801F09BFF03467B
:10463C00002BF8D0104801F04BFF0346FB71012210
:10464C004FF480510F4801F098FB0C4B1B78194626
:10465C000B4AFB795354094B1B780133DAB2074BE5
:10466C001A70FB79012B0CBF01230023DBB2184617
:10467C000837BD4680BD00BF003800407C0C0020D0
:10468C00680C0020000C014080B584B000AF0346DC
:10469C00FB800023FB810520FEF7FAFFFB89053325
:1046AC00FB810EE0FB88002B08D0FB890533FB81D6
:1046BC00FA89FB889A4201D9002308E00520FEF70D
:1046CC00E7FFFFF741FF0346002BEBD00123184611
:1046DC001037BD4680BD000080B586B000AFF860D5
:1046EC007A601A460B46FB721346BB722F4B3A6A22
:1046FC001068186092889A80FB7A1A46F9682C48E0
:10470C0002F0BEFC97F90B202A4B1A702A4B402260
:10471C001A70294B01225A70BB7A002B01D06122EE
:10472C0000E06022244B9A707B68DAB2224BDA707C
:10473C00224B1E4A1068186092889A800023FB75E1
:10474C000AE0FB7D1A4AD256FB7D0A33D1B21A4AD3
:10475C00D154FB7D0133FB75FB7D164A92F9002089
:10476C009342EEDB134B93F90030DBB20A33DBB22E
:10477C00642219461048FFF7E5FC0346002B01D1D3
:10478C0000230EE00A20FEF783FFFF220C210C48C9
:10479C00FFF7E0FD0A4BDB79002B01D0002300E092
:1047AC00012318461837BD4680BD00BF080D0020F8
:1047BC00000D0020070D0020800C0020840C002030
:1047CC00C00C002080B582B000AF03463960FB718D
:1047DC00174B40221A70164B01225A70144B302280
:1047EC009A70134AFB79D370642204211048FFF7A6
:1047FC00A9FC0346002B01D1002314E00A20FEF78C
:10480C0047FFFF221A210B48FFF7A4FD094BDB7968
:10481C00002B01D0002306E0074B10221946386804
:10482C0002F02EFC012318460837BD4680BD00BFA0
:10483C00800C0020C00C0020C80C002080B582B079
:10484C0000AF03463960FB71154B40221A70144BB4
:10485C0001225A70124BA0229A70114AFB79D37024
:10486C00104B10223968184602F00AFC64221421FD
:10487C000B48FFF767FC0346002B01D100230BE02C
:10488C000A20FEF705FF0A20FEF702FFFF221A217D
:10489C000548FFF75FFD012318460837BD4680BD6C
:1048AC00800C0020840C0020C00C002080B400AFD1
:1048BC003B4B1B6A03F40043B3F5004F6CD0384BF1
:1048CC00DB69374A43F0C053D361364B1B68354A1A
:1048DC0043F480731360324B1B6A314A43F48033C8
:1048EC0013622F4B1B6A2E4A23F4803313622C4B1A
:1048FC001B6A2B4A43F401431362294B1B6A284A57
:10490C0043F00103136200BF254B1B6A03F0010344
:10491C00012BF9D1244B9B8D9BB2234A43F003030B
:10492C009BB2938500BF214B9B889BB203F0200365
:10493C00002BF8D01D4B9B889BB21C4A43F01003F4
:10494C009BB29380194B47F6FF729A81174B9B8849
:10495C009BB2164A23F010039BB2938000BF134BFB
:10496C009B889BB203F02003002BF8D00F4B9B8845
:10497C009BB20E4A23F010039BB2938000BF0B4BEB
:10498C009B889BB203F00803082BF8D1054B1B68DE
:10499C00044A23F48073136000BFBD4680BC70478B
:1049AC000010024000700040006C004000280040E5
:1049BC0080B400AF054B1B8B9BB21B04034A928B3C
:1049CC0092B213431846BD4680BC70470028004085
:1049DC0080B483B000AF78601F4BDB691E4A43F094
:1049EC00C053D3611D4B1B681C4A43F48073136086
:1049FC0000BF1B4B9B889BB203F02003002BF8D00D
:104A0C00174B9B889BB2164A43F010039BB29380C2
:104A1C007B681A0C124B92B21A83114B7A6892B2C1
:104A2C009A830F4B9B889BB20D4A23F010039BB2C9
:104A3C00938000BF0A4B9B889BB203F02003002B92
:104A4C00F8D0064B1B68054A23F48073136000BF33
:104A5C000C37BD4680BC704700100240007000400F
:104A6C000028004080B487B000AF786039607B6864
:104A7C00654AA2FB0312120C644901FB02F29B1A59
:104A8C007B617B6803F52843C0335F4AA2FB032399
:104A9C00DA0B5F4B13443B613B695B083B613A6942
:104AAC005C4BA3FB0213D11A49080B4499080B4623
:104ABC00DB005B1AD11ACAB23B685A723B6903F528
:104ACC00FA432C333B613B699B000333524AA2FBF4
:104ADC000323DB0BFB73FB7B504A02FB03F3002B22
:104AEC0000DA03339B101A463B699B1A3B613B6906
:104AFC009B0003334A4AA2FB0323DB09BB73BB7B3A
:104B0C0040F2B55202FB03F3002B00DA03339B1087
:104B1C001A463B699B1A3B613A6913469B00134446
:104B2C000233404AA2FB0323DB097B733B69D9B2F6
:104B3C007A7B1346DB0013441A01134402333A4ABE
:104B4C0082FB03025210DB17D31ADBB2CB1ADBB297
:104B5C000133DAB23B685A717B7B344AA2FB0323E4
:104B6C00DB08DBB21A469B00D31A9B00DAB27B7BC4
:104B7C001344DBB20333DAB23B681A71FB7B642259
:104B8C0003FB02F2BB7B1344A3F596537A7B2749B4
:104B9C00A1FB0212D208D2B21A443B681A607B699C
:104BAC00234AA2FB0323DB0ADAB23B689A717A69C7
:104BBC001F4BA3FB0213DB0A4FF4616101FB03F3F0
:104BCC00D31A1C4AA2FB03235B09DAB23B68DA71E5
:104BDC007B69174AA2FB0312D20A4FF4616101FBF5
:104BEC0002F29A1A134BA3FB021359090B461B0131
:104BFC005B1A9B00D11ACAB23B681A7200BF1C37F1
:104C0C00BD4680BC704700BF07452EC280510100D5
:104C1C00177B4A0025499224BD066B39B13A020034
:104C2C0073B06D16D7802BD667666666CDCCCCCCB0
:104C3C00C5B3A2918988888880B489B000AF7860A8
:104C4C007B681B79C3F10E03354A82FB03125210A9
:104C5C00DB17D31AFB777B681B6803F59652FB7F37
:104C6C00D31ABB617B681A79FB7F194649000B4448
:104C7C009B00DBB21344DBB2033BFB757B685B79B7
:104C8C001946FA7D1346DB0013441A011344023310
:104C9C00244A82FB03025210DB17D31ACA18BB69D1
:104CAC0040F26D1101FB03F31A44BB69002B00DACF
:104CBC0003339B101A44BB691B4981FB0301491147
:104CCC00DB175B1A1A44BB69174981FB0301C91135
:104CDC00DB17CB1A1A44154B13443B613B69144A3E
:104CEC0002FB03F3FB607B681B7A19467B68DB795C
:104CFC001A4613461B019B1A9B00CA187B689B79AA
:104D0C0019464FF4616301FB03F313441A46FB6825
:104D1C001344FB60FB6818462437BD4680BC7047C3
:104D2C00ABAAAA2A676666661F85EB514745DAFF70
:104D3C008051010080B596B000AF786039600023D7
:104D4C0087F84F303B683B653B6D01333B653B6DF2
:104D5C0001333B653B6D01333B653B6D01333B657B
:104D6C003B6D01333B6500237B650CE03B6D5A1CAE
:104D7C003A65197807F10C027B6D13440A461A70D8
:104D8C007B6D01337B657B6D032BEFDD07F10C0332
:104D9C00184602F037F902467B681A607B681B687C
:104DAC00002B05D07B681B6840F2BB72934205DC7C
:104DBC00012387F84F3097F84F30F4E03B6D013307
:104DCC003B6507F10C031846FBF7BAF9024607F1ED
:104DDC000C030021184602F07BF900237B650CE0E4
:104DEC003B6D5A1C3A65197807F10C027B6D134424
:104DFC000A461A707B6D01337B657B6D012BEFDDF1
:104E0C0007F10C03184602F0FDF80346DAB27B6892
:104E1C001A717B681B79002B03D07B681B790C2BD8
:104E2C0005D9022387F84F3097F84F30BBE03B6D24
:104E3C0001333B6507F10C031846FBF781F9024679
:104E4C0007F10C030021184602F042F900237B65A0
:104E5C000CE03B6D5A1C3A65197807F10C027B6D1E
:104E6C0013440A461A707B6D01337B657B6D012BF5
:104E7C00EFDD07F10C03184602F0C4F80346DAB272
:104E8C007B685A717B685B79002B03D07B685B79FC
:104E9C001F2B05D9032387F84F3097F84F3082E04A
:104EAC003B6D01333B6507F10C031846FBF748F9E2
:104EBC00024607F10C030021184602F009F9002301
:104ECC007B650CE03B6D5A1C3A65197807F10C02B6
:104EDC007B6D13440A461A707B6D01337B657B6DC9
:104EEC00012BEFDD07F10C03184602F08BF803469B
:104EFC00DAB27B689A713B6D01333B6507F10C03A9
:104F0C001846FBF71DF9024607F10C030021184661
:104F1C0002F0DEF800237B650CE03B6D5A1C3A6511
:104F2C00197807F10C027B6D13440A461A707B6DDD
:104F3C0001337B657B6D012BEFDD07F10C0318460C
:104F4C0002F060F80346DAB27B68DA713B6D01332C
:104F5C003B6507F10C031846FBF7F2F8024607F124
:104F6C000C030021184602F0B3F800237B650CE01B
:104F7C003B6D5A1C3A65197807F10C027B6D134492
:104F8C000A461A707B6D01337B657B6D012BEFDD5F
:104F9C0007F10C03184602F035F80346DAB27B68C9
:104FAC001A7297F84F3018465837BD4680BD00002E
:104FBC0080B483B000AF78607B681B68714A82FB59
:104FCC0003129211DB17D21A6F4B83FB0213991049
:104FDC00D317C91A0B469B000B445B00D11ACBB2FA
:104FEC003033DAB2694B1A707B681B68684A82FBF3
:104FFC0003125211DB17D21A634B83FB0213991065
:10500C00D317C91A0B469B000B445B00D11ACBB2C9
:10501C003033DAB25D4B5A707B681B685A4A82FB9C
:10502C0003129210DB17D21A574B83FB0213991001
:10503C00D317C91A0B469B000B445B00D11ACBB299
:10504C003033DAB2514B9A707B681A684E4B83FB43
:10505C0002139910D317C91A0B469B000B445B0023
:10506C00D11ACBB23033DAB2484BDA707B681B7989
:10507C00484AA2FB0323DB08DBB23033DAB2434BE2
:10508C005A717B681A79434BA3FB0213D9080B4660
:10509C009B000B445B00D31ADBB23033DAB23B4BD0
:1050AC009A717B685B793B4AA2FB0323DB08DBB27A
:1050BC003033DAB2354B1A727B685A79354BA3FB15
:1050CC000213D9080B469B000B445B00D31ADBB2CE
:1050DC003033DAB22D4B5A727B689B792D4AA2FB86
:1050EC000323DB08DBB23033DAB2284BDA727B688D
:1050FC009A79284BA3FB0213D9080B469B000B444F
:10510C005B00D31ADBB23033DAB2204B1A737B68F4
:10511C00DB79204AA2FB0323DB08DBB23033DAB2A3
:10512C001A4B9A737B68DA791A4BA3FB0213D908D2
:10513C000B469B000B445B00D31ADBB23033DAB264
:10514C00124BDA737B681B7A124AA2FB0323DB082F
:10515C00DBB23033DAB20D4B5A747B681A7A0D4BD2
:10516C00A3FB0213D9080B469B000B445B00D31A1C
:10517C00DBB23033DAB2054B9A7400BF0C37BD4644
:10518C0080BC7047D34D6210676666666002002073
:10519C001F85EB51CDCCCCCC80B584B000AFF86082
:1051AC000B467A607B8100F0D9FB03461A462A4BEA
:1051BC001A70052000F0A0FB03469AB2274B1A8008
:1051CC00352000F099FB03469AB2254B1A80234BED
:1051DC001B88022B27D000F0EDFB03461A46214B0F
:1051EC001A70052000F088FB03469AB21B4B1A80FC
:1051FC00352000F081FB03469AB2194B1A8000F05F
:10520C00ADFB03461A46144B1A70052000F074FBD4
:10521C0003469AB2114B1A80352000F06DFB034601
:10522C009AB20F4B1A807B897A681946F86800F09D
:10523C0005FB052000F060FB03469AB2074B1A8071
:10524C00064B1B8803F00103002BF2D100BF00BFFB
:10525C001037BD4680BD00BF140D0020100D00207E
:10526C00120D0020150D002080B584B000AFF86041
:10527C000B467A607B8100F071FB03461A462A4B81
:10528C001A70052000F038FB03469AB2274B1A809F
:10529C00352000F031FB03469AB2254B1A80234B84
:1052AC001B88022B27D000F085FB03461A46214BA6
:1052BC001A70052000F020FB03469AB21B4B1A8093
:1052CC00352000F019FB03469AB2194B1A8000F0F6
:1052DC0045FB03461A46144B1A70052000F00CFBD4
:1052EC0003469AB2114B1A80352000F005FB034699
:1052FC009AB20F4B1A807B897A681946F86800F0CD
:10530C009DFA052000F0F8FA03469AB2074B1A8072
:10531C00064B1B8803F00103002BF2D100BF00BF2A
:10532C001037BD4680BD00BF140D0020100D0020AD
:10533C00120D0020150D002080B582B000AF7860F2
:10534C0000F00CFB03461A462A4B1A70052000F09D
:10535C00D3FA03469AB2284B1A80352000F0CCFAC7
:10536C0003469AB2254B1A80234B1B88022B27D05D
:10537C0000F020FB03461A46214B1A70052000F062
:10538C00BBFA03469AB21C4B1A80352000F0B4FAD3
:10539C0003469AB2194B1A8000F0E0FA03461A46FB
:1053AC00144B1A70052000F0A7FA03469AB2124B60
:1053BC001A80352000F0A0FA03469AB20F4B1A80DF
:1053CC00786800F027FB03461A460E4B1A7005202E
:1053DC0000F092FA03469AB2074B1A80064B1B88D0
:1053EC0003F00103002BF2D100BF00BF0837BD460C
:1053FC0080BD00BF140D0020100D0020120D0020E8
:10540C00150D00201409002080B483B000AF0346B2
:10541C00FB71FB7903F01F03012202FA03F1054A29
:10542C0097F907305B0942F8231000BF0C37BD46D3
:10543C0080BC704700E100E080B483B000AF03464D
:10544C00FB71FB7903F01F03012202FA03F1064AF8
:10545C0097F907305B09203342F8231000BF0C3753
:10546C00BD4680BC704700BF00E100E080B483B053
:10547C0000AF03463960FB7197F90730002B0BDA4C
:10548C003B68DAB20C49FB7903F00F03043B1201C1
:10549C00D2B20B441A7609E03B68DAB2074997F9A5
:1054AC0007301201D2B20B4483F8002300BF0C3733
:1054BC00BD4680BC704700BF00ED00E000E100E09D
:1054CC0080B586B000AF204B01221A7000211F4816
:1054DC0000F0A1FF2420FFF7AFFF0023BB804FF4A7
:1054EC008273FB8000233B8100237B810023BB81E3
:1054FC000023FB8138233B8280237B820723BB82E2
:10550C003B1D1946114800F043FF002260210F4853
:10551C0000F0A0FF00210D4801F005F801224FF426
:10552C0080510B4800F029FC0121084800F0DCFFF9
:10553C000121064800F06FFF034B00221A7000BFD8
:10554C001837BD4680BD00BF260D00200038004036
:10555C00000C014080B485B000AFF860B960134610
:10556C00FB80164B01221A70154AFB681360154A12
:10557C00BB681360144B00221A80144B01221A8052
:10558C00134AFB88138000BF124B1B899BB203F09C
:10559C000203002BF8D00A4B1B68002B05D0084BDC
:1055AC001B680D4A1B78137002E00B4BFF221A701C
:1055BC0000BF1437BD4680BC704700BF260D0020CD
:1055CC00180D00201C0D0020200D0020220D0020A5
:1055DC00240D0020003800400C38004080B586B007
:1055EC0000AFF860B9607A60FB700023FB751AE0BD
:1055FC00FB7D9B00FA6813441868FB7D9B00BA681E
:10560C0013441968FB7D5B007A6813441B881A46A7
:10561C00FFF7A0FF00BF084B1B78DBB2002BFAD1C1
:10562C00FB7D0133FB75FA7DFB789A42E0D300BF1A
:10563C0000BF1837BD4680BD260D002080B483B056
:10564C0000AF1F4B1B78FB711E4B1B68002B07D048
:10565C001C4B1B681C4A12881344FA79D2B21A707C
:10566C001A4B1A881A4B1B889A4215D2194B1B6875
:10567C00002B08D0174B1B68144A12881344104A8D
:10568C001B78137002E00E4BFF221A700F4B1B8815
:10569C0001339AB20D4B1A800B4B1B8801339AB213
:1056AC00094B1A80084B1A88094B1B889A4202D363
:1056BC00094B00221A7000BF0C37BD4680BC7047E6
:1056CC000C3800401C0D0020200D0020220D002065
:1056DC00240D0020180D0020260D002080B586B06A
:1056EC0000AF01224FF48071254800F046FB0122E7
:1056FC004FF48051224800F040FB0021214800F07B
:10570C008AFE0023BB804FF48273FB8000233B8115
:10571C0000237B810023BB814FF40073FB81382372
:10572C003B8200237B820723BB823B1D1946154815
:10573C0000F02EFE0021134800F0F5FE01224FF47C
:10574C0080510F4800F019FB01210E4800F0CCFEEF
:10575C00012260210B4800F07DFE03212420FFF77D
:10576C0085FE2420FFF750FE0121064800F053FE71
:10577C00054B00221A7000BF1837BD4680BD00BF14
:10578C00000C014000380040260D002080B584B08C
:10579C0000AFF8600B467A607B8101224FF4807178
:1057AC00204800F0EAFA204B03221A70FB681B0C0D
:1057BC00DAB21D4B5A70FB681B0ADAB21A4B9A709C
:1057CC00FB68DAB2184BDA70184B174A1A60184B90
:1057DC0000221A60174B04221A80144B00225A60C4
:1057EC00134A7B685360134A7B89538000224FF421
:1057FC0080710C4800F0C1FA02230E4A0C490B4888
:10580C00FFF7ECFE00BF0C4B1B78DBB2002BFAD180
:10581C0001224FF48071034800F0AFFA00BF10373B
:10582C00BD4680BD000C01403C0D0020280D002021
:10583C00300D0020380D0020260D002080B586B0DC
:10584C0000AFF8600B467A607B810A23FB7501225E
:10585C004FF48071224800F090FA224B02221A7009
:10586C00FB681B0CDAB21F4B5A70FB681B0ADAB2CE
:10587C001C4B9A70FB68DAB21A4BDA701A4B194A45
:10588C001A601A4B00221A60194B04221A80164A0D
:10589C007B685360154B00225A60154A7B895380F4
:1058AC0000224FF480710E4800F067FA0223104A70
:1058BC000E490D48FFF792FE00BF0E4B1B78DBB272
:1058CC00002BFAD101224FF48071054800F055FAF3
:1058DC000023FB75FB7D18461837BD4680BD00BF05
:1058EC00000C01403C0D0020280D0020300D002044
:1058FC00380D0020260D002080B584B000AF034683
:10590C00FB71124AFB791370104BFF225A70002264
:10591C004FF480710E4800F030FA02220D490B480A
:10592C00FFF718FE00BF0C4B1B78DBB2002BFAD133
:10593C0001224FF48071064800F01FFA054B5B788A
:10594C00FB73FB7B18461037BD4680BD440D002011
:10595C00000C0140640D0020260D002080B582B0A3
:10596C0000AF0A23FB71104B06221A7000224FF471
:10597C0080710E4800F001FA012200210A48FFF75D
:10598C00E9FD00BF0A4B1B78DBB2002BFAD10122D8
:10599C004FF48071054800F0F0F90023FB71FB799E
:1059AC0018460837BD4680BD3C0D0020000C014058
:1059BC00260D002080B582B000AF0A23FB71124B7C
:1059CC0001221A70104B00225A7000224FF4807181
:1059DC000E4800F0D2F9022200210B48FFF7BAFD65
:1059EC0000BF0B4B1B78DBB2002BFAD101224FF41A
:1059FC008071064800F0C1F90023FB71FB79184651
:105A0C000837BD4680BD00BF3C0D0020000C014096
:105A1C00260D002080B584B000AF78600A23FB739C
:105A2C0001224FF48071194800F0A7F9184B20227D
:105A3C001A707B681B0CDAB2154B5A707B681B0A08
:105A4C00DAB2134B9A707B68DAB2114BDA7000221F
:105A5C004FF480710D4800F090F9042200210C489D
:105A6C00FFF778FD00BF0B4B1B78DBB2002BFAD194
:105A7C0001224FF48071054800F07FF90023FB737D
:105A8C00FB7B18461037BD4680BD00BF000C0140A3
:105A9C003C0D0020260D002080B483B000AF786050
:105AAC00054A7B6843F0BF6343F40033D36000BF07
:105ABC000C37BD4680BC704700ED00E080B487B069
:105ACC0000AF786000237B6100233B610F23FB60F8
