:020000040800F2
:10000000005000201162000859620008596200087F
:100010005962000859620008596200080000000097
:10002000000000000000000000000000596200080D
:10003000596200080000000059620008612F0008A2
:1000400059620008596200085962000859620008A4
:100050005962000859620008A92300085962000883
:100060005962000859620008596200085962000884
:100070005962000859620008596200085962000874
:100080005962000859620008596200085962000864
:100090005962000859620008596200085962000854
:1000A00059620008D9240008596200085962000802
:1000B0005962000859620008596200085962000834
:1000C0005962000859620008596200085962000824
:1000D000D14D00085D640008C5650008596200083C
:1000E00059620008596200085962000800000000C7
:1000F0000000000000000000000000000000000000
:0C01000000000000000000005FF808F1A3
:10010C0010B5054C237833B9044B13B10448AFF345
:10011C0000800123237010BD80040020000000002B
:10012C00147B000808B5034B1BB103490348AFF31C
:10013C00008008BD0000000084040020147B00082F
:10014C00034613F8012B002AFBD1181A013870470B
:10015C0080B500AF00F002F800BF80BD80B500AFE5
:10016C0000F002F800BF80BD80B483B000AF002364
:10017C007B6000233B603A4B1B68394A43F4803365
:10018C001360374B1B6803F400333B607B6801330F
:10019C007B603B68002B03D17B68B3F5A06FF0D17B
:1001AC002F4B1B6803F40033002B02D001233B6060
:1001BC0001E000233B603B68012B4BD1294B1B68B2
:1001CC00284A43F010031360264B1B68254A23F082
:1001DC0003031360234B1B68224A43F00203136092
:1001EC001F4B1F4A5B6853601D4B1D4A5B68536075
:1001FC001B4B5B681A4A43F480635360184B5B6873
:10020C00174A23F47C135360154B5B68144A43F470
:10021C00E8135360124B1B68114A43F08073136050
:10022C0000BF0F4B1B6803F00073002BF9D00C4B75
:10023C005B680B4A23F003035360094B5B68084A65
:10024C0043F00203536000BF054B5B6803F00C03E3
:10025C00082BF9D100BF0C37BD4680BC704700BFDE
:10026C00001002400020024080B483B000AF03466F
:10027C003960FB7197F90730002B0BDA3B68DAB267
:10028C000C49FB7903F00F03043B1201D2B20B446F
:10029C001A7609E03B68DAB2074997F90730120180
:1002AC00D2B20B4483F8002300BF0C37BD4680BC90
:1002BC00704700BF00ED00E000E100E080B582B0C7
:1002CC0000AF78607B68B3F1807F01D3012311E02C
:1002DC007B6823F07F43094A013B53600F214FF0A9
:1002EC00FF30FFF7C1FF054B00229A60034B07223A
:1002FC001A60002318460837BD4680BD10E000E0A8
:10030C0080B500AF1249134806F0BDFA12491148E6
:10031C0006F0AAFA11490F4806F0A6FA10490D4842
:10032C0006F0A2FA0F490B4806F09EFA0E4909484E
:10033C0006F09AFA0949074806F096FA0B4905485F
:10034C0006F092FA0A49034806F08EFA00BF80BD07
:10035C00EC010020C8060020DC010020D0010020A8
:10036C00FC010020E0010020E40100200C02002030
:10037C00E801002080B582B000AF0D490D4806F0B1
:10038C00E1FA786079680C4806F07DFA0B490A4866
:10039C0006F06AFA0649002006F0D4FA786079680B
:1003AC00054806F061FA00BF0837BD4680BD00BFA6
:1003BC002C7B0008940C002048070020D001002062
:1003CC0080B592B002AFF8607B600B46FB721346AF
:1003DC00BB72514A07F1340392E8030018600433EE
:1003EC001980002387F83E304C4A07F1200312682D
:1003FC00114619800233120C1A70102387F83D3005
:10040C00002387F83F30F97A07F134030093012376
:10041C000022F86803F0DAFD0346002B05D1012316
:10042C0087F83C3097F83C3072E007F1100319461E
:10043C00012003F041FE034687F83C3007F110031E
:10044C001946012003F038FE0346002B05D1022388
:10045C0087F83C3097F83C305AE0002387F83F305F
:10046C000FE097F83F307A681A4497F83F301278CB
:10047C0040333B4403F8302C97F83F30013387F876
:10048C003F3097F83F30032BEBD907F11003194697
:10049C00012003F04DFE0346002B05D1032387F802
:1004AC003C3097F83C3033E007F1240307F1340279
:1004BC0092E8030018600433198007F12403063313
:1004CC001A4607F1200319889B78118093706923D1
:1004DC0087F82D3007F124030A331A4607F1340349
:1004EC00186810609B88938007F124031946032039
:1004FC0003F01EFE0346002B05D1042387F83C3085
:10050C0097F83C3004E0002387F83C3097F83C30F7
:10051C0018464037BD4680BD307B0008387B00084C
:10052C0080B592B000AFB94B00221A7203F08AFE6C
:10053C00002005F0C3F94FF4803005F073F9012069
:10054C0005F0DAFA4FF4E0114FF4803005F098F929
:10055C00022005F0C3F90023FB62AD4B5B68FB6224
:10056C00AB4AFB6A23F470635360A94AFB6A43F4F9
:10057C00A0635360A64B5B68A54A43F480035360A9
:10058C00012005F09BF9A34805F0C4F9A14B5B6869
:10059C00A14AA2FB03239B091846FFF78FFE9F4B32
:1005AC0000221A709E4B1B68184603F0DDFE03F008
:1005BC00B3F801F0DBFE01219A4804F089FF0346F1
:1005CC001A46994B1A70984B1A78984B1A7001F07E
:1005DC00ADFE02F059FB05F03BFE05F0B9FE04F050
:1005EC0033FB934B00221A70924B00221A7002F0CC
:1005FC0099F8B86202F096F878627B6A3B628E4892
:10060C00FFF79EFD034619468B4805F079FE8B4893
:10061C00FFF796FD03461946884805F071FE884899
:10062C00FFF78EFD03461946854805F069FEC82282
:10063C008449854802F032FE00BF844B1B78DBB244
:10064C00002B06D08021824805F050FB0346002B7E
:10065C00F3D17E4B01221A7003F0BEF803461A4602
:10066C007C4B1A7003F05CF903461A467A4B1A70ED
:10067C0003F082F9F861FB69002B13D06D4B1B78EA
:10068C0043F00103DAB26B4B1A70F86902F054F8BC
:10069C00FF2003F0B7F803461A46704B1A70704BE4
:1006AC0000221A7000BF0221694805F01FFB0346A7
:1006BC00002BF8D0654B00221A706A4B4FF4005295
:1006CC001A60694B00221A60684B4FF440521A6052
:1006DC00674B4FF480521A60664B04221A70664BBB
:1006EC0001221A70654B10221A80654BFF221A707A
:1006FC00644B00221A70644B00221A60634BFF2279
:10070C001A7000BF514B1B78DBB2002B06D0802136
:10071C004F4805F0EBFA0346002BF3D104F0A2FB93
:10072C00594B00221A60594BFF221A7004F0DAFC64
:10073C0003461A46564B1A70052004F0A1FC0346DA
:10074C009AB2544B1A80352004F09AFC03469AB2A4
:10075C00514B1A804F4B1B88022B27D004F0EEFC18
:10076C0003461A464D4B1A70052004F089FC0346CB
:10077C009AB2484B1A80352004F082FC03469AB298
:10078C00454B1A8004F0AEFC03461A46404B1A70D7
:10079C00052004F075FC03469AB23E4B1A803520B6
:1007AC0004F06EFC03469AB23B4B1A80364B1B6826
:1007BC00184604F0F3FC03461A46394B1A70052010
:1007CC0004F05EFC03469AB2324B1A80314B1B8804
:1007DC0003F00103002BF2D1FF220021314806F077
:1007EC003BF8294B1B68294A127891B22D4A1846BE
:1007FC0004F090FB04F076FC03461A46244B1A7066
:10080C00052004F03DFC03469AB24DE09C04002008
:10081C0000100240AC040020D34D62107F05002074
:10082C0038030020000C0140B9060020B806002057
:10083C008D060020C8070020E8000020F4000020EE
:10084C00340100204000002028000020320C002041
:10085C00003800408E0600208F06002090060020F5
:10086C0091060020780800207C08002080080020D9
:10087C008408002088080020890800201A0C002019
:10088C008B0800208C080020680800206C080020D1
:10089C00200C00201C0C00201E0C0020210C002021
:1008AC0064080020F0080020AE4B1A80352004F0BC
:1008BC00E7FB03469AB2AC4B1A80AA4B1B88022B5F
:1008CC0027D004F03BFC03461A46A84B1A700520AF
:1008DC0004F0D6FB03469AB2A24B1A80352004F0E2
:1008EC00CFFB03469AB2A04B1A8004F0FBFB0346E5
:1008FC001A469F4B1A70052004F0C2FB03469AB2AD
:10090C00984B1A80352004F0BBFB03469AB2964BE9
:10091C001A80984B1B68184604F040FC03461A4694
:10092C00954B1A70052004F0ABFB03469AB28D4B25
:10093C001A808C4B1B8803F00103002BF2D1FF2291
:10094C0000218E4805F088FF8A4B1B688C4A127870
:10095C0091B28A4A184604F0DDFAFF22002187483A
:10096C0005F07AFF874B1B68854A127891B2834A4F
:10097C00184604F0CFFA00237B6415E07F4A7B6CA9
:10098C0013441B78FF2B0CD17B6C002B09D17D4BB6
:10099C001B687D4A127891B27C4A184604F028F8FC
:1009AC0005E07B6C01337B647B6CFF2BE6DD784BC5
:1009BC0000221A7000BF764B1B78DBB2002B06D0DE
:1009CC008021744805F092F90346002BF3D104F012
:1009DC003BF9714B01221A70704B00221A700C21DA
:1009EC006F4805F00DFD0023BB6100233B6401F053
:1009FC0099FEB861BB693B6402E001F093FE386478
:100A0C00654B1B78002BF8D13A6CBB69D31AB3F544
:100A1C007A7FF2D8604B1B78002B06D1614B1B7888
:100A2C0043F01003DAB25F4B1A705E4B1B78112B3C
:100A3C0000F2698101A252F823F000BF910A00086C
:100A4C00D50A0008130D0008130D0008130D00083B
:100A5C00130D0008130D0008130D0008130D0008EA
:100A6C00130D0008130D0008130D0008130D0008DA
:100A7C00130D0008130D0008130D0008ED0B0008F2
:100A8C00450C00084848FFF75BFB034619464748EE
:100A9C0005F036FC4648FFF753FB0346194644481D
:100AAC0005F02EFC1C21434805F02AFC4048FFF7BA
:100ABC0047FB034619463E4805F022FCC8223D4937
:100ACC003A4802F0EBFB1EE13748FFF739FB0346CF
:100ADC001946364805F014FC3548FFF731FB034640
:100AEC001946334805F00CFC3348FFF729FB034645
:100AFC001946314805F004FC0221304805F000FC91
:100B0C0002212F4805F0FCFB2E48FFF719FB03468A
:100B1C0019462C4805F0F4FB03212B4805F0F0FB9B
:100B2C0000231946294805F0EBFB0321284805F062
:100B3C00E7FB0221224805F0E3FB0A21254805F0DA
:100B4C00DFFB0221244805F0DBFB02211C4805F0E9
:100B5C00D7FBFFF7D5FBC8222049144802F09EFBB7
:100B6C00D1E000BF1C0C00201E0C0020210C00202A
:100B7C00200C00207808002064080020F0080020D9
:100B8C006C0800207C080020890800208C080020BC
:100B9C00320C00200038004080050020900C002012
:100BAC0000000020C80700204C0100208C00002011
:100BBC006801002070000020EC010020DC01002006
:100BCC00D8010020FC010020E0010020D40100200D
:100BDC00E40100200C020020E8010020C8060020DF
:100BEC009148FFF7ADFA034619468F4805F088FB8C
:100BFC008E48FFF7A5FA034619468C4805F080FB92
:100C0C008B48FFF79DFA03461946894805F078FB97
:100C1C001C21884805F074FB8548FFF791FA0346C0
:100C2C001946834805F06CFBFFF7A4FBC8228149E9
:100C3C00814802F033FB66E07B48FFF781FA0346FC
:100C4C001946794805F05CFB7848FFF779FA0346BA
:100C5C001946764805F054FB7548FFF771FA0346C0
:100C6C001946734805F04CFB7448FFF769FA0346C4
:100C7C001946724805F044FB0221714805F040FB0F
:100C8C000221704805F03CFB6F48FFF759FA034608
:100C9C0019466D4805F034FB03216C4805F030FB18
:100CAC00002319466A4805F02BFB0321694805F01F
:100CBC0027FB0221634805F023FB0A21664805F057
:100CCC001FFB0221654805F01BFB02215D4805F066
:100CDC0017FBFFF74FFBFFF713FBC8226049564881
:100CEC0002F0DCFA802002F00BFA5E4802F0B8FA4F
:100CFC00C02002F005FA5C4802F0B2FA21215B48F0
:100D0C0005F0FEFA00BF2121584805F0F9FA01F070
:100D1C0091FB01F0C9FB564B1B78012B10D101F054
:100D2C00BDFD0621534805F0EBFA4148FFF708FAE0
:100D3C00034619463E4805F0E3FA4D4B00221A7063
:100D4C004D4B1B78002B41F0A5811BE04B4B1B68D6
:100D5C005A1C4A490A60F978494AD154474B1B68D6
:100D6C00474A0021D154454B1B687F2B0ADD454B6C
:100D7C0080221946424805F055FD404B1B68013B4B
:100D8C003E4A1360FB1C184605F0BAFB0346012BC8
:100D9C00DCD02BE03C4B1B685A1C3B490A60B978F1
:100DAC003A4AD154384B1B68384A0021D154364B3F
:100DBC001B687F2B0ADD364B80221946334805F021
:100DCC0031FD314B1B68013B2F4A13602F48FFF755
:100DDC00B7F9034619462D4805F092FA1448FFF767
:100DEC00AFF903461946124805F08AFABB1C18469F
:100DFC0005F0B4FB0346012BCCD02649234805F063
:100E0C008AFD0346002B00F0C882204BFB631F4B6E
:100E1C001A78214B1B789A4240F07182FB6B01339C
:100E2C00FB630023BB6345E04C010020940C0020C5
:100E3C00680100207000002048070020EC01002011
:100E4C00DC010020D8010020FC010020E001002082
:100E5C00D4010020E40100200C020020E801002055
:100E6C00C80600203400002064000020100100207F
:100E7C00BE06002018020020BF06002044050020FA
:100E8C00C0040020C10400200806002084050020B6
:100E9C00850500202C7B0008F6030020FB6B5A1CF8
:100EAC00FA6319785E4ABB6B13440A461A70BB6B23
:100EBC000133BB63BB6B022BF0DD594805F066FCBC
:100ECC000346584A1360574B1B68002B0FD15648EA
:100EDC00FFF736F903461946534805F011FA534803
:100EEC00FFF72EF903461946504805F009FA4D4B09
:100EFC001B68CB2B00F0E181CB2B00F3EF81CA2BCD
:100F0C0000F0CA81CA2B00F3E981C92B00F0B38130
:100F1C00C92B00F3E381672B00F00282672B00F3EF
:100F2C00DD81652B03D0662B00F08E80D6E13C482A
:100F3C00FFF706F903461946394805F0E1F93B4835
:100F4C00FFF7FEF803461946384805F0D9F93B1D62
:100F5C003749184603F0BAFB0346FB75FB7D032BA0
:100F6C0000F2FE8101A252F823F000BF890F0008A5
:100F7C00C30F0008E50F0008071000083B1D1846BA
:100F8C0003F026FB03462B4A13602A4B1B681846BA
:100F9C0003F0EAF92848FFF7D3F803461946264828
:100FAC0005F0AEF92148FFF7CBF8034619461F4868
:100FBC0005F0A6F932E02148FFF7C2F803461946BE
:100FCC001E4805F09DF91948FFF7BAF80346194673
:100FDC00164805F095F921E01948FFF7B1F80346DA
:100FEC001946174805F08CF91048FFF7A9F8034685
:100FFC0019460E4805F084F910E01248FFF7A0F8E6
:10100C00034619460F4805F07BF90848FFF798F896
:10101C0003461946054805F073F900BFA0E100BF6F
:10102C000C060020600800205C03002068010020F2
:10103C00840500205C08002058000020700300206C
:10104C008003002090030020B648FFF779F8034690
:10105C001946B44805F054F9B348FFF771F8034644
:10106C001946B14805F04CF903F06EF90346AF4A46
:10107C001360AE4B1B683A1D1146184603F0BEF9BF
:10108C003B1D184603F0A4FA0346A94A13607B687B
:10109C00A84A82FB03129211DB17D21AA64B83FBD0
:1010AC0002139910D317C91A0B469B000B445B0013
:1010BC00D11ACBB23033DAB2A04B1A707B68A04A8B
:1010CC0082FB03125211DB17D21A9B4B83FB0213C8
:1010DC009910D317C91A0B469B000B445B00D11A0D
:1010EC00CBB23033DAB2954B5A707B68924A82FBA2
:1010FC0003129210DB17D21A8F4B83FB0213991039
:10110C00D317C91A0B469B000B445B00D11ACBB208
:10111C003033DAB2894B9A707A68874B83FB0213AF
:10112C009910D317C91A0B469B000B445B00D11ABC
:10113C00CBB23033DAB2814BDA703B7A814AA2FB04
:10114C000323DB08DBB23033DAB27C4B5A713A7AC8
:10115C007C4BA3FB0213D9080B469B000B445B0092
:10116C00D31ADBB23033DAB2744B9A717B7A754A8C
:10117C00A2FB0323DB08DBB23033DAB26F4B1A72FB
:10118C007A7A704BA3FB0213D9080B469B000B44D5
:10119C005B00D31ADBB23033DAB2684B5A72BB7ACB
:1011AC00684AA2FB0323DB08DBB23033DAB2634BB1
:1011BC00DA72BA7A634BA3FB0213D9080B469B0075
:1011CC000B445B00D31ADBB23033DAB25B4B1A73CD
:1011DC00FB7A5C4AA2FB0323DB08DBB23033DAB2C6
:1011EC00564B9A73FA7A574BA3FB0213D9080B464A
:1011FC009B000B445B00D31ADBB23033DAB24F4B9B
:10120C00DA733B7B4F4AA2FB0323DB08DBB23033A0
:10121C00DAB24A4B5A743A7B4A4BA3FB0213D908F5
:10122C000B469B000B445B00D31ADBB23033DAB2B3
:10123C00424B9A744148FEF783FF034619463F48D8
:10124C0005F05EF83848FEF77BFF03461946364832
:10125C0005F056F83C48FEF773FF034619463A482A
:10126C0005F04EF83048FEF76BFF034619462E4842
:10127C0005F046F875E03548FEF762FF034619465F
:10128C00324805F03DF82848FEF75AFF0346194648
:10129C00254805F035F864E02D48FEF751FF03466C
:1012AC0019462B4805F02CF81F48FEF749FF03465A
:1012BC0019461D4805F024F853E02648FEF740FF78
:1012CC0003461946234805F01BF81748FEF738FF6C
:1012DC0003461946144805F013F842E01E48FEF781
:1012EC002FFF034619461C4805F00AF80E48FEF776
:1012FC0027FF034619460C4805F002F831E0174861
:10130C00FEF71EFF03461946144804F0F9FF064881
:10131C00FEF716FF03461946034804F0F1FF20E0E0
:10132C0000BF1EE00C0600206801002038030020DE
:10133C005C080020D34D62106766666620020020B0
:10134C001F85EB51CDCCCCCC58000020A003002045
:10135C00BC030020D8030020500300203C030020D5
:10136C0000BF4E48FEF7ECFE034619464B4804F00E
:10137C00C7FF4B48FEF7E4FE03461946484804F005
:10138C00BFFF484B00221A604448FEF7D9FE0346C3
:10139C001A460021414805F05FFA4349434805F0DD
:1013AC00BAFA0346002B00F0CC823F493F4805F0C7
:1013BC00C9FA3E4B7B6302E07B6B01337B633C4998
:1013CC00786B05F090FA0346002BF5D13948FEF7FF
:1013DC00B7FE03461A460021364805F03DFA1A229C
:1013EC003549344805F057FA796B324805F03CFA28
:1013FC0002F0AAFF0346314A1360304B1B683A1DBA
:10140C001146184602F0FAFF3B1D184603F0E0F8AF
:10141C0003462B4A13602A4B1B682449184601F0DB
:10142C0067FC02460B462749C1E90023244B196887
:10143C00244BD3E90023084601F0EEFC00BF224BFD
:10144C001B78DBB2002B06D08021204804F04EFC28
:10145C000346002BF3D103F005FD102200211C489C
:10146C0005F0FAF91B4B1B681B4A127891B21B4A08
:10147C00184603F04FFD00233B6338E0174A3B6BE3
:10148C0013441B78FF2B2FD13B6B013B134AD25CCF
:10149C00134B1A703B6B134A13602BE0840500202E
:1014AC0068010020080600202C7B0008C0040020E6
:1014BC003C7B000848050020D400002038030020A5
:1014CC005C08002070080020320C0020003800401E
:1014DC00F00900207C0800206C080020F008002097
:1014EC008A080020940800203B6B01333B633B6B64
:1014FC00062BC3DDAC4B1B78042B41D8FF220021FB
:10150C00AA4805F0A9F9AA4B1B68AA4A127891B20D
:10151C00A64A184603F0FEFCA34B1B7803F5007398
:10152C001B011A46A44B1A60A34B1B68A34A1188D3
:10153C00A34A184603F008FA9F4B1B689F4A118870
:10154C009F4A184603F03EFD052003F099FD034623
:10155C009AB29C4B1A809B4B1B8803F00103002B07
:10156C00F2D1914B1B780133DAB28F4B1A70964B38
:10157C001B68964A127891B28B4A184603F038FAD7
:10158C00914B1B68062B66D1FF220021874805F082
:10159C0063F9874B1B68874A127891B2834A1846C5
:1015AC0003F0B8FC884B00221A60834B1B68834AFB
:1015BC001188834A184603F0C7F97F4B4FF4005249
:1015CC001A607D4B1B68184603F07AFA7A4B1B683D
:1015DC007A4A11887A4A184603F0B6F97A4B1B6896
:1015EC00184603F06DFA704B00221A70764B1B688C
:1015FC00764A127891B26C4A184603F0F9F96E4BA0
:10160C001B686E4A11886E4A184603F09DF96A4BA6
:10161C001B686A4A11886A4A184603F0D3FC0520F5
:10162C0003F02EFD03469AB2664B1A80654B1B885D
:10163C0003F00103002BF2D1634B01221A605A4BC9
:10164C0001221A70604B1B68604A127891B2564A9C
:10165C00184603F0CDF9FF220021544805F0FCF8A0
:10166C005B4B1B68534A127891B2504A184603F0F0
:10167C0051FCFF2200214D4805F0EEF84E4B1B6843
:10168C004C4A127891B2494A184603F043FC514B2C
:10169C0000221A7003F0D8FA7B684F4A82FB0312BF
:1016AC009211DB17D21A4D4B83FB02139910D317EF
:1016BC00C91A0B469B000B445B00D11ACBB23033DA
:1016CC00DAB2474B1A707B68464A82FB03125211FE
:1016DC00DB17D21A414B83FB02139910D317C91A8B
:1016EC000B469B000B445B00D11ACBB23033DAB201
:1016FC003B4B5A707B68394A82FB03129210DB1702
:10170C00D21A364B83FB02139910D317C91A0B4606
:10171C009B000B445B00D11ACBB23033DAB2304BA6
:10172C009A707A682D4B83FB02139910D317C91A40
:10173C000B469B000B445B00D11ACBB23033DAB2B0
:10174C00274BDA703B7A284AA2FB0323DB08DBB277
:10175C003033DAB2224B5A713A7A234BA3FB021381
:10176C00D9080B469B000B445B00D31ADBB2303319
:10177C00DAB21B4B9A717B7A1B4AA2FB0323DB0860
:10178C00DBB23033DAB2164B1A727A7A164BA3FBF1
:10179C000213D9080B469B000B445B00D31ADBB237
:1017AC003033DAB222E000BF8A080020F0080020B3
:1017BC00780800206C080020900800201A0C0020EB
:1017CC00E00800201C0C0020940800208908002050
:1017DC0068080020320C0020D34D621067666666E4
:1017EC00200200201F85EB51CDCCCCCCB84B5A72CB
:1017FC00BB7AB84AA2FB0323DB08DBB23033DAB284
:10180C00B34BDA72BA7AB34BA3FB0213D9080B466B
:10181C009B000B445B00D31ADBB23033DAB2AC4B17
:10182C001A73FB7AAB4AA2FB0323DB08DBB230331F
:10183C00DAB2A74B9A73FA7AA64BA3FB0213D90818
:10184C000B469B000B445B00D31ADBB23033DAB28D
:10185C009F4BDA733B7B9F4AA2FB0323DB08DBB273
:10186C003033DAB29A4B5A743A7B9A4BA3FB02137D
:10187C00D9080B469B000B445B00D31ADBB2303308
:10188C00DAB2934B9A74802001F03AFC924801F042
:10189C00E7FCC02001F034FC8F4801F0E1FC002291
:1018AC004FF448718D4801F00FFE8D48FEF748FC4F
:1018BC00034601333B618B4B1A683B69D31A894A47
:1018CC0013603B69864A99183B69C3F181031A4638
:1018DC00834804F0A7FF13227D49834804F0F0FFEE
:1018EC0000231A468149804804F0EAFF7B48FEF742
:1018FC0027FC03461A4679497B4804F0E1FF7C48F3
:10190C00FEF71EFC03461A467949774804F0D8FFC7
:10191C007548FEF715FC03461946734804F0F0FCB5
:10192C007348FEF70DFC03461946714804F0E8FCB9
:10193C006D48FEF705FC03461A4600216A4804F080
:10194C008BFF6C4B1B78012B04D06A4B1B78112B33
:10195C0040F0DE83684B1B684CF25032934240F0EF
:10196C008D8340F2DC53654A6549002001F070FF1D
:10197C0003461A46634B1A70624B1B78002B00F01F
:10198C007383614B1B78002B40F06E835E4B0122FE
:10199C001A705A4B1B785D4AA2FB03235B09DBB21E
:1019AC003033DAB25A4B1A70544B1B78494AA2FBAB
:1019BC000323DB08DAB2474BA3FB0213D9080B460F
:1019CC009B000B445B00D31ADBB23033DAB2504BC2
:1019DC005A704A4B1A783F4BA3FB0213D9080B469B
:1019EC009B000B445B00D31ADBB23033DAB2484BAA
:1019FC009A704848FEF7A4FB03461946454804F084
:101A0C007FFC4548FEF79CFB03461946424804F010
:101A1C0077FC3F48FEF794FB034619463C4804F01C
:101A2C006FFC3348FEF78CFB03461946304804F034
:101A3C0067FC3A49324800F0ADFF03461A46384B72
:101A4C001A703848FEF77CFB03461946354804F0FB
:101A5C0057FC3248FEF774FB034619462F4804F036
:101A6C004FFC2348FEF76CFB03461946204804F054
:101A7C0047FC224B1B781946214800F0FFFF034618
:101A8C00294A136002F060FC0346284A1360274B76
:101A9C001B683A1D1146184602F0B0FC3B1D184657
:101AAC0002F096FD0346224A1360214B1B681E4A26
:101ABC0012681146184601F01BFA1B4B1B685B0A97
:101ACC001C4AA2FB0323DB09DBB23033DAB233E06E
:101ADC0020020020CDCCCCCCB40000204805002046
:101AEC00C004002044050020DC070020D0010020A9
:101AFC0068010020C8070020AC060020A4060020C6
:101B0C009406002092060020910600201F85EB51C0
:101B1C00AC0100206C010020800100200C00002092
:101B2C009306002098010020A8060020380300200E
:101B3C005C080020834B0400934B1A70934B1B687A
:101B4C00934AA2FB0323590E924BA3FB0123DA0801
:101B5C0013469B0013445B00CA1AD3B23033DAB27B
:101B6C00894B5A70894B1B688B4AA2FB0323990D36
:101B7C00884BA3FB0123DA0813469B0013445B003C
:101B8C00CA1AD3B23033DAB27F4B9A707F4B1B68D0
:101B9C00824AA2FB0323990C7E4BA3FB0123DA0898
:101BAC0013469B0013445B00CA1AD3B23033DAB22B
:101BBC00754BDA70754B1B685B09794AA2FB0323E2
:101BCC00D909744BA3FB0123DA0813469B00134479
:101BDC005B00CA1AD3B23033DAB26B4B1A716B4B4F
:101BEC001B68704AA2FB0323590B6A4BA3FB01230E
:101BFC00DA0813469B0013445B00CA1AD3B2303385
:101C0C00DAB2614B5A71614B1B68674AA2FB032322
:101C1C009909604BA3FB0123DA0813469B0013447C
:101C2C005B00CA1AD3B23033DAB2574B9A71574BA6
:101C3C001B685E4AA2FB03235909564BA3FB0123E5
:101C4C00DA0813469B0013445B00CA1AD3B2303334
:101C5C00DAB24D4BDA714D4B1B684E4AA2FB032393
:101C6C00D9084C4BA3FB0123DA0813469B00134401
:101C7C005B00CA1AD3B23033DAB2434B1A72434BFD
:101C8C001968444BA3FB0123DA0813469B00134449
:101C9C005B00CA1AD3B23033DAB23B4B5A724448A7
:101CAC00FEF74EFA03461946414804F029FB364824
:101CBC00FEF746FA03461946334804F021FB3D482B
:101CCC00FEF73EFA034619463A4804F019FB802009
:101CDC0001F016FA384801F0C3FAC02001F010FAEE
:101CEC00354801F0BDFA3548FEF72AFA03461A4684
:101CFC000021324804F0B0FD1A2231492F4804F07B
:101D0C00CAFD21492D4804F0AFFD00224FF4487163
:101D1C002A4801F06DFC2B4B19782B4B01222B48D8
:101D2C0002F03EFA03461A46294B1A70284B1B78D0
:101D3C00022B53D0022B62DC002B02D0012B11D0D2
:101D4C005DE02448FEF7FCF903461946214804F0EF
:101D5C00D7FA1848FEF7F4F903461946154804F06B
:101D6C00CFFA4CE01C48FEF7EBF9034619461A482B
:101D7C0004F0C6FA0F48FEF7E3F9034619460D487E
:101D8C0004F0BEFA3BE000BFB0010020A806002022
:101D9C00893BE655CDCCCCCC6BCA5F6B83DE1B4349
:101DAC00C55A7C0A5917B7D1D34D62101F85EB5118
:101DBC00BC01002068010020B40000206405002054
:101DCC00E0000020A4060020CC0700209406002090
:101DDC00C10600203802002070020020B348FEF734
:101DEC00AFF903461946B14804F08AFAB048FEF739
:101DFC00A7F903461946AE4804F082FA00BFAD4875
:101E0C00FEF79EF903461946AA4804F079FAAA4A45
:101E1C001021AA4800F064FE2F21A74804F070FAA4
:101E2C00A348FEF78DF903461946A14804F068FA59
:101E3C0002F08AFA0346A24A1360A14B1B683A1DB2
:101E4C001146184602F0DAFA3B1D184602F0C0FBA8
:101E5C0003469C4A13607B689B4A82FB03129211D7
:101E6C00DB17D21A994B83FB02139910D317C91A9B
:101E7C000B469B000B445B00D11ACBB23033DAB269
:101E8C00934B1A707B68934A82FB03125211DB1737
:101E9C00D21A8E4B83FB02139910D317C91A0B4617
:101EAC009B000B445B00D11ACBB23033DAB2884BB7
:101EBC005A707B68854A82FB03129210DB17D21A88
:101ECC00824B83FB02139910D317C91A0B469B0044
:101EDC000B445B00D11ACBB23033DAB27C4B9A7024
:101EEC007A687A4B83FB02139910D317C91A0B46E5
:101EFC009B000B445B00D11ACBB23033DAB2744B7B
:101F0C00DA703B7A744AA2FB0323DB08DBB2303372
:101F1C00DAB26F4B5A713A7A6F4BA3FB0213D908A2
:101F2C000B469B000B445B00D31ADBB23033DAB2A6
:101F3C00674B9A717B7A684AA2FB0323DB08DBB2FE
:101F4C003033DAB2624B1A727A7A634BA3FB021308
:101F5C00D9080B469B000B445B00D31ADBB2303321
:101F6C00DAB25B4B5A72BB7A5B4AA2FB0323DB08E7
:101F7C00DBB23033DAB2564BDA72BA7A564BA3FB79
:101F8C000213D9080B469B000B445B00D31ADBB23F
:101F9C003033DAB24E4B1A73FB7A4F4AA2FB03234F
:101FAC00DB08DBB23033DAB2494B9A73FA7A4A4B1C
:101FBC00A3FB0213D9080B469B000B445B00D31AFE
:101FCC00DBB23033DAB2424BDA733B7B424AA2FBD0
:101FDC000323DB08DBB23033DAB23D4B5A743A7B65
:101FEC003D4BA3FB0213D9080B469B000B445B0033
:101FFC00D31ADBB23033DAB2354B9A74132234492C
:10200C00364804F05DFC00231A463549334804F089
:10201C0057FC3448FEF794F803461A4631492F48CA
:10202C0004F04EFC2248FEF78BF803461A46204972
:10203C002A4804F045FC2948FEF782F80346194665
:10204C00264804F05DF91A48FEF77AF8034619465B
:10205C00174804F055F92148FEF772F803461A4662
:10206C0000211E4804F0F8FB1F4B1B78002B02D1FB
:10207C001E4B00221A701E4B00221A601C4B1B6850
:10208C0001331B4A136001224FF44871154801F0CB
:10209C00AFFA3DE0174B1B78002B2FD1C02001F07D
:1020AC002FF8154801F0DCF832E000BFD802002010
:1020BC006801002024030020F4020020CC0700203B
:1020CC00380300205C080020D34D621067666666FA
:1020DC00200200201F85EB51CDCCCCCC1C0800205D
:1020EC00D0010020640500209206002091060020FB
:1020FC00AC060020B0060020200000206C4B1B78A2
:10210C00403BDBB2184600F0FBFF6A4801F0A8F830
:10211C00694B1B78002B1AD0684B1B78012B16D1FE
:10212C006748FEF70DF803461A460021644804F090
:10213C0093FB1A226349624804F0ADFB00224FF472
:10214C0048715F4801F0C0F95C4B00221A70012203
:10215C004FF448715A4801F0B7F9574B1B78092BCB
:10216C007EF4D9AD00F020FD5748FDF7E9FF03469A
:10217C001946554804F0C4F80421544804F0C0F83A
:10218C005348FDF7DDFF03461946514804F0B8F8F3
:10219C00504B19784D4B01224F48FEF711F903466D
:1021AC001A464E4B1A704D4B1B78042B61D801A26A
:1021BC0052F823F0D5210008F72100081922000855
:1021CC003B2200085D2200084548FDF7B9FF034695
:1021DC001946434804F094F83D48FDF7B1FF034617
:1021EC0019463B4804F08CF843E03E48FDF7A8FF45
:1021FC00034619463B4804F083F83548FDF7A0FF29
:10220C0003461946324804F07BF832E03648FDF7B5
:10221C0097FF03461946344804F072F82C48FDF732
:10222C008FFF034619462A4804F06AF821E02F482C
:10223C00FDF786FF034619462C4804F061F8244844
:10224C00FDF77EFF03461946214804F059F810E0CB
:10225C002748FDF775FF03461946254804F050F84A
:10226C001B48FDF76DFF03461946194804F048F862
:10227C0000BF114B00221A701148FDF761FF034695
:10228C001A4600210E4804F0E7FA1A2219490C48A4
:10229C0004F001FB00224FF44871094801F014F9D5
:1022AC00C02000F02DFF144800F0DAFFFEF733BD1C
:1022BC009C060020D0010020BF060020C006002094
:1022CC0048050020C800002098010020A00600202E
:1022DC0068010020A406002094060020C2060020FD
:1022EC005402002070020020D8020020940200202A
:1022FC00B0020020340000206400002080B483B0C1
:10230C0000AF0346FB71FB7903F01F03012202FAB5
:10231C0003F1054A97F907305B0942F8231000BF17
:10232C000C37BD4680BC704700E100E080B582B040
:10233C0000AF0121042003F0A3FB0223BB71102387
:10234C00FB714FF48053BB803B1D1946064803F0CC
:10235C0003F800224FF48051034803F0D2F800BF79
:10236C000837BD4680BD00BF0008014080B582B073
:10237C0000AF0121082003F083FB0223BB7148232B
:10238C00FB710123BB803B1D1946034802F0E4FF9F
:10239C0000BF0837BD4680BD000C014080B500AFC2
:1023AC00012002F0B1FF0346012B34D11B4B1B78EB
:1023BC00022B17D11A4B0022DA701A4B08225A71D1
:1023CC00174802F03FFF184B00221A80134B0122D2
:1023DC001A7000F069F801224FF48051134803F091
:1023EC0090F815E00E4B0022DA700E4B0C225A714D
:1023FC000B4802F027FF0C4B1A880D4B1A80074B29
:10240C0002221A7000224FF48051084803F079F828
:10241C00012002F093FF00BF80BD00BFB906002071
:10242C000C0A0020040A0020B60600200008014017
:10243C00BA06002080B584B000AF01214FF40060D3
:10244C0003F01EFB41F61F43BB800023FB804FF4BF
:10245C00FA733B8100237B8100233B733B1D1946A0
:10246C000F4803F05FFC0F4B19221A700D4B002222
:10247C005A700C4B01229A700A4B0022DA700948F0
:10248C0002F0E0FE00220121054803F0E6FC0021E9
:10249C00034803F0C3FC00BF1037BD4680BD00BF2E
:1024AC00002C0140000A002080B500AF0122012160
:1024BC00054803F0D2FC0121034803F0AFFC1920BE
:1024CC00FFF71CFF00BF80BD002C014080B500AFA2
:1024DC000121874803F0E4FC0346002B00F0058142
:1024EC000121844802F0F4FF0346002B2DD1824BCE
:1024FC001B78012B06D1814B00221A70804B0022D5
:10250C001A80EAE07E4B1B8801339AB27C4B1A800E
:10251C007B4B1B883C2B40F0E0807A4B1B78002BCC
:10252C0040F0DB80774B01221A70774B01221A7036
:10253C00764B00221A70764B00221A70754B0022D3
:10254C001A70754B00221A80C7E06B4B1B78002B5E
:10255C0031D16A4B01221A70694B00221A806F4BE1
:10256C0000221A80674B1B78013B072B00F2B580C9
:10257C00664B1B780133DAB2644B1A70634B1B78D1
:10258C000F2B02D9614B00221A70604B1B78092B60
:10259C0008D85E4B1B785E4A12783033D9B2604B48
:1025AC0099549AE0594B1B78594A12783733D9B25F
:1025BC005B4B995491E0594B1B8801339AB2574BA2
:1025CC001A80564B1B88B3F5167F05D14D4B002254
:1025DC001A70524B00221A804F4B1B8801339AB24F
:1025EC004D4B1A804C4B1B880A2B08D14A4B0022AE
:1025FC001A80484B1B78DB43DAB2464B1A70404BBF
:10260C001B8801339AB23E4B1A803D4B1B88642BBE
:10261C0062D13C4B1B78013B072B5ED801A252F8D0
:10262C0023F000BF51260008652600087926000813
:10263C008D260008A1260008B5260008C92600082A
:10264C00DD2600082F4B02221A70304B00221A7024
:10265C002F4B01221A7040E02A4B03221A702B4B8D
:10266C0000221A702A4B02221A7036E0254B0422E3
:10267C001A70264B00221A70254B03221A702CE07C
:10268C00204B05221A70214B00221A70204B042279
:10269C001A7022E01B4B06221A701C4B00221A7077
:1026AC001B4B05221A7018E0164B07221A70174B99
:1026BC0000221A70164B06221A700EE0114B0822DB
:1026CC001A70124B00221A70114B07221A7004E078
:1026DC000C4B09221A7000E000BF084B1A78064B0D
:1026EC001A700121024803F004FC00BF80BD00BF3A
:1026FC00002C0140000C0140B8060020B906002057
:10270C00B6060020BF060020C00600209B06002055
:10271C009C060020B0060020B4060020B206002063
:10272C002000002080B400AF024B1B681846BD4649
:10273C0080BC7047100A002080B483B000AF786072
:10274C007B681B0EDAB24B4B1A707B681B0CDAB22F
:10275C00494B1A707B681B0ADAB2484B1A707B68BB
:10276C00DAB2474B1A70434B1B781B09DBB2303380
:10277C00DAB2444B1A703F4B1B7803F00F03DBB2F9
:10278C003033DAB23F4B5A703B4B1B783E4AA2FBBC
:10279C0003235B09DBB23033DAB23C4B1A70364B95
:1027AC001B783B4AA2FB0323DB08DAB2384BA3FBB2
:1027BC000213D9080B469B000B445B00D31ADBB207
:1027CC003033DAB2314B5A702B4B1A78304BA3FBA7
:1027DC000213D9080B469B000B445B00D31ADBB2E7
:1027EC003033DAB2294B9A70244B1B78264AA2FB61
:1027FC0003235B09DBB23033DAB2264B1A701F4B62
:10280C001B78234AA2FB0323DB08DAB2204BA3FB81
:10281C000213D9080B469B000B445B00D31ADBB2A6
:10282C003033DAB21B4B5A70144B1A78184BA3FB8B
:10283C000213D9080B469B000B445B00D31ADBB286
:10284C003033DAB2134B9A700D4B1B781B09DBB289
:10285C003033DAB2104B1A70094B1B7803F00F03AC
:10286C00DBB23033DAB20C4B5A7000BF0C37BD46BA
:10287C0080BC7047C3060020C4060020C50600209B
:10288C00C6060020DC0100201F85EB51E001002072
:10289C00CDCCCCCCE4010020E801002080B400AF0A
:1028AC00364B1B88364AA2FB03235B0B9AB2354B83
:1028BC00A3FB0213D9080B469B000B445B00D31AF5
:1028CC009BB2DBB23033DAB22F4B1A702B4B1B8816
:1028DC002E4AA2FB03239B099AB22A4BA3FB021399
:1028EC00D9080B469B000B445B00D31A9BB2DBB29E
:1028FC003033DAB2244B5A70204B1B88244AA2FB8B
:10290C0003235B099AB21F4BA3FB0213D9080B4696
:10291C009B000B445B00D31A9BB2DBB23033DAB2B0
:10292C00194B9A70154B1B88164AA2FB0323DB0824
:10293C009AB2144BA3FB0213D9080B469B000B4411
:10294C005B00D31A9BB2DBB23033DAB20E4BDA70C7
:10295C000A4B1A880B4BA3FB0213D9080B469B009E
:10296C000B445B00D31A9BB2DBB23033DAB2064BAA
:10297C001A7100BFBD4680BC704700BFBC0600206A
:10298C005917B7D1CDCCCCCC18020020D34D621046
:10299C001F85EB5180B485B000AF7860396000239F
:1029AC00FB730023BB7300237B7300233B73002357
:1029BC00BB735AE0BB7B7A6813441B781B097B738F
:1029CC007B7B092B03D87B7B30337B7308E07B7BD1
:1029DC00092B05D97B7B0F2B02D87B7B37337B7381
:1029EC00BB7B7A6813441B7803F00F033B733B7B70
:1029FC00092B03D83B7B30333B7308E03B7B092B23
:102A0C0005D93B7B0F2B02D83B7B37333B73FB7BCE
:102A1C003A68134430221A70FB7B0133FB73FB7B47
:102A2C003A68134478221A70FB7B0133FB73FB7BEF
:102A3C003A6813447A7B1A70FB7B0133FB73FB7B84
:102A4C003A6813443A7B1A70FB7B0133FB73FB7BB4
:102A5C00112B07D8FB7B3A68134420221A70FB7B9E
:102A6C000133FB73BB7B0133BB73BB7B032BA1D942
:102A7C00012318461437BD4680BC704780B485B01E
:102A8C0000AF78600B46FB700023FB60FB78042BD7
:102A9C0020D17B681B78FB60FB681B02FB607B68AA
:102AAC0001331B781A46FB681343FB60FB681B025F
:102ABC00FB607B6802331B781A46FB681343FB6090
:102ACC00FB681B02FB607B6803331B781A46FB68B0
:102ADC001343FB60FB6818461437BD4680BC704737
:102AEC0080B487B000AFF8600B467A60FB720023AD
:102AFC00FB750023BB7500237B7500233B750023FE
:102B0C00BB7547E0BB7DFA6813441B781B097B75CA
:102B1C007B7D092B03D87B7D30337B7508E07B7D77
:102B2C00092B05D97B7D0F2B02D87B7D37337B7529
:102B3C00BB7DFA6813441B7803F00F033B753B7D98
:102B4C00092B03D83B7D30333B7508E03B7D092BCB
:102B5C0005D93B7D0F2B02D83B7D37333B75FB7D75
:102B6C007A6813447A7D1A70FB7D0133FB75FB7D0B
:102B7C007A6813443A7D1A70FB7D0133FB75FB7D3B
:102B8C007A68134420221A70FB7D0133FB75BB7DE0
:102B9C000133BB75BA7DFB7A9A42B3D30123184635
:102BAC001C37BD4680BC704780B483B000AF002397
:102BBC00FB710023BB7100237B7100237B7155E0FB
:102BCC00FB792F4AD35C2F2B0AD9FB792C4AD35C87
:102BDC00392B05D8FB792A4AD35C303BBB710EE00C
:102BEC00FB79274AD35C402B09D9FB79244AD35C67
:102BFC00462B04D8FB79224AD35C373BBB717B79DB
:102C0C00BA791201D1B21F4AD154FB790133FB714D
:102C1C00FB791B4AD35C2F2B0AD9FB79184AD35C5E
:102C2C00392B05D8FB79164AD35C303BBB710EE0CF
:102C3C00FB79134AD35C402B09D9FB79104AD35C3E
:102C4C00462B04D8FB790E4AD35C373BBB717B799E
:102C5C000C4AD15C7B79BA790A43D1B2094AD15476
:102C6C00FB790133FB717B7901337B717B79032B0E
:102C7C00A6D900BF00BF0C37BD4680BC704700BF53
:102C8C0020000020A006002080B582B000AF0121FA
:102C9C00082002F0F5FE01214FF4804002F00EFFF7
:102CAC000323BB711823FB714FF42043BB803B1DE6
:102CBC0019460E4802F050FB0323BB711023FB7125
:102CCC004FF48853BB803B1D1946084802F044FB67
:102CDC004823FB714FF48043BB803B1D19460348CE
:102CEC0002F03AFB00BF0837BD4680BD000C014026
:102CFC002DE9B00387B000AF786039603B683B6169
:102D0C003B681B780A2B02D13B6901333B610023E2
:102D1C00FB600BE03B695A1C3A6119783C4AFB6832
:102D2C0013440A461A70FB680133FB60FB680C2BDA
:102D3C00F0DD0023BB605EE0BB68002B14D1344A8D
:102D4C00BB6813441B78303BFB75FB7D1B01FB758B
:102D5C00BB6801332E4AD35C303BDBB25AB297F9D5
:102D6C00173013435BB2FB75BB68002B18DDBB68D7
:102D7C00052B15DCBB685B00254AD35C303BFB752F
:102D8C00FB7D1B01FB75BB685B000133204AD35CE8
:102D9C00303BDBB25AB297F9173013435BB2FB7579
:102DAC00BB68062B08D1BB685B00194AD35C303B6F
:102DBC00FB75FB7D1B01FB75164BD3E900014FF036
:102DCC0000024FF000030B0243EA106302021149A8
:102DDC00C1E90023FB7D00221C4615460D4BD3E9AF
:102DEC00002344EA020845EA03090A4BC3E90089B7
:102DFC00BB680133BB60BB68062B9DDD054BD3E97B
:102E0C000023104619461C37BD46BDE8B003704779
:102E1C00A00800209808002080B485B000AFF860AE
:102E2C00C7E90023FB681B0EDAB2304B1A70FB6843
:102E3C001B0CDAB22D4B5A70FB681B0ADAB22B4B07
:102E4C009A70FB68DAB2294BDA70D7E900014FF0BF
:102E5C0000024FF000030A0C0023D2B2234B1A716C
:102E6C00D7E900014FF000024FF000030A0A0023DB
:102E7C00D2B21E4B5A71D7E900014FF000024FF04D
:102E8C0000030A000023D2B2184B9A71D7E9000153
:102E9C004FF000024FF00003020E42EA01220B0E2B
:102EAC00D2B2124BDA71D7E900014FF000024FF0A9
:102EBC000003020C42EA01420B0CD2B20B4B1A7209
:102ECC00D7E900014FF000024FF00003020A42EA7A
:102EDC0001620B0AD2B2054B5A723A78034B9A72C2
:102EEC0000BF1437BD4680BC704700BFE00800200F
:102EFC0080B483B000AF786039607B681B0EDAB2A7
:102F0C00134B1A707B681B0CDAB2114B5A707B682E
:102F1C001B0ADAB20E4B9A707B68DAB20C4BDA7081
:102F2C003B681B0EDAB20A4B1A713B681B0CDAB207
:102F3C00074B5A713B681B0ADAB2054B9A713B6816
:102F4C00DAB2034BDA7100BF0C37BD4680BC704758
:102F5C00E008002080B400AF084B1B68002B04D0A5
:102F6C00064B1B68013B054A1360054B1B6801337C
:102F7C00034A136000BFBD4680BC7047A804002004
:102F8C00100A002080B483B000AF7860064A7B68DA
:102F9C00136000BF044B1B68002BFBD100BF00BFAC
:102FAC000C37BD4680BC7047A804002080B586B0A5
:102FBC0000AF0121082002F063FD0223BB7518232A
:102FCC00FB754023BB8207F1140319461A4802F023
:102FDC00C3F90121082002F053FD0223BB751C2309
:102FEC00FB758023BB8207F114031946124802F0CB
:102FFC00B3F901214FF4001002F060FD4FF480632F
:10300C00FB814FF480433B824CF250337B604BF698
:10301C00FF737B8100233B810123BB813B1D194640
:10302C00064802F085FA0121044802F043FB00BF78
:10303C001837BD4680BD00BF000C01400054004055
:10304C0080B584B000AF78600B46FB701346BB7044
:10305C004FF47A73FB600121786802F04AFB4FF45D
:10306C007A73FB6006E0FB685A1EFA60002B01D1F4
:10307C00FF233AE01F49786802F0A5FB0346002BBA
:10308C00F1D0FB7800221946786802F07FFB4FF4F0
:10309C007A73FB6006E0FB685A1EFA60002B01D1C4
:1030AC00FF2322E01449786802F08DFB0346002BC5
:1030BC00F1D0BB781946786802F059FB4FF47A735B
:1030CC00FB6006E0FB685A1EFA60002B01D1FF235F
:1030DC000BE00A49786802F076FB0346002BF1D02E
:1030EC000121786802F024FB002318461037BD46F6
:1030FC0080BD00BF010003008000070084000700B2
:10310C0080B584B000AF0346FB71FB7923F00F034D
:10311C00FB73FB791B01BB73FB7B23F00703DBB257
:10312C001A464E211C48FFF78BFFFB7B43F0020332
:10313C00DBB223F00503DBB21A464E211648FFF72B
:10314C007FFFFB7B23F00703DBB21A464E211248AC
:10315C00FFF776FFBB7B23F00703DBB21A464E2149
:10316C000D48FFF76DFFBB7B43F00203DBB223F08E
:10317C000503DBB21A464E210748FFF761FFBB7B04
:10318C0023F00703DBB21A464E210348FFF758FF22
:10319C0000BF1037BD4680BD0054004080B584B0E0
:1031AC0000AF0346FB71FB7923F00F03FB73FB7934
:1031BC001B01BB7397F90F3023F007035BB243F08D
:1031CC0004035BB2DBB21A464E212448FFF738FFEA
:1031DC00FB7B43F00603DBB223F00103DBB21A46A0
:1031EC004E211E48FFF72CFF97F90F3023F00703F1
:1031FC005BB243F004035BB2DBB21A464E211748B4
:10320C00FFF71EFF97F90E3023F007035BB243F074
:10321C0004035BB2DBB21A464E211048FFF710FFD5
:10322C00BB7B43F00603DBB223F00103DBB21A468F
:10323C004E210A48FFF704FF97F90E3023F00703DD
:10324C005BB243F004035BB2DBB21A464E21034877
:10325C00FFF7F6FE00BF1037BD4680BD005400409E
:10326C0090B585B000AF78600023FB7309E0FB7B61
:10327C007A6813441B781846FFF790FFFB7B0133E9
:10328C00FB73FC7B7868FCF75BFF03469C42EED338
:10329C0000BF00BF1437BD4690BD000080B58AB09A
:1032AC0000AFF860B9607A60FFF73CFA03467F4ADA
:1032BC0013607F4B00221A70002387F826307D4B59
:1032CC0000221A707C4B00221A70002387F82730DA
:1032DC001CE07848FCF734FF03461A46754B134440
:1032EC0076491A460B461B8813807348FCF728FF57
:1032FC0003461A46704B134470491A460B461B88FA
:10330C00138097F82730013387F8273097F8273048
:10331C00062BDED9F968674803F0A6FAB968664847
:10332C0003F0A2FA002387F827301CE06148FCF771
:10333C0007FF03461A465F4B134460491A460B4677
:10334C001B8813805C48FCF7FBFE03461A465A4B5D
:10335C0013445A491A460B461B88138097F827309A
:10336C00013387F8273097F82730062BDED95148E0
:10337C00FCF7E6FE0346DAB2514B1A704E48FCF7E6
:10338C00DFFE0346DAB24F4B1A707AE0FFF7CAF948
:10339C000246464B1B68D31A7A689A4271D2FFF7E1
:1033AC00C1F90346414A1360414B1B780133DAB231
:1033BC003F4B1A7097F82620414B1B78013B9A42E1
:1033CC0029DA002387F8273019E0394B1B781A4685
:1033DC0097F8273013443A4A127893FBF2F101FB29
:1033EC0002F29A1A97F8273032498A5C28333B4408
:1033FC0003F80C2C97F82730013387F8273097F80F
:10340C002730072BE1D98020FFF77AFE07F11C0348
:10341C001846FFF725FF97F826202A4B1B78013B0F
:10342C009A4229DA002387F8273019E0204B1B78C1
:10343C001A4697F827301344224A127893FBF2F17C
:10344C0001FB02F29A1A97F827301B498A5C283341
:10345C003B4403F8182C97F82730013387F82730B2
:10346C0097F82730072BE1D9C020FFF749FE07F169
:10347C0010031846FFF7F4FE97F82630013387F84F
:10348C00263097F826200E4B1B78013B9A42FFF60C
:10349C007DAF97F826200B4B1B78013B9A42FFF629
:1034AC0075AF00BF00BF2837BD4680BD140A002091
:1034BC00180A00201C0A0020940A0020407B0008F7
:1034CC00090B00200A0B002080B588B000AFF86013
:1034DC00B9601346FB71FB79002B3FD1FFF722F942
:1034EC0003463E4A13603E4B00221A703D4B0022AD
:1034FC001A700023FB770EE03A48FCF721FE0346D6
:10350C001A46384B134438491A460B461B8813800D
:10351C00FB7F0133FB77FB7F062BEDD9F968314834
:10352C0003F0A2F90023FB770EE02E48FCF708FE0F
:10353C0003461A462B4B13442B491A460B461B8841
:10354C001380FB7F0133FB77FB7F062BEDD92548DE
:10355C00FCF7F6FD0346DAB2244B1A70FB681B78B5
:10356C00002B37D0FFF7DEF802461C4B1B68D31A32
:10357C00BA689A422ED2FFF7D5F80346174A136061
:10358C00174B1B780133DAB2154B1A700023FB77FB
:10359C0015E0134B1B781A46FB7F1344134A127821
:1035AC0093FBF2F101FB02F29A1AFB7F0D498A5C44
:1035BC0020333B4403F80C2CFB7F0133FB77FB7F60
:1035CC00072BE6D98020FFF79BFD07F11403184663
:1035DC00FFF746FE00BF2037BD4680BD0C0B002018
:1035EC00100B0020140B0020407B00083F0B002028
:1035FC0080B588B000AFF860B9601346FB71FB79F9
:10360C00002B3FD1FFF78EF803463E4A13603E4B2A
:10361C0000221A703D4B00221A700023FB770EE03B
:10362C003A48FCF78DFD03461A46384B134438498B
:10363C001A460B461B881380FB7F0133FB77FB7FFD
:10364C00062BEDD9F968314803F00EF90023FB770E
:10365C000EE02E48FCF774FD03461A462B4B134420
:10366C002B491A460B461B881380FB7F0133FB77D3
:10367C00FB7F062BEDD92548FCF762FD0346DAB239
:10368C00244B1A70FB681B78002B37D0FFF74AF8D5
:10369C0002461C4B1B68D31ABA689A422ED2FFF70B
:1036AC0041F80346174A1360174B1B780133DAB203
:1036BC00154B1A700023FB7715E0134B1B781A4639
:1036CC00FB7F1344134A127893FBF2F101FB02F2D5
:1036DC009A1AFB7F0D498A5C20333B4403F80C2C6F
:1036EC00FB7F0133FB77FB7F072BE6D9C020FFF76D
:1036FC0007FD07F114031846FFF7B2FD00BF203792
:10370C00BD4680BD400B0020440B0020480B002020
:10371C00407B0008730B002080B582B000AFFFF730
:10372C0045FC0023FB712DE0FB79204AD35C1B0187
:10373C00DBB21A464E211E48FFF782FC0A20FFF727
:10374C0021FCFB79194AD35C1B015BB243F00203E9
:10375C005BB2DBB21A464E211548FFF771FC0A200A
:10376C00FFF710FCFB79114AD35C1B01DBB21A4644
:10377C004E210F48FFF764FC0A20FFF703FCFB798E
:10378C000133FB71FB790B2BCED98020FFF7B8FCF2
:10379C000848FFF765FDC020FFF7B2FC0548FFF7AE
:1037AC005FFD00BF0837BD4680BD00BFF803002099
:1037BC0000540040447B000880B483B000AF7860B4
:1037CC0000BF7B685A1E7A60002BFAD100BF00BF85
:1037DC000C37BD4680BC704780B500AF00224FF45B
:1037EC008051074801F08DFE0A20FFF7CBFB012228
:1037FC004FF48051024801F084FE0123184680BD2D
:10380C00000C014080B582B000AF0346FB710F4B3A
:10381C0032221A700D4B05225A700C4BFF229A70F3
:10382C000A4B0122DA70094AFB7913714FF47A7250
:10383C000521064800F000F90346002B01D10023B6
:10384C0000E0012318460837BD4680BD8C0B0020D4
:10385C0080B584B000AFB9607A601A460346FB733A
:10386C001346BB810F4B4A221A700E4B01225A7021
:10387C000C4AFB7B9370BB891A460321094800F064
:10388C00DBF80346002B01D1002307E01420FFF7DF
:10389C0079FB7968B86800F007F8034618461037CA
:1038AC00BD4680BD8C0B002080B584B000AF786025
:1038BC00396000221321194800F0C6F9174BDB7947
:1038CC00012B01D0002324E0144B5B7ABB81BB8914
:1038DC001B02BB81114B9B7A9AB2BB891343BB81F0
:1038EC000E4B1A7B3B681A700023FB730BE0FB7BBF
:1038FC0003F10D02FB7B79680B4408498A5C1A7052
:10390C00FB7B0133FB73054B1B7BFA7B9A42EED39B
:10391C00012318461037BD4680BD00BFCC0B0020DC
:10392C0080B500AF124B14221A70114B01225A7041
:10393C000F4B14229A700E4B0022DA704FF4FA726D
:10394C0004210B4800F078F80346002B01D100232A
:10395C000BE0FF220921074800F076F9054B9B7913
:10396C00152B0CBF01230023DBB2184680BD00BF12
:10397C008C0B0020CC0B002080B584B000AF2B4A00
:10398C003B4692E80300186004331980284B02224E
:10399C001A704FF4FA720121254800F04DF80346D5
:1039AC00002B01D100233CE0FF220D21214800F027
:1039BC004BF93B46062219461E4802F015FF0346FA
:1039CC00002B01D000232CE00723FB60FB685A1C62
:1039DC00FA60184AD35CBB60BB681B02BB60FB6817
:1039EC005A1CFA60134AD35C1A46BB681343BB607B
:1039FC00BB681B02BB60FB685A1CFA600D4AD35CA7
:103A0C001A46BB681343BB60BB681B02BB60FB68F8
:103A1C005A1CFA60074AD35C1A46BB681343BB6056
:103A2C00BB6818461037BD4680BD00BF587B0008E8
:103A3C008C0B0020CC0B002080B582B000AF7860DE
:103A4C000B46FB7013463B80FB781946786800F0F8
:103A5C001BF83B88184600F091FA0346002B01D165
:103A6C0000230DE06420FFF7A7FE00F05FF903468A
:103A7C00002B01D1002303E06420FFF79DFE0123FE
:103A8C0018460837BD4680BD2DE9F04389B000AF1C
:103A9C0078600B46FB706B461E46FB7803F1080101
:103AAC004B1E3B610A460023904699464FF000029C
:103ABC004FF000034FEAC90343EA58734FEAC802B8
:103ACC000A46002314461D464FF000024FF0000337
:103ADC00EB0043EA5473E2000B460733DB08DB00D0
:103AEC00ADEB030D6B460033FB60FB68BB61FB78F1
:103AFC000133FB70BB6901221A70BB690133BB61D6
:103B0C00BB6900221A70BB690133BB61BB6900221F
:103B1C001A70BB690133BB61BB69FF221A70BB69A8
:103B2C000133BB61FF23FB75BB69FA781A70BB6963
:103B3C000133BB61FB785B42DAB2BB691A70BB69BB
:103B4C000133BB61BB69D4221A70BB690133BB6101
:103B5C00FB7D2C3BFB750023FB7712E0FB7F7A6827
:103B6C0013441A78BB691A70BB690133BB61FB7FC4
:103B7C007A6813441A78FB7D1344FB75FB7F013381
:103B8C00FB77FA7FFB78013B9A42E7DBFB7DDB435B
:103B9C00DAB2BB691A70BB690133BB61BB69002225
:103BAC001A70BB690133BB61FB7808331946F8689E
:103BBC0000F006F8B54600BF2437BD46BDE8F083DB
:103BCC0080B584B000AF7860396000BF02211C481A
:103BDC0002F08CF80346002BF8D000224FF48051F1
:103BEC00184801F08EFC0220FFF7CCF90023FB6093
:103BFC0017E07A68FB6813441B789BB2194610488F
:103C0C0002F01CF84FF4C870FFF7D6FD00BF02217C
:103C1C000B4802F06BF80346002BF8D0FB6801331D
:103C2C00FB60FA683B689A42E3D301224FF480515F
:103C3C00044801F066FC00BF1037BD4680BD00BFD4
:103C4C0000380040000C014080B584B000AF7860B3
:103C5C000B46FB7013463B8000224FF480513148D9
:103C6C0001F04FFC0220FFF78DF900BF02212E4816
:103C7C0002F03CF80346002BF8D003212A4801F04F
:103C8C00DDFF00BF0221284802F030F80346002B6C
:103C9C00F8D000BF0121244802F028F80346002B7D
:103CAC00F8D0214801F0D8FF0346BB730023FB7307
:103CBC0029E04FF4C870FFF77FFD3B8819461A487E
:103CCC0001F0BCFF4FF4C870FFF776FD00BF022176
:103CDC00154802F00BF80346002BF8D000BF012169
:103CEC00114802F003F80346002BF8D00E4801F0FF
:103CFC00B3FF03461946FB7B7A681344CAB21A70A9
:103D0C00FB7B0133FB73FA7BFB789A42D1D3012204
:103D1C004FF48051034801F0F4FB00BF1037BD464F
:103D2C0080BD00BF000C01400038004080B584B05D
:103D3C0000AF3F4A07F1080392E803001860043310
:103D4C00198000224FF480513A4801F0DAFB02202E
:103D5C00FFF718F900BF0221374801F0C7FF0346EF
:103D6C00002BF8D00321344801F068FF00BF02217A
:103D7C00314801F0BBFF0346002BF8D000BF0121F6
:103D8C002D4801F0B3FF0346002BF8D02A4801F070
:103D9C0063FF0346BB730023FB732FE06420FFF724
:103DAC000BFD00BF0221244801F0A0FF0346002BAD
:103DBC00F8D00021204801F041FF6420FFF7FCFC03
:103DCC0000BF02211C4801F091FF0346002BF8D0E4
:103DDC0000BF0121184801F089FF0346002BF8D0E1
:103DEC00154801F039FF03461A46FB7BD2B210335B
:103DFC003B4403F8102CFB7B0133FB73FB7B052B43
:103E0C00CCD901224FF480510A4801F07AFB07F11A
:103E1C0008013B460622184602F0E6FC0346002B3E
:103E2C000CBF01230023DBB218461037BD4680BD02
:103E3C00607B0008000C01400038004080B582B067
:103E4C0000AF00BF0221494801F050FF0346002B90
:103E5C00F8D000BF0121454801F048FF0346002B74
:103E6C00F8D0424801F0F8FE03461946404B1B7847
:103E7C001A46C9B23F4B99543D4B1B780133DAB209
:103E8C003B4B1A7000224FF480513B4801F039FB38
:103E9C000220FFF777F80221344801F0CFFE00BF73
:103EAC000221324801F022FF0346002BF8D000BF5C
:103EBC0001212E4801F01AFF0346002BF8D02B48A5
:103ECC0001F0CAFE03461946294B1B781A46C9B2A3
:103EDC00284B9954264B1B780133DAB2244B1A70B9
:103EEC004FF4C870FFF768FC00BF02211F4801F0B7
:103EFC00FDFE0346002BF8D0FF211C4801F09EFE6E
:103F0C004FF4C870FFF758FC00BF0221174801F0AE
:103F1C00EDFE0346002BF8D000BF0121134801F041
:103F2C00E5FE0346002BF8D0104801F095FE034641
:103F3C00FB7101224FF480510F4801F0E2FA0C4B57
:103F4C001B7819460B4AFB795354094B1B780133E8
:103F5C00DAB2074B1A70FB79012B0CBF012300233B
:103F6C00DBB218460837BD4680BD00BF00380040A4
:103F7C00880B0020740B0020000C014080B584B02D
:103F8C0000AF0346FB800023FB810520FEF7FAFF00
:103F9C00FB890533FB810EE0FB88002B08D0FB89E5
:103FAC000533FB81FA89FB889A4201D9002308E08A
:103FBC000520FEF7E7FFFFF741FF0346002BEBD090
:103FCC00012318461037BD4680BD000080B586B071
:103FDC0000AFF8607A601A460B46FB721346BB7250
:103FEC002F4B3A6A1068186092889A80FB7A1A46AE
:103FFC00F9682C4802F008FC97F90B202A4B1A7030
:10400C002A4B40221A70294B01225A70BB7A002B82
:10401C0001D0612200E06022244B9A707B68DAB2F6
:10402C00224BDA70224B1E4A1068186092889A80D4
:10403C000023FB750AE0FB7D1A4AD256FB7D0A333E
:10404C00D1B21A4AD154FB7D0133FB75FB7D164A64
:10405C0092F900209342EEDB134B93F90030DBB264
:10406C000A33DBB2642219461048FFF7E5FC03461D
:10407C00002B01D100230EE00A20FEF783FFFF2264
:10408C000C210C48FFF7E0FD0A4BDB79002B01D02B
:10409C00002300E0012318461837BD4680BD00BF41
:1040AC00140C00200C0C0020130C00208C0B002096
:1040BC00900B0020CC0B002080B582B000AF0346E3
:1040CC003960FB71174B40221A70164B01225A7043
:1040DC00144B30229A70134AFB79D370642204215A
:1040EC001048FFF7A9FC0346002B01D1002314E074
:1040FC000A20FEF747FFFF221A210B48FFF7A4FD09
:10410C00094BDB79002B01D0002306E0074B102272
:10411C001946386802F078FB012318460837BD466B
:10412C0080BD00BF8C0B0020CC0B0020D40B0020DA
:10413C0080B582B000AF03463960FB71154B40224D
:10414C001A70144B01225A70124BA0229A70114A09
:10415C00FB79D370104B10223968184602F054FBCF
:10416C00642214210B48FFF767FC0346002B01D196
:10417C0000230BE00A20FEF705FF0A20FEF702FFE2
:10418C00FF221A210548FFF75FFD01231846083767
:10419C00BD4680BD8C0B0020900B0020CC0B00206A
:1041AC0080B58EB002AFF8607B600B46FB72134695
:1041BC00BB72002387F82F30204A07F1240392E8C2
:1041CC000300186004331980002387F82E301C4A32
:1041DC0007F110031268114619800233120C1A7081
:1041EC00F97A07F12403009301230022F868FFF702
:1041FC00EDFE0346002B05D1012387F82D3097F8EF
:10420C002D3016E0BB7A79681846FFF755FF034648
:10421C0087F82D3097F82D30002B05D1022387F825
:10422C002D3097F82D3004E0002387F82D3097F8C7
:10423C002D3018463037BD4680BD00BF9C7B000832
:10424C00A47B000880B400AF3B4B1B6A03F4004313
:10425C00B3F5004F6CD0384BDB69374A43F0C05391
:10426C00D361364B1B68354A43F480731360324B71
:10427C001B6A314A43F4803313622F4B1B6A2E4A5C
:10428C0023F4803313622C4B1B6A2B4A43F40143F7
:10429C001362294B1B6A284A43F00103136200BFC7
:1042AC00254B1B6A03F00103012BF9D1244B9B8D89
:1042BC009BB2234A43F003039BB2938500BF214B6F
:1042CC009B889BB203F02003002BF8D01D4B9B88DE
:1042DC009BB21C4A43F010039BB29380194B47F6D8
:1042EC00FF729A81174B9B889BB2164A23F01003DE
:1042FC009BB2938000BF134B9B889BB203F02003AF
:10430C00002BF8D00F4B9B889BB20E4A23F0100366
:10431C009BB2938000BF0B4B9B889BB203F00803AE
:10432C00082BF8D1054B1B68044A23F480731360E7
:10433C0000BFBD4680BC70470010024000700040BA
:10434C00006C00400028004080B400AF054B1B8B74
:10435C009BB21B04034A928B92B213431846BD4680
:10436C0080BC70470028004080B483B000AF7860F8
:10437C001F4BDB691E4A43F0C053D3611D4B1B68B6
:10438C001C4A43F48073136000BF1B4B9B889BB289
:10439C0003F02003002BF8D0174B9B889BB2164AD6
:1043AC0043F010039BB293807B681A0C124B92B2B1
:1043BC001A83114B7A6892B29A830F4B9B889BB2EB
:1043CC000D4A23F010039BB2938000BF0A4B9B88CD
:1043DC009BB203F02003002BF8D0064B1B68054A58
:1043EC0023F48073136000BF0C37BD4680BC70474C
:1043FC0000100240007000400028004080B487B0DC
:10440C0000AF786039607B68654AA2FB0312120C1E
:10441C00644901FB02F29B1A7B617B6803F528431C
:10442C00C0335F4AA2FB0323DA0B5F4B13443B619F
:10443C003B695B083B613A695C4BA3FB0213D11AE5
:10444C0049080B4499080B46DB005B1AD11ACAB217
:10445C003B685A723B6903F5FA432C333B613B6969
:10446C009B000333524AA2FB0323DB0BFB73FB7B46
:10447C00504A02FB03F3002B00DA03339B101A465D
:10448C003B699B1A3B613B699B0003334A4AA2FB85
:10449C000323DB09BB73BB7B40F2B55202FB03F376
:1044AC00002B00DA03339B101A463B699B1A3B61C5
:1044BC003A6913469B0013440233404AA2FB032380
:1044CC00DB097B733B69D9B27A7B1346DB0013445F
:1044DC001A01134402333A4A82FB03025210DB17CF
:1044EC00D31ADBB2CB1ADBB20133DAB23B685A71A6
:1044FC007B7B344AA2FB0323DB08DBB21A469B000E
:10450C00D31A9B00DAB27B7B1344DBB20333DAB2EF
:10451C003B681A71FB7B642203FB02F2BB7B1344E6
:10452C00A3F596537A7B2749A1FB0212D208D2B28B
:10453C001A443B681A607B69234AA2FB0323DB0AFB
:10454C00DAB23B689A717A691F4BA3FB0213DB0A40
:10455C004FF4616101FB03F3D31A1C4AA2FB032342
:10456C005B09DAB23B68DA717B69174AA2FB03126A
:10457C00D20A4FF4616101FB02F29A1A134BA3FBAE
:10458C00021359090B461B015B1A9B00D11ACAB2C4
:10459C003B681A7200BF1C37BD4680BC704700BF19
:1045AC0007452EC280510100177B4A0025499224F1
:1045BC00BD066B39B13A020073B06D16D7802BD69D
:1045CC0067666666CDCCCCCCC5B3A2918988888849
:1045DC0080B489B000AF78607B681B79C3F10E039F
:1045EC00354A82FB03125210DB17D31AFB777B6818
:1045FC001B6803F59652FB7FD31ABB617B681A7953
:10460C00FB7F194649000B449B00DBB21344DBB221
:10461C00033BFB757B685B791946FA7D1346DB001F
:10462C0013441A0113440233244A82FB030252102E
:10463C00DB17D31ACA18BB6940F26D1101FB03F3E7
:10464C001A44BB69002B00DA03339B101A44BB6974
:10465C001B4981FB03014911DB175B1A1A44BB6927
:10466C00174981FB0301C911DB17CB1A1A44154BEF
:10467C0013443B613B69144A02FB03F3FB607B6808
:10468C001B7A19467B68DB791A4613461B019B1A69
:10469C009B00CA187B689B7919464FF4616301FB38
:1046AC0003F313441A46FB681344FB60FB6818467B
:1046BC002437BD4680BC7047ABAAAA2A67666666DB
:1046CC001F85EB514745DAFF8051010080B596B04C
:1046DC0000AF78603960002387F84F303B683B654A
:1046EC003B6D01333B653B6D01333B653B6D0133EA
:1046FC003B653B6D01333B653B6D01333B650023F3
:10470C007B650CE03B6D5A1C3A65197807F10C027D
:10471C007B6D13440A461A707B6D01337B657B6D90
:10472C00032BEFDD07F10C03184602F02FF80246BD
:10473C007B681A607B681B68002B05D07B681B6844
:10474C0040F2BB72934205DC012387F84F3097F897
:10475C004F30F4E03B6D01333B6507F10C03184619
:10476C00FBF7EEFC024607F10C030021184602F0A1
:10477C0073F800237B650CE03B6D5A1C3A65197885
:10478C0007F10C027B6D13440A461A707B6D0133E2
:10479C007B657B6D012BEFDD07F10C03184601F0F7
:1047AC00F5FF0346DAB27B681A717B681B79002B24
:1047BC0003D07B681B790C2B05D9022387F84F306B
:1047CC0097F84F30BBE03B6D01333B6507F10C03B1
:1047DC001846FBF7B5FC024607F10C0300211846FE
:1047EC0002F03AF800237B650CE03B6D5A1C3A65ED
:1047FC00197807F10C027B6D13440A461A707B6D15
:10480C0001337B657B6D012BEFDD07F10C03184643
:10481C0001F0BCFF0346DAB27B685A717B685B79A6
:10482C00002B03D07B685B791F2B05D9032387F8FA
:10483C004F3097F84F3082E03B6D01333B6507F109
:10484C000C031846FBF77CFC024607F10C03002115
:10485C00184602F001F800237B650CE03B6D5A1CF6
:10486C003A65197807F10C027B6D13440A461A70ED
:10487C007B6D01337B657B6D012BEFDD07F10C0349
:10488C00184601F083FF0346DAB27B689A713B6DE0
:10489C0001333B6507F10C031846FBF751FC02464C
:1048AC0007F10C030021184601F0D6FF00237B65AD
:1048BC000CE03B6D5A1C3A65197807F10C027B6DC4
:1048CC0013440A461A707B6D01337B657B6D012B9B
:1048DC00EFDD07F10C03184601F058FF0346DAB27E
:1048EC007B68DA713B6D01333B6507F10C031846AD
:1048FC00FBF726FC024607F10C030021184601F0D9
:10490C00ABFF00237B650CE03B6D5A1C3A651978B4
:10491C0007F10C027B6D13440A461A707B6D013350
:10492C007B657B6D012BEFDD07F10C03184601F065
:10493C002DFF0346DAB27B681A7297F84F3018468F
:10494C005837BD4680BD000080B584B000AFF8601C
:10495C000B467A607B8100F0C5FB03461A46204B60
:10496C001A70052000F08CFB03469AB21D4B1A807E
:10497C00352000F085FB03469AB21B4B1A80194B6D
:10498C001B88022B27D000F0D9FB03461A46174B85
:10499C001A70052000F074FB03469AB2114B1A8072
:1049AC00352000F06DFB03469AB20F4B1A8000F0D5
:1049BC0099FB03461A460A4B1A70052000F060FB5F
:1049CC0003469AB2074B1A80352000F059FB034678
:1049DC009AB2054B1A8000BF1037BD4680BD00BF90
:1049EC00200C00201C0C00201E0C0020210C002090
:1049FC0080B584B000AFF8600B467A607B8100F024
:104A0C0071FB03461A462A4B1A70052000F038FB3E
:104A1C0003469AB2274B1A80352000F031FB03462F
:104A2C009AB2254B1A80234B1B88022B27D000F0FF
:104A3C0085FB03461A46214B1A70052000F020FB1B
:104A4C0003469AB21B4B1A80352000F019FB034623
:104A5C009AB2194B1A8000F045FB03461A46144BC8
:104A6C001A70052000F00CFB03469AB2114B1A8009
:104A7C00352000F005FB03469AB20F4B1A807B8958
:104A8C007A681946F86800F09DFA052000F0F8FAEB
:104A9C0003469AB2074B1A80064B1B8803F001039E
:104AAC00002BF2D100BF00BF1037BD4680BD00BF48
:104ABC00200C00201C0C00201E0C0020210C0020BF
:104ACC0080B582B000AF786000F00CFB03461A464C
:104ADC002A4B1A70052000F0D3FA03469AB2284BE1
:104AEC001A80352000F0CCFA03469AB2254B1A8076
:104AFC00234B1B88022B27D000F020FB03461A46C1
:104B0C00214B1A70052000F0BBFA03469AB21C4BDD
:104B1C001A80352000F0B4FA03469AB2194B1A8069
:104B2C0000F0E0FA03461A46144B1A70052000F008
:104B3C00A7FA03469AB2124B1A80352000F0A0FA5D
:104B4C0003469AB20F4B1A80786800F027FB034695
:104B5C001A460E4B1A70052000F092FA03469AB2D0
:104B6C00074B1A80064B1B8803F00103002BF2D174
:104B7C0000BF00BF0837BD4680BD00BF200C002021
:104B8C001C0C00201E0C0020210C002064080020AE
:104B9C0080B483B000AF0346FB71FB7903F01F03B5
:104BAC00012202FA03F1054A97F907305B0942F832
:104BBC00231000BF0C37BD4680BC704700E100E0FD
:104BCC0080B483B000AF0346FB71FB7903F01F0385
:104BDC00012202FA03F1064A97F907305B092033E8
:104BEC0042F8231000BF0C37BD4680BC704700BF95
:104BFC0000E100E080B483B000AF03463960FB7184
:104C0C0097F90730002B0BDA3B68DAB20C49FB79C9
:104C1C0003F00F03043B1201D2B20B441A7609E0E5
:104C2C003B68DAB2074997F907301201D2B20B444C
:104C3C0083F8002300BF0C37BD4680BC704700BF13
:104C4C0000ED00E000E100E080B586B000AF204B45
:104C5C0001221A7000211F4800F0A1FF2420FFF749
:104C6C00AFFF0023BB804FF48273FB8000233B819A
:104C7C0000237B810023BB810023FB8138233B82F3
:104C8C0080237B820723BB823B1D1946114800F011
:104C9C0043FF002260210F4800F0A0FF00210D48C7
:104CAC0001F005F801224FF480510B4800F029FC6B
:104CBC000121084800F0DCFF0121064800F06FFFDD
:104CCC00034B00221A7000BF1837BD4680BD00BFD1
:104CDC00320C002000380040000C014080B485B03C
:104CEC0000AFF860B9601346FB80164B01221A70B6
:104CFC00154AFB681360154ABB681360144B0022FD
:104D0C001A80144B01221A80134AFB88138000BFAF
:104D1C00124B1B899BB203F00203002BF8D00A4BF9
:104D2C001B68002B05D0084B1B680D4A1B781370B1
:104D3C0002E00B4BFF221A7000BF1437BD4680BC3B
:104D4C00704700BF320C0020240C0020280C0020DF
:104D5C002C0C00202E0C0020300C002000380040C1
:104D6C000C38004080B586B000AFF860B9607A604E
:104D7C00FB700023FB751AE0FB7D9B00FA68134463
:104D8C001868FB7D9B00BA6813441968FB7D5B00B7
:104D9C007A6813441B881A46FFF7A0FF00BF084B24
:104DAC001B78DBB2002BFAD1FB7D0133FB75FA7D4E
:104DBC00FB789A42E0D300BF00BF1837BD4680BDD8
:104DCC00320C002080B483B000AF1F4B1B78FB71FA
:104DDC001E4B1B68002B07D01C4B1B681C4A1288EF
:104DEC001344FA79D2B21A701A4B1A881A4B1B88D0
:104DFC009A4215D2194B1B68002B08D0174B1B6815
:104E0C00144A12881344104A1B78137002E00E4B9C
:104E1C00FF221A700F4B1B8801339AB20D4B1A806C
:104E2C000B4B1B8801339AB2094B1A80084B1A881A
:104E3C00094B1B889A4202D3094B00221A7000BFFF
:104E4C000C37BD4680BC70470C380040280C002045
:104E5C002C0C00202E0C0020300C0020240C0020E8
:104E6C00320C002080B586B000AF01224FF4807167
:104E7C00254800F046FB01224FF48051224800F0F7
:104E8C0040FB0021214800F08AFE0023BB804FF438
:104E9C008273FB8000233B8100237B810023BB8139
:104EAC004FF40073FB8138233B8200237B82072362
:104EBC00BB823B1D1946154800F02EFE00211348FD
:104ECC0000F0F5FE01224FF480510F4800F019FB61
:104EDC0001210E4800F0CCFE012260210B4800F0AD
:104EEC007DFE03212420FFF785FE2420FFF750FED2
:104EFC000121064800F053FE054B00221A7000BF3A
:104F0C001837BD4680BD00BF000C01400038004082
:104F1C00320C002080B584B000AFF8600B467A608C
:104F2C007B8101224FF48071204800F0EAFA204B7B
:104F3C0003221A70FB681B0CDAB21D4B5A70FB680B
:104F4C001B0ADAB21A4B9A70FB68DAB2184BDA7099
:104F5C00184B174A1A60184B00221A60174B042280
:104F6C001A80144B00225A60134A7B685360134A10
:104F7C007B89538000224FF480710C4800F0C1FAF9
:104F8C0002230E4A0C490B48FFF7ECFE00BF0C4BFA
:104F9C001B78DBB2002BFAD101224FF4807103484D
:104FAC0000F0AFFA00BF1037BD4680BD000C0140C9
:104FBC00480C0020340C00203C0C0020440C002039
:104FCC00320C002080B586B000AFF8600B467A60DA
:104FDC007B810A23FB7501224FF48071224800F07B
:104FEC0090FA224B02221A70FB681B0CDAB21F4B90
:104FFC005A70FB681B0ADAB21C4B9A70FB68DAB267
:10500C001A4BDA701A4B194A1A601A4B00221A60A2
:10501C00194B04221A80164A7B685360154B0022E8
:10502C005A60154A7B89538000224FF480710E48D8
:10503C0000F067FA0223104A0E490D48FFF792FE62
:10504C0000BF0E4B1B78DBB2002BFAD101224FF4C0
:10505C008071054800F055FA0023FB75FB7D18465E
:10506C001837BD4680BD00BF000C0140480C002025
:10507C00340C00203C0C0020440C0020320C00208E
:10508C0080B584B000AF0346FB71124AFB791370F4
:10509C00104BFF225A7000224FF480710E4800F022
:1050AC0030FA02220D490B48FFF718FE00BF0C4BDB
:1050BC001B78DBB2002BFAD101224FF48071064829
:1050CC0000F01FFA054B5B78FB73FB7B184610371F
:1050DC00BD4680BD500C0020000C0140700C00201F
:1050EC00320C002080B582B000AF0A23FB71104B4C
:1050FC0006221A7000224FF480710E4800F001FA5B
:10510C00012200210A48FFF7E9FD00BF0A4B1B787A
:10511C00DBB2002BFAD101224FF48071054800F06C
:10512C00F0F90023FB71FB7918460837BD4680BDAA
:10513C00480C0020000C0140320C002080B582B0DD
:10514C0000AF0A23FB71124B01221A70104B002284
:10515C005A7000224FF480710E4800F0D2F90222EE
:10516C0000210B48FFF7BAFD00BF0B4B1B78DBB2DD
:10517C00002BFAD101224FF48071064800F0C1F9DE
:10518C000023FB71FB7918460837BD4680BD00BF74
:10519C00480C0020000C0140320C002080B584B07B
:1051AC0000AF78600A23FB7301224FF48071194819
:1051BC0000F0A7F9184B20221A707B681B0CDAB28E
:1051CC00154B5A707B681B0ADAB2134B9A707B68CA
:1051DC00DAB2114BDA7000224FF480710D4800F0F6
:1051EC0090F9042200210C48FFF778FD00BF0B4B0F
:1051FC001B78DBB2002BFAD101224FF480710548E9
:10520C0000F07FF90023FB73FB7B18461037BD467B
:10521C0080BD00BF000C0140480C0020320C002067
:10522C0080B483B000AF7860054A7B6843F0BF63FD
:10523C0043F40033D36000BF0C37BD4680BC7047CD
:10524C0000ED00E080B487B000AF786000237B6194
:10525C0000233B610F23FB607B68DB78002B3AD08B
:10526C00274BDB68DB431B0A03F007037B617B697D
:10527C00C3F104033B61FA687B6922FA03F3FB6018
:10528C007B685B781A463B6902FA03F37B617B68A7
:10529C009B781A46FB6813407A6913437B617B69E0
:1052AC001B017B61174A7B681B787969C9B213446F
:1052BC000A4683F800237B681B7803F01F0311490F
:1052CC007A6812785209D2B21046012202FA03F31C
:1052DC0041F820300FE07B681B7803F01F0309496D
:1052EC007A6812785209D2B2104601229A4000F123
:1052FC00200341F8232000BF1C37BD4680BC7047FB
:10530C0000ED00E000E100E080B485B000AF786013
:10531C000023FB73084B5A697B681340002B02D0A7
:10532C000123FB7301E00023FB73FB7B184614374E
:10533C00BD4680BC704700BF0004014080B483B000
:10534C0000AF7860034A7B68536100BF0C37BD46E1
:10535C0080BC70470004014080B489B000AF786015
:10536C0039600023FB6100233B610023BB610023F8
:10537C00FB6000237B610023BB603B68DB7803F0A0
:10538C000F03FB613B68DB7803F01003002B05D0A7
:10539C003B689B781A46FB691343FB613B681B888F
:1053AC00DBB2002B44D07B681B687B610023BB61A4
:1053BC0038E00122BB6902FA03F3FB603B681B88EF
:1053CC001A46FB6813403B613A69FB689A4226D146
:1053DC00BB699B00FB600F22FB6802FA03F3BB6006
:1053EC00BB68DB437A6913407B61FA69FB6802FA9C
:1053FC0003F37A6913437B613B68DB78282B05D177
:10540C000122BB699A407B685A6108E03B68DB78F3
:10541C00482B04D10122BB699A407B681A61BB6995
:10542C000133BB61BB69072BC3D97B687A691A60EE
:10543C003B681B88FF2B46D97B685B687B6100232C
:10544C00BB613AE0BB690833012202FA03F3FB604B
:10545C003B681B881A46FB6813403B613A69FB6842
:10546C009A4227D1BB699B00FB600F22FB6802FAB2
:10547C0003F3BB60BB68DB437A6913407B61FA6959
:10548C00FB6802FA03F37A6913437B613B68DB78B0
:10549C00282B05D1BB69083301229A407B685A61DD
:1054AC003B68DB78482B05D1BB69083301229A4055
:1054BC007B681A61BB690133BB61BB69072BC1D91E
:1054CC007B687A695A6000BF2437BD4680BC704740
:1054DC0080B485B000AF78600B467B800023FB73F3
:1054EC007B689A687B881340002B02D00123FB73E6
:1054FC0001E00023FB73FB7B18461437BD4680BCD0
:10550C00704780B483B000AF78600B467B80134645
:10551C007B707B78002B03D07A887B681A6102E061
:10552C007A887B685A6100BF0C37BD4680BC7047D7
:10553C0080B58AB000AF786039600023FB8400230B
:10554C007B840423BB84574BFB617B689B88FB8467
:10555C00FB8C23F03F03FB8407F10803184600F093
:10556C00D9F93B69FB61FB694F4AA2FB03239B0CF6
:10557C007B84FA8C7B8C1343FB847B68FA8C9A803B
:10558C007B681B889BB223F001039AB27B681A805C
:10559C000023FB843B681B68444A934215D83B6844
:1055AC001B685B00FA69B2FBF3F3BB84BB8C032B67
:1055BC0001D80423BB84FA8CBB8C1343FB847B8CF7
:1055CC0001339AB27B681A8440E03B68DB884BF667
:1055DC00FF72934209D13B681A6813465B0013446F
:1055EC00FA69B2FBF3F3BB840EE03B681A6813460E
:1055FC009B0013449A001344FA69B2FBF3F3BB8487
:10560C00BB8C43F48043BB84BB8CC3F30B03002BD8
:10561C0003D1BB8C43F00103BB84BA8CFB8C1343CA
:10562C009BB26FEA43436FEA5343FB847B8C4FF48A
:10563C00967202FB03F31E4A82FB03129211DB17D4
:10564C00D31A9BB201339AB27B681A847B68FA8CAA
:10565C009A837B681B889BB243F001039AB27B68E8
:10566C001A807B681B88FB84FB8C23F4816323F0FA
:10567C000203FB843B689A883B685B8913439AB2AC
:10568C00FB8C1343FB847B68FA8C1A803B689A89E9
:10569C003B681B8913439AB27B681A8100BF283779
:1056AC00BD4680BD00127A0083DE1B43A08601003C
:1056BC00D34D621080B483B000AF78600B46FB70A2
:1056CC00FB78002B08D07B681B889BB243F001034E
:1056DC009AB27B681A8007E07B681B889BB223F028
:1056EC0001039AB27B681A8000BF0C37BD4680BCA0
:1056FC00704780B483B000AF78600B46FB70FB78CA
:10570C00002B08D07B681B889BB243F480739AB241
:10571C007B681A8007E07B681B889BB223F480733C
:10572C009AB27B681A8000BF0C37BD4680BC7047AC
:10573C0080B483B000AF78600B46FB70FB78002B15
:10574C0008D07B681B889BB243F400739AB27B68C9
:10575C001A8007E07B681B889BB223F400739AB213
:10576C007B681A8000BF0C37BD4680BC704780B484
:10577C0083B000AF78600B46FB70FB789AB27B6805
:10578C001A8200BF0C37BD4680BC704780B483B012
:10579C0000AF78600B46FB701346BB70BB78002BD8
:1057AC0004D0FB7843F00103FB7003E0FB7823F09B
:1057BC000103FB70FB789AB27B681A8200BF0C372E
:1057CC00BD4680BC704780B487B000AF786039604C
:1057DC0000233B610023FB600023BB600023FB75AF
:1057EC007B689B8A9BB2FB607B681B8B9BB2BB600C
:1057FC00BB681B04BB60FA68BB68134323F07F4390
:10580C003B613A693B6813403A689A4202D10123E2
:10581C00FB7501E00023FB75FB7D18461C37BD466C
:10582C0080BC704780B483B000AF7860134B1B68AA
:10583C00124A23F480331360104B1B680F4A23F475
:10584C00802313607B68B3F5803F04D07B68B3F58D
:10585C00802F07D00DE0094B1B68084A43F48033B6
:10586C00136006E0054B1B68044A43F4A023136045
:10587C0000BF00BF0C37BD4680BC70470010024013
:10588C0080B485B000AF786039600023FB600A4BB0
:10589C005B68FB60FB6823F47C13FB607A683B68F5
:1058AC001343FA681343FB60034AFB68536000BF61
:1058BC001437BD4680BC70470010024080B483B0E2
:1058CC0000AF0346FB71044AFB79136000BF0C3731
:1058DC00BD4680BC704700BF6000424280B485B0BA
:1058EC0000AF78600023FB60094B5B68FB60FB68D2
:1058FC0023F00303FB60FA687B681343FB60044AE4
:10590C00FB68536000BF1437BD4680BC704700BFB6
:10591C000010024080B487B000AF786000237B6138
:10592C0000233B610023FB600023BB604F4B5B6893
:10593C0003F00C037B617B69082B11D07B69082B6E
:10594C003AD87B69002B03D07B69042B04D033E05D
:10595C007B68474A1A6033E07B68454A1A602FE03F
:10596C00424B5B6803F470133B61404B5B6803F480
:10597C008033FB603B699B0C02333B61FB68002B63
:10598C0006D13B693B4A03FB02F27B681A6017E0C5
:10599C00364B5B6803F40033002B06D03B69354A69
:1059AC0003FB02F27B681A600AE03B69304A03FB96
:1059BC0002F27B681A6003E07B682D4A1A6000BF14
:1059CC002A4B5B6803F0F0037B617B691B097B61ED
:1059DC00294A7B6913441B78DBB2BB607B681A686D
:1059EC00BB68DA407B685A60204B5B6803F4E06369
:1059FC007B617B691B0A7B611F4A7B6913441B78A3
:105A0C00DBB2BB607B685A68BB68DA407B689A6023
:105A1C00164B5B6803F460537B617B69DB0A7B612B
:105A2C00154A7B6913441B78DBB2BB607B685A68F0
:105A3C00BB68DA407B68DA600C4B5B6803F440436C
:105A4C007B617B699B0B7B610C4A7B6913441B78E4
:105A5C00DBB2BB607B68DA68BB68B2FBF3F27B68D5
:105A6C001A6100BF1C37BD4680BC70470010024055
:105A7C0000127A0000093D000404002014040020E8
:105A8C0080B483B000AF78600B46FB70FB78002BC2
:105A9C0006D0094B9A6908497B6813438B6106E071
:105AAC00054B9A697B68DB43034913408B6100BF4C
:105ABC000C37BD4680BC70470010024080B483B0E8
:105ACC0000AF78600B46FB70FB78002B06D0094BBF
